:020000040800F2
:10000000082E002045010008650600086906000862
:100010006D06000871060008750600080000000063
:100020000000000000000000000000007906000849
:100030007D06000800000000810600088506000813
:100040005F0100085F0100085F0100085F01000810
:100050005F0100085F010008B50600085F010008A5
:100060005F0100085F0100085F0100085F010008F0
:100070005F0100085F0100085F0100085F010008E0
:1000800089060008950600085F0100085F01000866
:100090005F0100085F0100085F010008A106000879
:1000A0005F0100085F0100085F0100085F010008B0
:1000B0005F0100085F0100085F0100085F010008A0
:1000C0005F0100085F0100085F0100085F01000890
:1000D0005F0100085F010008A90600085F01000831
:1000E0005F0100085F0100085F0100085F01000870
:1000F0005F0100085F0100085F0100085F01000860
:100100005F0100085F0100085F0100085F0100084F
:100110005F0100085F0100085F0100085F0100083F
:100120005F0100085F0100085F0100085F0100082F
:10013000DFF80CD00DF066FD0048004769010008AB
:10014000082E00200648804706480047FEE7FEE7E5
:10015000FEE7FEE7FEE7FEE7FEE7FEE7FEE7FEE777
:100160000107000831010008B0B590B007F0F0FBBE
:1001700000244FF4803001210225CDE90B44CDE964
:1001800009440790069108940A91CDE90D504FF467
:10019000E0100F9006A807F059FD0F200221CDE9CD
:1001A00001054FF480600394CDE9040401A807F031
:1001B0004FFF00F03DF800F0F9F800F019F900F0F9
:1001C00091F917200421002209F098FA172009F06C
:1001D000C7FA002007F0A8F800F09CFBFEE700BF7C
:1001E000B0B590B000244FF4803001210225CDE954
:1001F0000B44CDE909440790069108940A91CDE992
:100200000D504FF4E0100F9006A807F01FFD0F20CF
:100210000221CDE901054FF480600394CDE9040487
:1002200001A807F015FF10B0B0BD00BF7047000077
:100230002DE9F04F85B041F218004FF0000A40F66A
:10024000000800224FF00109CDE903AAC4F2020020
:10025000C4F20108016841F010010160016801F079
:10026000100100910099016841F0200101600168CE
:1002700001F0200100910099016841F00401016042
:10028000016801F0040100910099016841F0080142
:1002900001600121006800F00800009000984046CD
:1002A00008F084FA40461021012208F07FFA08F590
:1002B000806501210122284608F078FA08F50067D8
:1002C0004FF470710022384608F070FA032401AE32
:1002D0004FF47C40029401903846314608F088F88B
:1002E0003F20CDF808A0314601903846CDF80CA04B
:1002F00008F07EF84FF0110B02203146CDE9019B4A
:10030000CDF80CA00490404608F072F849F602704F
:10031000029431460190404608F06AF81020CDF86A
:100320000890314601904046CDE903A408F060F8FA
:1003300028463146CDE9019BCDE903A408F058F8E1
:100340004FF61A70029431460190284608F050F892
:100350004FF0040B28463146CDF808A0CDF804B084
:10036000CDF80CA008F044F84FF47070CDF8089068
:10037000314601903846CDE903A408F039F808F574
:1003800040603146CDE901B408F032F80020314632
:10039000C1F2110002902020019002200390284613
:1003A00008F026F805B0BDE8F08F000080B582B0F7
:1003B00041F214000022C4F20200016841F0010180
:1003C00001600021006800F00100019001981020F8
:1003D00009F094F9102009F0C3F91120002100223E
:1003E00009F08CF9112002B0BDE8804009F0B8B9DD
:1003F00080B540F2C84043F200024FF482710023FE
:100400004FF4007C4FF0200EC2F20000C4F2010253
:10041000C0E900210A21C0E90233C0E90433C0E980
:1004200006CEC0E90833C0E90A3109F079FA00289C
:1004300014BFBDE8804080BDFFF7F8BE70B586B040
:10044000002640F60004CDE90466CDE90266C4F258
:100450000104006804F52051884201D006B070BD47
:1004600041F2180002ADC4F20200016841F480516B
:100470000160016801F4805101910199016841F026
:10048000040101602946006800F004000190019811
:1004900002200390A020029003200590204607F040
:1004A000A7FF402003962946029001200490204691
:1004B00007F09EFF06B070BD014640F60000C4F292
:1004C0000100096800F52052914218BF704741F2BF
:1004D0001801C4F202010A6822F480520A60E02185
:1004E00008F088B880B540F2245044F200424FF43E
:1004F000E13100234FF00C0CC2F20000C4F2000204
:10050000C0E90021C0E90233C0E9043CC0E9063378
:100510000BF048F8002814BFBDE8804080BDFFF70D
:1005200085BE00BF2DE9F04385B0002740F60005E9
:100530000446CDE90377CDE90177C4F201052168CE
:10054000A5F54440814202D005B0BDE8F08341F2F8
:10055000180001AEC4F20200416841F4003141606C
:10056000416801F4003100910099016841F00401F3
:1005700001603146006800F00400009000980220FD
:1005800002900420019003200490284607F030FFD9
:1005900008200297314601902846039707F028FF6C
:1005A00040F2B00540F26C094FF08008C2F200053D
:1005B000C4F202092846C5E90097C5E90278C5E9F1
:1005C0000477C5E9067708F023F9002818BFFFF77C
:1005D0002DFE40F2D016002009F1140110226563AF
:1005E000AC62C2F20006C6E90012C6E90208C6E91A
:1005F0000400C6E90600304608F00AF9002818BFD2
:10060000FFF714FE2620032100222663B46209F0BE
:1006100075F8262009F0A4F805B0BDE8F08300BF06
:1006200010B5044644F200402168C4F20000814243
:1006300018BF10BD41F21C0100F54440C4F2020194
:100640000A6822F400320A600C2107F0D3FF606BC5
:1006500008F028F9206B08F025F92620BDE81040A5
:1006600009F08EB8704700BFFEE700BFFEE700BF8D
:10067000FEE700BFFEE700BF704700BF704700BF46
:10068000704700BF07F0AEB940F2B000C2F2000000
:1006900008F046BE40F2D010C2F2000008F040BEA2
:1006A000202008F0A7B800BF40F22450C2F200009A
:1006B0000BF054BE012008F09DB8000082B041F25A
:1006C00018000222C4F20200016841F00101016039
:1006D000016801F0010101910199416841F08051E7
:1006E0004160406800F08050009000980420C4F2FF
:1006F0000100016862F31A61016002B070470000F6
:1007000041F200000022C4F20200CFF6FF020168AD
:1007100041F001010160416811404FF6FF724160F4
:10072000CFF6F662016811400160016821F4802172
:100730000160416821F4FE0141604FF41F018160B6
:100740004EF608504FF00061CEF200000160704795
:1007500041F20400C4F20200016801F00C0241F20F
:100760000021C0F27A01082A16D1026840F600136F
:10077000C0F23D03C2F3834202F1020C026812F49C
:10078000803F02D10CFB03F106E0026812F4003F47
:1007900008BF0B4603FB0CF140F25C024EF2A4537F
:1007A000C2F20002C0F6000311600068C0F303103B
:1007B000185C21FA00F010607047000010224023FE
:1007C000012902EA900203EA800300F0200040EAD7
:1007D000030040F2000342EA0002C2F200034FEAC3
:1007E0001210586008D1302A04D948F2040080B2AF
:1007F00001F0DEBE40F4004080B201F0D9BE00BF7F
:10080000C0F34000704700BF70B540F23014054699
:10081000CDF6CA6401F090FCA04207D006F0A4FE19
:1008200001F08AFCA04234D102F020FF06F04CFD1A
:1008300040F20006C5F3C000C2F20006F06001F00D
:1008400097FB002825DB06F09DFF01F075FCA04218
:100850001FD14021102005F0200201EA850100EAA5
:1008600095001143014308097060327B012A05D1CC
:10087000302994BF40F4004048F2040080B201F0F7
:1008800097FEF068012808D17068032805DD20462E
:1008900070BD4FF0FF34204670BDC5F340002A46BE
:1008A000B06040EA800006EB400000F1220106F152
:1008B000180001F043FC204670BD00BF90F800C056
:1008C00042788378C17862441A4411440279114411
:1008D0004279114482791144C2791144027A114457
:1008E000427A1144827A1144C27A1144027B114443
:1008F000427B1144827B1144C27B1144027C11442F
:10090000427C1144827C1144C27C1144C943416140
:10091000704700BF2DE9F04FADF5577D042006F07C
:1009200093FDC82006F0BCFC06F074FF06F034FD11
:100930000446012006F03CFD800040EA4404022009
:1009400006F036FD44EAC004042006F031FD44EA16
:100950000014082006F02CFD44EA4014102006F094
:1009600027FD44EA8014202006F022FD40F2000B0F
:1009700044EAC010C2F2000B8BF80000C0B2FFF7CF
:1009800043FF013000F02083042006F01DFDC82045
:1009900006F086FC042006F017FDC82006F080FC57
:1009A000042006F011FDC82006F07AFC042006F0B1
:1009B0000BFDC82006F074FC042006F005FDC820DD
:1009C00006F06EFC042006F0FFFCC82006F068FC70
:1009D000042006F0F9FCC82006F062FC042006F0B2
:1009E000F3FCC82006F05CFC042006F0EDFCC820F7
:1009F00006F056FC042006F0E7FCC82006F050FC88
:100A0000042006F021FD022006F066FD06F00EFF30
:100A100002E000BF01F04CFA4FF0000814E0CBE90F
:100A2000048801F077FA00F00F029BF90000B0F1A2
:100A3000FF3F57A8CEBF0FF200614EF67001C0F61F
:100A400000010DF0F1F800BF002001F06BF9044641
:100A500094F8837406F0F4FBD4F88464054601F03E
:100A600041FA0028CBF80C001ED001F04DF9012FFF
:100A70001ED1B4F88A11A81B884219DD0F2001216C
:100A800003F024F81920012103F020F80A200121A5
:100A900003F01CF884F86881DBF80C0000B305F063
:100AA00021F80720A0601EE002F090FB012FE0D0AB
:100AB00001F01EFA0446ECB9DBF80C000028C3D1A3
:100AC000DBE9040140F64052C0F20302013041F17B
:100AD0000001CBE90401801A71F10000B4D39EE754
:100AE000204601F02DFF84F8838401F001FA0446CA
:100AF000002CE1D0CBE9048801F004FA804601F033
:100B000009FA054601F00EFA064605F00F0901F054
:100B100003FD0546DBF80C0050B1484601F0ECFC43
:100B2000074601F053FE012C7FF474AF08E000BFCC
:100B300001F0DAFC074601F049FE012C7FF46AAFB0
:100B40000A900020CDE90D6708F00F07AEB201F062
:100B500003FD0446012001F0FFFC8046022001F065
:100B6000FBFC8246032001F0F7FC09909BF9000092
:100B7000CDE90B96B0F1FF3F03DD3D46DDE9099776
:100B800022E1B9F1030FF8D8DFE809F0021C365270
:100B90000E980F2868DC40F2EC30C2F200000078BA
:100BA000002861D120463D460BF07CFD40460BF00D
:100BB000DFFD50460BF042FEDDF8249048460BF076
:100BC000A3FE00E10E980F287ADC40F2EC30C2F26E
:100BD00000004078002873D120463D460BF0FCFE13
:100BE00040460BF055FF50460BF0AEFFDDF8249069
:100BF00048460CF005F8E6E00E980F2800F38B80CD
:100C000040F2EC30C2F200008078002840F083808F
:100C100020463D460CF058F840460CF0BBF85046D4
:100C20000CF01EF9DDF8249048460CF07FF9CAE07C
:100C30000E980F2800F39A8040F2EC30C2F20000C8
:100C4000C078002840F0928020463D460CF0D2F952
:100C500040460CF02BFA50460CF084FADDF8249054
:100C600048460CF0DBFAAEE040F2EC31012C4FF0DC
:100C70000100C2F20001087005DB20460BF012FDF6
:100C80000CF01DFE0446B8F1010F05DB40460BF0E9
:100C90006FFD0CF014FE8046BAF1010F05DB5046E3
:100CA0000BF0CCFD0CF00BFE8246DDF824903D46A7
:100CB000B9F1010FC0F2878048460BF025FE7FE0B6
:100CC00040F2EC31012C4FF00100C2F200014870FB
:100CD00005DB20460BF080FE0CF0F1FD0446B8F178
:100CE000010F05DB40460BF0D3FE0CF0E8FD80461B
:100CF000BAF1010F05DB50460BF026FF0CF0DFFDCB
:100D00008246DDF824903D46B9F1010F5BDB484691
:100D10000BF076FF54E040F2EC31012C4FF0010073
:100D2000C2F20001887005DB20460BF0CDFF0CF00D
:100D3000C6FD0446B8F1010F05DB40460CF02AF869
:100D40000CF0BDFD8046BAF1010F05DB50460CF0FA
:100D500087F80CF0B4FD8246DDF824903D46B9F1E9
:100D6000010F30DB48460CF0E1F829E040F2EC31AD
:100D7000012C4FF00100C2F20001C87005DB2046D3
:100D80000CF038F90CF09BFD0446B8F1010F05DBBF
:100D900040460CF08BF90CF092FD8046BAF1010F41
:100DA00005DB50460CF0DEF90CF089FD8246DDF8DB
:100DB00024903D46B9F1010F05DB48460CF02EFAB0
:100DC0000CF07DFD81460A9F5E464BF8387F182265
:100DD0000BF1040080E81005E0B2CBF81090C4F3EA
:100DE000072138440844C4F3074108445FFA88F1F6
:100DF00000EB14600844C8F307210844C8F3074116
:100E000008445FFA8AF100EB18600844CAF307212E
:100E10000844CAF3074108445FFA89F100EB1A60FD
:100E20000844C9F307210844C9F307410844594657
:100E300000EB1960C043CBF8140040F22450C2F21A
:100E400000000AF083FF5BF82C0C08953A46234615
:100E500000284FF0610008BF7420CDE9008ACDF86A
:100E600008900C9903910E9904910D99CDE9051004
:100E700057A859A10B9D07950CF0D6FE5BF82C0CDA
:100E8000B3462E4600287FF4C5AD00210025F807A3
:100E9000ADF858101591ADF850101391ADF84810F9
:100EA0001191ADF840100F9117D145F24E548DF8C5
:100EB0005810C4F64C441594B80729D48DF85050F6
:100EC000139478073BD4002111948DF8481038070B
:100ED0004DD48DF840100F945EE020460CF0BCFC21
:100EE0000CF03DFD44F200030022C4F28F030CF02D
:100EF0000EFC0B464EF68C01024615A8C0F600010A
:100F00000CF092FE45F24E54C4F64C44B807D5D5C9
:100F100040460CF0A1FC0CF022FD44F2000300223C
:100F2000C4F28F030CF0F3FB0B464EF68C01024625
:100F300013A8C0F600010CF077FE7807C3D5504621
:100F40000CF08AFC0CF00BFD44F200030022C4F20A
:100F50008F030CF0DCFB0B464EF68C01024611A809
:100F6000C0F600010CF060FE00213807B1D54846FC
:100F70000CF072FC0CF0F3FC44F200030022C4F20B
:100F80008F030CF0C4FB0B464EF68C0102460FA8F3
:100F9000C0F600010CF048FE9BF9000017AC324689
:100FA00015ABB0F1FF3F13A8009011A801900FA856
:100FB00002902046CCBF16A11AA10CF035FE57A80E
:100FC00021460CF0B7F925E5042006F085FA00204B
:100FD0000DF5577DBDE8F08F6D6320253032782008
:100FE000253038782025303878202530387820256D
:100FF000303878202530347820253032782025305C
:10100000387820256325643A25640D0A0000000025
:10101000245425642C25732C25732C25732C2573BF
:101020000D0A0000244B5425642C25732C25732CA9
:1010300025732C25730D0A00245425642C4E554C21
:101040004C2C4E554C4C2C4E554C4C2C4E554C4C1F
:101050000D0A000080B5002005F01EF90020BDE853
:10106000804005F0A5B800BFB0B50446206801284F
:1010700018BFB0BD07200025A060002005F00CF9C6
:1010800084F86851B0BD00BFB0B50546002000F03F
:1010900049FE0446A06D281A04F06EFF032005F0F7
:1010A00087F8002808BFB0BDA06E400080B205F0F0
:1010B000F3F8002005F07CF8B4F86800BDE8B04013
:1010C00005F0EAB8B0B5002000F02CFE044694F814
:1010D000860148B9E06E400080B205F0DDF80220DC
:1010E00084F8690194F88601216D226F551841B288
:1010F000256794F83C211144032917D1022084F874
:101100006801284604F038FF032004F051FF58B36B
:101110000020002504F056FB84F8685194F88601FD
:1011200080B3206D216F01EB400532E090BBD4E924
:101130005810D4E91023A56D090A41EA0060110A8C
:1011400041EA036108442067401B04F015FF0320B7
:1011500005F02EF8B0B3002005F09EF8002005F051
:1011600027F80E20C0B2B0BD206D216F0844206763
:1011700006F066F8C4F88404012084F883040C2087
:10118000C0B2B0BDD4E95812206C090A41EA02612C
:101190000D182567002000F0C5FD0446A06D281A33
:1011A00004F0EAFE032005F003F858B1A06E4000F9
:1011B00080B205F071F8002004F0FAFFB4F868007E
:1011C00005F06AF80E20C0B2B0BD00BF2DE9F043B3
:1011D00081B0814600201E4690460F46002500F053
:1011E000A1FD04461320A4F84601F05BB4F83D11BC
:1011F000A4F87B10A4F8790004EB8900D0F89411CE
:10120000C4F8801004EB090191F8782184F8842057
:1012100081F8785106EB0801497894F8483194F840
:101220003C2184F8763084F87711591C84F84811F1
:1012300004EB8201D0F89401C1F8B401012191407E
:101240004FF6FF72CAF6CD32904208BF002184F8F3
:101250007511206E04F0B6FA94F8F80198B1089868
:10126000B4F88811B0FBF1F202FB1100B4F88A2146
:1012700002FB09F2121AA5EB51008242B8BF0A44E0
:10128000100A154600E0002084F87F00702084F8E2
:101290007E500021012284F87D00132003F038F8ED
:1012A00004F174011320002201B0BDE8F04303F003
:1012B00003B800BF84B010B5A6B00DF1A00C002497
:1012C0008CE80F00002000F02DFD8DF8A040ADF857
:1012D000A24090F986110029A4BF013980F8861137
:1012E0000168012922D1416803291FD190F86911B1
:1012F00028AC022922D100216A4680F86911042114
:1013000041600F2024919021607004F1100050F88A
:10131000043B043942F8043BF9D194E80F0001F092
:101320008BF926B0BDE8104004B07047002004F0EF
:101330003FFF26B0BDE8104004B07047FFF7C2FE83
:101340000E286070F5D0042090216A46249004F1A4
:10135000100050F8043B043942F8043BF9D194E8FA
:101360000F0001F069F926B0BDE8104004B07047E5
:1013700010B5CEB005F064FF2C900020002400F0E2
:10138000D1FC8DF89840ADF89A4090F9861100296B
:10139000A4BF013980F88611016801291AD141687A
:1013A000032917D190F86911022918D100216A4642
:1013B00080F86911042141600F20249190218DF85B
:1013C000990026A8103050F8043B043942F8043B39
:1013D000F9D116E0002004F0EBFE4EB010BDFFF78F
:1013E00071FE0E288DF89900F7D0042090216A46EE
:1013F000249026A8103050F8043B043942F8043BEE
:10140000F9D126AB0FCB01F017F94EB010BD00BFDC
:1014100010B5CEB005F014FF2C900020002400F091
:1014200081FC8DF89840ADF89A4090F9861100291A
:10143000A4BF013980F88611016801291AD14168D9
:10144000032917D190F86911022918D100216A46A1
:1014500080F86911042141600F20249190218DF8BA
:10146000990026A8103050F8043B043942F8043B98
:10147000F9D116E0002004F09BFE4EB010BDFFF73E
:1014800021FE0E288DF89900F7D0042090216A469D
:10149000249026A8103050F8043B043942F8043B4D
:1014A000F9D126AB0FCB01F0C7F84EB010BD00BF8D
:1014B0002DE9F04FF9B005460020002400F032FC81
:1014C00082468DF83C414E9405F0BAFE2C90A888D7
:1014D000ADF89A00A87941280AD1E87900F0CC004B
:1014E000882805D101244FF007084FF0090904E0CE
:1014F0004FF000094FF0000800244EAF384603F0CB
:1015000081F80DF1980BA988002200250BF11C062B
:10151000304602F023FF5846394601F081F84FF477
:101520007060002CADF8980051D0BAF84A019DF8CF
:10153000B720C1B28A427CD19DF8B810B1EB102F10
:1015400077D15FFA89F70BEB0700007F702800F076
:10155000D780822800F0E780812840F011815FFA6F
:1015600088F90BEB0900017F407F41EA0028032046
:1015700005F0B2FFB8F1070F00F20B81DAF80000B6
:10158000012840F006810020032449463A463346AC
:101590008AF86901CAF804402C9800904046FFF789
:1015A00015FEBAF8680004F077FE2B988AF8864199
:1015B000CAF87000FFF786FD4FF6FF718DF89900AD
:1015C0000AEB8800CAF6CD31C0F89411C5E050ACE2
:1015D00026A9A02220460BF089FE002000F0A2FBE5
:1015E0008DF84051ADF8425190F986110029A4BF01
:1015F000013980F88611016801294FD1416803291A
:101600004CD190F8691102294ED100216A4680F828
:101610006911042141600F20249190218DF841012E
:1016200004F1100050F8043B043942F8043BF9D1AE
:101630005FE050AC26A9A02220460BF057FE002008
:10164000002500F06FFB8DF84051ADF8425190F944
:1016500086110029A4BF013980F88611016801298B
:1016600040F091804168032940F08D8090F8691125
:1016700002292CD100216A4680F8691104214160B9
:101680000F20249190218DF8410104F1100050F8B1
:10169000043B043942F8043BF9D12AE0002004F06D
:1016A00087FD79B0BDE8F08FFFF70CFD0E288DF8AF
:1016B0004101F6D0042090216A46249004F11000E4
:1016C00050F8043B043942F8043BF9D111E0FFF72C
:1016D000F9FC0E288DF84101E3D0042090216A46E0
:1016E000249004F1100050F8043B043942F8043B04
:1016F000F9D150AB0FCB00F09FFF79B0BDE8F08F70
:10170000DAF8040003283BD19AF885019AF886118B
:1017100001308AF88501481E8AF88601FFF7D2FC5D
:101720008DF8990019E0032005F08EFEDAF8040028
:10173000032825D1DAF80000012821D10020002457
:1017400004F0AAFD002004F033FD0E208DF899006E
:1017500004208AF86941CAF80400022090216A46F0
:1017600024900BF1100050F8043B043942F8043B7C
:10177000F9D126AB0FCB00F05FFF79B0BDE8F08F59
:10178000002004F089FD002004F012FD79B0BDE8CE
:10179000F08F50AC26A9A02220460BF0A7FD002018
:1017A000002500F0BFFA8DF84051ADF8425190F994
:1017B00086110029A4BF013980F88611016801292A
:1017C000E1D141680329DED190F86911022913D1D2
:1017D00000216A4680F86911042141600F2024919C
:1017E00090218DF8410104F1100050F8043B0439B8
:1017F00042F8043BF9D17CE7FFF764FC0E288DF832
:1018000041013FF44EAF042090216A46249004F138
:10181000100050F8043B043942F8043BF9D168E762
:1018200007210E2808BF08210C2808BF06210846FA
:10183000704700BF2DE9F04F85B006461298144658
:101840009846009400EB80000730C0B2311856F87B
:1018500000A0D6F8020091F804B0B179BAEB00000C
:101860006BEB0101C9B20CF016F807460D46049760
:101870000395DDE90E01001B444661EB0801C9B286
:101880000CF009F83A462B46804689460BF0CDFE0F
:10189000CDE90110D6F81B00F17FB0EB0A0061EB37
:1018A0000B01C9B20BF0F7FF06460F46DDE9100148
:1018B000009A101A64EB0101C9B20BF0ECFF32463A
:1018C0003B4604460D460BF0B0FE02460B46DDE9F2
:1018D00001100BF0A4FE82468B4640464946224644
:1018E0002B460BF0FBFD04460D46DDE903103246A6
:1018F0003B460BF0F3FD02460B46204629460BF013
:10190000EDFD02460B46504659460BF000FF0BF02A
:10191000EFFF05B0BDE8F08F2DE9F04F8BB0044626
:1019200000F0B2FE0646A0680025082800F2BD803F
:10193000DFE800F005BBBBBBBBBB405269002068C1
:10194000012840F09180608EA4F83D0104F23D1022
:1019500002F03AFFB4F84A0102F00CFF608E00F08A
:10196000030184F83C1102F01BFF608E0025B0F5E6
:10197000004F04BF012084F8F801002002F0BAFEF5
:10198000002003F01FFF0720A060002004F084FC6B
:10199000204600F013FE48F64140A4F8DE00B4F8FB
:1019A0004A0184F8E100000A84F8E20028460BB0FE
:1019B000BDE8F08F002000F075FE0178012958D1B4
:1019C000C16880680026C4E9540120690C2804BF5E
:1019D000052020610720A06094F8680118B100205C
:1019E00084F868010AE01920012102F017F840F29A
:1019F0000551884202D0002004F0DAFB08200125BE
:101A0000002EA06051D0CEB30020042E3BD0022E79
:101A100048D100F047FE064610F8252F96F823100F
:101A2000702A55D096F82430822A60D0812A40F05E
:101A3000F08041EA032096F82610204480F87811BF
:101A4000D6E90201C4E95801072170780E2808BFC1
:101A500008210C2808BF0621A16004BF0A202061CC
:101A600028460BB0BDE8F08F002528460BB0BDE836
:101A7000F08F012528460BB0BDE8F08F01252846E0
:101A80000BB0BDE8F08F00F00DFE40780F2810D0AD
:101A90000C280AD10C2020610620A06028460BB03B
:101AA000BDE8F08F00F0FEFD012528460BB0BDE833
:101AB000F08F206800250128F7D10720A0600020C2
:101AC00004F0EAFB84F8685128460BB0BDE8F08FBB
:101AD000727801F0030096F82C100E2A00F0AA800C
:101AE0000C2A40F0A5800B2222610622A1E041EAE7
:101AF000032896F8262004EB080191F8781191420A
:101B000040F0908094F83C11012296F845304FF651
:101B1000FF7BCAF6CD3B8A401A4200F0B28001EB4F
:101B200081010731C9B24218435896F82B10127937
:101B300001930292D6E902900990D6F82700181A6C
:101B400062EB0101C9B20BF0A6FE0746CDF8288072
:101B500088460797CDF81880D4E95810D4E954BACC
:101B6000009109990390B9EB0B0061EB0A01C9B22E
:101B70000BF091FECDE9081043463A46DDF8288087
:101B80000BF053FDCDE90410306C019A96F8441027
:101B9000801A029A9141C9B20BF07DFE0746009867
:101BA00089460399BBEB00006AEB0101C9B20BF057
:101BB00072FE3A464B4682468B460BF036FD024695
:101BC0000B46DDE904100BF02AFDCDE904103A467E
:101BD0004B46DDE906100BF081FC07468946DDE93E
:101BE00008105B464FF6FF7B5246CAF6CD3B0BF022
:101BF00075FC3A464B460BF071FC02460B46DDE99C
:101C000004100BF084FD0BF073FE07464FEAE779F2
:101C10003AE00720A060002003F0D4FD28460BB076
:101C2000BDE8F08F0720A06028460BB0BDE8F08F1C
:101C30000722A260013194F8773104EB8002CFB221
:101C40004FF6FF7102F5DA72CAF6CD319F4210D11C
:101C5000B36A8B4213603FF428AF012101FA00F010
:101C600094F87511084384F8750128460BB0BDE857
:101C7000F08F1068884218BF116028460BB0BDE88D
:101C8000F08F5F464FF000094FF0000A04F2751321
:101C900004210122C4F870A0608EC4E97B0804EB23
:101CA0008800C0F8947104F5DA7000F0E3FDC4F820
:101CB000E80194F8750184F875A184F8760187EA43
:101CC0000B0050EA09000ED094F83C11404600F099
:101CD000C3F894F83C010121814004EB800084F8B2
:101CE0007511C0F8B471B069C4F8F40100F04EFD8C
:101CF00000F02EFD70780E281CBF0720A06028463B
:101D00000BB0BDE8F08F00BF10B5002000F00AF85E
:101D1000044600BF2046FFF7FFFD0028FAD0002050
:101D200010BD000040F270524FF492630021002871
:101D3000C2F2000208BF00FB03210846704700BF43
:101D400080B544F6FA0243F21853C3F6CE32C3F616
:101D5000B1530BF0DCFC48F280430022C4F22E1396
:101D60000BF0D5FC0BF0E3FD80BD00BF2DE9F04189
:101D7000064608460BF07EFD44F6FA0243F218537D
:101D8000C3F6CE32C3F6B1530BF04FFC4DF61953E8
:101D90004FF09852C4F2B1130BF047FC40F2705868
:101DA000044640F200100D46C2F20000C2F20008E4
:101DB00000EBC60740F8364098F8880498F814609D
:101DC0007D6078B1052E10D145F6294242F6F50323
:101DD00020462946CCF28F22C3F6F8730BF097FC0D
:101DE00005260EE0204629460BE042F6F6024FF2A9
:101DF000C25320462946C8F65C72C3F6F4730BF052
:101E000086FC0BF0BFFD98F815200146304605F022
:101E1000C5F802460B46204629460BF000FC00227E
:101E2000002305460E4600240BF0E0FC88B948F676
:101E30000003284631460022C4F2D3030BF0F1FC24
:101E400038B9D8F8E4010124C7E908560130C8F8C8
:101E5000E4012046BDE8F08140F2001240F2202368
:101E6000C2F20002C2F2000302EBC1014A6A096A2F
:101E700043F8301003EBC0004260704740F220216D
:101E8000C2F2000151F8302001EBC0004168104659
:101E9000704700BF40F200110022C2F2000141F879
:101EA000302001EBC0004260C0E90822704700BF4B
:101EB00040F200104FF6E0710022C2F20000C4F2BE
:101EC000EF01C0E90021C0E90221C0E90421C0E915
:101ED0000621C0E90821C0E90A21C0E90C21C0E9B6
:101EE0000E21704740F27050C2F200000068704747
:101EF00040F270510022C2F20001D1F8E801C1F8AD
:101F0000E821704740F27050C2F20000D0F8EC01B6
:101F1000704700BF40F27050C2F20000D0F8F001EC
:101F2000704700BF40F27050C2F20000D0F8F401D8
:101F3000704700BF80B5012004F052FA40F27050A3
:101F40000021C2F20000C0F8E41180F848114FF6F9
:101F5000FF71CAF6CD31C0E96D11C0E96F11C0E95A
:101F60006511C0E96711C0E96911C0E96B1180BD55
:101F7000F0B581B040F27056044604200027C2F24A
:101F80000006C6E900400120B76086F86A7101F0DA
:101F900079F90546032003F01BFF25B14FF0FF340C
:101FA000204601B0F0BD012004F01AFA4FF6FF7090
:101FB000C6F8E47186F8487140F28321CAF6CD3044
:101FC000C6E96D00C6E96F00C6E96500C6E96700AD
:101FD000C6E96900C6E96B0006F5007086F868710D
:101FE00086F86B710BF09BF94DF6CA60C6F841712B
:101FF000C6F83D71A6F84A010020C6F8907103F0BA
:10200000B5FB4DF280000121C2F2234004F0B0F98B
:1020100042F28900012CC0F600000CD141F2B1411E
:1020200041F2713241F21143C0F60001C0F60002E4
:10203000C0F600030BE042F6353142F6452242F687
:10204000BD23C0F60001C0F60002C0F6000303F095
:10205000E9FB00244FF47F40012186F88344A6F871
:102060008501012001F07AFD3467204601B0F0BD02
:1020700080B540F2705040F28321C2F2000000F5BA
:1020800000700BF04CF980BD2DE9F04FA3B04FF07C
:10209000000A8DF888A0CDF884A005F0D1F840F2B0
:1020A00070578146C2F200077868022807D10420E1
:1020B0007860002087F8830423B0BDE8F08F21A862
:1020C00002F06EFAB7F84651E846219C9DF888B0B8
:1020D00007F1740140462A460BF008F997F881048D
:1020E00007F50076842200EB8000410106EB4010EA
:1020F00026F801A0210A4580C0E9024B41EA0B61A4
:10210000C0E90441C0F818901C3041460BF0EEF8CD
:1021100097F88104012200EB8001013049017254DB
:10212000C1B2042908BF002087F88104002087F885
:10213000830423B0BDE8F08F01F086BA2DE9F041A9
:10214000054640F270580C4600211746C2F20008BE
:102150002878464606F8140F687830717071A878B0
:102160007070E878F0712879B0706879F070A879AB
:102170003172B07128897081304601F0F9FD78071D
:102180004EF694014FF09C30C0F6000158BF4FF05E
:10219000B8303061287800EB400011F8200030732F
:1021A00006F10C0001F0BAFD44F26800B08244F27E
:1021B000680002F055F8B08A02F06AF8B08AF0823E
:1021C0002879042806D105F0D5FA002003F006FA94
:1021D00005F0D8FAE088C8F83400A088A8F888018B
:1021E0002088C8F83C00A8F88A016088A8F88C010B
:1021F0002089BDE8F041FFE72DE9F04F87B040F2BC
:1022000070548346C2F20004E57EB5B1012D29D198
:1022100040F2A26044F2006145F6C02AC4F2061002
:10222000C4F2A861C4F65D0A02904FF080400190AC
:1022300045F6D730C4F6E00028E04BF2974044F270
:10224000005145F6B02AC4F23510C4F62801C4F690
:10225000DD1A02904FF04040019045F6E930C4F697
:10226000602013E047F65D7044F2006144F6005AC6
:10227000C4F2E500C4F2A861C4F2387A02904FF0CB
:102280000040019045F61560C4F260700BF05EF8F6
:1022900005904EF214604FF000090695C0F600005C
:1022A00010F80580A07D04384FEAB0000C2821D832
:1022B000DFE800F0070A0D2010132020181B202053
:1022C0001E004FF0854915E04FF0894912E04FF0AC
:1022D0008B490FE04FF086490CE040F20009C4F250
:1022E000C04907E04FF0874904E04FF08A4901E018
:1022F0004FF088494FF48E70206658460BF0BAFABA
:1023000044F6FA0743F21855C3F6CE37C3F6B15573
:102310003A462B460BF0FBF948F280460022C4F205
:102320002E1633460BF0F3F90BF001FBC4E9100154
:102330004FF4967000EB6B000BF09CFA3A462B467C
:102340000BF0E5F9002233460BF0E1F90BF0EFFA60
:10235000C4E9120140460BF088FA014648460AF0EB
:10236000F5FF627D44F2B311C3F68271012A04BF06
:1023700045F6EA31C3F67E710BF040F80BF0EFFA48
:1023800048F20007804689465046CDF810B0C4F2A6
:102390003B5739460AF0DAFF0BF0E1FACDF80CA012
:1023A00044F2000A0022C4F28F0A53460BF0AFF940
:1023B00042464B460BF092F847F20D1646F6DB0B01
:1023C000C8F6AC36C3F6F07B32465B460BF09FF99D
:1023D0000BF08EFA0546394605F11000A066059807
:1023E0000AF0B4FF0BF0BBFA002253460BF08FF952
:1023F00042464B460BF072F832465B460BF087F9CB
:102400000BF076FAD83005F59E7700225346E06649
:1024100006980028384608BF05F533706066DDE988
:1024200001010BF074F942464B460BF057F8324667
:102430005B460BF06CF90BF05BFA6FF00F01081ABA
:102440003844E06503980BF08AFA002253460BF0FB
:102450005EF942464B460BF041F80BF049FA049AFC
:1024600006464FF6E071701944F6FA0501EB620179
:10247000C3F6CE35081A4946A4F854004FF48E70BE
:1024800000EB62002A46801BA0EB470043F218577E
:10249000C3F6B157A4F8560040463B460BF037F957
:1024A00048F280480022C4F22E1843460BF02FF960
:1024B0000BF03DFA000A40EA01601030A06506F515
:1024C00096700BF0D7F92A463B460BF020F9002214
:1024D00043460BF01CF90BF02AFA000A40EA0160AF
:1024E000206507B0BDE8F08F40F27050C2F20000E6
:1024F00090F87701704700BF40F27051C2F20001BE
:10250000084490F87801704740F27051C2F200011F
:10251000084490F88101704740F27050C2F2000008
:10252000D0F8E401704700BF40F2001100F0030052
:10253000C2F2000101EBC000416A006A704700BFAF
:1025400040F2001200F00301C2F2000252F8310022
:1025500002EBC1014968704780B540F2001100F0FC
:10256000030044F200030022C2F20001C4F28F0310
:1025700001EBC000416A006A0BF057F80BF0B8F9A4
:1025800080BD00BF80B540F2001200F0030144F2AC
:102590000003C2F20002C4F28F0352F8310002EBD2
:1025A000C101002249680BF040F80BF0A1F980BD91
:1025B00040F27051C2F200014886704748F641016E
:1025C000A0F87410002180F87610B0F84A1180F855
:1025D0007710090A80F87810704700BFB0B504463C
:1025E0000D4600210122B4F8460101F091FE012DB3
:1025F00002D1206F03F0C0FC94F868012843C0B2F8
:1026000003F0D6FC012508B12846B0BD04F018FE41
:10261000C4F8840484F8835400252846B0BD00BF64
:102620000A6802610B79C0E902230979090641EAC7
:1026300012214161704700BF84B0B0B540F27054C0
:102640000DF1100C8CE80F00C2F2000404A9A022C6
:1026500094F8810404F5007500EB800005EB401050
:102660000AF044FE94F881042C9A00EB80010130BA
:1026700049016A54C1B2042908BF002084F88104CA
:10268000BDE8B04004B0704740F27050C2F20000A4
:1026900090F8821401EB810100EB411090F80002E8
:1026A000704700BF2DE9F04381B040F27059C2F28B
:1026B000000999F8805405EB850009EB401090F86B
:1026C000006276B340F2284790F8011200F5027CD0
:1026D00000F50078C2F200077970B0F8021207F135
:1026E000080E79809CE81E108EE81E1000F5077118
:1026F00007F11C007F220AF0F9FD00203E7088F8E7
:102700000000681CC1B2042908BF002089F88204B7
:1027100089F8800440F22840C2F2000001B0BDE810
:10272000F08340F228400021C2F20000017040F224
:102730002840C2F2000001B0BDE8F08340F27051C1
:102740000122C2F2000181F83020C862704700BF48
:10275000B0B540F27054C2F2000494F83000012881
:1027600018BFB0BDE26A1E200021002501F03AFA30
:1027700084F83050B0BD00BF40F27052C2F2000287
:1027800051851085012082F83100704710B540F264
:102790007054C2F2000494F83100012818BF10BD33
:1027A000608D01F05DFD208D01F072FD002084F848
:1027B000310010BD40F27050C2F20000008D704731
:1027C00040F27050C2F20000408D704740F27051EC
:1027D0000022C2F2000191F8760181F8762170475B
:1027E00010B54FF082410AF009FE00210446C4F200
:1027F000A5310AF035FE0BF099FE0BF060F800EB06
:10280000400000010BF028F8014620460AF09EFD2A
:1028100040F27051C2F20001C97E01290ED0D9B92F
:1028200044F2005443F28541C4F62804C4F2006126
:102830000AF0E4FD21460AF089FD10BD44F200646F
:1028400043F27B41C4F2A864C4F280410AF0D6FD91
:1028500021460AF07BFD10BD44F2006443F2C351EF
:10286000C4F2A864C4F200310AF0C8FD21460AF09F
:102870006DFD10BD2DE9F04F81B089469A4607469F
:1028800000260092B9F1000F32D040F200144FF64A
:10289000FF7B00254FF00008C2F20004CAF6CD3BD2
:1028A00057F82510594515D00EE000BF47F825B060
:1028B000013508348046A94504BF01B0BDE8F08F5A
:1028C00057F82510594505D02846FFF74FFA01283B
:1028D0000098EBD001209AF80010A84021EA0000EF
:1028E0008AF800004046C4E90066C4E90866DDE7EE
:1028F000002001B0BDE8F08FB0B505460020FFF71D
:1029000011FA0446A06D281A03F036FB032003F0E9
:102910004FFC002808BFB0BD002003F013FDA06EDF
:10292000400080B203F0B8FC002003F041FC03201B
:1029300003F008FDB4F86800BDE8B04003F0ACBC9B
:1029400010B5044694F8750120B12069042809D116
:1029500003F0C8F8012084F86A0103200121C4E9CA
:10296000021010BD04200121C4E9021010BD00BFF7
:10297000B0B500F0030500200C46FFF7D3F9032D96
:102980000BD090F98611012907DB74B945B1022DEE
:1029900008D0012D09D1022105E00F20C0B2B0BD41
:1029A000032100E0012180F88611026DD0F8580162
:1029B000C1F1050101FB0200FFF79EFF0E20C0B22E
:1029C000B0BD00BF84B0B0B5A6B00DF1A80C002515
:1029D0008CE80F000020FFF7A5F941682AAC052913
:1029E00016D090F88611013980F886110020FFF783
:1029F00099F990F9861101290ADB026DD0F8580186
:102A0000C1F1050102FB0100FFF776FF0E2000E097
:102A10000F2025706070042090216A466580249004
:102A200004F1100050F8043B043942F8043BF9D19A
:102A300094E80F00FFF700FE26B0BDE8B04004B0F8
:102A4000704700BF10B5CEB004F0FAFB2C90002008
:102A50000024FFF767F94168052916D090F8861120
:102A6000013980F886110020FFF75CF990F9861192
:102A700001290ADB026DD0F85801C1F1050102FB02
:102A80000100FFF739FF0E2000E00F208DF898407D
:102A90008DF89900042090216A46ADF89A40249060
:102AA00026A8103050F8043B043942F8043BF9D111
:102AB00026AB0FCBFFF7C0FD4EB010BD10B5CEB0AA
:102AC00004F0BEFB2C9000200024FFF72BF9416896
:102AD000052916D090F88611013980F8861100205A
:102AE000FFF720F990F9861101290ADB026DD0F871
:102AF0005801C1F1050102FB0100FFF7FDFE0E20A8
:102B000000E00F208DF898408DF899000420902166
:102B10006A46ADF89A40249026A8103050F8043B3D
:102B2000043942F8043BF9D126AB0FCBFFF784FD03
:102B30004EB010BD2DE9F047F8B005460020002446
:102B4000FFF7F0F880468DF83C414E9404F078FB96
:102B50002C90A888ADF89A00A879412810D1E8797E
:102B60004FF0000900F0CC008828A0F18800B0FAEE
:102B700080F004BF4FF0090907244FEA501A03E020
:102B80004FF000094FF0000A4EAF384601F03AFD11
:102B9000A98826AD002205F11C06304601F0DEFBB7
:102BA00028463946FFF73CFD4FF47060BAF1000F3C
:102BB000ADF898002BD016F80900702803D1D8F88A
:102BC0000400002875D050AC26A9A02220460AF0A7
:102BD0008DFB00200025FFF7A5F8416805294ED0A0
:102BE00090F88611013980F886110020FFF79AF8D5
:102BF00090F98611012942DB026DD0F85801C1F12C
:102C0000050102FB0100FFF777FE0E2038E050AC13
:102C100026A9A02220460AF069FB00200025FFF724
:102C200081F84168052916D090F88611013980F89D
:102C300086110020FFF776F890F9861101290ADB4A
:102C4000026DD0F85801C1F1050102FB0100FFF748
:102C500053FE0E2000E00F208DF840518DF8410109
:102C6000042090216A46ADF84251249004F11000EE
:102C700050F8043B043942F8043BF9D112E00F202C
:102C80008DF840518DF84101042090216A46ADF83D
:102C90004251249004F1100050F8043B043942F8EA
:102CA000043BF9D150AB0FCBFFF7C6FC78B0BDE8C1
:102CB000F08798F88601345D013888F88601002095
:102CC000FFF730F804F00304032C0AD090F98611C2
:102CD000012906DB3CB1022C07D0012C08D10221CE
:102CE00004E00F200EE0032100E0012180F88611AE
:102CF000026DD0F85801C1F1050101FB0200FFF798
:102D0000FBFD0E208DF8990001206A4698F8751198
:102D1000A040084388F8750104EB84009DF83C113D
:102D2000404480F888104E99C0F884100220902109
:102D3000249005F1100050F8043B043942F8043B9C
:102D4000F9D126AB0FCBFFF777FC78B0BDE8F08761
:102D5000F0B581B00446FFF797FCA168002509296A
:102D600000F2C281DFE811F00A003F006F00A4000A
:102D7000EA00C0011901C0012B016E01182001F009
:102D8000B9FC608EA4F83D0104F23D1001F01CFD79
:102D9000B4F84A0101F0EEFC608EC4F8F00101F0D5
:102DA000FFFC012003210025C4E9020184F86A0127
:102DB00084F87751C4F89051606BA06340F24110E1
:102DC000A17D04294FF0070108BF40F2C11002F0B5
:102DD0006DFB2046FFF7F2FB04F032FAC4F86C01F9
:102DE000284601B0F0BDE068032840F0548194F813
:102DF0006A11002900F04F810920A06094F8770142
:102E0000013084F8770102F04FF994F87501002839
:102E100000F0A78104F2751304F5DA700421012291
:102E2000FFF728FDC4F8E801002194F8750184F843
:102E3000751184F8760104F003FAC4F8F401022550
:102E4000284601B0F0BDC5200022002604F8D20FAC
:102E500094F8760021466070013084F876000C20EA
:102E600001F02AFA0C2000210122012501F050FA7C
:102E70000227052084F8967044F8CE0C84F8A360ED
:102E800054F86A0C400080B203F006FA54F8760C4D
:102E900002F098FC94F8960003F08AF8082084F871
:102EA000985044F8CA0C44F8C27C284601B0F0BDE2
:102EB00081200022002684F87D000D20A4F8460120
:102EC0004FF6FF70A4F8790094F8480194F8771150
:102ED00084F87E1084F876000130618E84F87B10CF
:102EE00084F84801080A04F1740184F87C000D207C
:102EF00001F0E2F9E06D02F065FC042084F886013F
:102F0000B4F8680003F0C8F90320032703F01AFAA5
:102F1000022000210122012584F8680184F87561EE
:102F2000B4F8460101F0F4F90220666003F040F8BD
:102F30000620A0602761284601B0F0BD8220002550
:102F400084F87D002C20A4F8460194F8480194F8F8
:102F5000751194F8772184F87E2084F89D1084F808
:102F60007600013004F17401002284F848012C201D
:102F700001F0A2F92046012184F868510125FFF7EC
:102F80002DFB002800F095800320C4E9025084F84E
:102F90006A510025284601B0F0BD0020FFF782FBF2
:102FA000017801297DD12369042B40F0A080032002
:102FB00001210025C4E90210284601B0F0BD042813
:102FC00000F08080022840F08E800020FFF76AFB2E
:102FD00090F82510702940F0B78090F8231090F8F1
:102FE000243090F82C2041EA0323B3F5004F0AD196
:102FF00090F8263090F827700026E66343EA07230E
:103000001BB2C4F890314378013201F00301D6B20B
:103010004FF6FF720E2BCAF6CD321CBF0423A360FD
:1030200094F8777104EB810303F5DA73BE4240F044
:10303000A980806A9042186040F0B480002528463C
:1030400001B0F0BD00200025FFF72CFB007804281C
:103050002BD184F86A51E068C4E9020504F0F0F865
:10306000C4F86C01032004F037FA04F095FA01204B
:1030700002F0AEFE208D01F00BF904F23D1001F0DC
:10308000A3FBFFF783FBFFF763FB032004F0DCF9EE
:10309000284601B0F0BD0025C4E90205284601B06C
:1030A000F0BD0125284601B0F0BD0125284601B03C
:1030B000F0BD042020610620A06084F86A512846F3
:1030C00001B0F0BD00200025FFF7ECFA40780F2892
:1030D0004BD00C2808D10C20002520610620A060D0
:1030E000284601B0F0BD0125284601B0F0BDD0E969
:1030F0000221032BC4E954214069C4F858011DD1B1
:10310000D4E9103704F5A870D21840F2FF1322EA70
:103110000302238D7941C9B29B184FEA1222C4F8E9
:10312000983041F1000342EA016184F89C30216744
:103130000168C4F87F10007984F883000820012515
:10314000A060284601B0F0BD94F8750120B1206957
:1031500004281FD102F0C6FC012084F86A01032074
:1031600019E00225284601B0F0BD94F8750120B1A0
:103170002069042821D102F0B5FC012084F86A01FD
:1031800003201BE018680025904218BF1A602846EB
:1031900001B0F0BD042001210025C4E90210284639
:1031A00001B0F0BD01200025884094F87511084356
:1031B00084F87501284601B0F0BD042001210025E6
:1031C000C4E90210284601B0F0BD00BFB0B5CEB0D2
:1031D00000200025FEF7A6FD0446002D06D100BF05
:1031E0002046FFF7B5FD0546002DF9D0022D0ED182
:1031F0000120002384F86B01D4E90E01D4F890215A
:10320000C4F8903108441044C4F8700103E094F805
:103210006B0101281ED104F26B1504F011F8D4E9FA
:103220005B12401A904215D9002090216A462870FE
:103230008DF89800ADF89A000420249026A810304C
:1032400050F8043B043942F8043BF9D126AB0FCBCC
:10325000FFF7F2F900204EB0B0BD0000002804BF17
:103260004FF0FF30704740F2F031C0EBC000C2F2C7
:10327000000101EBC00040F2A001C2F200010860B1
:10328000002070472DE9F04F85B040F2A00B0446B6
:103290000DF10D074FF000090DF111010422042575
:1032A000C2F2000B3B46DBF8000080F81A9080F871
:1032B0001190A0F81890C0E90A99C0E90C99012072
:1032C0008DF8119003F082FF40F23011DDF80D000F
:1032D000CDF6CA61884240F05F81019400F0C6F9E2
:1032E00036200DF1110602223B468DF81100012017
:1032F000314603F06BFF9DF80D00314601223B463D
:1033000000F0FC0040F001008DF80D00B6208DF8B3
:103310001100012003F026FF4FF4FB707B1C3146A7
:103320000122ADF811000220029303F01BFFA4203C
:103330000DF10D03314601228DF80D508DF811006D
:10334000012003F00FFF1E20314602223B46ADF85C
:103350000D0040F2ED40ADF81100022003F002FF35
:103360004FF0030A40F2ED650DF10D0302203146E6
:1033700001228DF80DA0ADF8115003F0F3FE0DF110
:103380000D030220314601228DF80D90ADF8115049
:1033900003F0E8FE0DF10D0440F66D2802203146E1
:1033A00004222346ADF8118003F010FF9DF80D00B4
:1033B000DBF8001002223B4600909DF80E00487298
:1033C00004203146ADF80D0040F2ED40ADF811009B
:1033D000022003F0C7FE0DF10D0302203146012249
:1033E0008DF80DA0ADF8115003F0BCFE0DF10D03EA
:1033F0000220314601228DF80D90ADF8115003F0F6
:10340000B1FE0220314604222346ADF8118003F0BC
:10341000DDFE9DF80D00A0B102200DF111010DF1AE
:103420000D0301228DF80D0041F2ED20ADF81100E1
:10343000022003F097FEDBF80000018B41F480517D
:10344000018306200DF111060DF10D0940F2ED4B3F
:103450000222ADF80D00022031464B46ADF811B006
:1034600003F080FE4FF0030A0DF10D0302203146F8
:103470000122ADF811508DF80DA003F073FE002766
:103480000DF10D03022031460122ADF811508DF8E7
:103490000D7003F067FE0DF10D0440F66D2802205B
:1034A000314604222346ADF8118003F08FFE40F22E
:1034B000A001DDF80D0002224B46C2F200010968AE
:1034C00008600720ADF811B040F2A00B3146ADF80E
:1034D0000D000220C2F2000B03F044FE0DF10D03BB
:1034E0000220314601228DF80DA0ADF8115003F0F5
:1034F00039FE0DF10D030220314601228DF80D70C9
:10350000ADF8115003F02EFE02203146042223466E
:10351000ADF8118003F05AFE0099DDF80D000DF1B1
:103520000D0311F01F0108BF1021DBF800201174FA
:10353000506041F06000314601228DF80D0040F6E8
:10354000EB60ADF81100022003F00CFE0198C007FB
:1035500028D140F276500DF111040DF10D05022233
:10356000ADF81100022021462B4603F02FFE9DF8F6
:103570000E109DF80D0002222B4601F0FD018DF882
:103580000E108DF80D0040F2F6502146ADF81100F6
:10359000022003F0E7FD0DE04FF0FF35284605B0AF
:1035A000BDE8F08F00F0DAF9DBF80000018B41F4A0
:1035B0000061018336200DF111060DF10D04022288
:1035C0008DF8110001203146234603F0FFFD002550
:1035D0003146012223468DF80D509DF80E0000F073
:1035E000FE008DF80E00B6208DF81100012003F0CA
:1035F000B9FD4FF4FB70029B31460122ADF811007A
:10360000022003F0AFFD40F6EC200DF10D03314632
:1036100001228DF80D50ADF81100022003F0A2FD3B
:1036200004200DF10D03314604228DF81100012014
:1036300003F0CCFDDDF80D00DBF8001048612846F2
:1036400005B0BDE8F08F00BF80B582B000200DF15D
:1036500005010DF1010304228DF80500012003F09E
:10366000B5FDDDF8010002B080BD00BFF0B583B04C
:10367000362001AC0DF10205022202278DF804006C
:10368000012021462B4603F0A1FD9DF802002146B2
:1036900001222B4600F0FC0040F001008DF80200F2
:1036A000B6208DF80400012003F05CFD4FF4FB70A0
:1036B0006B1C21460122ADF80400022003F052FDEC
:1036C00040F2F6400026214602222B46ADF80400C7
:1036D0000220ADF8026003F045FDAC202146022235
:1036E0002B46ADF802608DF80400012003F03AFD8E
:1036F00040F2EC600DF10703214601228DF80760CE
:10370000ADF80400022003F02DFD4FF43B7502AB31
:103710000220214601228DF80860ADF8045003F024
:1037200021FD0DF109030220214601228DF80970C7
:10373000ADF8045003F016FD40F2F6350DF10A0322
:103740000220214601228DF80A60ADF8045003F0F2
:1037500009FD012003F000FDF0200DF10B032146CF
:103760000122ADF804508DF80B00022003F0FAFCA2
:1037700040F2A000C2F200000068867603B0F0BDFF
:10378000B0B582B0054636200DF103040DF10501F8
:1037900002228DF805000120234603F017FD0E2DAF
:1037A0004DD8DFE805F0080A134C4C4C4C1A284C55
:1037B0004C343A404700012109E0002001218DF8F6
:1037C00003009DF8040020F0010037E002219DF87D
:1037D000030061F30100002130E09DF803009DF833
:1037E000041000F0B30040F048008DF8030061F0D1
:1037F0007F00012122E09DF803009DF8041000F0F5
:10380000B3008DF8030001F07F00012116E09DF860
:103810000400012140F0020010E09DF804000121A5
:1038200020F002000AE09DF80300022161F3051078
:10383000002103E0012103208DF803106054B6201D
:103840000DF10505012223468DF8050001202946CA
:1038500003F088FC4FF4FB70631C29460122ADF88D
:103860000500022003F07EFC02B0B0BD80B582B03E
:103870008DF804200A0409D040F0C0008DF805003E
:1038800088B2802807D2012002230CE040F080019A
:103890000020012307E041F0800003238DF806009B
:1038A000C1F3C81102200DF10502115498B211465E
:1038B00001AB012203F056FC02B080BDB0B584B06C
:1038C0008DF80500000A0DF107040DF10503022231
:1038D0008DF8060040F2ED402146ADF807000220C9
:1038E00003F040FC032040F2ED650DF10A03214690
:1038F00001228DF80A000220ADF8075003F032FCD7
:1039000000200DF10B0321460122ADF807508DF880
:103910000B00022003F026FC40F66D2003AB21468D
:103920000422ADF80700022003F050FC039804B015
:10393000B0BD00BF80B582B0032101AB012261F3AD
:103940005F100DF105018DF8040040F6EB60ADF855
:103950000500022003F006FC02B080BD2DE9F04313
:1039600083B00DF109040DF107054FF03608012071
:10397000022221462B468DF8098003F027FC40F2F5
:1039800001304FF0B609214601222B46ADF8070061
:1039900001208DF8099003F0E5FB6E1C4FF4FB77D6
:1039A0000220214601223346ADF8097003F0DAFB0C
:1039B0004FF40040214602222B46ADF8070040F2AA
:1039C000ED60ADF80900022003F0CCFB012003F00C
:1039D000C3FB0120214602222B468DF8098003F00B
:1039E000F5FB0020214601222B468DF809908DF829
:1039F00007009DF8080000F0FE008DF80800012087
:103A000003F0B0FB0220214601223346ADF80970D5
:103A100003F0A8FB03B0BDE8F08300BF80B582B01F
:103A20000A040AD040F040008DF8050088B28028D2
:103A300006D20122022308460AE00022012307E001
:103A400041F08000022203238DF80600C1F3C81064
:103A50000DF10501885498B20DF10303022203F021
:103A6000B5FB9DF803009DF8041040EA012002B068
:103A700080BD00BF80B582B08DF80320120A8DF89A
:103A800004200A0409D040F0C0008DF8050088B277
:103A9000802807D2012002230CE040F080010020A2
:103AA000012307E041F0800003238DF80600C1F3F5
:103AB000C81102200DF10502115498B211460DF102
:103AC0000303022203F04EFB02B080BD80B582B03A
:103AD0000A040AD040F040008DF8050088B2802822
:103AE00006D20122022308460AE00022012307E051
:103AF00041F08000022203238DF80600C1F3C810B4
:103B00000DF10501885498B20DF10103042203F070
:103B10005DFBDDF8010002B080BD00BF40F2A000F7
:103B2000C2F200000068407A704700BF80B582B0E2
:103B300000280DF105010DF103034FF0020214BF3F
:103B400040F674300020ADF8030042F2F660ADF8A4
:103B50000500022003F006FB02B080BDF0B583B083
:103B6000074626200DF105050DF109040E46042235
:103B70008DF80900012021462B4603F027FB9DF814
:103B800007209DF808309DF806109DF80500002FCD
:103B900042EA03222B4641EA022143F60072CFF6A5
:103BA000F07202EA01214FF0040240EA010018BF5E
:103BB00040F48020002E18BF40F4A030010A8DF898
:103BC00005008DF80610010C000E8DF807108DF819
:103BD0000800A62021468DF80900012003F0C2FA52
:103BE00003B0F0BD80B582B0130A8DF801208DF8C6
:103BF0000230130C120E8DF803308DF804200A04E5
:103C000009D040F0C0008DF8050088B2802807D2A6
:103C1000012002230CE040F080010020012307E096
:103C200041F0800003238DF80600C1F3C811022083
:103C30000DF10502115498B211460DF10103042251
:103C400003F090FA02B080BD80B582B008430DF158
:103C5000020303228DF80200010A000C8DF8031004
:103C60008DF8040040F6E6000DF10501ADF8050001
:103C7000022003F077FA02B080BD00BF80B582B0A9
:103C800049B140F0C00080298DF8050009D24FF0FD
:103C9000010E02200DE040F080014FF0000E0120E7
:103CA00007E041F08000C9094FF0020E8DF80600D0
:103CB00003200DF1050C80B20CF80E10614603F0E4
:103CC00051FA02B080BD00BF80B582B008430DF14B
:103CD000020303228DF80200010A000C8DF8031084
:103CE0008DF8040040F6E6400DF10501ADF8050041
:103CF000022003F037FA02B080BD00BF40F2A000FE
:103D0000C2F2000000680068704700BF40F2A000E7
:103D1000C2F2000000684068704700BFB0B582B0D2
:103D200004460DF101056B460122207829468DF8E5
:103D3000000040F6EA30ADF80100022003F012FA6C
:103D4000606801AB0422010A8DF805108DF80400AB
:103D5000010C000E8DF806108DF807009E202946F4
:103D60008DF80100012003F0FDF902B0B0BD00BFE5
:103D70002DE9F04F83B004464EF2366194F800907E
:103D80006079C0F60001E67994F801B031F810705E
:103D9000A9F10700002EB0FA80F04FEA5011A9F106
:103DA0000400B0FA80F04FEA501340F2A000C2F2D3
:103DB00000000068426905D022F480024FF0080834
:103DC0003E4604E042F48002FE084FF00B084261D8
:103DD00043EA010A217A13460DF1090561F3114303
:103DE000017229464361100A8DF80600180C8DF8FF
:103DF00005200DF105038DF80700100E04228DF843
:103E0000080084208DF80900012003F0ABF91FFAA7
:103E100088F00DF105032946022227FA00F08DF8FB
:103E2000060050208DF805608DF80B0048F2EE403A
:103E3000ADF80900032003F095F96D2048F2EE6615
:103E40000DF10503294601228DF8050010208DF89B
:103E50000B000320ADF8096003F084F907200DF191
:103E600009010DF1050302228DF80500ABF10100F7
:103E70005FFA80FBBBF1000F0CBF162006208DF807
:103E8000060030208DF80B000320ADF8096003F028
:103E900069F94EF2C8500DF105060DF1090504222D
:103EA000C0F60000334610F809704EF21860C0F6F4
:103EB000000050F82700010A8DF805008DF8061063
:103EC000010C000E8DF807108DF8080040F2EB7021
:103ED0002946ADF80900022003F044F94EF23060A3
:103EE0000DF1050329460122C0F60000C05D8DF8E2
:103EF000050040F6EB30ADF80900022003F032F97E
:103F00004EF662000DF1050329460122C0F60000BD
:103F100010F80A008DF8050040F6E830ADF8090009
:103F2000022003F01FF94EF6F40004223346C0F6D7
:103F3000000050F82700010A8DF805008DF80610E2
:103F4000010C000E8DF807108DF8080040F6E840CF
:103F50002946ADF80900022003F004F94EF6640288
:103F6000E179A0790DF10506C0F60002334602EBB7
:103F70008101022231F8100029468DF80500000A5F
:103F80008DF8060040F2E720ADF80900022003F0AA
:103F9000E9F84EF21060294602223346C0F60000CE
:103FA00030F81B008DF80500000A8DF8060040F27D
:103FB000E740ADF80900022003F0D4F8E079A8B199
:103FC000A07804281DD140F2E7600DF10905102604
:103FD0000DF105030222ADF8090002202946ADF8D3
:103FE000056003F0BFF88DF805601DE064200DF159
:103FF00009010DF105030222ADF8050040F2E7606A
:1040000018E020200DF109050DF105030222ADF89D
:10401000050040F2E7602946ADF80900022003F0F0
:10402000A1F828208DF8050042F2E7600DF10503A4
:1040300029460122ADF80900022003F093F84EF260
:10404000F050E1780DF105030422C0F6000000EB0A
:104050000B1050F82100010A8DF805008DF80610AC
:10406000010C000E8DF807108DF8080040F6E700EF
:104070000DF10901ADF80900022003F073F8608921
:1040800008B1010A04E041F24100102160814120A1
:104090008DF806108DF8050042F2E7000DF10905D4
:1040A0000DF105060222ADF809000220294633462B
:1040B00003F058F84EF2C0570DF105030422C0F684
:1040C00000073868010A8DF805008DF80610010C0C
:1040D000000E8DF807108DF8080040F6E3402946E1
:1040E000ADF80900022003F03DF807EB4B0029462C
:1040F0000222334680888DF80500000A8DF80600FC
:1041000040F2E340ADF80900022003F02BF8A0795B
:104110000027B8B14EF21461E0790DF105030122D8
:10412000C0F60001085C0DF109018DF80500A12021
:104130008DF80900012003F015F84FF440104FF4FA
:10414000003101E00021002062784FF440252379FE
:1041500066798DF8067005EA824209F00F0569F369
:10416000071529438DF805500DF1090508434FF057
:10417000F861104301EA835104220843010C40EA2C
:10418000C6600DF10506000E8DF80710294633466E
:104190008DF808009F208DF80900012002F0E2FF51
:1041A0006078A178E2793346084340F2A001C0B2BA
:1041B000C2F200010004096840EA4230C8605101BF
:1041C000000C04228DF806108DF805708DF807009C
:1041D000882029468DF808708DF80900012002F02A
:1041E000C1FF42200DF10503294601228DF805008B
:1041F0008D208DF80900012002F0B4FF03B0BDE866
:10420000F08F00BFB0B582B004466D2048F2EE6575
:104210000DF103010DF1020301228DF802001020BF
:104220008DF805000320ADF8035002F09BFF072036
:10423000002C0DF103010DF106034FF002028DF881
:10424000060014BF062016208DF8070030208DF8D8
:1042500005000320ADF8035002F084FF02B0B0BDAA
:1042600080B582B08DF80300000A0DF105010DF153
:10427000030302228DF8040030208DF8070048F275
:10428000EE40ADF80500032002F06CFF02B080BDE7
:1042900080B582B08DF80300000A0DF105010DF123
:1042A000030302228DF8040098208DF805000120F8
:1042B00002F058FF02B080BD80B582B08E46111862
:1042C000B1F5806F82BF4FF0FF3002B080BDA0F12A
:1042D000020C3AB1C920802A8DF8050006D20120CF
:1042E00002230AE089220020012306E042F0800038
:1042F000D20903238DF8060002200DF105010A54AE
:1043000098B26246734602F02DFF002002B080BDD5
:1043100080B582B0D2030DF1010342EA815140F22F
:10432000A002C2F200021268D268104304228DF883
:1043300001000843010A8DF80210010C000E8DF8EF
:1043400003108DF8040088200DF105018DF805009B
:10435000012002F007FF02B080BD00BF80B582B02F
:104360008C468646002A07D05120802A8DF8050009
:1043700006D2012002230AE011220020012306E0D8
:1043800042F08000D20903238DF8060002200DF1CF
:1043900005010A5498B26246734602F017FF02B054
:1043A00080BD00BF80B582B059B140F04000802987
:1043B0008DF805000AD24FF0010C4FF0020E0846AE
:1043C0000DE04FF0000C4FF0010E08E041F08000CE
:1043D0004FF0020C4FF0030E8DF80600C8090DF1E6
:1043E000050101F80C001FFA8EF002F0EFFE02B09A
:1043F00080BD00BF2DE9F04F83B0074636200DF198
:1044000007050DF109041646884602224FF00109FE
:104410008DF80900012021462B4602F0D7FE9DF8B9
:1044200007009DF808104FF0B60A01222B468DF8C0
:1044300009A000F0B30041F0800140F048008DF881
:10444000081021468DF80700012002F08BFE01358F
:104450004FF4FB7B0220214601222B46ADF809B028
:1044600002F080FE002E08D06520802E8DF8090015
:1044700006D201204FF002090AE02526002007E0BD
:1044800046F08000F6094FF003098DF80A0002207B
:1044900026541FFA89F0214642463B4602F096FE1A
:1044A00036200DF10706214602228DF80900012071
:1044B000334602F08BFE9DF807009DF8081001229C
:1044C00033468DF809A000F0B3008DF8070001F025
:1044D0007F0021468DF80800012002F043FE0220F3
:1044E000214601222B46ADF809B002F03BFE03B095
:1044F000BDE8F08F70B584B0044640F255500DF120
:1045000009050DF107060222ADF80900022029462F
:10451000334602F05BFE9DF807009DF8081002226A
:10452000334640EA01202946E0812E208DF809001B
:10453000012002F04BFE9DF807009DF80810231D96
:10454000082240EA01202946208012208DF8090027
:10455000012002F03BFE40F255702946022233460C
:10456000ADF80900022002F031FE9DF807009DF829
:10457000081003AB042240EA012029466080102085
:104580008DF80900012002F021FE9DF80E009DF833
:104590000F1040EA01200009A08104B070BD00BFE7
:1045A00080B582B0034617200DF1050105228DF874
:1045B0000500012002F00AFE02B080BD80B582B085
:1045C00040F257100DF105010DF101030422ADF881
:1045D0000500022002F0FAFDDDF8010002B080BD06
:1045E00080B582B017200DF105010DF10103042201
:1045F0008DF80500012002F0E9FDDDF8010002B0B0
:1046000080BD00BF80B582B0034615200DF10501C5
:1046100005228DF80500012002F0D8FD02B080BD12
:1046200080B582B040F255100DF105010DF1010386
:104630000422ADF80500022002F0C8FDDDF80100FB
:1046400002B080BD80B582B015200DF105010DF1DD
:10465000010304228DF80500012002F0B7FDDDF80A
:10466000010002B080BD00BF80B582B04FF4A370DE
:104670000DF105010DF101030422ADF80500022042
:1046800002F0A4FDDDF8010002B080BD80B582B06B
:10469000034606200DF1050105228DF805000120D5
:1046A00002F094FD02B080BD80B582B00A040AD049
:1046B00040F040008DF8050088B2802806D2012223
:1046C000022308460AE00022012307E041F08000AF
:1046D000022203238DF80600C1F3C8100DF1050175
:1046E000885498B201AB012202F070FD9DF80400DD
:1046F00002B080BD10B582B0044604200DF1050162
:104700000DF1010304228DF80500012002F05EFD89
:10471000DDF8010054B14FF60061CFF247010840C7
:1047200004F4FF71084340F0010004E04FF6FE710D
:10473000CFF24701084040F2A0010DF1010304222D
:10474000C2F2000109684861010A8DF802108DF873
:104750000100010C000E8DF803108DF80400842078
:104760000DF105018DF80500012002F0FBFC02B0FF
:1047700010BD00BF80B582B08DF80300000A0DF1B6
:1047800005010DF1030302228DF8040040F2C3205D
:10479000ADF80500022002F0E5FC02B080BD00BFCC
:1047A00080B582B08DF80300000A0DF105010DF10E
:1047B000030302228DF8040083208DF805000120F8
:1047C00002F0D0FC02B080BD80B582B003468120EB
:1047D0000DF1050108228DF80500012002F0C2FC50
:1047E00002B080BD80B582B0034601200DF1050105
:1047F00008228DF80500012002F0E8FC02B080BD1F
:104800002DE9F04F85B0074636200DF109050DF171
:104810000B0814460E4602228DF80B00012041467B
:104820002B4602F0D3FC9DF80900414601222B469D
:1048300000F0FC0040F001008DF80900B6208DF872
:104840000B00012002F08EFC4FF4FB706B1C414604
:104850000122ADF80B000220019302F083FC002C32
:1048600040D00DF10B0540F2ED690DF10F0B40F654
:104870006D2A0DF1100800BF380A8DF8097029461D
:1048800002220DF109038DF80A0040F2ED40ADF867
:104890000B00022002F066FC0320294601220DF1E4
:1048A0000E03ADF80B908DF80E00022002F05AFCBA
:1048B0000020294601225B46ADF80B908DF80F00D1
:1048C000022002F04FFC0220294604224346ADF8A4
:1048D0000BA002F07BFC0498013C07F1010746F8AD
:1048E000040BC9D136200DF10B040DF1090502228C
:1048F0008DF80B00012021462B4602F067FC0020BA
:10490000214601222B468DF809009DF80A0000F08F
:10491000FE008DF80A00B6208DF80B00012002F091
:1049200021FC4FF4FB70019B21460122ADF80B00E6
:10493000022002F017FC05B0BDE8F08F2DE9F04F22
:1049400083B0044603200DF109010DF1010301229A
:104950008DF8010040F2ED70ADF80900022002F080
:1049600001FC04F00F08B8F1050F10D800204FF03B
:10497000000B4FF00009DFE808F0290310171E2490
:1049800041F224094FF00E0B49F220201EE04FF0B7
:10499000FF36304603B0BDE8F08F41F624094FF0F2
:1049A000030B49F2202011E041F624094FF04E0B91
:1049B00049F220200AE04FF0030B00204FF00009DD
:1049C00004E04FF024094FF0030B00208DF80100A4
:1049D000000A0DF109040DF10105022202268DF8ED
:1049E0000200AD2021462B468DF80900012002F07F
:1049F000B9FB082040F2ED67214601222B468DF8D5
:104A000001000220ADF8097002F0ACFB40F2ED7A33
:104A10000220214601222B468DF80160ADF809A045
:104A200002F0A0FB8820214601222B46ADF8097038
:104A30008DF80100022002F095FB80202146012222
:104A40002B46ADF809708DF80100022002F08AFBB8
:104A500000260220214601222B46ADF809708DF870
:104A6000016002F07FFB0520214601222B46ADF8B4
:104A700009A08DF80100022002F074FBAD20214650
:104A800002222B468DF802608DF801B08DF80900E6
:104A9000012002F067FB0820214601222B46ADF8D9
:104AA00009708DF80100022002F05CFB0420214611
:104AB00001222B46ADF809A08DF80100022002F07A
:104AC00051FB8820214601222B46ADF809708DF854
:104AD0000100022002F046FB8020214601222B46E5
:104AE000ADF809708DF80100022002F03BFB0220B6
:104AF000214601222B468DF80160ADF8097002F0C5
:104B000031FB4FF0010B0220214601222B46ADF86C
:104B100009A08DF801B002F025FB4FEA19208DF8AD
:104B20000190214602222B468DF80200AD208DF81F
:104B30000900012002F016FB0820214601222B4625
:104B4000ADF809708DF80100022002F00BFB0A207D
:104B500002F002FB0220214601222B468DF8016063
:104B6000ADF809A002F0FEFA0220214601222B46F0
:104B70008DF801B0ADF8097002F0F4FA0220214678
:104B800001222B46ADF809A08DF80100022002F0A9
:104B9000E9FA0420214601222B46ADF809A08DF840
:104BA0000100022002F0DEFA642002F0D5FA0220B1
:104BB000214601222B468DF80160ADF809A002F0D4
:104BC000D1FA0220214601222B468DF80160ADF872
:104BD000097002F0C7FA0A2002F0BEFAA8F101003B
:104BE00001280CD840F66D000DF109010DF1050307
:104BF0000122ADF80900022002F0E8FA0026304652
:104C000003B0BDE8F08F00BFF0B583B00D46044699
:104C100040F66D070DF1090102AB02200122ADF84B
:104C2000097002F0D3FA9DF8080080075EBF4FF0CC
:104C3000FF3003B0F0BD200C8DF8044001AE04221B
:104C40008DF80600200E33468DF80700200A0DF17E
:104C500009048DF80500AD2021468DF809000120DA
:104C600002F080FA8DF80450C5F30220214602229A
:104C700033468DF8050040F2ED40ADF80900022002
:104C800002F070FA402040F2ED65214601223346E1
:104C90008DF804000220ADF8095002F063FA0020FC
:104CA000214601223346ADF809508DF80400022058
:104CB00002F058FA02AD00BF012002F04DFA0220C6
:104CC000214601222B46ADF8097002F07FFA9DF8CB
:104CD0000800C007F0D0002003B0F0BD2DE9F04F70
:104CE00085B0834636200DF107070DF109060D4604
:104CF00002228DF80900012031463B4602F066FA97
:104D00009DF80700314601223B4600F0FC0040F0D0
:104D100001008DF80700B6208DF80900012002F08F
:104D200021FA4FF4FB707B1C31460122ADF80900DB
:104D3000022002F017FA0120FFF700FE584629462C
:104D4000FFF762FF4FEA152940F2ED440220314699
:104D500002223B468DF808908DF80750ADF80940C7
:104D600002F000FA032040F2ED6803AB3146012265
:104D70008DF80C000220ADF8098002F0F3F94FF035
:104D8000000A0DF10D03022031460122ADF8098021
:104D90008DF80DA002F0E6F940F66D270DF10E0337
:104DA000022031460422ADF8097002F00FFADDF856
:104DB0000E00584500F0F88058462946FFF724FFBA
:104DC0000DF109060DF10703022002228DF808906B
:104DD0008DF80750ADF80940314602F0C3F90320C1
:104DE00003AB31460122ADF809808DF80C0002209A
:104DF00002F0B8F90DF10D030220314601228DF8C1
:104E00000DA0ADF8098002F0ADF90DF10E030220FE
:104E100031460422ADF8097002F0D8F9DDF80E0031
:104E2000584500F0C18058462946FFF7EDFE40F294
:104E3000ED400DF109060DF1070302228DF80890EF
:104E40008DF80750ADF809000220314602F08AF9CA
:104E5000032040F2ED6A03AB314601228DF80C00CD
:104E60000220ADF809A002F07DF900200DF10D033C
:104E700031460122ADF809A040F2ED4440F66D271D
:104E80004FF0000A8DF80D00022002F06BF940F699
:104E90006D200DF10E0331460422ADF80900022009
:104EA00002F094F9DDF80E0058457DD058462946A9
:104EB000FFF7AAFE40F2ED400DF109060DF10703E0
:104EC00002228DF808908DF80750ADF809000220F5
:104ED000314602F047F9032040F2ED6A03AB314658
:104EE00001228DF80C000220ADF809A002F03AF979
:104EF00000200DF10D0331460122ADF809A040F26A
:104F0000ED4440F66D274FF0000A8DF80D000220A9
:104F100002F028F940F66D200DF10E03314604220F
:104F2000ADF80900022002F051F9DDF80E005845F5
:104F30003AD058462946FFF767FE40F2ED400DF1A2
:104F400009060DF1070302228DF808908DF807502D
:104F5000ADF809000220314602F004F9032003AB4A
:104F6000314601228DF80C0040F2ED60ADF80900E9
:104F7000022002F0F7F800200DF10D033146012266
:104F80008DF80D0040F2ED60ADF80900022002F04E
:104F9000E9F840F66D200DF10E0331460422ADF81C
:104FA0000900022002F012F90420FFF7C7FC8DF877
:104FB00008908DF807500DF109050DF10703022047
:104FC0000222ADF80940294602F0CCF803200DF189
:104FD000120329460122ADF809808DF81200022043
:104FE00002F0C0F80DF113030220294601228DF8CA
:104FF00013A0ADF8098002F0B5F80DF10E03022000
:1050000029460422ADF8097002F0E0F8DDF80E50F0
:105010000020FFF793FCB5EB0B0018BF4FF0FF30FB
:1050200005B0BDE8F08F00BFB0B582B0042001AC80
:105030004FF43B750DF1030301228DF803000220AC
:105040002146ADF8045002F08DF800200DF1070361
:1050500021460122ADF804508DF80700022002F02D
:1050600081F802B0B0BD00BF70B582B0002001ACC5
:105070004FF43B750DF10303012202268DF8030066
:1050800002202146ADF8045002F06CF80DF1070340
:105090000220214601228DF80760ADF8045002F08D
:1050A00061F802B070BD00BF70B582B0002001ACE5
:1050B0004FF43B750DF10303012202268DF8030026
:1050C00002202146ADF8045002F04CF80DF1070320
:1050D0000220214601228DF80760ADF8045002F04D
:1050E00041F802B070BD00BF2DE9F04F85B0074612
:1050F000362002AC0DF1060502228DF808000120D1
:1051000021462B4602F062F89DF806002146012256
:105110002B4600F0FC0040F001008DF80600B620A0
:105120008DF80800012002F01DF84FF4FB7005F126
:10513000010B21460122ADF8080002205B4602F077
:1051400011F840F2EC6000260DF10B03214601221C
:10515000ADF8080002208DF80B6002F003F840F66D
:10516000EC2903AB0220214601228DF80C60ADF83A
:10517000089001F0F7FF4FF0040A4FF43B780DF16F
:105180000D030220214601228DF80DA0ADF8088004
:1051900001F0E8FF0DF10E030220214601228DF8F7
:1051A0000E60ADF8088001F0DDFF380A8DF806705A
:1051B000214602222B468DF8070040F6EC00ADF8A0
:1051C0000800022001F0CEFF0DF10F03022021465E
:1051D00001228DF80FA0ADF8088001F0C3FF04ABE9
:1051E0000220214601228DF81060ADF8088001F000
:1051F000B9FF01200DF1110321460122ADF80890FD
:105200008DF81100022001F0ADFF0DF11203022014
:10521000214601228DF812A0ADF8088001F0A2FF0E
:105220000DF113030220214601228DF81360ADF821
:10523000088001F097FF3620214602222B468DF888
:105240000800012001F0C2FF8DF80660214601220E
:105250002B469DF8070000F0FE008DF80700B620F1
:105260008DF80800012001F07DFF4FF4FB7021460E
:1052700001225B46ADF80800022001F073FF05B083
:10528000BDE8F08F2DE9F04F85B00DF10F04042536
:1052900040F6EC280DF112030220012221468DF880
:1052A0001250ADF80F8001F05DFF4FF43B770DF128
:1052B00012030220214601228DF81250ADF80F7022
:1052C00001F050FF00200DF11203214601220026BB
:1052D000ADF80F708DF81200022001F043FF0DF1C0
:1052E00012030220214601228DF812600026ADF83B
:1052F0000F8001F037FF0DF1120302202146012239
:105300008DF81250ADF80F7001F02CFF0DF1120561
:105310000220214601228DF81260ADF80F702B4655
:1053200001F020FF3620214602222B468DF80F0087
:10533000012001F04BFF9DF81200214601222B466F
:1053400000F0FC0040F001008DF81200B6208DF84E
:105350000F00012001F006FF4FF4FB706B1C21468B
:105360000122ADF80F000220029301F0FBFE0120A4
:1053700001F0F2FE762040F2EC4A0DF112032146D4
:1053800001228DF812000220ADF80FA001F0EAFE14
:105390004FF0800B0DF11203022021460122ADF8DF
:1053A0000F708DF812B001F0DDFE4FF088080DF19E
:1053B0001203022021460122ADF80F708DF81280F1
:1053C00001F0D0FE4FF45B790DF11203022021466B
:1053D0000122ADF80F9001F0F9FE9DF812000DF1D9
:1053E000120321460122ADF80FA0019075208DF81F
:1053F0001200022001F0B6FE0DF112030220214638
:1054000001228DF812B0ADF80F7001F0ABFE0DF176
:1054100012030220214601228DF81280ADF80F7090
:1054200001F0A0FE0DF11203022021460122ADF889
:105430000F9001F0CBFE9DF8126000250DF11203D4
:10544000022021460122ADF80F708DF8125001F0B4
:1054500089FE36200DF11207214602228DF80F0039
:1054600001203B4601F0B2FE8DF812502146012288
:105470003B469DF8130000F0FE008DF81300B620A7
:105480008DF80F00012001F06DFE4FF4FB70029BC0
:1054900021460122ADF80F00022001F063FE0198C1
:1054A00046EA002005B0BDE8F08F00BFB0B582B07D
:1054B0000C4640F2A00101AD0DF102030222C2F23E
:1054C00000010968098B084329468DF80200000A8B
:1054D0008DF80300AC208DF80400012001F042FE9D
:1054E00040F2EC600DF10703294601228DF80740D8
:1054F000ADF80400022001F035FE02B0B0BD00BFDF
:1055000070B582B0044640F276400DF105050DF10C
:1055100001060422ADF8050002202946334601F0B9
:1055200055FEDDF80100002C4FF00402334640F434
:10553000006108BF20F40061080A8DF801108DF8A1
:105540000200080C8DF80300080E29468DF80400AF
:1055500040F2F640ADF80500022001F003FE02B073
:1055600070BD00BF2DE9F04182B00D460446002712
:105570000DF105010DF10103012004228DF80570E4
:1055800001F024FE40F23016DDF80100CDF6CA66C7
:10559000B04202BF002002B0BDE8F0810DF1050865
:1055A00001202A4623468DF80570414601F00EFE83
:1055B000052001F0D1FD0DF1010301204146042237
:1055C0008DF8057001F002FEDDF80100801B18BFA8
:1055D0004FF0FF3002B0BDE8F08100BF2DE9F04F81
:1055E00083B00DF109040DF1070507464FF03608A9
:1055F0000120022221462B468DF8098001F0E6FDAC
:1056000040F201304FF0B609214601222B46ADF899
:10561000070001208DF8099001F0A4FD6E1C4FF4E5
:10562000FB7A0220214601223346ADF809A001F0A1
:1056300099FD01204FF0000B214602222B4667F313
:1056400046108DF808B08DF8070041F2ED20ADF856
:105650000900022001F086FD0120214602222B468E
:105660008DF8098001F0B2FD8DF807B021460122C6
:105670002B468DF809909DF8080000F0FE008DF88B
:105680000800012001F06EFD022021460122334670
:10569000ADF809A001F066FD03B0BDE8F08F00BFD2
:1056A00070B582B0044604200DF105050DF1010628
:1056B00004228DF8050001202946334601F086FDBD
:1056C000DDF80100002C4FF00402334620F4802165
:1056D00008BF40F4802140F2A000C2F20000006840
:1056E0004161080A8DF80200080C8DF801108DF850
:1056F0000300080E29468DF8040084208DF805006B
:10570000012001F02FFD02B070BD00BF10B582B0C6
:105710008DF8000040F2DA300DF101046B460122F1
:10572000ADF801000220214601F01CFD40F2A0006E
:1057300001ABC2F200000068416941F08042426161
:10574000080A8DF80500080C8DF8041021468DF824
:105750000600100E04228DF8070084208DF8010049
:10576000012001F0FFFC02B010BD00BF80B582B087
:1057700040F2A00100280246C2F20001096818BFE9
:10578000012200284A744A6942F4805318BF22F467
:1057900080530422180A4B610DF105018DF80200B7
:1057A000180C8DF801308DF80300180E0DF101036F
:1057B0008DF8040084208DF80500012001F0D2FC52
:1057C00002B080BD70B582B004461A200DF1050507
:1057D0000DF1010604228DF805000120294633460B
:1057E00001F0F4FC9DF804109DF8030004223346F8
:1057F0008DF80410210A8DF801408DF802104FF445
:10580000700101EA004004F4702108432946000CAD
:105810008DF803009A208DF80500012001F0A2FC0C
:1058200002B070BD40F2A00CC2F2000CDCF800C067
:105830000CF1280C8CE80F00704700BF80B582B0D7
:105840000F200DF1050101AB01228DF805000120AB
:1058500001F0BCFC9DF8040000F0010002B080BD26
:10586000F0B583B00F200DF109010DF105030422FD
:105870008DF80900012001F0A9FC9DF807109DF8A2
:10588000082040F2A0059DF806009DF80560C2F2D0
:10589000000541EA022140EA0127296846EA07207B
:1058A000C8614FF4804010EA072F71D04FF4DE40FA
:1058B0000DF109040DF105030422CDF805008F2038
:1058C00021468DF80900012001F04CFC28680021D8
:1058D0000DF10503022280F82410102021468DF8D6
:1058E0000900012001F072FC28689DF805109DF860
:1058F0000620047A0B4662F30923002C08BF01F04E
:105900007F03110202220384090400F1220342BF33
:1059100090F8241041F0010180F824100120112199
:105920008DF809100DF1090101F050FC28683107CC
:1059300018D590F82210890614D408200DF1090119
:105940000DF105030422CDF805008F208DF8090024
:10595000012001F007FC286800218176C16921F04F
:105960000801C161C16A11B11C3088472868407CB8
:1059700070B101200DF109010DF1050301228DF82F
:10598000050040F2CD30ADF80900022001F0EAFB3D
:105990003F02300635D5F8200DF109010DF1050360
:1059A0000422CDF805008F208DF80900012001F0B8
:1059B000D9FB300720D52868807EE8B100F092F846
:1059C000E0200DF1090440F2F6360DF10503012245
:1059D0008DF8050002202146ADF8096001F0C2FBF8
:1059E000F0200DF1050321460122ADF809608DF884
:1059F0000500022001F0B6FB2868816A09B11C305D
:105A0000884717F4081F33D04FF400300DF1090414
:105A10000DF105030422CDF805008F2021468DF8F5
:105A20000900012001F09EFB28680021817600F02A
:105A300059F8E02040F2F6360DF105032146012227
:105A40008DF805000220ADF8096001F08BFBF02015
:105A50000DF1050321460122ADF809608DF805001E
:105A6000022001F07FFB2868016B09B11C308847D8
:105A700049F20000C2F20540074231D0CDF80500DE
:105A80008F200DF109040DF1050304228DF80900A2
:105A90000120214601F066FB28680021817600F094
:105AA00021F8E02040F2F6360DF1050321460122EF
:105AB0008DF805000220ADF8096001F053FBF020DD
:105AC0000DF1050321460122ADF809608DF80500AE
:105AD000022001F047FB2868416B09B11C30884760
:105AE00003B0F0BD2DE9F04F83B00E200DF1060597
:105AF0006E4604228DF8060001202946334601F047
:105B000065FB9DF800A09DF801409DF802709DF88E
:105B100003B001F033FA814600204FF08E08294689
:105B200004223346009001208DF8068001F01AFB14
:105B300040200DF10903294601228DF809008D202E
:105B40008DF80600012001F00DFB4FF6F870294694
:105B500004223346C2F2274000908F208DF80600C1
:105B6000012001F0FFFA40F24F300DF10A032946FF
:105B70000122ADF80600022001F028FB9DF80A0082
:105B800080EA400000060ED501200DF106010DF15E
:105B90000B0301228DF80B0040F2CD30ADF806006A
:105BA000022001F0DFFA0DF106016B46012004220C
:105BB0008DF801408DF800A08DF802708DF803B0CB
:105BC0008DF8068001F0CEFA484601F0E1F940F286
:105BD000A0000021C2F200000068817603B0BDE899
:105BE000F08F00BFB0B582B0E02001AC40F2F635D6
:105BF0000DF1030301228DF8030002202146ADF8C8
:105C0000045001F0AFFAF0200DF107032146012204
:105C1000ADF804508DF80700022001F0A3FA02B09D
:105C2000B0BD00BFF0B583B00F200DF107040DF13A
:105C3000030504228DF80700012021462B4601F0C0
:105C4000C5FA9DF805109DF8062040F2A0069DF8C3
:105C500004009DF803702B46C2F2000641EA0221BF
:105C6000042240EA0120316847EA0020C86140F27E
:105C700076402146ADF80700022001F0A7FA9DF812
:105C80000420BDF805009DF803102B4602F0CF025A
:105C90008DF804208DF80310ADF8050040F2F640B1
:105CA00021460422ADF80700022001F05BFA4FF410
:105CB000DE40214604222B46CDF803008F208DF8CC
:105CC0000700012001F04EFA306800210DF10A03AF
:105CD000022280F82410102021468DF807000120B0
:105CE00001F074FA30689DF80A109DF80B20057ACF
:105CF0000B4662F30923002D08BF01F07F03110258
:105D000002220384090400F1220342BF90F8241008
:105D100041F0010180F82410012011218DF80710B5
:105D20000DF1070101F052FA3068390718D590F8E3
:105D30002210890614D408200DF107010DF1030388
:105D40000422CDF803008F208DF80700012001F018
:105D500009FA306800218176C16921F00801C1612A
:105D6000C16A09B11C30884703B0F0BD70B582B07C
:105D7000044640F276400DF105050DF101060422BE
:105D8000ADF8050002202946334601F01FFADDF880
:105D90000100002C4FF00402334640F4405108BF8C
:105DA00020F44051080A8DF801108DF80200080C0B
:105DB0008DF80300080E29468DF8040040F2F640E5
:105DC000ADF80500022001F0CDF902B070BD00BFB2
:105DD000F0B583B0044626200DF109010DF105034D
:105DE00004228DF80900012001F0F0F99DF805204A
:105DF0009DF806309DF807109DF8080014F0010F7B
:105E00008DF8052023F03C0212D18DF807108DF893
:105E100006208DF80800A6200DF109010DF10503FB
:105E20008DF809000120042201F09CF903B0F0BDB7
:105E30008DF807108DF8080042F014000DF10905E7
:105E40000DF1050604228DF80600A62029463346EA
:105E50008DF80900012001F085F936202946042239
:105E600033468DF80900012001F0B0F99DF80710C4
:105E7000BDF805009DF80820334641F084018DF8F7
:105E80000710ADF80500B6208DF808202946042239
:105E90008DF80900012001F065F94FF48876A0071C
:105EA000ADF8056010D400200DF109010DF10503D6
:105EB000ADF8070042F6F600ADF809000220042212
:105EC00001F050F903B0F0BD0F200DF109040DF100
:105ED000050542F6F6070422ADF807000220214628
:105EE0002B46ADF8097001F03DF9CDF80560ADF82D
:105EF00009700220214604222B4601F033F903B039
:105F0000F0BD00BFB0B582B036200DF105040DF133
:105F1000030502228DF80500012021462B4601F0E1
:105F200055F99DF80300214601222B4600F0FC00A4
:105F300040F001008DF80300B6208DF80500012027
:105F400001F010F94FF4FB706B1C21460122ADF8F3
:105F50000500022001F006F90020214602222B460E
:105F6000ADF8030040F2F640ADF80500022001F064
:105F7000F9F802B0B0BD00BF80B582B0010A8DF85B
:105F800001000DF1010304228DF80210010C000E36
:105F90008DF803108DF804004FF4E5700DF1050144
:105FA000ADF80500022001F0DDF802B080BD00BFB1
:105FB00070B584B0044614F0020F3CD10025E00710
:105FC0004FD045F0060002AC8D250DF10B030122E8
:105FD0008DF80B00012021468DF8085001F0C2F821
:105FE00040F24F3003AB21460222ADF808000220F8
:105FF00001F0ECF89DF80C009DF80D10002440EA2B
:10600000012010F4816F13D0402002A90DF10E037E
:1060100001228DF808508DF80E00012001F0A2F841
:1060200040F2A000C2F20000006884764FF0FF3416
:10603000204604B070BD8D20802502A90DF1070314
:10604000012201268DF8080001208DF8075001F08B
:1060500089F840F2A000C2F2000000688676E007EE
:10606000AFD145F0020002A90DF10F0301228DF816
:106070000F008D208DF80800012001F073F8002436
:10608000204604B070BD00BF10B582B040F24F3062
:1060900001A90DF1030301220124ADF8040002203F
:1060A00001F094F89DF8030080EA400000060CD54A
:1060B00040F2CD3001A90DF1070301228DF8074010
:1060C000ADF80400022001F04DF802B010BD00BF91
:1060D000B0B584B040B301F00F008DF808200DF189
:1060E00009040DF1070302228DF807009D202146C7
:1060F0008DF80900012001F035F8362003AD214666
:1061000004228DF8090001202B4601F05FF8BDF84C
:106110000C009DF80E109DF80F208DF80E10ADF8B4
:106120000C0042F0010024E000200DF109040DF103
:1061300007030222ADF807009D2021468DF80900D3
:10614000012001F00FF8362003AD214604228DF81E
:10615000090001202B4601F039F8BDF80C009DF82C
:106160000E109DF80F208DF80E10ADF80C0002F007
:10617000FE008DF80F00B620214604222B468DF834
:106180000900012000F0EEFF04B0B0BD80B582B080
:106190008DF8040040F6F6400DF1050101AB012237
:1061A000ADF80500022000F0DDFF02B080BD00BFA9
:1061B000B0B582B0044660071ED440F24F300DF1F6
:1061C00001016B4601220125ADF80100022000F01B
:1061D000FDFF9DF8000080EA400000060CD540F26B
:1061E000CD300DF1010101AB01228DF80450ADF865
:1061F0000100022000F0B6FF00208DF80500E00746
:1062000010D101200DF101010DF1050302228DF8DD
:1062100006008D208DF80100012000F0A3FF002072
:1062200002B0B0BD03200DF101050DF105030222FE
:106230008DF806008D2029468DF80100012000F020
:1062400091FF40F24F300DF1070329460122ADF8CE
:106250000100022000F0BAFF9DF8070010F0080FBF
:1062600002D1002002B0B0BDFFF73CFCA0070ED465
:106270004FF480700DF101010DF105030222ADF81C
:1062800005008D208DF80100012000F06BFF4FF01C
:10629000FF3002B0B0BD00BFB0B582B004464FF4CD
:1062A00051700DF101016B460122ADF80100022091
:1062B00000F08CFF9DF800504CB3200A8DF804408C
:1062C0000DF1010401AB02228DF805008C2021465E
:1062D0008DF80100012000F045FF40F2A0000DF113
:1062E0000603C2F200000068416941F0805141613B
:1062F00045F0100021468DF806004FF47170ADF89E
:1063000001000220012200F02DFF02B0B0BD40F2DA
:10631000A0000DF10703C2F200000068416921F0FE
:106320008051416105F0EF000DF101018DF807008A
:106330004FF47170ADF801000220012200F012FF4D
:1063400002B0B0BD80B582B08DF80300000A0DF137
:1063500005010DF1030302228DF8040042F2E7402B
:10636000ADF80500022000F0FDFE02B080BD00BFC8
:106370002DE9F04182B00D46064600F0FFFD0446CF
:106380000E200DF105070DF1010804228DF805001E
:1063900001203946434600F019FFDDF80100002DC9
:1063A0004FF00402434640EA060108BF20EA060116
:1063B000080A8DF801108DF80200080C8DF8030012
:1063C000080E39468DF804008E208DF80500012056
:1063D00000F0C8FE204600F0DBFD02B0BDE8F08111
:1063E00070B582B004460220AF2501A90DF1030368
:1063F000012201268DF8030001208DF8045000F0E1
:10640000B1FE54B101A90DF10703012001228DF85D
:1064100007608DF8045000F0A5FE02B070BD00BF0B
:1064200070B582B0044640F26F400DF105050DF1E4
:1064300001060422ADF8050002202946334600F08B
:10644000C5FE9DF801009DF802109DF803209DF8FF
:10645000043063F30B2261F30B202946334662803C
:10646000208040F66F000422ADF80500022000F005
:10647000ADFE9DF801009DF802109DF803209DF8E7
:10648000043063F30B2261F30B2029463346E2808C
:10649000A08040F66F400422ADF80500022000F015
:1064A00095FE9DF801009DF802109DF803209DF8CF
:1064B000043063F30B2261F30B20294633466281DB
:1064C000208141F26F000422ADF80500022000F0A7
:1064D0007DFE9DF801009DF802109DF803209DF8B7
:1064E000043061F30B2063F30B2229463346A0816D
:1064F00041F26F40E2810422ADF80500022000F075
:1065000065FE9DF801009DF802109DF803209DF89E
:10651000043061F30B2063F30B22294633462082BB
:1065200041F66F0062820422ADF80500022000F0FF
:106530004DFE9DF801009DF802109DF803209DF886
:10654000043063F30B2261F30B20E282A08202B0DD
:1065500070BD00BF40F2A000C2F200000068007CE5
:10656000704700BF2DE9F04784B0064636200DF194
:1065700005040DF1030502228DF8050001202146D6
:106580002B4600F023FE9DF803004FF0B60A21468B
:1065900001222B468DF805A000F0FC0040F0010020
:1065A0008DF80300012000F0DDFD4FF4FB786B1C3B
:1065B000022021460122ADF8058000F0D3FD40F213
:1065C000F6404FF00009214602222B46ADF80500A7
:1065D0000220ADF8039000F0C5FD4EF2C850042231
:1065E000C0F60000875D4EF2186002AEC0F60000F3
:1065F000334650F82700010A8DF808008DF809107D
:10660000010C000E8DF80A108DF80B0040F2EB70B3
:106610002146ADF80500022000F0A4FD4EF23060E6
:1066200003AB21460122C0F60000C05D8DF80C00CE
:1066300040F6EB30ADF80500022000F093FD4EF679
:10664000F40004223346C0F6000050F82700010A87
:106650008DF808008DF80910010C000E8DF80A1055
:106660008DF80B0040F6E8402146ADF80500022009
:1066700000F078FD4FF4FF10A8272146042233468E
:10668000029001208DF8057000F06CFD4FF600704F
:106690002146042233468DF80570C0F25F00029057
:1066A000012000F05FFD22200DF10D0321460122A3
:1066B0008DF805A08DF80D00012000F053FD072096
:1066C0000DF10E0321460122ADF805808DF80E0074
:1066D000022000F047FD42F2F660214602222B46DE
:1066E000ADF80390ADF80500022000F03BFD13204B
:1066F0000DF10F03214601228DF80F0040F6EA400C
:10670000ADF80500022000F02DFD04B0BDE8F087D3
:106710002DE9F04F83B00546362001AC0DF102069D
:1067200002228DF8040001202146334600F04EFD80
:106730009DF802004FF0B60A2146012233468DF83B
:1067400004A000F0FC0040F001008DF802000120E0
:1067500000F008FD771C4FF4FB7B0220214601224C
:106760003B46ADF804B000F0FDFC002021460222BB
:106770003346ADF8020040F2F640ADF804000220C6
:1067800000F0F0FC4FF4FF100DF107084FF0A809DE
:1067900021460422CDF80700012043468DF80490DD
:1067A00000F0E0FC4FF600702146042243468DF8CD
:1067B0000490C0F25F00CDF80700012000F0D2FC89
:1067C0004FF0360901202146022233468DF804900D
:1067D00000F0FCFC9DF802002146012233468DF8B2
:1067E00004A000F0FC0040F002008DF8020001203F
:1067F00000F0B8FC0220214601223B46ADF804B06F
:1068000000F0B0FC01202146022233468DF80490AE
:1068100000F0DCFC9DF802002146012233468DF891
:1068200004A000F0CF0040F020008DF8020001200D
:1068300000F098FC0220214601223B46ADF804B04E
:1068400000F090FC042D4FF0040021464FF00402AC
:10685000434698BF0546280A8DF807508DF8080072
:10686000280C8DF80900280E8DF80A008A208DF872
:106870000400012000F076FC10200DF10B032146EE
:1068800001228DF80B0042F2EF40ADF80400022027
:1068900000F068FC03B0BDE8F08F00BF2DE9F047C1
:1068A00082B0044680200DF103050DF1010601229E
:1068B0004FF001088DF8010041F2E81029463346F7
:1068C000ADF80300022000F04DFC0A2041F2E82759
:1068D0002946012233468DF801000220ADF80370ED
:1068E00000F040FC0F20294601223346ADF803702A
:1068F0008DF80100022000F035FC4FF0000AAA27B5
:1069000001202946012233468DF801A08DF803703D
:1069100000F028FC01202946012233468DF8018031
:106920008DF8037000F01EFC012C0FD1012000F047
:1069300013FC40F26A300DF103010DF10103022254
:10694000ADF80300022000F041FC55E00DF1030416
:106950000DF106054FF036080120022221462B4694
:106960008DF8038000F032FC9DF806004FF0B60968
:10697000214601222B468DF8039000F0FC0040F0E8
:1069800001008DF80600012000F0ECFB6E1C4FF4B6
:10699000FB770220214601223346ADF8037000F058
:1069A000E1FB40F26A300DF1010321460222ADF80D
:1069B0000300022000F00AFC0120214602222B469F
:1069C0008DF8038000F002FC8DF806A0214601221C
:1069D0002B468DF803909DF8070000F0FE008DF81F
:1069E0000700012000F0BEFB0220214601223346B1
:1069F000ADF8037000F0B6FB00209DF801409DF853
:106A000002500DF103010DF1010301228DF8010087
:106A1000AA208DF80300012000F0A4FB44EA052021
:106A200002B0BDE8F08700BF80B582B040F26A4096
:106A30000DF1050101AB0122ADF80500022000F0C7
:106A4000C5FB9DF8040002B080BD00BF80B582B0D8
:106A500040F26A300DF1050101AB0122ADF80500ED
:106A6000022000F0B3FB9DF8040002B080BD00BF1F
:106A70002DE9F04F8BB0079036200DF125060AABBB
:106A8000012201258DF825000120314600F09EFBF2
:106A90009DF828000AAC314602222346029040F2BB
:106AA0007640ADF82500022000F090FB9DF828000C
:106AB0000DF12809314604224B4606909DF8290025
:106AC000019028208DF82500012000F07FFB9DF823
:106AD00028000AAB3146012205909DF8290000905C
:106AE0009DF82A0003909DF82B008DF82850B625BC
:106AF0008DF825500490012000F034FB40F2F64060
:106B00000027314602222346ADF825000220ADF8C9
:106B1000287000F027FB4AF20070314604224B46F1
:106B2000C0F21F000A90A8208DF82500012000F077
:106B300019FB22200AAB314601228DF825508DF831
:106B40002800012000F00EFB4FF4967480260725E4
:106B50004FF0800940F6EA0B089740F6EA300DF155
:106B600025070DF1280849EA560A0122ADF825004B
:106B70000220394643468DF828A000F0F3FABC20E5
:106B8000394601224346ADF825B08DF82800022091
:106B900000F0E8FABD20394601224346ADF825B0A1
:106BA0008DF82800022000F0DDFA642000F0D4FA0D
:106BB00040F66A10394602224346ADF8250002200D
:106BC00000F004FB9DF828009DF82910079A40EA80
:106BD000012150466FF31F31914298BF29EA5600B8
:106BE000891A4FEA560648BF4942089F8146A1428A
:106BF000BCBF57460C46013DAED102980DF12504AD
:106C00000AAB012221468DF82800B6208DF8250018
:106C1000012000F0A7FA01980AAB214602228DF864
:106C2000290006988DF8280040F2F640ADF82500BE
:106C3000022000F097FA00980AAB214604228DF852
:106C4000290005988DF8280003988DF82A000498EB
:106C50008DF82B00A8208DF82500012000F082FA85
:106C600038460BB0BDE8F08F10B500F0E00200F040
:106C70001F0C0B4603EB0C04042C09DA06E000BFE2
:106C80002344203203EB0C04042C01DA0524F7E73B
:106C9000152C02DB6FF00404F2E7E023E4B202F407
:106CA000FF52C0F3042E42EA040C03EA10230A4602
:106CB00002EB0E04042C09DA06E000BF2244203364
:106CC00002EB0E04042C01DA0524F7E7142C02DD94
:106CD0006FF00404F2E7E4B203F4FF53E022C0F3E0
:106CE000044E234302EA10424CEA032C0B4603EB0A
:106CF0000E04042C08DA05E02344203203EB0E04D2
:106D0000042C01DA0524F7E7142C02DD6FF00404EB
:106D1000F2E7E4B202F4FF52E023224303EA1063F5
:106D2000C0F304604CEA02420C18042C08DA04E0B8
:106D3000214420330C18042C02DA0524F8E700BFA4
:106D4000142C02DD6FF00404F2E743EA040042EA87
:106D5000006010BDF0B581B0DDE906460F4605467E
:106D6000104619462246334606F059FC4EF2C852E8
:106D70004EF61016C0F60002C0F60006535D56F837
:106D8000332006EBC3035B6806F04FFC02460B465C
:106D900006F0A4FB06F0ACFD0146384601B0BDE8A4
:106DA000F04061E72DE9F04F8BB0089036200DF1EF
:106DB00025050AAE012201248DF82500012029466F
:106DC000334600F003FA9DF828000DF12808294603
:106DD00002224346039040F27640ADF8250002209F
:106DE00000F0F4F99DF828000DF1280B2946042243
:106DF0005B4607909DF82900029028208DF8250019
:106E0000012000F0E3F99DF828000AAB2946012291
:106E100006909DF8290001909DF82A0004909DF8A5
:106E20002B008DF82840B6248DF8254005900120D0
:106E300000F098F940F2F640002729460222434626
:106E4000ADF825000220ADF8287000F08BF94AF269
:106E50000070294604225B46C0F21F000A90A82059
:106E60008DF82500012000F07DF922200AAB29468B
:106E700001228DF825408DF82800012000F072F9DC
:106E80000A244FF0BC0B40F6EA0A4FF0BD0940F669
:106E90006A1800BF08982946012233468DF8280059
:106EA00040F6EA30ADF82500022000F05BF9022040
:106EB0002946012233468DF828B0ADF825A000F010
:106EC00051F902202946012233468DF82890ADF869
:106ED00025A000F047F9642000F03EF90220294681
:106EE00002223346ADF8258000F070F99DF82800A5
:106EF0009DF82910013C61F30B200744CAD1039887
:106F00000DF125040AAB012221468DF82800B62098
:106F10008DF82500012000F025F902980AAB2146E2
:106F200002228DF8290007988DF8280040F2F640DB
:106F3000ADF82500022000F015F901980AAB2146B2
:106F400004228DF8290006988DF8280004988DF801
:106F50002A0005988DF82B00A8208DF82500012027
:106F600000F000F94CF6CD40CCF6CC40A7FB000178
:106F7000C1F3CF000BB0BDE8F08F000010B500F0FA
:106F80005DFC0446002C18BF00F044FC204610BDF8
:106F9000002818BF00F04ABC70470000B0B5044696
:106FA0000846154606F0DBFC00230022C4F210035D
:106FB00006F03BFB06F09CFCFF28A8BFFF20012D3C
:106FC00024D1072C01D0042C44D14EF2D8514EF2DA
:106FD000FC62C0F60001C0F60002095D01EB011180
:106FE00002EB810300224FF0FF3100BF5D186C7887
:106FF000A0426FDDAC78A04274DDEC78A04276DD73
:107000002D7904310432A842F0DC64E0072C01D071
:10701000042C3FD14EF2D8514EF2EC723B23C0F615
:107020000001C0F60002095D01FB032300224FF0BE
:10703000FF3100BF5D186C78A0424FDDAC78A042F4
:107040005ADDEC78A0425CDD2D7904310432A8428F
:10705000F0DC44E04EF2D0514EF268622523C0F6D7
:107060000001C0F60002095D01FB032300224FF07E
:10707000FF3100BF5D186C78A04247DDAC78A042BC
:1070800048DDEC78A0424ADD2D7904310432A84273
:10709000F0DC3CE04EF2D0514EF284721A23C0F67E
:1070A0000001C0F60002095D01FB032300224FF03E
:1070B000FF3100BF5D186C78A04235DDAC78A0428E
:1070C00034DDEC78A04234DD2D7904310432A8425D
:1070D000F0DC30E01146A1F11C002EE01146A1F1D8
:1070E0001E002AE042F00101A1F11C0025E042F05F
:1070F0000201A1F11C0020E042F00101A1F11E00FB
:107100001BE042F00201A1F11E0016E01146A1F1C0
:10711000170012E042F00101A1F117000DE042F06A
:107120000201A1F1170008E0114604E042F001015C
:1071300001E042F00201A1F1110006F08DFB06F022
:107140000EFC41F27B4247F6E123C4F2AE72C3F675
:10715000847306F06AFAB0BD00F0A2B80020704750
:10716000002070472DE9F04381B040F2C8449846B2
:1071700015460E460746C2F2000400BF204604F042
:1071800015F90128FAD140F6000910210022C4F2B5
:107190000109484601F00AFB40F2C84431463A462C
:1071A0000A23C2F20004204602F00EFCAAB22046D6
:1071B00041460A2302F008FC48461021012201F052
:1071C000F5FA002001B0BDE8F08300BF2DE9F04FD3
:1071D000ADF5845D81B040F2C845984614460F462F
:1071E0000646C2F2000500BF284604F0DFF8012879
:1071F000FAD140F6000910210022C4F201094846E4
:1072000001F0D4FA0A2001AD3946009030192A461F
:1072100083B240F2C840C2F2000002F06BFE484662
:107220001021012201F0C2FAA9194046224606F0B7
:107230005DF800200DF5845D01B0BDE8F08F000021
:1072400000F0DABB48B3421E00F00301032A13D357
:10725000081A00BF00BF043000BF00BF00BF00BF5E
:1072600000BF00BF00BF00BF00BF00BF00BF00BF26
:1072700000BF00BF00BFEDD179B100BF012900BF41
:1072800000BF00BF09D000BF022900BF00BF00BF80
:1072900003D000BF00BF00BF00BF0020704700BF89
:1072A00000F0D0BB0020704700F01F010122400910
:1072B00002FA01F14EF20012CEF2000252F8200062
:1072C000084018BF01207047F0B589B040F60004AF
:1072D00011250126022001A9C4F20104029501969C
:1072E0000490204601F084F8204601210022002766
:1072F00001F05CFA00BF062000BF00BF00BF02F033
:107300003FFA0320CDE90565079705A908902046B7
:1073100001F06EF820460121012201F047FA022017
:1073200000F090FB09B0F0BDB0B584B040F60004A9
:1073300000250028C4F20104CDE90255CDE900552D
:1073400014D000206946C1F2110001900120009084
:107350002046029501F04CF8062002F001FA0620C2
:107360000321002202F0CAF904B0B0BD062002F0E9
:1073700007FA112069460190012000900320029530
:107380000390204601F034F820460121012201F04B
:107390000DFA04B0B0BD00BF80B540F60040042136
:1073A000C4F2010001F0FCF9B0FA80F0400980BDA0
:1073B00080B5014641F20000C4F2010001F0F0F98D
:1073C000B0FA80F0400980BD042888BF7047DFE82C
:1073D00000F0030A1119210041F200004021C4F21B
:1073E000010001F0E9B941F200008021C4F201007E
:1073F00001F0E2B941F200004FF48071C4F20100E3
:1074000001F0DAB941F200004FF40071C4F201005A
:1074100001F0D2B910B541F200044021C4F20104D8
:10742000204601F0C9F92046802101F0C5F9204627
:107430004FF4807101F0C0F920464FF40071BDE8AF
:10744000104001F0B9B900BF042888BF7047DFE8D9
:1074500000F0030B131C250041F200004021002224
:10746000C4F2010001F0A2B941F200008021002223
:10747000C4F2010001F09AB941F200004FF48071AA
:107480000022C4F2010001F091B941F200004FF472
:1074900000710022C4F2010001F088B910B541F278
:1074A000000440210022C4F20104204601F07EF9CC
:1074B00020468021002201F079F920464FF48071A6
:1074C000002201F073F920464FF400710022BDE85C
:1074D000104001F06BB900BF042888BF7047DFE897
:1074E00000F0030B131C250041F200004021012293
:1074F000C4F2010001F05AB941F2000080210122DA
:10750000C4F2010001F052B941F200004FF4807161
:107510000122C4F2010001F049B941F200004FF428
:1075200000710122C4F2010001F040B910B541F22E
:10753000000440210122C4F20104204601F036F982
:1075400020468021012201F031F920464FF480715C
:10755000012201F02BF920464FF400710122BDE811
:10756000104001F023B900BF10B540F6000410210F
:107570000022C4F20104204601F018F9012000F0B5
:1075800061FA20461021012201F010F90720BDE820
:10759000104000F057BA00BF2DE9F04784B000F06A
:1075A0002BFA0546062002F0EBF840F600044FF0F7
:1075B00011084FF0010A00264FF003096946C4F292
:1075C0000104CDF80480CDF800A00296CDF80C900F
:1075D000204600F00DFF20460121012201F0E6F8CF
:1075E00042F6002700206946C2F20007C1F21100EE
:1075F0003E60CDF800A00396CDE90106204600F0DC
:10760000F7FE062002F0ACF806200321002202F06B
:1076100075F820461021002201F0C8F8386820B91A
:1076200000F0EAF9401B0A28F8D3062002F0A8F877
:1076300069462046CDE900A8CDE9026900F0D8FEF0
:1076400020460121012201F0B1F82046102101223B
:1076500001F0ACF800BF00BF00BF00BF00BF00BF1B
:1076600000BF00BF00BF00BF00BF00BF00BF00BF22
:1076700000BF00BF00BF00BF00BF00BF00BF00BF12
:1076800000BF00BF00BF00BF00BF00BF00BF00BF02
:1076900000BF00BF00BF00BF00BF00BF00BF00BFF2
:1076A00000BF00BF00BF00BF00BF00BF00BF00BFE2
:1076B00000BF00BF00BF00BF00BF00BF00BF00BFD2
:1076C00000BF00BF00BF00BF00BF00BF00BF00BFC2
:1076D00000BF00BF00BF00BF00BF00BF00BF00BFB2
:1076E00000BF00BF00BF00BF00BF00BF00BF00BFA2
:1076F00000BF00BF00BF00BF00BF00BF00BF00BF92
:1077000000BF00BF00BF00BF00BF00BF00BF00BF81
:1077100000BF00BF00BF00BF00BF00BF00BF00BF71
:1077200000BF00BF00BF00BF00BF00BF00BF00BF61
:1077300000BF00BF00BF00BF00BF00BF00BF00BF51
:1077400000BF00BF00BF00BF00BF00BF00BF00BF41
:1077500000BF00BF00BF00BF00BF00BF00BF00BF31
:1077600000BF00BF00BF00BF00BF00BF04B0BDE846
:10777000F08700BF40F2C8402021C2F20000C16182
:1077800002F0CEB840F2C8400821C2F20000C16148
:1077900002F0C6B810B5202808D001281AD142F648
:1077A00000200121C2F20000016010BD40F600443B
:1077B0002021C4F20104204600F0F2FF002808BF97
:1077C00010BD00BFFEF74CF82046202100F0E8FF76
:1077D0000028F7D110BD00BF10B540F600442021AD
:1077E000C4F20104204600F0DBFF002808BF10BDF2
:1077F000FEF736F82046202100F0D2FF0028F7D10E
:1078000010BD00BF40F600402021C4F2010000F08E
:10781000C7BF00BF4EF280104FF40001CEF200004F
:107820000160BFF34F8FBFF36F8F70474EF20010B0
:107830004FF40001CEF20000016070474EF20010DC
:10784000CEF200000068C0F3C0507047B0B542F6F9
:10785000042EC2F2000E9EF80020002A1CBF022057
:10786000B0BD40F2401C01228EF80020C2F2000C94
:10787000DCE90032DC4322446FF35F328A4229DDC7
:10788000012925DB40F60022C2F20002047801291A
:10789000D45403F101046FF35F3418DD45780229F5
:1078A000155503F102046FF35F3410D08578042975
:1078B000155503F103046FF35F3408DBC578043317
:1078C000043004396FF35F331555DFD100E02346F0
:1078D000CCF8003000208EF800000120B0BD00BFC1
:1078E00080B542F6042EC2F2000E9EF80000002879
:1078F0001CBF022080BD40F2401C01208EF8000019
:10790000C2F2000CDCE90002831A18466FF35F3004
:10791000C8B1411E03F00303032906D3181A00BFA0
:10792000043204306FF35F32FAD153B1012B01D12D
:10793000013204E0D01C022B08BF901C02466FF3FA
:107940005F32CCF8042000208EF8000080BD0000DB
:1079500080B542F20000C4F20200016841F010015B
:107960000160032001F0BAFE002000F005F8F8F7EE
:10797000A5FE002080BD00BF70B540F25006044651
:107980004FF47A71C2F200067068B1FBF0F040F279
:107990005C01C2F200010968B1FBF0F001F018FFD0
:1079A00001250F2C08D838B94FF0FF3021460022AE
:1079B000002501F0A3FE3460284670BD704700BF6B
:1079C00080B541F20C004FF0FF310022C4F20200FA
:1079D000016042600160026000F002F8002080BD9A
:1079E000704700BF40F25000C2F200004168826858
:1079F00011448160704700BF40F25000C2F20000A5
:107A00008068704740F25000C2F200000068704782
:107A1000B0B540F250050446C2F200056868A042C5
:107A200004BF0020B0BD2868FFF7A6FF002804BFF0
:107A30006C600020B0BD00BF40F25000C2F20000F8
:107A400040687047B0B50446FFF7D6FF054640F2E0
:107A50005000611CC2F20000406818BF044400BF1F
:107A6000FFF7CAFF401BA042FAD3B0BD4EF2100090
:107A7000CEF20000016821F002010160704700BFF2
:107A80004EF21000CEF20000016841F002010160E8
:107A9000704700BF40F20040C0F20110704700BFC5
:107AA00042F20000CEF204000068000C704700BFF4
:107AB00042F20000CEF2040000686FF31F307047FE
:107AC0004FF2E870C1F6FF70006870474FF2EC703B
:107AD000C1F6FF70006870474FF2F070C1F6FF709A
:107AE0000068704742F20400CEF20400016841F0E1
:107AF00001010160704700BF42F20400CEF20400B1
:107B0000016821F001010160704700BF42F20400EA
:107B1000CEF20400016841F002010160704700BF2D
:107B200042F20400CEF20400016821F0020101607B
:107B3000704700BF42F20400CEF20400016841F039
:107B400004010160704700BF42F20400CEF204005D
:107B5000016821F0040101607047000070B5FFF773
:107B60004BFF41F200060446C4F20206306840F0C2
:107B700001003060306810F0020F05D1FFF73CFFC4
:107B8000001B0228F6D952E03068102161F3C700CB
:107B90003060FFF731FF044600207060706810F01D
:107BA0000C0F0AD041F28835FFF726FF001BA842D0
:107BB0003DD8706810F00C0FF6D140F25C0041F235
:107BC0000021C2F20000C0F27A01016040F25000D0
:107BD000C2F200000068FFF7CFFE00281EBF01249C
:107BE000204670BDFFF708FF0446306820F0807023
:107BF000306000BF306810F0007F05D0FFF7FCFE5A
:107C0000001B0228F6D912E000247460FFF7F4FE8E
:107C10000546306820F41020306000BF306810F452
:107C2000003F07D0FFF7E8FE401B6428F6D9032485
:107C3000204670BD306820F480203060706A40F0CB
:107C4000807070622046B46070BD00BF2DE9F043C3
:107C500083B00446002C00F0A281207841F2000994
:107C600041F22007C4F20209C4F20207C0075ED045
:107C700057F81C0C00F00C0004281DD057F81C0C01
:107C800000F00C00082804D157F81C0C10F4803FB9
:107C900012D16068C0B1B0F5803F08D0D9F80010AB
:107CA000B0F5A02F2BD141F48020C9F80000D9F8FD
:107CB000000040F480302AE0D9F8000010F4003FC2
:107CC00035D0606898BB6AE1D9F8000020F48030B4
:107CD000C9F80000D9F8000020F48020C9F800009D
:107CE000FFF78AFE054600BFD9F8000010F4003FF8
:107CF0001DD0FFF781FE401B6428F5D9A4E121F4D3
:107D00008030C9F80000D9F8000020F48020C9F8BC
:107D10000000FFF771FE0546D9F8000010F4003F9F
:107D200005D1FFF769FE401B6428F5D98CE1207866
:107D3000800739D557F81C0C10F00C0F0AD057F8F3
:107D40001C0C00F00C0008280ED157F81C0C10F485
:107D5000803F09D1D9F8000010F0020F1BD0206934
:107D6000012840F01C8116E021690020C4F2422065
:107D7000002900F0CA8001210160FFF73DFE0546A1
:107D8000D9F8000010F0020F05D1FFF735FE401BB7
:107D90000228F5D958E1D9F80000616920F0F8000F
:107DA00040EAC100C9F80000207800074CD5A1695D
:107DB0000020C4F24220B1B30121C0F88014FFF7C3
:107DC0001BFE0546786810F0020F05D1FFF714FE80
:107DD000401B0228F6D937E140F25C0044F6D3514B
:107DE000C2F20000C1F262010068A0FB0101480A72
:107DF000029000BF00BF0298411E0028029123D0CC
:107E000000BF0298411E002802911DD000BF0298B9
:107E1000411E0028029117D000BF0298411E002881
:107E20000291E7D110E00021C0F88014FFF7E4FDD3
:107E3000054600BF786810F0020F05D0FFF7DCFDA3
:107E4000401B0228F6D9FFE02078400740F19080DF
:107E500057F8040C10F0805F0ED157F8040C4FF067
:107E6000010840F0805047F8040C57F8040C00F06B
:107E700080500190019801E04FF0000846F20006A2
:107E8000CFF6FE7659F8060010F4807F13D159F82A
:107E9000060040F4807049F80600FFF7ADFD054686
:107EA00059F8060010F4807F05D1FFF7A5FD401BAF
:107EB0006428F5D9C8E0E06858B1012805D03968D0
:107EC000052833D141F004003860386840F00100E3
:107ED00032E0386820F001003860386820F0040093
:107EE0003860FFF789FD0546386810F0020F36D07C
:107EF00041F28836FFF780FD401BB04200F2A480BB
:107F0000386810F0020FF5D129E000210160FFF779
:107F100073FD0546D9F8000010F0020F3FF444AF9E
:107F2000FFF76AFD401B0228F4D98DE021F0010023
:107F30003860386820F004003860FFF75DFD0546C2
:107F4000386810F0020F0AD141F28836FFF754FD6D
:107F5000401BB04278D8386810F0020FF6D0B8F164
:107F6000000F1EBF57F8040C20F0805047F8040C97
:107F7000E669002E64D057F81C0C00F00C000828AD
:107F800011D1012E0BD057F81C0C216A00F480325D
:107F90008A4204D1616A00F47010884250D00120F6
:107FA00003B0BDE8F08340F200080020C4F242288C
:107FB000C8F86000FFF720FD0546D9F80000022E42
:107FC00000F0007031D148B1FFF716FD401B0228C8
:107FD0003AD8D9F8000010F0007FF5D1206AB0F54A
:107FE000803F07D157F81C1CA26821F400311143CF
:107FF00047F81C1C57F81C1C626A104321F47411CA
:10800000084347F81C0C0120C8F86000FFF7F4FC97
:10801000044600BFD9F8000010F0007F10D1FFF730
:10802000EBFC001B0228F5D90EE048B1FFF7E4FC99
:10803000401B022808D8D9F8000010F0007FF5D1C5
:10804000002003B0BDE8F083032003B0BDE8F08357
:108050002DE9F04104460D46002C00F0A78041F2C6
:108060000407C4F20207D7F8FC0F00F00700A8428B
:108070000DD2D7F8FC0F20F007002843C7F8FC0FFB
:10808000D7F8FC0F00F00700A84240F08F8020686E
:1080900010F0020F11D0410742BF396841F4E0618E
:1080A0003960010742BF396841F46051396039686D
:1080B000A26821F0F00111433960C00737D0606831
:1080C000012808D157F8041C11F4003F04BF012017
:1080D000BDE8F0810BE057F8041C022805D18901A6
:1080E0005CBF0120BDE8F08101E089075ED53968F9
:1080F00021F0030108433860FFF77EFC064638682C
:10810000616800F00C00B0EB810F10D041F28838AC
:10811000FFF772FC801B404584BF0320BDE8F0815F
:108120003868616800F00C00B0EB810FF0D1D7F82F
:10813000FC0F00F00700A8420CD9D7F8FC0F20F084
:1081400007002843C7F8FC0FD7F8FC0F00F0070022
:10815000A8422BD1206810F0040F05D03968E268DE
:1081600021F4E06111433960000706D538682169C0
:1081700020F4605040EAC1003860396841F20020C4
:10818000C0F27A0001F00C02082A1DD14EF2E05331
:10819000C1F3834211F4803FC0F600039A5C08D11A
:1081A00040F60010C0F23D0050430DE00120BDE854
:1081B000F081396850434EF2BC52C0F60002C1F360
:1081C0004041515CB0FBF1F039684EF2A452C0F668
:1081D0000002C1F30311515CC84040F25C01C2F2DD
:1081E0000001086040F25000C2F200000068FFF792
:1081F000C3FB0020BDE8F08141F2040C41F20020F5
:10820000C4F2020CC0F27A00DCF8002002F00C0389
:10821000082B18BF70474EF2E051C2F3834312F4AB
:10822000803FC0F60001CB5C05D140F60010C0F2E3
:108230003D0058437047DCF800104EF2BC525843E2
:10824000C0F60002C1F34041515CB0FBF1F0704751
:10825000B0B586B0032041F218050C4602A905907E
:108260000220C4F202050390002004904FF48070B5
:108270000290286840F004002860286800F004009C
:108280000190019840F60000C4F2010000F0B0F83F
:1082900055F8140C20F0E060204345F8140C06B0AB
:1082A000B0BD00BF4C200121C4F2422001607047E4
:1082B0004C200021C4F242200160704740F25C0073
:1082C000C2F200000068704740F25C0041F2040115
:1082D0004EF2B452C2F20000C4F20201C0F6000233
:1082E00000680968C1F30221515CC840704700BFB3
:1082F00040F25C0041F204014EF2B452C2F20000BE
:10830000C4F20201C0F6000200680968C1F3C2218C
:10831000515CC840704700BF0F21016041F200016D
:10832000C4F202010A6812F4802F06BF0A6802F440
:1083300080324FF4A02242604A6802F40032826028
:108340000A6802F0010202610A68C2F3C4024261D3
:108350000A6A12F0040F06BF0A6A02F0010205223F
:10836000C2604A6A02F0010282610A68C2F30062D6
:108370000132C2614A6802F480320262496801F443
:1083800070114162704700BF0F22026041F2040287
:10839000C4F20202136803F003034360136803F09E
:1083A000F0038360136803F4E063C3604FF4E06399
:1083B000126803EAD202026142F20000C4F2020033
:1083C000006800F007000860704700BF10B541F278
:1083D0000804C4F20204206810F0800F08BF10BD2A
:1083E00000F004F88020A07010BD00BF70470000AE
:1083F0002DE9F04F83B0D1F80090B9F1000F00F0F3
:10840000F58041F60042062740F2004E4FF0010A87
:108410004FF0000B4FF0000CC4F20102C4F2010E49
:108420009042A0F18042A2F5843208BF05274FEAAE
:10843000B223052B4FF0000338BF4FEAB22700F1FB
:10844000140200920F2201970AFA0BF819EA080F9A
:1084500000F0C3804FF6FF754C68C1F21005AC42C6
:1084600010DC122C52D8DFE804F0330A4246515196
:108470005151515151515151515151494D00D1F822
:108480000CC043E04FF6FF75C1F22105AC420FDC92
:108490000025C1F21105AC421AD00025C1F2120527
:1084A000AC4215D00025C1F22105AC4210D02DE020
:1084B0000025C1F22205AC420AD00025C1F23105E7
:1084C000AC4205D00025C1F23205AC421ED100BF3E
:1084D0008D684DB1012D009D4FF0080C08BF00F1D3
:1084E0001005C5F8008011E04FF0040C0EE0CD68D7
:1084F00005F1080C0AE04FF0000C07E0CD6805F12B
:10850000040C03E0CD6805F10C0C00BF4FF6F876C3
:10851000BBF1080F04465F4628BF0434C3F6FF765C
:10852000256828BF3744BF0002FA07F6B5430CFAA6
:1085300007F635432560CC79E4064ED541F21804A0
:108540002BF00306C4F20204764425462C6844F05E
:1085500001042C602C6804F00104029403F00C0464
:10856000029F02FA04F54FF60847CFF6FF773A4626
:10857000B75827EA0505019F07FA04F42C43B450C5
:1085800040F20C460F224C68DEF80050C4F201069F
:1085900014F4803F0CBF25EA080545EA0805CEF82B
:1085A0000050A503DEF8045054BF25EA080545EA4B
:1085B0000805CEF80450E502DEF8085054BF25EA5D
:1085C000080545EA0805A402CEF80850346854BFEF
:1085D00024EA080444EA08043460D1F800900BF15E
:1085E000010B043339FA0BF47FF42EAF03B0BDE86E
:1085F000F08F00BF2DE9F04F81B0002900F0CD8051
:1086000041F600424FF0060A031D40F20048C4F252
:108610000102C4F201089042A0F1804208BF4FF06D
:10862000050A0093A2F584320023B3EBB22F5ED08B
:108630004FEAB22200250F274FF0000B531E042BE8
:1086400038BF9246012202FA0BF20A4048D04FEAA4
:108650009B0EA8F57E7C05F00C035CF82E909F40E5
:108660000AFA03F309EA07049C421BD15CF82E3096
:10867000BB434CF82E30D8F800309343C8F8003094
:10868000D8F804309343C8F80430D8F8083093433E
:10869000C8F8083040F20C43C4F201031F463B689F
:1086A00093433B606FEA020CB2F5807F009A4FF66D
:1086B000F8745E464FF00F07C3F6FF7438BF0246EA
:1086C000136828BF2644B60007FA06F4A34304241F
:1086D00004FA06F633431360C26802EA0C02C26071
:1086E0000BF1010B043531FA0BF2ABD155E000244C
:1086F0004FF001094FF00F0C4FF0040E002700BFA0
:1087000009FA07F20A4043D004F00C03BE080CFA41
:1087100003FBA8F57E7353F8265015EA0B0F1CD106
:1087200053F8265025EA0B0543F82650D8F80030B8
:108730009343C8F80030D8F804309343C8F80430A5
:10874000D8F808309343C8F8083040F20C43C4F21C
:1087500001031D462B6893432B606FEA020BB2F5B1
:10876000807F009A4FF6F8753E46C3F6FF7538BF16
:108770000246136828BF2E44B6000CFA06F5AB4338
:108780000EFA06F52B431360C26802EA0B02C260C0
:108790000137043431FA07F2B2D101B0BDE8F08FED
:1087A0008068084018BF0120704700BF002A08BF3A
:1087B00009040161704700BFC26800F114030A4256
:1087C00008BF00F110031960704700BF81B04FF47B
:1087D00080320092009A0A430092009A826181617D
:1087E00000998161816900910121806921EA10402D
:1087F00001B0704740F21441C4F201010A6802421C
:1088000014BF08607047FEF7C5BF00BF7047000087
:1088100001460120002908BF7047B0B540F2000CA6
:108820000C684FF6F832C4F2020CCBF6FD720CF570
:10883000816E0CF5806374453CBF0023C4F20203D3
:1088400038BF02F5806202EB040C4CF6CD42CCF648
:10885000CC42ACFB022C4FF6FC72C3F6FF7202EA6C
:108860009C02C1E9103243F6F073226822EA030C3D
:10887000D1E90132D1E903E543EA0C031A434B691C
:1088800042EA0E022A431A438B691A43CB691A4300
:1088900022600022CA63C1E908200020BDE8B04080
:1088A000704700BFB0B50125C0B3036840F2000CAB
:1088B0004FF6F834C4F2020CCBF6FD741A680CF5CE
:1088C000816E0CF58061734522F001021A604FF051
:1088D00000021A605A609A60DA603CBF0021C4F25C
:1088E000020138BF04F5806423444CF6CD44CCF635
:1088F000CC44A3FB04344FF6FC73C3F6FF7303EAC6
:108900009403C0E9101305FA03F300254B60C0E996
:108910000B22C0E90D22C263C0E908222846B0BD7F
:1089200070B58446DCF8200001282BD04FF0010EF2
:10893000CCF820E0DCF82400012820D1002002241B
:10894000CCF83C00CCF82440DCF80040256825F049
:1089500001052560DCE910560EFA06F66E606360CC
:10896000DCF80430102B0B4608BF1346A36008BF89
:108970000A46E260216841F00101216070BD0020DB
:10898000CCF82000022070BDB0B5D0F820C0BCF1FA
:10899000010F33D04FF0010EC0F820E0D0F824C012
:1089A000BCF1010F28D14FF0000CC0F83CC04FF0D3
:1089B000020CC0F824C0D0F800C0DCF8004024F05D
:1089C0000104CCF80040D0E910450EFA05F56560C9
:1089D000CCF804304368102B0B4608BF1346CCF884
:1089E000083008BF0A46CCF80C20016BDCF8000008
:1089F00031B140F00E000BE0002101620220B0BD59
:108A000020F00400CCF80000DCF8000040F00A0080
:108A1000CCF80000DCF8000040F00100CCF80000C9
:108A20000020B0BD416A022914D1016801230A68FF
:108A300022F00E020A600A6822F001020A60D0E900
:108A4000101203FA02F24A6000214362002202621D
:108A5000084670470421C1630121002202620846D2
:108A6000704700BF416A022926D10268116821F0CF
:108A70000E011160116821F0010111600421C4F29E
:108A8000020101F17C039A421BD940F20843C4F26F
:108A900002039A4248D040F21C43C4F202039A42B5
:108AA00046D040F23043C4F202039A4244D14FF41C
:108AB0008073C1F8003457E00421C16301210846E6
:108AC00070474323C4F202039A420EDD6B23C4F2C3
:108AD00002039A421BDC4423C4F202039A4239D0B7
:108AE0005823C4F202039A4231E00823C4F202037D
:108AF0009A4232D01C23C4F202039A4232D030236D
:108B0000C4F202039A4222D14FF480722BE06C230C
:108B1000C4F202039A4222D08023C4F202039A4292
:108B200015D14FF080721EE00123C1F800341BE024
:108B30001023C1F8003417E001F5886C4FF480333E
:108B4000624508BF4FF48053C1F800340CE04FF485
:108B5000803208E04FF4805205E0012203E04FF438
:108B6000801200E010220A6000210122C0E90812F0
:108B7000826B22B180B590470021BDE88040084655
:108B8000704700BF2DE9F04F81B0044616468A4673
:108B9000606A022830D12068016811F0200F33D1BB
:108BA00040F20008BAF1000FC4F2020808F108010F
:108BB000009130D0884250D06B214025C4F2020190
:108BC00088424CDD40F20741C4F20201884279DD5F
:108BD00040F20841C4F2020188423ED040F21C41FA
:108BE000C4F20201884200F0B58040F23041C4F284
:108BF0000201884242D092E0002020620420E0631B
:108C0000012001B0BDE8F08F4FF48070E0630120D7
:108C100001B0BDE8F08F884233D06B212025C4F22B
:108C2000020188422FDD40F20741C4F2020188426E
:108C300062DD40F20841C4F20201884221D040F2D4
:108C40001C41C4F20201884200F0848040F23041AD
:108C5000C4F20201884225D072E004257AE0432163
:108C6000C4F20201884220DC1C21C4F202018842C5
:108C700070D03021C4F20201884250D14FF4806597
:108C800068E0022566E04321C4F20201884226DC46
:108C90001C21C4F2020188425CD03021C4F20201DE
:108CA00088424DD14FF4007554E04421C4F20201D2
:108CB00088422ED05821C4F2020188422FD14FF4AD
:108CC000802547E06C21C4F20201884224D0802133
:108CD000C4F20201884222D14FF080653AE044217B
:108CE000C4F20201884225D05821C4F20201884210
:108CF00026D14FF400352DE06C21C4F202018842E8
:108D00001BD08021C4F20201884219D14FF00075B6
:108D100020E04FF480451DE04FF480051AE040F25A
:108D200044414FF48025C4F20201884208BF4FF449
:108D300080450FE04FF400550CE04FF4001509E0BA
:108D400040F244414FF40035C4F20201884208BFAA
:108D50004FF4005508F1800708F58069FEF74CFED6
:108D60008346206842460021B84288BF4A461368BD
:108D700088BF01212B4228D0BAF1000F00F0D68025
:108D8000002900F0F28040F2084240F24441C4F26F
:108D90000202C4F20201904200F0DC8140F21C4267
:108DA000C4F20202904200F0DD8140F23042C4F28F
:108DB0000202904240F0DE814FF4806241F8402C84
:108DC0000020206201B0BDE8F08F731C00F0DF804E
:108DD00006BBB84240F2A78140F20842D8F800141E
:108DE000C4F20202904200F02F8240F23042C4F2FC
:108DF0000202904200F02D8240F21C42C4F20202B4
:108E0000904240F02C82802202EA0100002840F0CB
:108E1000338254E2C90720D040F20842D8F8001447
:108E2000C4F20202904242D040F21C42C4F202025A
:108E3000904240D040F23042C4F20202904231D01F
:108E400040F24442C4F2020290424FF4002008BFB4
:108E50004FF40040084098B30EE24322D8F80010C7
:108E6000C4F2020290420EDD6B22C4F20202904272
:108E70003ADC4422C4F2020290424BD05822C4F29F
:108E80000202904240E00822C4F2020290420ED058
:108E90001C22C4F2020290420DD03022C4F202021F
:108EA000904231D14FF40060084048B1E4E108201D
:108EB000084028B1E0E180200840002840F0DC8133
:108EC000FEF79AFDA0EB0B00B04200F2F88120689B
:108ED0004146B84288BF49460A684FF0000188BF42
:108EE00001212A4296D047E76C22C4F20202904246
:108EF00016D08022C4F20202904205D14FF00060E9
:108F000008400028DCD0B7E14FF4002008400028DA
:108F1000D6D0B1E14FF4004008400028D0D0ABE1FA
:108F20004FF4000008400028CAD0A5E149B340F240
:108F3000084240F24441C4F20202C4F202019042EB
:108F400000F0398140F21C42C4F20202904200F06B
:108F5000368140F23042C4F20202904240F0338146
:108F60004FF4007241F8402CBDE10099884240F076
:108F7000A6800420C8F804000020206201B0BDE8EB
:108F8000F08F0099884240F0B4800220A9E140F2BD
:108F9000444340F2430C4FF40029C4F20203C4F2EC
:108FA000020C984208BF4FF4004900BFB8421DD9D7
:108FB00040F20843D8F80064C4F2020398424FD04C
:108FC00040F23043C4F2020398424ED040F21C43B8
:108FD000C4F20203984214BF4B4680233340002B57
:108FE00040F04A8113682B42E0D0C5E6D8F800E093
:108FF00060450EDD6B23C4F2020398421FDC44235C
:10900000C4F2020398423DD05823C4F202039842AE
:1090100031E00823C4F2020398423AD01C23C4F280
:10902000020398423CD03023C4F20203984222D17A
:109030004FF4006B0BEA0E03002BD3D01CE16C2322
:10904000C4F20203984232D08023C4F20203984251
:1090500011D14FF0006B0BEA0E03002BC2D00BE1D5
:1090600008233340002BBDD006E14FF400633340AA
:10907000002BB7D000E14FF4002B0BEA0E03002BBE
:10908000B0D0F9E04FF4004B0BEA0E03002BA9D04F
:10909000F2E04FF0080B0BEA0E03002BA2D0EBE03E
:1090A0004FF0800B0BEA0E03002B9BD0E4E04FF453
:1090B000000B0BEA0E03002B3FF494AFDCE05721CA
:1090C000C4F20201884262DC1C21C4F2020188421F
:1090D00000F0E2803021C4F20201884200F0DE801C
:1090E0004421C4F20201884240F0E1804FF4804004
:1090F00040E75721C4F2020188426DDC1C21C4F212
:109100000201884200F0E6803021C4F20201884268
:1091100000F0E2804421C4F20201884240F09180D4
:109120004FF40050DDE04322D8F80010C4F20202F0
:10913000904263DD6B22C4F20202904272DC442250
:10914000C4F20202904200F0D5805822C4F202021A
:109150009042AFE0042241F8402C0020206201B090
:10916000BDE8F08F402241F8402C0020206201B081
:10917000BDE8F08F4FF48022884208BF4FF4804250
:1091800041F8402C0020206201B0BDE8F08F58214A
:10919000C4F20201884200F084806C21C4F2020112
:1091A000884200F081808021C4F2020188427ED191
:1091B0004FF08060DEE6022241F8402C93E020224E
:1091C00041F8402C8FE04FF40032884208BF4FF442
:1091D000005241F8402C86E05821C4F20201884236
:1091E0002FD06C21C4F20201884278D08021C4F2D1
:1091F0000201884225D14FF0007072E00822C4F2CB
:10920000020290427CD01C22C4F2020290427CD026
:109210003022C4F2020290424CD14FF40060084068
:1092200050BB4CE06C22C4F20202904272D0802209
:10923000C4F2020290423DD14FF000600840D8B91C
:109240003DE04FF400304CE0082202EA010098B9FA
:1092500035E04FF4006202EA010068B92FE040F205
:1092600044434FF40022C4F20203984208BF4FF473
:10927000004202EA010010B3D4E91012012000FA02
:1092800002F24A600021C4E90810E16B41F00101DB
:10929000E16301B0BDE8F08F40206BE64FF48060E1
:1092A00068E64FF4802065E64FF4800062E64FF4F4
:1092B00080205FE64FF4002008400028DCD1012028
:1092C0000021C4E90810E16B41F02001E16301B025
:1092D000BDE8F08F202004E04FF4007001E04FF46F
:1092E0000010C8F80400012060620020206201B074
:1092F000BDE8F08F4FF4004008400028BCD1DEE705
:10930000082008400028B7D1D9E78020084000286D
:10931000B2D1D4E74FF4000008400028ACD1CEE72A
:1093200010B5D0E910C3DCF80020D0F800E0DEF87A
:10933000001011F0040F1EBF04249C4014EA020424
:1093400033D18C0763D502249C4014405FD0DEF8F3
:10935000001011F0200F07D1DEF8001021F00A01F3
:10936000CEF80010012141620422C4F2020202F18F
:109370007C018E4569D940F20841C4F202018E4554
:1093800000F0E08040F21C41C4F202018E4500F082
:10939000DD8040F23041C4F202018E4540F0DA80B7
:1093A0004FF40071C2F8001421E1DEF8001004222D
:1093B000C4F2020211F0200F02BFDEF8001021F00B
:1093C0000401CEF8001002F17C018E4552D940F222
:1093D0000841C4F202018E4500F0C78040F21C41F2
:1093E000C4F202018E4500F0C88040F23041C4F260
:1093F00002018E4540F0C9804FF48061C2F800142C
:10940000016B002900F00981BDE8104008470907F9
:1094100040F1038108219940114008BF10BDDEF8DA
:10942000001021F00E01CEF80010012101FA03F224
:10943000CCF804200022C163C0E90821416B002957
:1094400000F0EB80BDE8104008474321C4F2020160
:109450008E452CDD6B21C4F202018E4553DC442184
:10946000C4F202018E4500F0A2805821C4F202012C
:109470008E4599E04321C4F202018E452BDD6B211C
:10948000C4F202018E454BDC4421C4F202018E4538
:1094900000F090805821C4F202018E4540F0B68061
:1094A0004FF480211160016B0029ADD1B5E0082196
:1094B000C4F202018E4500F085801C21C4F2020135
:1094C0008E4500F081803021C4F202018E456BD1BF
:1094D0004FF400718AE00821C4F202018E4575D074
:1094E0001C21C4F202018E4577D03021C4F2020162
:1094F0008E4540F08B804FF480611160016B002934
:109500007FF482AF89E06C21C4F202018E456BD0FA
:109510008021C4F202018E4546D14FF0007165E012
:109520006C21C4F202018E4568D08021C4F2020190
:109530008E456BD14FF080611160016B00297FF483
:1095400063AF6AE00221C2F8001450E02021C2F8A3
:1095500000144CE002F588634FF400319E4508BFCB
:109560004FF40051C2F8001441E00421C2F8001485
:10957000016B00297FF448AF4FE04021C2F800148E
:10958000016B00297FF440AF47E002F588634FF498
:1095900080219E4508BF4FF48041C2F80014016B42
:1095A00000297FF431AF38E04FF400311EE04FF472
:1095B00000511BE04FF480411160016B00297FF4E2
:1095C00023AF2AE0022111E020210FE004211160E5
:1095D000016B00297FF418AF1FE040211160016B7F
:1095E00000297FF411AF18E04FF400111160002141
:1095F0000162C16A89B1BDE8104008474FF480019B
:109600001160016B00297FF4FFAE06E04FF480216A
:109610001160016B00297FF4F7AE10BD036A012BC6
:1096200002BF4FF0020C604670474FF0010CC0F8CB
:1096300020C0436A012B09D1032905D8DFE801F0D6
:10964000020A0C0EC2620AE04FF0010C0021016216
:1096500060467047026302E0426300E082634FF0BD
:10966000000C002101626046704700BF026A012AB7
:1096700002BF02221046704701220262436A012B98
:1096800008D104290AD8DFE801F0030E141A1C00DF
:109690000022C262002101621046704701220021AF
:1096A00001621046704700220263002101621046E9
:1096B0007047002242630021016210467047002279
:1096C00003E00022C0E90B224263826300210162B1
:1096D00010467047406A7047C06B70474EF60C5199
:1096E0004FF6FF03CEF200010A681A4060F30A2227
:1096F00042F0806040F0FD700860704710B500F0E7
:109700000F034EF60C5E00F1604CB0F1FF3FA3F189
:109710000403CEF2000E734403F10C04C8BF0CF531
:109720006444DEF80000C0F3022000F1040CC31E04
:1097300080F00700BCF1070F4FF0010C38BF002389
:10974000042828BF04200CFA00F0013808400CFA65
:1097500003F10F319840114008430001207010BD03
:109760000028B8BF704700F01F010122400902FA2B
:1097700001F14EF20012CEF2000242F820107047C2
:109780000028B8BF704700F01F010122400902FA0B
:1097900001F14EF28012CEF2000242F82010BFF327
:1097A0004F8FBFF36F8F704700F000F84EF60C50EC
:1097B000BFF34F8F0422CEF20000C0F2FA520168CC
:1097C00001F4E06111430160BFF34F8F00BFFDE77B
:1097D000411E0020B0EB116F1CBF012070474EF2FC
:1097E0001002F023CEF2000251604EF62351CEF269
:1097F00000010B7007219060116070474EF60C500D
:10980000CEF200000068C0F30220704710B54EF69B
:10981000145400F00F0E00F1604CB0F1FF3F01F066
:109820000701CEF20004A1F103007444C8BF0CF597
:10983000644494F800E00C1D81F00701072C38BF48
:10984000002004294FEA1E1C2CFA00F44FF0010CF2
:1098500028BF04210CFA01F10CFA00F001390F3095
:10986000214000EA1E101160186010BD0028B8BF2A
:10987000704700F01F010122400902FA01F14EF287
:109880000022CEF2000242F8201070470028BCBF30
:109890000020704700F01F010122400902FA01F187
:1098A0004EF20022CEF2000252F82000084018BF0B
:1098B000012070470028B8BF704700F01F01012247
:1098C000400902FA01F14EF28022CEF2000242F883
:1098D000201070470028BCBF0020704700F01F0117
:1098E0000122400902FA01F14EF20032CEF20002EA
:1098F00052F82000084018BF012070474EF21001B6
:109900000428CEF200010A6822F0040308BF42F0E6
:1099100004030B60704700BFAFF300807047000086
:1099200070B505469DB300264FF0000CAE62686D21
:1099300028B928462E65F6F781FDD5F828C0022102
:10994000696529680A6822F040020A60D5E90123A6
:10995000D5E903041A4310436A6920431043AA69F6
:1099600002F400731843EB6918432B6A184340EA6A
:109970000C000860042000EA12404860C86920F426
:109980000060C8610120AE656865304670BD012683
:10999000304670BD704700BF10B50446002C04BFB0
:1099A000012010BD022060652068016821F040019F
:1099B00001602046F6F780FD0020A0652065606507
:1099C00010BD00BF704700BF2DE9F04381B00446D1
:1099D0001D4616460F46206D012802BF022001B029
:1099E000BDE8F0834FF00109C4F85090FEF704F889
:1099F0008046606D012875D1002F4FF0010018BF1F
:109A0000002E00F010810320731E60650020B3FA61
:109A100083F3A065E6862763A686A063A087C4E9D2
:109A20001000E0875B09A1682068B1F5004F02BF14
:109A3000016841F480410160016811F0400F02BFEC
:109A4000016841F0400101606168E268B1FA81F1AA
:109A5000B2F5006F4FEA511141EA030144D131B12F
:109A600037F8021BC1602763E18E0139E186E18E80
:109A7000002900F07D80691C01D11CE0206881680C
:109A800011F0020F0AD1FDF7B7FFA0EB0800A842C2
:109A900080F0D080E08E0028F0D169E0216B31F8B1
:109AA000022BC2602163E08E0138E086E08E002840
:109AB000E4D15DE02068816811F0020F06D1FDF766
:109AC0009BFFE08E0028F5D152E000BF216B31F8FA
:109AD000022BC2602163E08E0138E086E08E002810
:109AE000E8D145E002209EE039B139780173206B5E
:109AF00001302063E08E0138E086E08EC0B3681C40
:109B00001ED000BF2068816811F0020F0AD1FDF756
:109B100073FFA0EB0800A84280F08E80E08E002842
:109B2000F0D125E0216B09780173206B01302063AF
:109B3000E08E0138E086E08E0028E3D118E000BF17
:109B40002068816811F0020F06D1FDF755FFE08E05
:109B50000028F5D10CE000BF216B09780173206B60
:109B600001302063E08E0138E086E08E0028E7D1E6
:109B70002068816811F0800F48D0691C0CD000BFAC
:109B8000FDF73AFFA0EB08012068A94215D28168D1
:109B900011F0800FF4D139E0816811F0800F35D0D9
:109BA000816811F0800F31D0816811F0800F2DD0C5
:109BB000816811F0800FEFD128E0416821F0E001C9
:109BC00041606168B1F5827F0AD1A168B1F5004FAB
:109BD00002D0B1F5806F03D1016821F0400101602E
:109BE000A16AB1F5005F07D1016821F4005101605D
:109BF000016841F40051016001216165A16D41F0EE
:109C00002001A165002121652021A165A16831B94C
:109C100000210091C1680091806800900098A06DBB
:109C2000002818BF012000212165C4F8549001B01C
:109C3000BDE8F0830320F6E70320F4E72DE9F043C5
:109C400081B004461D4617460E466068B0F5827F17
:109C500002D1A068002875D0206D012802BF022023
:109C600001B0BDE8F0834FF00109C4F85090FDF752
:109C7000C3FE8046606D012862D1002E4FF00100C6
:109C800018BF002F00F02B81042060650020A06524
:109C9000E787A663A7872063A086C4E91000E08653
:109CA000A1682068B1F5004F02BF016821F480412E
:109CB0000160016811F0400F02BF016841F04001EE
:109CC0000160E18FE268002A48D0002900F07F801F
:109CD000691C02D11DE000BF2068816811F0010FEE
:109CE0000AD1FDF789FEA0EB0800A84280F0FE80B3
:109CF000E08F0028F0D16AE0C068A16B21F8020B68
:109D0000A163E08F0138E087E08F0028E4D15EE0B6
:109D10002068816811F0010F06D1FDF76DFEE08F1C
:109D20000028F5D153E000BFC068A16B21F8020BF9
:109D3000A163E08F0138E087E08F0028E8D146E09A
:109D40000220CCE00420314632463B466065204686
:109D5000009500F0CFF801B0BDE8F083B9B3691CFD
:109D600001D11EE02068816811F0010F0AD1FDF7D2
:109D700043FEA0EB0800A84280F0BA80E08F0028E4
:109D8000F0D124E0007BA16B0870A06B0130A063D0
:109D9000E08F0138E087E08F0028E3D117E000BFB3
:109DA0002068816811F0010F05D1FDF725FEE08FD5
:109DB0000028F5D10BE0007BA16B0870A06B01308F
:109DC000A063E08F0138E087E08F0028E8D1606869
:109DD000B0F5827F20D1A168B1F5004F02D0B1F576
:109DE000806F19D12068B1F5806F026822F04002BF
:109DF000026011D1816811F0010F6CD0691C30D064
:109E0000FDF7FAFDA0EB08012068A9423AD280686C
:109E100010F0010FF4D15EE02068816811F0800F2E
:109E200059D0691C0CD000BFFDF7E6FDA0EB08017E
:109E30002068A94226D2806810F0800FF4D14AE051
:109E4000816811F0800F46D0816811F0800F42D0F8
:109E5000816811F0800F3ED0816811F0800FEFD142
:109E600039E0816811F0010F35D0816811F0010FE0
:109E700031D0816811F0010F2DD0816811F0010FF0
:109E8000EFD128E0416821F0E00141606168B1F55F
:109E9000827F0AD1A168B1F5004F02D0B1F5806F81
:109EA00003D1016821F040010160A16AB1F5005FB2
:109EB00007D1016821F400510160016841F40051AB
:109EC000016001206065A06D40F02000A0650020C9
:109ED00020652020A065A06D002818BF012000216A
:109EE0002165C4F8549001B0BDE8F0830320F6E783
:109EF0000320F4E72DE9F04182B004461F461546E1
:109F00000E46206D012802BF022002B0BDE8F0819C
:109F100001202065FDF770FD616D804601290CD0A0
:109F20006068B0F5827F40F0A2800220042940F0F2
:109F30009F80A168002940F09B80002E4FF0010017
:109F400018BF002D00F09480002F00F09180606D0C
:109F50007B1EB3FA83F304284FEA53131CBF05207A
:109F600060650020A065E787A563A7872663A786AD
:109F7000C4E91000E786089D2068016811F0400FD1
:109F800002BF016841F0400101606168E268B1FA16
:109F900081F1B2F5006F4FEA511141EA03016ED130
:109FA00031B136F8021BC1602663E08E0138E086CD
:109FB0000126681C32D000BFE08E18B9E08F00285F
:109FC00000F0C8802068816811F0020F0CD0E18E8B
:109FD000012E09D141B1216B002631F8022BC2605C
:109FE0002163E18E0139E186816811F0010F0AD009
:109FF000E18F41B1C068A16B012621F8020BA1637A
:10A00000E08F0138E087FDF7F7FCA0EB0800A842DD
:10A01000D2D303202CE000BFFDF7EEFCE08E18B990
:10A02000E08F002800F096802068816811F0020F10
:10A030000CD0E18E012E09D141B1216B002631F8FF
:10A04000022BC2602163E18E0139E186816811F043
:10A05000010FE1D0E18F0029DED0C068A16B01269D
:10A0600021F8020BA163E08F0138E087D4E70220DA
:10A07000002121650121616502B0BDE8F08139B19F
:10A0800031780173206B01302063E08E0138E08667
:10A090000126681C34D000BFE08E10B9E08F002884
:10A0A00058D02068816811F0020F0ED0E18E012E89
:10A0B0000BD151B1216B002609780173216B206807
:10A0C00001312163E18E0139E186816811F0010FD0
:10A0D0000BD0E18F49B1C068A16B01260870A06B5D
:10A0E0000130A063E08F0138E087FDF785FCA0EB2D
:10A0F0000800A842D0D30320BAE700BFFDF77CFCDC
:10A10000E08E08B9E08F28B32068816811F0020F53
:10A110000ED0E18E012E0BD151B1216B00260978B2
:10A120000173216B206801312163E18E0139E186E1
:10A13000816811F0010FE1D0E18F0029DED0C06805
:10A14000A16B01260870A06B0130A063E08F01387D
:10A15000E087D3E72168886810F0800F1ED0681C64
:10A160000CD000BFFDF748FCA0EB08002168A84216
:10A1700020D2886810F0800FF4D10FE0886810F0CA
:10A18000800F0BD0886810F0800F07D0886810F01F
:10A19000800F03D0886810F0800FEFD1A2680020F4
:10A1A000002A7FF465AF0190CA6801928968019125
:10A1B00001995DE7486820F0E00048606068B0F50C
:10A1C000827F0AD1A068B0F5004F02D0B0F5806F51
:10A1D00003D1086820F040000860A06AB0F5005F75
:10A1E00007D1086820F400500860086840F4005067
:10A1F000086001206065A16D41F02001A16500218A
:10A2000021652021A16533E7036D012B02BF0223E5
:10A210001846704701230029036518BF002A03D19F
:10A220000021016518467047436D012B34D110B5EC
:10A2300003234AF2C52E4AF2A52443650023C0F643
:10A24000000EC0F600048365C286016382868363C4
:10A2500083870168D0E902C2002A08BF7446BCF5B2
:10A26000004FC0E91034C387BDE8104002BF0A6840
:10A2700042F480420A6000234A6842F0A0024A6029
:10A280000A6812F0400F02BF0A6842F040020A60FA
:10A290000021016518467047022300210165184618
:10A2A000704700BF026B016832F8023BCB60C18E81
:10A2B0000139C1860263C18E002908BF01F0FCB8D4
:10A2C000704700BF026B016812780A73C18E0139B2
:10A2D000C186016B01310163C18E002908BF01F005
:10A2E000EBB8704710B5D0F808E0BEF1000F50D1C0
:10A2F0004368B3F5827F4CD104234365036D012B82
:10A300004AD001230365436D042B02D0012B40F09A
:10A310008E8000294FF0010C18BF002A4BD0436DEE
:10A320004FF0000C4AF2957EC0F6000E042B1CBFC5
:10A3300005234365C0F858C0C286016382868163E5
:10A340008287C287C2684AF235730168C0F600038B
:10A35000002A4AF2657208BF73464AF2C97EC0F607
:10A360000002C0F6000E08BF7246C0E910324A680B
:10A3700042F0E0024A600A6812F0400F1BD10A68FE
:10A380004FF0000C42F040020A6000210165604677
:10A3900010BD036D012B03D14FF0020C604610BDC0
:10A3A00001230365436D012B09D100294FF0010CF6
:10A3B00018BF002A09D100210165604610BD4FF089
:10A3C000020C00210165604610BD04234AF2256C91
:10A3D0004AF2195443650023C0F6000CC0F600048D
:10A3E0008365C2878163828703638386C26801684D
:10A3F000002A08BF6446BEF5004F4FF0000CC0E9CC
:10A400001043C38602BF0A6822F480420A604A6889
:10A4100042F060024A600A6812F0400F02BF0A6808
:10A4200042F040020A6000210165604610BD4FF015
:10A43000020C00210165604610BD00BFD0F850C07D
:10A44000BCF1010F02BF4FF0020C6046704780B5AF
:10A450004FF0010CC0F850C0D0F854E0BEF1010F2D
:10A4600042D100294FF0010C18BF002A4ED0002B1A
:10A470004CD0D0F854C04AF2957EC0F6000EBCF124
:10A48000040F1CBF4FF0050CC0F854C04FF0000C77
:10A49000C0F858C0C3860163838682638387C387FD
:10A4A0004AF23573C268C0F600030168002A4AF216
:10A4B000657208BF73464AF2C97EC0F60002C0F654
:10A4C000000E08BF7246C0E910324A6842F0E0024E
:10A4D0004A600A6812F0400F18D10A684FF0000C69
:10A4E00042F040020A6011E0D0F804C0BCF5827F5F
:10A4F0000AD14FF0020CBEF1040F07D1D0F808E0EA
:10A50000BEF1000FADD001E04FF0020C002101655B
:10A51000BDE8804060467047B0B582B00446206810
:10A52000C168A26B22F8021BE18F0139E187A263A7
:10A53000E18F00291CBF02B0B0BD416821F060016D
:10A540004160FDF759FA05466068B0F5827F1AD17F
:10A55000A168B1F5004F02D0B1F5806F13D120682A
:10A56000B1F5806F026822F0400202600BD100BF9B
:10A57000816811F0010F3CD0FDF73EFA411B2068C5
:10A580006429F5D30AE02068816811F0800F30D08B
:10A59000FDF732FA411B20686429F5D3416821F0A8
:10A5A000E00141606168B1F5827F0AD1A168B1F52F
:10A5B000004F02D0B1F5806F03D1016821F0400156
:10A5C0000160A16AB1F5005F07D1016821F4005173
:10A5D0000160016841F40051016001216165A16DD4
:10A5E00041F02001A16500212165A16D41F020010C
:10A5F000A165A16831B900210191C168019180680C
:10A600000190019801206065A06D28B1204602B03C
:10A61000BDE8B04000F0BCBE204602B0BDE8B0408E
:10A6200000F0BABEB0B582B004462068007BA16BD2
:10A630000870E08F0138E087A06B0130A063E08FE5
:10A6400000281CBF02B0B0BD2068416821F0600145
:10A650004160FDF7D1F905466068B0F5827F1AD1F7
:10A66000A168B1F5004F02D0B1F5806F13D1206819
:10A67000B1F5806F026822F0400202600BD100BF8A
:10A68000816811F0010F3CD0FDF7B6F9411B20683D
:10A690006429F5D30AE02068816811F0800F30D07A
:10A6A000FDF7AAF9411B20686429F5D3416821F020
:10A6B000E00141606168B1F5827F0AD1A168B1F51E
:10A6C000004F02D0B1F5806F03D1016821F0400145
:10A6D0000160A16AB1F5005F07D1016821F4005162
:10A6E0000160016841F40051016001216165A16DC3
:10A6F00041F02001A16500212165A16D41F02001FB
:10A70000A165A16831B900210191C16801918068FA
:10A710000190019801206065A06D28B1204602B02B
:10A72000BDE8B04000F034BE204602B0BDE8B04005
:10A7300000F032BE0168CA68836B23F8022BC28F17
:10A74000013AC2878363C28F002A18BF70474A68E4
:10A7500022F040024A60C18E002908BF00F02ABEE4
:10A76000704700BF026B016832F8023BCB60C38EBA
:10A77000013BC3860263C28E002A18BF70474A6835
:10A7800022F080024A60C18F002908BF00F012BE8B
:10A79000704700BF0168097B826B1170C18F01395E
:10A7A000C187816B01318163C18F002918BF704758
:10A7B00001684A6822F060024A60C18E002908BF21
:10A7C00000F0F8BD704700BF026B016812780A7391
:10A7D000C18E0139C186016B01310163C18E00292F
:10A7E00018BF704701684A6822F080024A60C18F32
:10A7F000002908BF00F0DEBD704700BFB0B50446B9
:10A80000206D012804BF0220B0BD01202065606DCD
:10A81000012808D100294FF0010018BF002A06D1F5
:10A8200000212165B0BD022000212165B0BD0320BB
:10A8300000234AF6C90C4AF6C10E4AF6991560651E
:10A84000A365E2862163A286A363C4E91033A387CC
:10A85000E387C0F6000CC0F6000EC0F60005A06845
:10A860002268B0F5004F02BF106840F480401060CD
:10A870000C32A06CC0E90BCEC0E90D53E38EFEF79D
:10A8800083F840B1A06D40F01000A0650120606524
:10A8900000212165B0BD2068016811F0400F02BFA2
:10A8A000016841F040010160416841F020014160D0
:10A8B000416841F002014160002000212165B0BDE6
:10A8C000806A00F06DBD00BF70B582B00646B46A04
:10A8D000FDF792F805463068006810F0200F55D15A
:10A8E0002068416821F020014160416821F00201A7
:10A8F000416000BF806810F0800F30D0FDF77CF819
:10A90000411B20686429F5D3416821F0E0014160D2
:10A910006168B1F5827F0AD1A168B1F5004F02D01C
:10A92000B1F5806F03D1016821F040010160A16A97
:10A93000B1F5005F07D1016821F4005101600168A1
:10A9400041F40051016001206065A06D40F02000DD
:10A95000A06500202065A06D40F02000A065A068E3
:10A9600040B9002001902068C0680190206880688C
:10A97000019001980020E08601206065A06D28B15B
:10A98000204602B0BDE8704000F002BD204602B093
:10A99000BDE8704000F0FEBC806A01684A6822F0A1
:10A9A00003024A60816D41F010018165012141651A
:10A9B00000F0EEBCB0B5044613460A46A16851B992
:10A9C0006068B0F5827F06D104201146606520469C
:10A9D000BDE8B04066E0206D012804BF0220B0BD94
:10A9E00001202065606D012808D1002A4FF0010088
:10A9F00018BF002B06D100212165B0BD0220002127
:10AA00002165B0BD04204FF0000CB1F5004F4AF6AF
:10AA1000B5314AF699156065C4F858C0E387A2635A
:10AA2000A387C4E910CCA4F834C0A4F836C04AF611
:10AA3000AD33C0F60001C0F60005D4F800E0C0F662
:10AA4000000302BFDEF8000020F48040CEF80000D2
:10AA5000E06C00F12C0787E82A100EF10C01E38F5F
:10AA6000FDF792FF40B1A06D40F01000A0650120FD
:10AA7000606500212165B0BD2068016811F0400FBC
:10AA800002BF016841F040010160416841F02001CE
:10AA90004160416841F001014160002000212165D1
:10AAA000B0BD00BFB0B50446206D012804BF022030
:10AAB000B0BD01202065656D012D09D06068B0F53D
:10AAC000827F5AD10220042D54D1A568002D51D186
:10AAD00000294FF0010018BF002A4BD0002B49D0AD
:10AAE000606D00254AF6B53E4AF6991CC0F6000E88
:10AAF000C0F6000C04281CBF05206065A565E38630
:10AB0000E3872163A386A263A387C4E910554AF6AD
:10AB1000A943616DC0F60003E06C04294AF6A14127
:10AB200008BF73464AF6AD3EC0F60001C0F6000EFF
:10AB300008BF7146C0E90B31C0E90DC5E38F21683C
:10AB40000C31FDF721FF78B92268506840F0010010
:10AB500050600C32A06CC0E90B55C0E90D55E38E76
:10AB6000216BFDF711FF60B1A06D40F01000A065F2
:10AB70000120606500212165B0BD02200021216512
:10AB8000B0BD2068016811F0400F02BF016841F0BC
:10AB900040010160416841F020014160416841F09D
:10ABA00002014160002000212165B0BD806A00F0F3
:10ABB000F9BB00BF70B50646B46AFCF71DFF054639
:10ABC0003068006810F0200F64D12068416821F0DF
:10ABD00020014160416821F0030141606168B1F5E5
:10ABE000827F19D1A168B1F5004F02D0B1F5806F15
:10ABF00012D10268B1F5806F22F0400202600BD1E1
:10AC0000806810F0010F3AD0FCF7F6FE411B206877
:10AC10006429F5D30AE000BF806810F0800F2ED0C1
:10AC2000FCF7EAFE411B20686429F5D3416821F056
:10AC3000E00141606168B1F5827F0AD1A168B1F598
:10AC4000004F02D0B1F5806F03D1016821F04001BF
:10AC50000160A16AB1F5005F07D1016821F40051DC
:10AC60000160016841F40051016001206065A06D40
:10AC700040F02000A065002020652020A065002075
:10AC8000E08701206065A06D20B12046BDE87040DE
:10AC900000F07EBB2046BDE8704000F07DBB00BFE9
:10ACA000806A00F081BB00BF70B50646B46AFCF74D
:10ACB000A3FE05463068006810F0200F53D12068CD
:10ACC00050F8041F21F020010160416811F0800F4D
:10ACD00039D000BFFCF790FE401B2168642805D2E4
:10ACE000886810F0800FF5D1081D2CE0084650F858
:10ACF000042F22F0E00202606268B2F5827F0AD17E
:10AD0000A268B2F5004F02D0B2F5806F03D10A6895
:10AD100022F040020A60A26AB2F5005F07D10A6819
:10AD200022F400520A600A6842F400520A600121CB
:10AD30006165A16D41F02001A16500212165A16D32
:10AD400041F02001A165016821F0030101600020AC
:10AD5000E086E08701206065A06D20B12046BDE857
:10AD6000704000F015BB2046BDE8704000F016BBF7
:10AD700010B584B0044640F25C0041F6F111C2F215
:10AD80000000C0F276510068A0FB0101480A64216E
:10AD9000484302900298039021680A4652F8040F33
:10ADA00020F020001060106810F0800F25D110688E
:10ADB00010F0400F39D1106810F0020F4DD0A06C88
:10ADC00000284AD000218163FDF72CFE00281CBF1B
:10ADD0004020A06521680A4652F8040F20F00200C6
:10ADE000106000BF039800284FD0039801380390EB
:10ADF000886810F0020FF5D02FE04AF6C560C0F663
:10AE000000006064039830B1039801380390606DCE
:10AE10000728F7D103E0A06D40F04000A06502983C
:10AE20000390106810F0400FC5D04AF6DD60C0F600
:10AE300000002064039830B1039801380390606DDE
:10AE40000728F7D103E0A06D40F04000A06502980C
:10AE50000390106810F0020FB1D1106810F0010FCC
:10AE60001BD0E06CC8B100218163FDF7DBFD002839
:10AE70001CBF4020A0652168086820F040000860E1
:10AE8000486820F00100486007E0A06D40F04000F5
:10AE9000A065106810F0010FE3D100230122E387C1
:10AEA000E386A06D40284FF001001CBFA365002081
:10AEB0000193CB680193896801910199626504B09F
:10AEC00010BD00BF01684A6822F080024A600A682B
:10AED00022F040020A6007214165704781B040F2CC
:10AEE0005C0141F6F112C2F20001C0F2765209682B
:10AEF000A1FB0212510A642251430091009941B111
:10AF000000990139009101688A6812F0020FF5D0AA
:10AF100004E00168826D42F0400282650A6822F016
:10AF200040020A604A6822F0E0024A60C9680721CC
:10AF3000416501B0704700BF70B584B0044640F26F
:10AF40005C0041F6F111C2F20000C0F276510068D7
:10AF5000A0FB0101480A6421484302900298039033
:10AF60002168486820F020004860486810F0800F91
:10AF700034D1486810F0400F74D1A06C40B14A68D9
:10AF80004BF29903C0F60003920703EAE272826370
:10AF9000E26C4AB14B684BF22516C0F6000603F08E
:10AFA00001035B4233409363496800284FF0010678
:10AFB00018BF11F0020120D12068406810F0010F85
:10AFC0002AD0E06C40B3FDF74DFD0025E0B3E06C06
:10AFD00085634020A0650025B6B31FE04AF6C56032
:10AFE000C0F60000606400BF039880B30398013886
:10AFF0000390606D0728F7D12DE0FDF733FD0026A3
:10B000000028D9D0A06C866340200126A065206866
:10B01000406810F0010FD4D10025AEB1E587E58678
:10B0200001250120A16D40294FF000011CBF002522
:10B03000A56501912168CA68019289680191019909
:10B040006065204600F0D6F8284604B070BDA06DBB
:10B0500040F04000A06502980390486810F0400F4F
:10B060003FF48BAF4AF6DD60C0F60000206400BFFD
:10B07000039830B1039801380390606D0728F7D129
:10B0800003E0A06D40F04000A06502980390A06C22
:10B0900000287FF474AF7BE780B582B0806A00221D
:10B0A000816C8A6340F25C0141F6F112C2F2000148
:10B0B000C0F276520968A1FB0212510A6422514380
:10B0C000019101684A6822F002024A60019969B15F
:10B0D0000199013901910168896811F0020FF5D0D9
:10B0E000C16C51B1896B41B102B080BD816D41F03D
:10B0F00040018165C16C0029F4D10021C187C1865E
:10B10000826D402A18BF816500910168C96800916D
:10B1100001688968009100990121416500F06AF891
:10B1200002B080BDB0B582B0846A00222068016898
:10B1300021F040010160E16C8A63416821F0010166
:10B140004160FCF759FC0546206800BF806810F09C
:10B15000800F30D0FCF750FC411B20686429F5D3E8
:10B16000416821F0E00141606168B1F5827F0AD158
:10B17000A168B1F5004F02D0B1F5806F03D101682D
:10B1800021F040010160A16AB1F5005F07D10168BB
:10B1900021F400510160016841F400510160012077
:10B1A0006065A06D40F02000A06500202065A06DC6
:10B1B00040F04000A065A06C20B1806B00281CBF4F
:10B1C00002B0B0BD0020E087E086A16D402918BF25
:10B1D000A06501902068C068019020688068019097
:10B1E000019801206065204602B0BDE8B04000F043
:10B1F00001B800BF704700BF016D012902BF0221E5
:10B200000846704701684A6822F003024A6000213C
:10B2100001650846704700BF016D012902BF022188
:10B220000846704701684A6842F003024A600021FC
:10B2300001650846704700BFB0B50446A06C90B1E8
:10B24000FDF7F0FB78B1A06D012540F01000A0657E
:10B25000E06C60B1FDF7E6FB48B1A06D012540F060
:10B260001000A06503E00025E06C0028F2D1206802
:10B27000416821F003014160012060652846B0BDAE
:10B2800010B584B0044620684168826811F0400F10
:10B2900009D002F04103012B05D1216C204604B0F6
:10B2A000BDE8104008470B0608D512F0020305D090
:10B2B000616C204604B0BDE8104008478B0659D5A4
:10B2C00012F0600356D012F0400315D0636D032BCB
:10B2D00007D100210291C168029180680290029812
:10B2E00048E0A36D43F00403A36500230393C36800
:10B2F000039383680393039B12F020020CD0A26D8A
:10B3000042F00102A2650022019282680192026865
:10B3100022F040020260019AA26D5AB34268890786
:10B3200022F0E00242604FF00102626524D04168E1
:10B3300021F003014160E06C60B14BF28531C0F651
:10B3400000018163FDF78EFB00281EBFA06D40F059
:10B350004000A065A06C68B14BF28531C0F60001D9
:10B360008163FDF77FFB28B1A06D40F04000A06530
:10B3700004B010BD04B010BD204604B0BDE81040BC
:10B3800000F006B8806A0021C187C186AFF3008053
:10B39000704700BF704700BF704700BF704700BFD5
:10B3A000704700BF704700BF704700BF406D7047D7
:10B3B000806D7047B0B582B0044640F25C0041F643
:10B3C000F111C2F20000C0F276510068A0FB010149
:10B3D000480A642148430190FCF70EFB05462068AB
:10B3E000416821F020014160019939B10199013989
:10B3F0000191816811F0020FF6D003E0A16D41F0D8
:10B400002001A165816811F0800F30D0FCF7F4FABB
:10B41000411B20686429F5D3416821F0E0014160B7
:10B420006168B1F5827F0AD1A168B1F5004F02D001
:10B43000B1F5806F03D1016821F040010160A16A7C
:10B44000B1F5005F07D1016821F400510160016886
:10B4500041F40051016001216165A16D41F02001BD
:10B46000A16500212165A16D41F02001A165A168C0
:10B4700041B1A06D80B1012060652046FFF788FFD3
:10B4800002B0B0BD00210091C168009180680090B9
:10B490000098A06D0028EED1606D0121616504283F
:10B4A00004D12046FFF778FF02B0B0BD2046FFF779
:10B4B00075FF02B0B0BD00BFB0B582B0044640F227
:10B4C0005C0041F6F111C2F20000C0F27651006852
:10B4D000A0FB0101480A642148430190FCF78CFA63
:10B4E000054600BF019840B10198013801902068DD
:10B4F000816811F0020FF5D004E02068A16D41F0E1
:10B500002001A165416821F0A0014160816811F02E
:10B51000800F30D0FCF770FA411B20686429F5D306
:10B52000416821F0E00141606168B1F5827F0AD194
:10B53000A168B1F5004F02D0B1F5806F03D1016869
:10B5400021F040010160A16AB1F5005F07D10168F7
:10B5500021F400510160016841F4005101600121B2
:10B560006165A16D41F02001A16500212165A16DFA
:10B5700041F02001A165A16831B900210091C168A5
:10B58000009180680090009801206065A06D20B156
:10B590002046FFF7FDFE02B0B0BD2046FFF7FAFEE1
:10B5A00002B0B0BD10B50446002C04BF012010BD90
:10B5B000E06B20B90020A0632046F4F7B3FF2420FD
:10B5C000E0632068C16821F40051C1600169E2684C
:10B5D00021F44051114341F20C620161D4F808C0DA
:10B5E000D4E904E3C16891434EEA0C021A431143C3
:10B5F000C1604169A26921F440711143416143F680
:10B600000001C4F20101884202D0FCF75DFE01E0B6
:10B61000FCF76EFE192148F21F5C4843D4E9001282
:10B62000C5F2EB1C9200B0FBF2F0A0FB0C32520909
:10B630006FF0630302FB0300322303EB0010A0FB57
:10B640000C03F02000EA531000EB0210C3F3431286
:10B6500010438860086920F490400861486920F030
:10B660002A004861C86840F40050C86000202021CA
:10B670006064E163216410BD704700BF10B50446EB
:10B68000002C04BF012010BDE06B20B90020A06396
:10B690002046F4F747FF2420E0632068C16821F4C6
:10B6A0000051C1600169E26821F44051114341F247
:10B6B0000C620161D4F808C0D4E904E3C168914385
:10B6C0004EEA0C021A431143C1604169A26921F498
:10B6D00040711143416143F60001C4F20101884207
:10B6E00002D0FCF7F1FD01E0FCF702FE192148F25F
:10B6F0001F5C4843D4E90012C5F2EB1C9200B0FB7A
:10B70000F2F0A0FB0C3252096FF0630302FB03005E
:10B71000322303EB0010A0FB0C03F02000EA5310CF
:10B7200000EB0210C3F3431210438860086920F451
:10B7300090400861486920F022004861486940F063
:10B7400008004861C86840F40050C860002020210B
:10B750006064E163216410BDF0B581B004460F461A
:10B7600074B3E06B20B90020A0632046F4F7DAFE42
:10B77000242041F20C66E0632068C16821F4005186
:10B78000C1600169E26821F4405111430161A1687F
:10B79000D4E90423C568114325EA06061943314359
:10B7A000C1604169A26921F440711143416143F6CE
:10B7B0000001C4F20101884205D0FCF785FD04E0D8
:10B7C000012001B0F0BDFCF793FD19214143D4E9FC
:10B7D00000029200B1FBF2F148F21F52C5F2EB12E7
:10B7E000A1FB023673096FF0630603FB06113226D4
:10B7F00006EB0111A1FB0212F02101EA5211C2F382
:10B80000431201EB031111438160016921F40061CE
:10B810000161416921F02A014161016941F48041DE
:10B820000161016921F02001016101693943016170
:10B83000C16841F40051C160002020216064E163CF
:10B84000216401B0F0BD00BF2DE9F04104469046EF
:10B850000E46002C04BF0120BDE8F081E06B20B94A
:10B860000020A0632046F4F75DFE242041F20C671F
:10B87000E0632068C16821F40051C1600169E26899
:10B8800021F4405111430161A168D4E90423C56842
:10B89000114325EA070719433943C1604169A26989
:10B8A00021F440711143416143F60001C4F20101EA
:10B8B000884202D0FCF708FD01E0FCF719FD1921D0
:10B8C0004143D4E900029200B1FBF2F148F21F5269
:10B8D000C5F2EB12A1FB02377B096FF0630703FB94
:10B8E0000711322707EB0111A1FB0212F02101EA37
:10B8F0005211C2F3431201EB03111143816001693C
:10B9000021F490410161416921F02A0141610169FD
:10B9100021F00F010161016931430161C16821F426
:10B920000061C160C16841EA0801C160C16841F4B9
:10B930000051C160002020216064E1632164BDE802
:10B94000F08100BF10B50446002C04BF012010BDDB
:10B950002420E0632068C16821F40051C1602046C2
:10B96000F4F75EFE00206064E063A063206410BD15
:10B97000704700BF2DE9F04704461D4616460F46A6
:10B98000E06B20280AD1002F4FF0010018BF002ED5
:10B9900001D1BDE8F087A06B012802D10220BDE8EB
:10B9A000F087002060640120A0632120E063FCF7A1
:10B9B00023F8E684A6848046E08C002875D02068B1
:10B9C000691C47D04FF0200A4FF00009E18C013983
:10B9D000E184A668016811F0800F0CD1FDB100BFB1
:10B9E000FCF70AF8A0EB08012068A94217D8016803
:10B9F00011F0800FF4D00021B6F5805F21D100292D
:10BA000040F07D8039886FF35F2141602169002912
:10BA100014BF01370237E18C0029D7D146E0C16855
:10BA200021F4D071C160416921F00101416101211E
:10BA3000C4F83CA0C4F83890C4F840A0B6F5805FC4
:10BA4000DDD000295BD117F8011B4160E18C002992
:10BA5000BCD12BE0E18C0139E184A168026812F0CD
:10BA6000800F0BD1026812F0800F07D1026812F02C
:10BA7000800F03D1026812F0800FEFD0B1F5805F24
:10BA80000CD139886FF35F214160216900290CBF17
:10BA900002370137E18C0029DCD107E017F8011BE0
:10BAA0004160E18C0029D5D100E02068016811F0E7
:10BAB000400F1ED135B3691C10D1016811F0400F41
:10BAC00017D1016811F0400F13D1016811F0400F38
:10BAD0000FD1016811F0400FEFD00AE0FBF78CFFA7
:10BAE000A0EB08012068A9420CD8006810F0400FB4
:10BAF000F4D000202021A063E163BDE8F08703209B
:10BB0000BDE8F087C16821F4D071C160416921F0BE
:10BB10000101416120200021E063A1632064032032
:10BB2000BDE8F0872DE9F04F81B005461F46164667
:10BB30008946286C20280AD1B9F1000F4FF001087E
:10BB400018BF002E09D1404601B0BDE8F08F4FF07C
:10BB50000208404601B0BDE8F08FA86B012805D16E
:10BB60004FF00208404601B0BDE8F08F4FF00008EA
:10BB70000120C5F84480A86322202864FBF73CFF1D
:10BB8000EE85AE850446E88D002800F08680781C9E
:10BB900050D04FF0200B4FF0000A00BFE88D013865
:10BBA000E8852868AE68016811F0200F0AD1CFB18E
:10BBB000FBF722FF011B2868B94213D8016811F076
:10BBC000200FF5D00021B6F5805F1DD100296CD182
:10BBD0002969406831B3C0B229F8010BE88D00280B
:10BBE000DCD15AE0C16821F4D071C160416921F013
:10BBF000010141610121C5F83CB0C5F838A0C5F884
:10BC000040B0B6F5805FE1D0002954D12969406881
:10BC1000002918BF00F07F0009F8010BE88D00280B
:10BC2000BCD13AE06FF35F2029F8020BE88D0028C1
:10BC3000B4D132E0E88D0138E8852868A968026847
:10BC400012F0200F0CD1026812F0200F08D1026808
:10BC500012F0200F04D1026812F0200FEFD000BFC5
:10BC6000B1F5805F0ED129694068002907BF6FF3E5
:10BC70005F2029F8020BC0B229F8010BE88D0028DB
:10BC8000D8D10AE029694068002918BF00F07F0078
:10BC900009F8010BE88D0028CCD12020C5F83880A8
:10BCA0002864404601B0BDE8F08F4FF003084046DD
:10BCB00001B0BDE8F08F4FF00308404601B0BDE889
:10BCC000F08F00BF0346D86B202809D100294FF020
:10BCD000010018BF002A00D17047986B012801D1DC
:10BCE000022070470020DA8458649A841962212166
:10BCF0009863D9631968CA6842F08002CA607047C5
:10BD00000346186C202809D100294FF0010018BF04
:10BD1000002A00D17047986B012801D1022070479A
:10BD20000020DA8558649A85996222219863196403
:10BD30001968CA6842F48072CA604A6942F0010216
:10BD40004A61CA6842F02002CA607047B0B5054631
:10BD50001346E86B202809D1002918BF002B02D117
:10BD600001242046B0BDA86B012802D10224204640
:10BD7000B0BD00240120EB844BF6F15C4BF6C952B8
:10BD80004BF6F95E6C642962A8632120AB84C0F68F
:10BD9000000CC0F60002C0F6000EE863286B00F14C
:10BDA0002C0787E8045084632A680432FCF7ECFD12
:10BDB00028686FF040010160AC63416941F0800187
:10BDC00041612046B0BD00BF0168806A096811F07A
:10BDD000200F18BF00F0F6BB0021C1840068416944
:10BDE00021F080014161C16841F04001C1607047AC
:10BDF000806A00F0E9BB00BF806A01684A69C36BD2
:10BE0000212B0AD112F0800207D00022C284CA6816
:10BE100022F0C002CA602022C2634A69036C222B4E
:10BE20000ED112F040020BD00022C285CA6822F463
:10BE30009072CA604A6922F001024A6120210164BD
:10BE4000416C41F01001416400F0BABBB0B582B062
:10BE5000054613460A46286C202808D15AB173B10A
:10BE6000A86B01280FD10224204602B0B0BD0224E5
:10BE7000204602B0B0BD0124204602B0B0BD01246E
:10BE8000204602B0B0BD002401204BF6297C4BF6C1
:10BE9000F1614BF6F95E6C64AA62A8632220AB855F
:10BEA000C0F6000CC0F60001C0F6000E2864686BF6
:10BEB00000F12C0787E80250846329680431FCF7FD
:10BEC00063FD01942868016801914168019101991D
:10BED000AC63C16841F48071C160416941F0010106
:10BEE0004161416941F040014161204602B0B0BD6D
:10BEF0000168806A096811F0200F18BF00F066BB66
:10BF00000021C1850168CA6822F48072CA604A694A
:10BF100022F001024A614A6922F040024A6120216E
:10BF2000016400F053BB00BF806A00F051BB00BF4A
:10BF3000816B012902BF02210846704701218163FC
:10BF400001684A69C36B212B06D112F080021EBF23
:10BF50004A6922F080024A614A69036C222B0ED1A1
:10BF600012F040020BD0CA6822F48072CA604A699B
:10BF700022F001024A614A6922F040024A6100212E
:10BF800081630846704700BF816B012902BF02210F
:10BF90000846704701218163C16B212906D0016CDD
:10BFA00022290BD0002181630846704701684A6945
:10BFB00042F080024A61016C2229F3D181B0002154
:10BFC000009101680A6800924A680092009ACA6863
:10BFD00042F48072CA604A6942F001024A614A69C9
:10BFE00042F040024A6101B0002181630846704777
:10BFF00010B5044621684869E26B212A11D110F07E
:10C0000080000ED0486920F080004861206B10B19C
:10C01000FCF708FD2168C86820F0C000C860202037
:10C02000E0634869226C222A15D110F0400012D03A
:10C03000486920F040004861606B10B1FCF7F2FCE9
:10C040002168C86820F49070C860486920F0010039
:10C05000486120202064002010BD00BF10B50446B8
:10C060002068C16821F4F071C160416921F00101CB
:10C070004161416911F0800F0FD0416921F08001C9
:10C080004161206B48B100218163FCF7CBFC20B1FA
:10C09000206BFDF721FB202814D02068416911F0A6
:10C0A000400F13D0416921F040014161606B68B1DC
:10C0B00000218163FCF7B6FC40B1606BFDF70CFB1F
:10C0C000202803D110206064032010BD002020210F
:10C0D000E084E08560642164E16310BD10B504462E
:10C0E0002068C16821F0C001C160416911F0800F72
:10C0F00013D0416921F080014161206B68B10021BA
:10C100008163FCF78FFC40B1206BFDF7E5FA202836
:10C1100003D110206064032010BD00202021E084A2
:10C12000E16310BD10B504462068C16821F4907128
:10C13000C160416921F001014161416911F0400F85
:10C1400013D0416921F040014161606B68B1002169
:10C150008163FCF767FC40B1606BFDF7BDFA2028F6
:10C1600003D110206064032010BD00202021E08551
:10C17000216410BD10B504462168C86820F4F07031
:10C18000C860486920F001004861206B40B14A69ED
:10C190004CF21923C0F60003120603EAE27282632E
:10C1A000626B4AB14B694FEA436C4CF23D23C0F6D7
:10C1B000000303EAEC7393634A6912F0800F0BD01B
:10C1C0004A69002822F080024A6105D0FCF74AFC47
:10C1D000002110B1206B816301212068426912F0B7
:10C1E000400F0CD0426922F040024261606B30B1D6
:10C1F000FCF738FC70B1606B0021816300E049B14D
:10C200000020E084E08560642020E0632064204614
:10C2100000F026F8002010BD806A0021026B9163B7
:10C22000426B1AB1926B002A18BF7047C184C18556
:10C2300041642021C163016400F012B8806A0021CA
:10C24000426B9163026B1AB1926B002A18BF704760
:10C25000C184C18541642021C1630164AFF30080C2
:10C26000704700BF10B504462068C16821F0C001C6
:10C27000C160416911F0800F08D10020E0842020C6
:10C28000E063204600F028F8002010BD416921F04D
:10C2900080014161206B68B14CF2C921C0F60001F8
:10C2A0008163FCF7DFFB0028EED0206B816B8847B1
:10C2B000002010BD0020E0842020E063204600F034
:10C2C0000BF8002010BD00BF806A0021C18420212E
:10C2D000C16300F001B800BF704700BF10B504464D
:10C2E0002068C16821F49071C160416921F00101A9
:10C2F0004161416911F0400F08D10020E085202004
:10C300002064204600F028F8002010BD416921F08B
:10C3100040014161606B68B14CF24931C0F60001E7
:10C320008163FCF79FFB0028EED0606B816B884730
:10C33000002010BD0020E08520202064204600F071
:10C340000BF8002010BD00BF806A0021C1852021AC
:10C35000016400F001B800BF704700BFB0B50546EA
:10C3600028680168C268436911F00F0F49D002F4D0
:10C37000907403F001031C4362D0CC071FBF12F47A
:10C3800080746C6C44F001046C644C0705D5002B80
:10C390001EBF6C6C44F002046C648C0705D5002B46
:10C3A0001EBF6C6C44F004046C640C0705D5002BB4
:10C3B0001EBF6B6C43F008036B646B6C002B00F0CA
:10C3C000F8801140890640F1C080296C222940F094
:10C3D000BC80A968B1F5805F40F093802969FF2394
:10C3E000AA6A002908BF40F2FF134068002900EA4A
:10C3F000030010804FF0010008BF02201044A86223
:10C400008AE001EA02039B061AD5296C222940F032
:10C41000D080A968B1F5805F38D12969FF23AA6A65
:10C42000002908BF40F2FF134068002900EA03001A
:10C4300010804FF0010008BF02201044A86230E0D5
:10C4400011400A0614D5E96B212940F0B280AA6890
:10C45000296AB2F5805F40D10A8801236FF35F2219
:10C4600042602A69002A08BF02231944296238E081
:10C47000490658BFB0BDC16821F04001C16020200D
:10C48000E8632846BDE8B04000F09CB829694068E0
:10C490000029A96A01F10102AA6218BF00F07F0019
:10C4A0000870E88D4FF6FF7101380842E88540F0CA
:10C4B00080802868C16821F02001C160C16821F432
:10C4C0008071C160416921F001014161202028642F
:10C4D0002846BDE8B04000F079B84A1C2A620978C5
:10C4E0004160E98C4FF6FF7201391142E98460D155
:10C4F000C16821F08001C160C16841F04001C160A4
:10C50000B0BD296940680029A96A01F10102AA6247
:10C5100018BF00F07F000870E88D4FF6FF710138FA
:10C520000842E88511D12868C16821F02001C16066
:10C53000C16821F48071C160416921F0010141614C
:10C5400020202864284600F041F8286841696A6C78
:10C5500001F0400102F00802114325D0C16821F426
:10C560009071C160416921F001014161202129647C
:10C57000416911F0400F12D0416921F04001416141
:10C58000686B60B14CF2B551C0F600018163FCF7F5
:10C5900069FA70B1686B816BBDE8B0400847284606
:10C5A000BDE8B04000F00CB8284600F009F80020C3
:10C5B0006864B0BD806A0021C185C184AFF300808A
:10C5C000704700BF704700BF704700BF704700BF93
:10C5D000704700BF816B012902BF022108467047E6
:10C5E0002421C1630168CA6842F00102CA600021C7
:10C5F00020228163C2630846704700BF816B012916
:10C6000002BF0221084670472421C1630168CA683D
:10C6100042F00202CA60002120228163C263084600
:10C62000704700BF816B012902BF02210846704795
:10C630002421C1630168CA6822F00202CA60002195
:10C6400020228163C2630846704700BF0146022072
:10C650008A6B012A08BF70472422CA630A68D3681C
:10C6600060F383030020D36020228863CA6370478D
:10C67000816B012902BF0221084670472421012352
:10C68000C1630168CA6863F38302CA600021202283
:10C690008163C26308467047C16B006C08437047F2
:10C6A000406C70472DE9F04F81B040F2501A40F2D3
:10C6B000600B47F2BC410746C2F2000AC2F2000B0F
:10C6C000C3F69341DAF80060DBF80000DAE9069877
:10C6D000CAF8086000F03AFE4CF283010446C3F643
:10C6E0000A71CAF8104000F031FE0146204600F001
:10C6F000B7FE05464FF07E502946CAF8045000F0B8
:10C7000077FE0146204600F079FE04463846CBF815
:10C71000004001F0A1F83146074600F069FE0146ED
:10C72000284600F06BFE314600F010FE054630460C
:10C730002946CAF80C50CAF81440CAF8005000F054
:10C7400057FE20F00041484600F000FECAF81800ED
:10C750003846294600F04CFE20F00040414600F0EB
:10C76000F5FDCAF81C00284601B0BDE8F08F00BFF7
:10C770002DE9F04F81B040F2501A40F2640B47F2BD
:10C78000BC410746C2F2000AC2F2000BC3F6934155
:10C79000DAF82060DBF80000DAE90E98CAF82860C1
:10C7A00000F0D4FD4CF283010446C3F60A71CAF8C6
:10C7B000304000F0CBFD0146204600F051FE05461A
:10C7C0004FF07E502946CAF8245000F011FE014671
:10C7D000204600F013FE04463846CBF8004001F036
:10C7E0003BF83146074600F003FE0146284600F0BC
:10C7F00005FE314600F0AAFD054630462946CAF836
:10C800002C50CAF83440CAF8205000F0F1FD20F056
:10C810000041484600F09AFDCAF8380038462946DB
:10C8200000F0E6FD20F00040414600F08FFDCAF820
:10C830003C00284601B0BDE8F08F00BF2DE9F04F65
:10C8400081B040F2501A40F2680B47F2BC410746F3
:10C85000C2F2000AC2F2000BC3F69341DAF840605C
:10C86000DBF80000DAE91698CAF8486000F06EFDBF
:10C870004CF283010446C3F60A71CAF8504000F036
:10C8800065FD0146204600F0EBFD05464FF07E5069
:10C890002946CAF8445000F0ABFD0146204600F09E
:10C8A000ADFD04463846CBF8004000F0D5FF3146D8
:10C8B000074600F09DFD0146284600F09FFD3146E9
:10C8C00000F044FD054630462946CAF84C50CAF8E7
:10C8D0005440CAF8405000F08BFD20F0004148461B
:10C8E00000F034FDCAF858003846294600F080FDB3
:10C8F00020F00040414600F029FDCAF85C002846BF
:10C9000001B0BDE8F08F00BF2DE9F04F81B040F2DB
:10C91000501A40F26C0B47F2BC418146C2F2000A49
:10C92000C2F2000BC3F69341DAF86050DBF8000066
:10C93000DAF87880CAF8685000F008FD4CF28301FC
:10C940000746C3F60A71CAF8707000F0FFFC014692
:10C95000384600F085FD04464FF07E502146CAF867
:10C96000644000F045FD0146384600F047FD0646AC
:10C970004846CBF8006000F06FFF2946814600F082
:10C9800037FD0146204600F039FD294600F0DEFC67
:10C99000074628463946CAF86C70CAF87460CAF867
:10C9A000607000F025FD20F00041404600F0CEFC14
:10C9B000CAF878004846394600F01AFD40F2602473
:10C9C00020F00040C2F20004216800F0BFFC2060AB
:10C9D000384601B0BDE8F08F2DE9F04F81B040F24C
:10C9E000602740F2700B47F2BC418246C2F200075A
:10C9F000C2F2000BC3F693417E68D7E90798DBF8D3
:10CA00000000FE6000F0A2FC4CF283010446C3F675
:10CA10000A717C6100F09AFC0146204600F020FD7E
:10CA200005464FF07E502946BD6000F0E1FC01460E
:10CA3000204600F0E3FC04465046CBF8004000F0EE
:10CA40000BFF3146824600F0D3FC0146284600F039
:10CA5000D5FC314600F07AFC0546304629463D615A
:10CA6000BC617D6000F0C4FC20F00041484600F04D
:10CA70006DFCF8615046294600F0BAFC20F00040F9
:10CA8000414600F063FC3862284601B0BDE8F08FF3
:10CA90002DE9F04F81B040F2602740F2740B47F26D
:10CAA000BC418246C2F20007C2F2000BC3F69341BA
:10CAB0007E6AD7E90F98DBF80000FE6200F046FCC2
:10CAC0004CF283010446C3F60A717C6300F03EFC1D
:10CAD0000146204600F0C4FC05464FF07E50294632
:10CAE000BD6200F085FC0146204600F087FC04464C
:10CAF0005046CBF8004000F0AFFE3146824600F0D1
:10CB000077FC0146284600F079FC314600F01EFC17
:10CB10000546304629463D63BC637D6200F068FCF3
:10CB200020F00041484600F011FCF86350462946C9
:10CB300000F05EFC20F00040414600F007FC386445
:10CB4000284601B0BDE8F08F2DE9F04F81B040F2EA
:10CB5000602740F2780B47F2BC418246C2F20007E0
:10CB6000C2F2000BC3F693417E6CD7E91798DBF84D
:10CB70000000FE6400F0EAFB4CF283010446C3F6B9
:10CB80000A717C6500F0E2FB0146204600F068FC7B
:10CB900005464FF07E502946BD6400F029FC014651
:10CBA000204600F02BFC04465046CBF8004000F035
:10CBB00053FE3146824600F01BFC0146284600F039
:10CBC0001DFC314600F0C2FB0546304629463D6556
:10CBD000BC657D6400F00CFC20F00041484600F08C
:10CBE000B5FBF8655046294600F002FC20F00040F5
:10CBF000414600F0ABFB3866284601B0BDE8F08F37
:10CC00002DE9F04740F2602940F27C0A47F2BC412E
:10CC10008046C2F20009C2F2000AC3F69341D9F875
:10CC20006440DAF80000C9F86C4000F08FFB4CF269
:10CC300083010646C3F60A71C9F8746000F086FBEA
:10CC40000146304600F00CFC07464FF07E50394656
:10CC5000C9F8687000F0CCFB0146304600F0CEFB0E
:10CC600005464046CAF8005000F0F6FD21468046D1
:10CC700000F0BEFB0146384600F0C0FB214600F044
:10CC800065FB064620463146C9F87060C9F8785001
:10CC9000C9F8646000F0ACFB40F2E02520F00041F0
:10CCA000C2F20005D5E9000400F050FB28604046C0
:10CCB000314600F09DFB20F00040214600F046FB8D
:10CCC00068603046BDE8F0872DE9F04F81B040F252
:10CCD000E02A40F2800B47F2BC410746C2F2000A4C
:10CCE000C2F2000BC3F69341DAF80860DBF80000EB
:10CCF000DAE90898CAF8106000F028FB4CF28301CA
:10CD00000446C3F60A71CAF8184000F01FFB01463A
:10CD1000204600F0A5FB05464FF07E502946CAF894
:10CD20000C5000F065FB0146204600F067FB04460E
:10CD30003846CBF8004000F08FFD3146074600F042
:10CD400057FB0146284600F059FB314600F0FEFA39
:10CD5000054630462946CAF81450CAF81C40CAF89D
:10CD6000085000F045FB20F00041484600F0EEFA84
:10CD7000CAF820003846294600F03AFB20F000406F
:10CD8000414600F0E3FACAF82400284601B0BDE8A5
:10CD9000F08F00BF2DE9F04F81B040F2E02A40F261
:10CDA000840B47F2BC410746C2F2000AC2F2000BF4
:10CDB000C3F69341DAF82860DBF80000DAE910984E
:10CDC000CAF8306000F0C2FA4CF283010446C3F6A0
:10CDD0000A71CAF8384000F0B9FA0146204600F05E
:10CDE0003FFB05464FF07E502946CAF82C5000F014
:10CDF000FFFA0146204600F001FB04463846CBF816
:10CE0000004000F029FD3146074600F0F1FA0146E6
:10CE1000284600F0F3FA314600F098FA054630460D
:10CE20002946CAF83450CAF83C40CAF8285000F0E5
:10CE3000DFFA20F00041484600F088FACAF84000C6
:10CE40003846294600F0D4FA20F00040414600F070
:10CE50007DFACAF84400284601B0BDE8F08F00BF53
:10CE60002DE9F04F81B040F2E02A40F2880B47F202
:10CE7000BC410746C2F2000AC2F2000BC3F693415E
:10CE8000DAF84860DBF80000DAE91898CAF8506070
:10CE900000F05CFA4CF283010446C3F60A71CAF84A
:10CEA000584000F053FA0146204600F0D9FA0546F2
:10CEB0004FF07E502946CAF84C5000F099FA0146CE
:10CEC000204600F09BFA04463846CBF8004000F0BC
:10CED000C3FC3146074600F08BFA0146284600F0B5
:10CEE0008DFA314600F032FA054630462946CAF836
:10CEF0005450CAF85C40CAF8485000F079FA20F063
:10CF00000041484600F022FACAF860003846294637
:10CF100000F06EFA20F00040414600F017FACAF81F
:10CF20006400284601B0BDE8F08F00BF2DE9F0474E
:10CF300040F2E02940F28C0A47F2BC418046C2F23E
:10CF40000009C2F2000AC3F69341D9F86840DAF842
:10CF50000000C9F8704000F0F9F94CF28301064670
:10CF6000C3F60A71C9F8786000F0F0F9014630465E
:10CF700000F076FA07464FF07E503946C9F86C70DB
:10CF800000F036FA0146304600F038FA05464046D1
:10CF9000CAF8005000F060FC2146804600F028FAF4
:10CFA0000146384600F02AFA214600F0CFF906463D
:10CFB00040F260372046C2F200073146C9F874607B
:10CFC000C9F868603D6000F013FA20F00041D7E92D
:10CFD000010400F0BBF978604046314600F008FAE1
:10CFE00020F00040214600F0B1F9B8603046BDE8BD
:10CFF000F08700BF2DE9F04F81B040F2603740F27A
:10D00000900B47F2BC418246C2F20007C2F2000B0D
:10D01000C3F69341FE68D7E90998DBF800007E610A
:10D0200000F094F94CF283010446C3F60A71FC61E6
:10D0300000F08CF90146204600F012FA05464FF048
:10D040007E5029463D6100F0D3F90146204600F0AC
:10D05000D5F904465046CBF8004000F0FDFB3146C0
:10D06000824600F0C5F90146284600F0C7F931466E
:10D0700000F06CF9054630462946BD613C62FD6012
:10D0800000F0B6F920F00041484600F05FF9786200
:10D090005046294600F0ACF920F00040414600F02F
:10D0A00055F9B862284601B0BDE8F08F2DE9F04F80
:10D0B00081B040F2603740F2940B47F2BC418246A7
:10D0C000C2F20007C2F2000BC3F69341FE6AD7E931
:10D0D0001198DBF800007E6300F038F94CF2830110
:10D0E0000446C3F60A71FC6300F030F9014620469D
:10D0F00000F0B6F905464FF07E5029463D6300F03A
:10D1000077F90146204600F079F904465046CBF8FD
:10D11000004000F0A1FB3146824600F069F901466B
:10D12000284600F06BF9314600F010F9054630460C
:10D130002946BD633C64FD6200F05AF920F00041CD
:10D14000484600F003F978645046294600F050F94B
:10D1500020F00040414600F0F9F8B864284601B0DC
:10D16000BDE8F08F2DE9F04F81B040F2603740F21A
:10D17000980B47F2BC418246C2F20007C2F2000B94
:10D18000C3F69341FE6CD7E91998DBF800007E6581
:10D1900000F0DCF84CF283010446C3F60A71FC652A
:10D1A00000F0D4F80146204600F05AF905464FF049
:10D1B0007E5029463D6500F01BF90146204600F0EF
:10D1C0001DF904465046CBF8004000F045FB3146BF
:10D1D000824600F00DF90146284600F00FF931466D
:10D1E00000F0B4F8054630462946BD653C66FD644E
:10D1F00000F0FEF820F00041484600F0A7F87866FD
:10D200005046294600F0F4F820F00040414600F076
:10D210009DF8B866284601B0BDE8F08F2DE9F04FC3
:10D2200081B040F2603A40F29C0B47F2BC4180462C
:10D23000C2F2000AC2F2000BC3F69341DAF86C4066
:10D24000DBF80000CAF8744000F080F840F2DC39E6
:10D250004CF283010646C2F20009C3F60A71C9F80E
:10D26000006000F073F80146304600F0F9F8074618
:10D270004FF07E503946CAF8707000F0B9F8014698
:10D28000304600F0BBF805464046CBF8005000F0B1
:10D29000E3FA2146804600F0ABF80146384600F03C
:10D2A000ADF8214600F052F806462046C9F8045071
:10D2B0003146CAF87860CAF86C6000F099F820F03E
:10D2C0000041D9E9020400F041F8C9F808004046DD
:10D2D000314600F08DF820F00040214600F036F88D
:10D2E000C9F80C00304601B0BDE8F08F40EA0103F8
:10D2F0009B0703D009E008C9121F08C0042AFAD20C
:10D3000003E011F8013B00F8013B521EF9D27047CF
:10D31000D2B201E000F8012B491EFBD27047002277
:10D32000F6E710B513460A4604461946FFF7F0FF24
:10D33000204610BD421E12F8013F002BFBD111F810
:10D34000013B02F8013B002BF9D17047F0B480EAB1
:10D350000102D40F4200B2EB410F02D2024608464E
:10D3600011464A0042D0C30DDDB2C1F3C752AD1A17
:10D37000202D35DAC1F3160141F4000204B1524206
:10D38000C5F1200602FA06F12A411044B3EBD05F42
:10D3900023D0C4B1012DA0EBC35009DCF0BC4FF089
:10D3A000004202EAC352DBB200F5000000F087BB86
:10D3B000400000F1807000EBC350A0F1807040EAA3
:10D3C000D170490009E0490841EAC071A0EBC3509F
:10D3D00000F50000400800EBC350F0BC00F066BB55
:10D3E0006142012202EB4101001BF6E7F0BC7047ED
:10D3F00081F00041AAE780F00040A7E780EA01023F
:10D4000010B502F00043400022D04A001FD0010EA8
:10D4100001EB1261C0F35600C2F3560240F4000063
:10D4200042F40002A0FB022000047F39140400D063
:10D43000401C50EA124001D44000491EC2B20C0602
:10D4400004EBD010401C4008802A02D003E00020EA
:10D4500010BD20F00100002900DA0020184310BDA3
:10D4600030B480EA010202F0004530F0004221F0C1
:10D47000004013D090B1C30DD40DC2F31601C0F318
:10D480001600E41A41F4000140F400027D34914298
:10D4900001D3641C00E04900002C02DA30BC0020FB
:10D4A00070474FF400000023914201D3891A0343CF
:10D4B00040084FEA4101F7D151B1914202D14FF0FA
:10D4C000004105E002D24FF0010101E06FF00101DF
:10D4D00003EBC450284430BC00F0E8BA2DE9FE4FFD
:10D4E000804681EA0300C00F0C46009021F0004105
:10D4F00023F00045B8EB0200A94105D24046214681
:10D5000090461C460B46024623F00040104347D08D
:10D51000270DC7F30A00C3F30A510290401A019085
:10D5200040286BDAC3F3130040F4801B0098924646
:10D5300020B10023D2EB030A63EB0B0B0198594691
:10D54000C0F14002504600F080FA06460D465046B3
:10D550005946019A00F098FA10EB08006141002446
:10D5600087EA115284EAE7731A4340D0009A62B303
:10D57000019A012A4FEA075215DC001B61EB0201F8
:10D580004FF0004202EA0752CDE90042001C41F58B
:10D59000801132462B4600F0CFFA03B0BDE8F08F81
:10D5A00040462146F9E7001B61EB0201001C41F5F2
:10D5B000801300185B412018A2F5001747EB030108
:10D5C00040EAD570B6196D4111E06D084FEA360694
:10D5D00045EAC0754FEA0752001B61EB0201001CCF
:10D5E00041F5801149084FEA300000195141324697
:10D5F0002B4603B0BDE8F04F00F08FBA009801222F
:10D6000040000023D0EB020263EBE0730098214658
:10D610004FEAE074B8EB000061EB0401E9E783F046
:10D6200000435BE781F0004158E72DE9FE4F81EAB6
:10D63000030404F0004421F0004100944FF0000B7B
:10D6400023F0004350EA01045ED052EA03045BD0A9
:10D65000C3F30A54C1F30A552C44A4F2F3340194E1
:10D66000A0FB0254C1F3130141F48011C3F313036F
:10D6700043F4801301FB024400FB034E840A970A23
:10D6800044EA815447EA8357A4FB076802958D0A50
:10D6900005FB07854FEA932C04FB0C542705029DDC
:10D6A0004FEA065847EA1637B5EB08056EEB070C4C
:10D6B000870E920E47EA811742EA8312A7FB020106
:10D6C000B6EB0B0164EB00042B0D43EA0C335E1840
:10D6D00044EB1C50DA465146E7FB0201C5F3130444
:10D6E0004FEA0B3343EA14534FEA0432019C43EAF6
:10D6F0000603A4F10C040294009CCDE900B400F0F0
:10D700001BFA03B0BDE8F08F00200146F9E72DE9D0
:10D71000F04D81EA030404F0004B21F0004514466B
:10D720004FF0000A23F0004150EA050220D054EAED
:10D7300001021DD0C5F30A570246C5F31303C1F316
:10D740001300C1F30A5640F4801543F48013A7EB8D
:10D750000608101BD64608F2FD3873EB050002D30D
:10D7600008F1010801E092185B41B8F1000F03DAFB
:10D7700000200146BDE8F08D00204FF480110646E0
:10D7800084460EE0171B73EB050705D3121B63EBF2
:10D79000050306434CEA010C49084FEA3000921891
:10D7A0005B4150EA0107EDD152EA030012D082EA50
:10D7B000040083EA0501084305D0101BAB4106D2E3
:10D7C0000122002306E000224FF0004302E06FF048
:10D7D000010253101AEB06004CEB085110EB0A0043
:10D7E00041EB0B01BDE8F04D00F097B930B5041ED8
:10D7F00071F1000404DB4FF00044404264EB01018E
:10D80000141E73F1000405DB1C464FF00043524226
:10D8100063EB0403101A8B4101D2012030BD0020BC
:10D8200030BD30B5041E71F1000404DB4FF000443C
:10D83000404264EB0101141E73F1000405DB1C4639
:10D840004FF00043524263EB0403801A994101D226
:10D85000012030BD002030BDC10F80EAE0700844D7
:10D86000CA079623002100F02AB996230022114608
:10D8700000F025B90EB5C10F80EAE0700844CA0770
:10D88000002140F233438DE80E000A460B4600F0BB
:10D8900053F903B000BD3EB5CA17CB0F002450406A
:10D8A0005140C0186141DA0740F233430094CDE99A
:10D8B00001232246234600F03FF903B030BD00F0BB
:10D8C000004220F00040C10DC0F3160040F40000FB
:10D8D0007F2901DA00207047962903DCC1F1960107
:10D8E000C84001E096398840002AF4D04042704791
:10D8F00070B5C1F30A5201F000450024C1F31301D1
:10D9000040F2FF3341F480119A4201DA002070BDE9
:10D9100040F233439A42A2F2334203DC524200F017
:10D92000A3F800E090402C43F1D0404270BDC1F319
:10D930000A52C1F3130140F2FF3341F480119A42BD
:10D9400002DA00200146704740F233439A42A2F2C5
:10D95000334202DC524200F087B800F076B800F0A3
:10D96000004230F000400AD0C10D01F56071C0F3F3
:10D97000160042EA0151C2084007114370470020D7
:10D980000146704701F0004330B421F0004150EAF5
:10D99000010206D00A0DA2F56072C1F31301002A3C
:10D9A00002DC30BC00207047440F44EAC104C100CF
:10D9B000E01830BC00EBC25000F078B830B50B4630
:10D9C000014600202022012409E021FA02F59D42AF
:10D9D00005D303FA02F5491B04FA02F52844151E83
:10D9E000A2F10102F1DC30BD2DE9F05F0546002017
:10D9F00092469B4688460646814640241BE02846C0
:10DA000041464746224600F02FF853465A46C01A70
:10DA1000914110D311461846224600F016F82D1AEF
:10DA200067EB01084F4622460120002100F00DF867
:10DA300017EB00094E41201EA4F10104DFDC48462B
:10DA400031462A464346BDE8F09F202A04DB203AAF
:10DA500000FA02F1002070479140C2F1200320FA41
:10DA600003F3194390407047202A04DB203A21FA3F
:10DA700002F00021704721FA02F3D040C2F12002E7
:10DA80009140084319467047202A06DBCB17203AFD
:10DA900041FA02F043EAE07306E041FA02F3D040B3
:10DAA000C2F1200291400843194670470029A8BFDF
:10DAB0007047401C490008BF20F00100704710B4B7
:10DAC000B0FA80FC00FA0CF050EA010404BF10BC6C
:10DAD000704749B1CCF1200421FA04F411FA0CF199
:10DAE00018BF012121430843A3EB0C01CB1D4FEAD2
:10DAF00000614FEA102042BF002010BC704700EBCD
:10DB0000C35010440029A4BF10BC7047401C4900FA
:10DB100008BF20F0010010BC704710B5141E73F14F
:10DB2000000408DA401C41F1000192185B411A43DD
:10DB300001D120F0010010BD2DE9F04D92469B4629
:10DB400011B1B1FA81F202E0B0FA80F220329046CF
:10DB5000FFF77BFF04460F4640EA0A0041EA0B014B
:10DB600053465A46084313D0114653EA010019D0D0
:10DB7000C8F140025046FFF777FF05460E46504673
:10DB800059464246FFF761FF084305D0012004E0F3
:10DB900020463946BDE8F08D0020054346EAE07690
:10DBA0002C4337430A986305E40AA0EB08000022DF
:10DBB000FD0A44EA47540A3002D500200146E9E74D
:10DBC000010510196941DDE9084500196941BDE801
:10DBD000F04DA2E730B5041E71F1000404DB4FF0F4
:10DBE0000044404264EB0101141E73F1000405DBA4
:10DBF0001C464FF00043524263EB0403994208BFB6
:10DC0000904230BD064C074D06E0E06840F001034D
:10DC100094E8070098471034AC42F6D3F2F78CFA38
:10DC200040E9000860E900080FB4084B10B504A9EA
:10DC300002AA039800F0DEF8044602A9002000F0D2
:10DC400070FC204610BC5DF814FB000023E50008C2
:10DC500002E008C8121F08C1002AFAD170477047B5
:10DC6000002001E001C1121F002AFBD17047000013
:10DC70002DE9FF5F82B00021DDE90430020DDDF8FF
:10DC800040B0034318D044F61050A2F2FF32424392
:10DC90001514119801281FD0A5EB0B00401C5FEA5A
:10DCA000000A4FF000064E4FDFF83891B04650465C
:10DCB00015D5CAF1000413E0119801244AA30128E4
:10DCC00001D16FEA0B010298119AC0E90031C0E955
:10DCD000024206B0BDE8F09FCBF10000DFE704464A
:10DCE0000021404A491842EB0450CDE9001012E0EF
:10DCF000E00707D032463B4640464946FFF795FCD1
:10DD00008046894632463B4610461946FFF78DFC51
:10DD100006460F466410002CEAD1DDE90401DDE976
:10DD20000023BAF1000F06DAFFF77FFC42464B46AC
:10DD3000FFF77BFC05E0FFF7EAFC42464B46FFF7A6
:10DD4000E6FC04460E460022284BFFF743FF03D8AB
:10DD50004FF0FF30014607E00022254B20463146B8
:10DD6000FFF7BCFBFFF7E3FD102409E0002C0ADB02
:10DD70000A220023FFF738FE039B30321A55641E37
:10DD800050EA0102F2D1641C039AC4F11103144455
:10DD9000119A012A03D0012208430DD10AE0084359
:10DDA00004D000204FF0110B119072E7A3EB0B058C
:10DDB0006D1E0DE05B4504DD4FF0000205F101052D
:10DDC00004E003DA4FF00002A5F10105002AECD0CF
:10DDD00002981199C0E90231C0E9004579E70000D5
:10DDE000000014400000F03F300000000000F0434D
:10DDF0000000E03F2DE9FF4F95B09B46894606465F
:10DE000000250FE2252877D100242746F84A012172
:10DE1000059400E0044316F8013F203B01FA03F0AB
:10DE20001042F7D130782A2811D06FF02F033078C4
:10DE3000A0F13002092A16D8059A44F0020402EB38
:10DE4000820203EB42021044761C0590EFE759F87A
:10DE5000042B0592002A03DA504244F40054059042
:10DE600044F00204761C30782E2816D116F8010FE3
:10DE700044F004042A280DD06FF02F023078A0F16E
:10DE80003003092B09D807EB870302EB4303C718BC
:10DE9000761CF3E759F8047B761C30786C280FD099
:10DEA00006DC4C2817D068280DD06A2814D104E06D
:10DEB000742810D07A280FD10DE044F400140AE041
:10DEC00044F4801401E044F440147278824202D198
:10DED00004F58014761C761C307866280BD013DC91
:10DEE000582877D009DC002875D04528F6D0462878
:10DEF000F4D047281AD19DE118E0632835D0642872
:10DF000079D0652812D195E1702873D008DC672894
:10DF1000F1D069286FD06E280DD06F2806D1B5E0FA
:10DF200073282CD0752875D0782874D05A46179944
:10DF300090476D1C75E1C4F30250022809D00328F4
:10DF40000DD0D9F8001004280DD00D6009F1040996
:10DF500067E1D9F80010EA17C1E90052F6E7D9F8ED
:10DF600000100D80F2E70D70F0E719F8041B8DF832
:10DF7000001000208DF80100EA46012003E059F866
:10DF800004AB4FF0FF3061074FF0000102D40DE009
:10DF900008F101018846B9420FDA8045F8DB1AF82A
:10DFA00008100029F4D108E008F1010188468142F7
:10DFB000FADB1AF808100029F6D105985B46A0EBA9
:10DFC000080721463846179A00F094FA284400EBD7
:10DFD000080507E04DE029E10DE01AF8010B5A466B
:10DFE00017999047B8F10108F7D25B4621463846A9
:10DFF000179A13E142E00A220092C4F302524FF052
:10E00000000A022A08D059F804CB032A4FEAEC711F
:10E010000AD00DE029E02AE009F1070121F007020A
:10E02000F2E802C1914609E00FFA8CFC4FEAEC716C
:10E03000042A03D14FFA8CFC4FEAEC71002907DA6D
:10E040000A460021DCF1000C61EB02012D2202E006
:10E05000220504D52B228DF80420012203E0E207DB
:10E0600001D02022F7E7904659E00A2102E0102271
:10E070000DE010214FF0000A00910BE010224FF04C
:10E08000000A44F004040827009203E008224FF03D
:10E09000000A0092C4F30252022A05D059F804CBB8
:10E0A0000021032A08D009E009F1070121F0070245
:10E0B000F2E802C1914605E01FFA8CFC042A01D166
:10E0C0000CF0FF0C4FF00008220728D5702806D06E
:10E0D000009B83F0100353EA0A0305D00EE04022B0
:10E0E0008DF80420012208E05CEA010206D030220B
:10E0F0008DF804208DF8050002229046009B83F0E5
:10E10000080353EA0A030AD15CEA010201D162075B
:10E1100005D530228DF804204FF001087F1E5828C5
:10E1200004D034A003900EA802900DE036A0F9E7C9
:10E1300053466046009AFFF757FC84460398825C7A
:10E140000298401E029002705CEA0100F0D1029831
:10E1500006A9081A00F1200A600702D524F48034C9
:10E1600000E00127574502DDA7EB0A0000E0002090
:10E1700000EB0A01009005984144401A0590E00325
:10E1800006D45B462146179A059800F0B3F905447A
:10E19000002706E001A85A46C05D179990476D1CFC
:10E1A0007F1C4745F6DBE0030CD55B462146179AFA
:10E1B000059800F09FF9054404E030205A4617996D
:10E1C00090476D1C0099481E00900029F5DC08E07E
:10E1D000029802995A460078491C02911799904773
:10E1E0006D1CBAF10001AAF1010AF1DC65E1000041
:10E1F000092801003031323334353637383961621D
:10E2000063646566000000003031323334353637E0
:10E2100038394142434445460000000000F058F9B7
:10E220000544761C307800287FF4ECAD19B0284600
:10E23000BDE8F08F620700D4062709F1070222F03B
:10E24000070CFCE80223E14603F000485FEA080CF3
:10E2500002D00FF2702C0DE05FEA045C02D50FF2E1
:10E26000682C07E05FEAC47C02D00FF2602C01E06A
:10E27000AFF2700C4FF0FF3823F00043CDF850C0E0
:10E2800065280CD006DC452809D046281DD0472833
:10E290003DD13DE0662818D067287ED138E00021C6
:10E2A000112F01DB112000E0781CCDE9000106A947
:10E2B0000EA8FFF7DDFCDDE90F010E9A03910021A6
:10E2C000009207F1010A04914DE04FF000400097E1
:10E2D000CDE9011006A90EA8FFF7CAFCDDE90F027F
:10E2E00003920E9B11990022DDF80CA0009304927A
:10E2F00011B9791C00EB010AB7EB0A0004D4C0F194
:10E30000FF3007F1010A0490AAEB0700019044E0F6
:10E31000012F00DA01270021112F01DD112000E07B
:10E320003846CDE9000106A90EA8FFF7A1FCDDE9FA
:10E330000F010E9A0391002104910092BA46210721
:10E340000CD40399514500DA8A46BAF1010F05DD74
:10E35000009AAAF10101515C302908D0B84202DAD2
:10E3600010F1040F06DA0121CDE9011015E0AAF140
:10E370000101E9E7002805DC049901440491AAEBB6
:10E38000000102E0411C514500DD8A460499401A13
:10E39000401C01904FF000400290200704D40198E7
:10E3A000504501DBCDF8048000208DF84F00029825
:10E3B0000DF14F07B0F1004F25D02B200E900298A1
:10E3C0004FF0020800280CDA404202902D200E90F7
:10E3D00007E00A210298FFF7F1FA3031029007F8BE
:10E3E000011DB8F10001A8F10108F2DC0298002833
:10E3F000EFD1791E0E980870307800F0200040F0C0
:10E40000450007F8020D12A8C01B00F10708149878
:10E41000007800B1012000EB0A01019801EBE071E6
:10E4200005984144401A401E0590E00306D45B461F
:10E430002146179A059800F05DF805441498007875
:10E4400018B15A46179990476D1CE00324D55B46D6
:10E450002146179A059800F04DF805441CE00498F1
:10E46000002807DBDDE90301884203DD0098405CFA
:10E47000179901E0179930205A469047049805F102
:10E480000105401C04900198401E019004D12E20EB
:10E490005A46179990476D1CBAF10001AAF1010A7A
:10E4A000DDDC05E017F8010B5A46179990476D1C03
:10E4B000B8F10001A8F10108F4DC5B462146179A87
:10E4C0000598ABE62D0000002B00000020000000A6
:10E4D0002DE9F041044600251E461746880404D461
:10E4E00005E039462020B0476D1C641EF9D528464A
:10E4F000BDE8F0812DE9F041044600251E46904616
:10E50000C80301D5302700E02027880404D505E0A2
:10E5100041463846B0476D1C641EF9D52846BDE813
:10E52000F0810A68531C0B60107070472DE9F041B0
:10E53000C0F3C751A1F17F050446172DA8BFBDE860
:10E54000F0814FF07F471549002D0EDAFEF7FEFEF1
:10E55000B7EB400F1ED300281CDD002CC8BF4FF0C6
:10E560007E54B8BF4FF0004414E00D4A22FA05F67D
:10E57000344208BFBDE8F081FEF7E8FEB7EB400F7C
:10E5800008D3002806DD002C03DD4FF40000E8402E
:10E590000444B4432046BDE8F0810000CAF249714A
:10E5A000FFFF7F00000000000000000001020304E4
:10E5B0000607080900000000010203040102000030
:10E5C00007A9022570889B8800000102030400054A
:10E5D0000000010200030000000000000000000134
:10E5E00002030405060708090A0B0C0D0E0F101094
:10E5F0002D001A3152001A339A001A351D011A37AC
:10E600006B003B31BE003B335E013B3596023B372E
:10E6100087008D0040100800070400090805400825
:10E6200009104008080540081D0400081D040008E2
:10E630001E265626BEBE000098599859EA518E42B1
:10E640001E45142E0080EA51F4283233E03A703D22
:10E65000E03AC235842BC2353233C235C235AE47BB
:10E66000E03A5038A23050380103040507090B0C7A
:10E670000D0F121417191C1E2124282B2F32363A85
:10E680003F42474C5259626D7F9BDEFFFF010204FF
:10E69000050608090A0C0D0F121416181B1D20235D
:10E6A00026292C2F33373A3E42474E55606F87C29A
:10E6B000F0FF01020304050708090A0C0E101214EA
:10E6C00016181A1C1F2124272A2D3134373B3F45A9
:10E6D0004C556278ADD5FF0101020304050606071B
:10E6E00008090B0C0E0F1012141517191B1D1F22F1
:10E6F0002426292C30353B44537894FF070708091A
:10E70000090A0B0B0C0D0E0F10111213141516170E
:10E71000181A1B1C1E1F20222426282A2C2E3032B9
:10E720003437393B3D3F4244474A4E5155595E6369
:10E73000686E747B828B96A4B6CFEEFFFFFFFFFF5F
:10E740000405050506060707070809090A0A0B0B51
:10E750000C0D0D0E0F101111121314151617191A96
:10E760001B1D1E1F202223242627282A2C2E303250
:10E7700034373A3D4044484B50555C65707F93A810
:10E78000B6C2CDFF010202030405070A0D101316DD
:10E79000181B1E2023262B30384E65789DFF010262
:10E7A0000203040406090C0E111315181A1C1F216C
:10E7B000252A314459698AFF01010203030405082F
:10E7C0000A0D0F11131517191B1E21252C3C4F5D27
:10E7D0007AFF010101020203040607090A0C0D0F6A
:10E7E00010111315171A1E2A374155FF070808097B
:10E7F000090A0B0C0D0D0E0F101011121313141526
:10E800001618191B1C1D1E202122232527292B2DFC
:10E81000303235383C40444A5159626D7A88929A78
:10E82000A2B2DCF9FFFFFF0405050506060707088D
:10E830000809090A0A0A0B0B0C0D0D0E0F10101116
:10E840001213131415161718191A1C1D1F2123252E
:10E85000272A2E32363C434B535A5F646E8799AC5D
:10E86000C0FFD8BC0A00160001000600010002002B
:10E87000244B5425642C4E554C4C2C4E554C4C2C52
:10E880004E554C4C2C4E554C4C0D0A00252E3266E4
:10E890000000000000000000000000000000000078
:10E8A000C90000007555351567472707C2000000ED
:10E8B0007555351567472707C50000006F4F2F0FA7
:10E8C0008B6B4B2B950000005F3F1F1F9A7A5A3AC3
:10E8D000C00000004828080E85654525000000009E
:10E8E000000000000000000093000000927252320D
:10E8F000D1B17151405C0000A05C0400C06C080004
:10E90000805C0400E03F1E00E07D1E00000000006F
:10E910000000000000000000EC51B81E85EBA13F94
:10E9200000000000000000000000000000000000E7
:10E93000A4703D0AD7A3B03F000000000000000013
:10E9400060E9000800000020B000000050DC000872
:10E9500010EA0008B0000020582D000060DC00081C
:10E9600000000000000000000000000001000000A6
:10E970000000000000000000020401000802010085
:10E9800021041C000800E000E000204E1C000400F0
:10E9900070007000204E0000000000000000000029
:10E9A0000000000000000000000000000000000067
:10E9B00010000000010000000000000000A24A0456
:10E9C0000AD7A33C0AD7A33C0AD7A33C0AD7A33C47
:10E9D0000AD7A33C0AD7A33C0AD7A33C0AD7A33C37
:10E9E0000AD7A33C0AD7A33C0AD7A33C0AD7A33C27
:10E9F0000AD7A33C0AD7A33C0AD7A33C0AD7A33C17
:10EA0000F0030020000000000000000000000000F3
:0400000508000131BD
:00000001FF
