Component: ARM Compiler 6.9 Tool: armlink [5ced1b00]

==============================================================================

Section Cross References

    startup_stm32f103xe.o(RESET) refers to startup_stm32f103xe.o(STACK) for __initial_sp
    startup_stm32f103xe.o(RESET) refers to startup_stm32f103xe.o(.text) for Reset_Handler
    startup_stm32f103xe.o(RESET) refers to stm32f1xx_it.o(.text) for NMI_Handler
    startup_stm32f103xe.o(.text) refers to system_stm32f1xx.o(.text) for SystemInit
    startup_stm32f103xe.o(.text) refers to entry.o(.ARM.Collect$$$$00000000) for __main
    main.o(.text) refers to stm32f1xx_hal.o(.text) for HAL_Init
    main.o(.text) refers to stm32f1xx_hal_rcc.o(.text) for HAL_RCC_OscConfig
    main.o(.text) refers to gpio.o(.text) for MX_GPIO_Init
    main.o(.text) refers to dma.o(.text) for MX_DMA_Init
    main.o(.text) refers to spi.o(.text) for MX_SPI1_Init
    main.o(.text) refers to usart.o(.text) for MX_USART2_UART_Init
    main.o(.text) refers to stm32f1xx_hal_cortex.o(.text) for HAL_NVIC_SetPriority
    main.o(.text) refers to port.o(.text) for setup_DW1000RSTnIRQ
    main.o(.text) refers to dw_main.o(.text) for dw_main
    main.o(.ARM.exidx) refers to main.o(.text) for [Anonymous Symbol]
    gpio.o(.text) refers to stm32f1xx_hal_gpio.o(.text) for HAL_GPIO_WritePin
    gpio.o(.ARM.exidx) refers to gpio.o(.text) for [Anonymous Symbol]
    dma.o(.text) refers to stm32f1xx_hal_cortex.o(.text) for HAL_NVIC_SetPriority
==============================================================================

Removing Unused input sections from the image.

    Removing startup_stm32f103xe.o(HEAP), (512 bytes).
    Removing main.o(.ARM.exidx), (24 bytes).
    Removing main.o(.ARM.use_no_argv), (4 bytes).
    Removing gpio.o(.ARM.exidx), (8 bytes).
    Removing dma.o(.ARM.exidx), (8 bytes).
    Removing i2c.o(.text), (214 bytes).
    Removing i2c.o(.ARM.exidx), (24 bytes).
    Removing i2c.o(.bss.hi2c1), (92 bytes).
    Removing spi.o(.ARM.exidx), (24 bytes).
    Removing usart.o(.ARM.exidx), (24 bytes).
    Removing stm32f1xx_it.o(.ARM.exidx), (112 bytes).
    Removing stm32f1xx_hal_msp.o(.ARM.exidx), (8 bytes).
    Removing system_stm32f1xx.o(.ARM.exidx), (16 bytes).
    Removing dw_main.o(.ARM.exidx), (40 bytes).
    Removing instance_anch.o(.ARM.exidx), (104 bytes).
    Removing instance_calib.o(.text), (66 bytes).
    Removing instance_calib.o(.ARM.exidx), (8 bytes).
    Removing instance_calib.o(.rodata.rfDelays), (4 bytes).
==============================================================================

Image Symbol Table

    Local Symbols

    Symbol Name                              Value     Ov Type        Size  Object(Section)

    ../clib/microlib/division.c              0x00000000   Number         0  uldiv.o ABSOLUTE
    ../clib/microlib/division.c              0x00000000   Number         0  uidiv.o ABSOLUTE
    ../clib/microlib/init/entry.s            0x00000000   Number         0  entry.o ABSOLUTE
    ../clib/microlib/init/entry.s            0x00000000   Number         0  entry2.o ABSOLUTE
    ../clib/microlib/init/entry.s            0x00000000   Number         0  entry5.o ABSOLUTE
    ../clib/microlib/init/entry.s            0x00000000   Number         0  entry9b.o ABSOLUTE
    ../clib/microlib/init/entry.s            0x00000000   Number         0  entry7a.o ABSOLUTE
    ../clib/microlib/init/entry.s            0x00000000   Number         0  entry7b.o ABSOLUTE
    ../clib/microlib/init/entry.s            0x00000000   Number         0  entry8a.o ABSOLUTE
    ../clib/microlib/init/entry.s            0x00000000   Number         0  entry11a.o ABSOLUTE
    ../clib/microlib/init/entry.s            0x00000000   Number         0  entry10a.o ABSOLUTE
    ../clib/microlib/init/entry.s            0x00000000   Number         0  entry10b.o ABSOLUTE
    ../clib/microlib/init/entry.s            0x00000000   Number         0  entry11b.o ABSOLUTE
    ../clib/microlib/init/entry.s            0x00000000   Number         0  entry8b.o ABSOLUTE
    ../clib/microlib/init/entry.s            0x00000000   Number         0  entry9a.o ABSOLUTE
    ../clib/microlib/longlong.c              0x00000000   Number         0  llsshr.o ABSOLUTE
    ../clib/microlib/longlong.c              0x00000000   Number         0  llshl.o ABSOLUTE
    ../clib/microlib/longlong.c              0x00000000   Number         0  llushr.o ABSOLUTE
    ../clib/microlib/printf/printf.c         0x00000000   Number         0  printfa.o ABSOLUTE
    ../clib/microlib/printf/printf.c         0x00000000   Number         0  printf7.o ABSOLUTE
    ../clib/microlib/printf/printf.c         0x00000000   Number         0  printf5.o ABSOLUTE
    ../clib/microlib/printf/printf.c         0x00000000   Number         0  printf4.o ABSOLUTE
    ../clib/microlib/printf/printf.c         0x00000000   Number         0  printf3.o ABSOLUTE
    ../clib/microlib/printf/printf.c         0x00000000   Number         0  printf2.o ABSOLUTE
    ../clib/microlib/printf/printf.c         0x00000000   Number         0  printf1.o ABSOLUTE
    ../clib/microlib/printf/printf.c         0x00000000   Number         0  printf0.o ABSOLUTE
    ../clib/microlib/printf/printf.c         0x00000000   Number         0  printfb.o ABSOLUTE
    ../clib/microlib/printf/printf.c         0x00000000   Number         0  printf8.o ABSOLUTE
    ../clib/microlib/printf/printf.c         0x00000000   Number         0  printf6.o ABSOLUTE
    ../clib/microlib/printf/stubs.s          0x00000000   Number         0  stubs.o ABSOLUTE
    ../clib/microlib/stdio/fputc.c           0x00000000   Number         0  fputc_h.o ABSOLUTE
    ../clib/microlib/stdio/fputc.c           0x00000000   Number         0  fputc.o ABSOLUTE
    ../clib/microlib/stdio/semi.s            0x00000000   Number         0  semi.o ABSOLUTE
    ../clib/microlib/stdio/streams.c         0x00000000   Number         0  stdout.o ABSOLUTE
    ../clib/microlib/string/memcpy.c         0x00000000   Number         0  memcpya.o ABSOLUTE
    ../clib/microlib/string/memcpy.c         0x00000000   Number         0  memcpyb.o ABSOLUTE
    ../clib/microlib/string/memset.c         0x00000000   Number         0  memseta.o ABSOLUTE
    ../clib/microlib/string/strcat.c         0x00000000   Number         0  strcat.o ABSOLUTE
    ../clib/microlib/stubs.s                 0x00000000   Number         0  iusesemip.o ABSOLUTE
    ../clib/microlib/stubs.s                 0x00000000   Number         0  iusefp.o ABSOLUTE
    ../fplib/microlib/d2f.c                  0x00000000   Number         0  d2f.o ABSOLUTE
    ../fplib/microlib/f2d.c                  0x00000000   Number         0  f2d.o ABSOLUTE
    ../fplib/microlib/fpadd.c                0x00000000   Number         0  dadd.o ABSOLUTE
    ../fplib/microlib/fpadd.c                0x00000000   Number         0  fadd.o ABSOLUTE
    ../fplib/microlib/fpcmp.c                0x00000000   Number         0  dcmpgt.o ABSOLUTE
    ../fplib/microlib/fpcmp.c                0x00000000   Number         0  dcmplt.o ABSOLUTE
    ../fplib/microlib/fpdiv.c                0x00000000   Number         0  fdiv.o ABSOLUTE
    ../fplib/microlib/fpdiv.c                0x00000000   Number         0  ddiv.o ABSOLUTE
    ../fplib/microlib/fpepilogue.c           0x00000000   Number         0  depilogue.o ABSOLUTE
    ../fplib/microlib/fpepilogue.c           0x00000000   Number         0  fepilogue.o ABSOLUTE
    ../fplib/microlib/fpfix.c                0x00000000   Number         0  dfixul.o ABSOLUTE
    ../fplib/microlib/fpfix.c                0x00000000   Number         0  ffixi.o ABSOLUTE
    ../fplib/microlib/fpfix.c                0x00000000   Number         0  dfixi.o ABSOLUTE
    ../fplib/microlib/fpflt.c                0x00000000   Number         0  dfltl.o ABSOLUTE
    ../fplib/microlib/fpflt.c                0x00000000   Number         0  fflti.o ABSOLUTE
    ../fplib/microlib/fpflt.c                0x00000000   Number         0  ffltui.o ABSOLUTE
    ../fplib/microlib/fpflt.c                0x00000000   Number         0  dflti.o ABSOLUTE
    ../fplib/microlib/fpmul.c                0x00000000   Number         0  dmul.o ABSOLUTE
    ../fplib/microlib/fpmul.c                0x00000000   Number         0  fmul.o ABSOLUTE
    ../mathlib/ceilf.c                       0x00000000   Number         0  ceilf.o ABSOLUTE
    cdrcmple.s                               0x00000000   Number         0  cdrcmple.o ABSOLUTE
    dc.s                                     0x00000000   Number         0  dc.o ABSOLUTE
    deca_device.c                            0x00000000   Number         0  deca_device.o ABSOLUTE
    deca_mutex.c                             0x00000000   Number         0  deca_mutex.o ABSOLUTE
    deca_params_init.c                       0x00000000   Number         0  deca_params_init.o ABSOLUTE
    deca_range_tables.c                      0x00000000   Number         0  deca_range_tables.o ABSOLUTE
    deca_sleep.c                             0x00000000   Number         0  deca_sleep.o ABSOLUTE
    deca_spi.c                               0x00000000   Number         0  deca_spi.o ABSOLUTE
    dma.c                                    0x00000000   Number         0  dma.o ABSOLUTE
    dw_main.c                                0x00000000   Number         0  dw_main.o ABSOLUTE
    gpio.c                                   0x00000000   Number         0  gpio.o ABSOLUTE
    handlers.s                               0x00000000   Number         0  handlers.o ABSOLUTE
    i2c.c                                    0x00000000   Number         0  i2c.o ABSOLUTE
    init.s                                   0x00000000   Number         0  init.o ABSOLUTE
    instance_anch.c                          0x00000000   Number         0  instance_anch.o ABSOLUTE
    instance_calib.c                         0x00000000   Number         0  instance_calib.o ABSOLUTE
    instance_common.c                        0x00000000   Number         0  instance_common.o ABSOLUTE
    instance_tag.c                           0x00000000   Number         0  instance_tag.o ABSOLUTE
    kalman.c                                 0x00000000   Number         0  kalman.o ABSOLUTE
    main.c                                   0x00000000   Number         0  main.o ABSOLUTE
    port.c                                   0x00000000   Number         0  port.o ABSOLUTE
    spi.c                                    0x00000000   Number         0  spi.o ABSOLUTE
    startup_stm32f103xe.s                    0x00000000   Number         0  startup_stm32f103xe.o ABSOLUTE
    stm32f1xx_hal.c                          0x00000000   Number         0  stm32f1xx_hal.o ABSOLUTE
    stm32f1xx_hal_cortex.c                   0x00000000   Number         0  stm32f1xx_hal_cortex.o ABSOLUTE
    stm32f1xx_hal_dma.c                      0x00000000   Number         0  stm32f1xx_hal_dma.o ABSOLUTE
    stm32f1xx_hal_exti.c                     0x00000000   Number         0  stm32f1xx_hal_exti.o ABSOLUTE
    stm32f1xx_hal_flash.c                    0x00000000   Number         0  stm32f1xx_hal_flash.o ABSOLUTE
    stm32f1xx_hal_flash_ex.c                 0x00000000   Number         0  stm32f1xx_hal_flash_ex.o ABSOLUTE
    stm32f1xx_hal_gpio.c                     0x00000000   Number         0  stm32f1xx_hal_gpio.o ABSOLUTE
    stm32f1xx_hal_gpio_ex.c                  0x00000000   Number         0  stm32f1xx_hal_gpio_ex.o ABSOLUTE
    stm32f1xx_hal_i2c.c                      0x00000000   Number         0  stm32f1xx_hal_i2c.o ABSOLUTE
    stm32f1xx_hal_msp.c                      0x00000000   Number         0  stm32f1xx_hal_msp.o ABSOLUTE
    stm32f1xx_hal_pwr.c                      0x00000000   Number         0  stm32f1xx_hal_pwr.o ABSOLUTE
    stm32f1xx_hal_rcc.c                      0x00000000   Number         0  stm32f1xx_hal_rcc.o ABSOLUTE
    stm32f1xx_hal_rcc_ex.c                   0x00000000   Number         0  stm32f1xx_hal_rcc_ex.o ABSOLUTE
    stm32f1xx_hal_spi.c                      0x00000000   Number         0  stm32f1xx_hal_spi.o ABSOLUTE
    stm32f1xx_hal_tim.c                      0x00000000   Number         0  stm32f1xx_hal_tim.o ABSOLUTE
    stm32f1xx_hal_tim_ex.c                   0x00000000   Number         0  stm32f1xx_hal_tim_ex.o ABSOLUTE
    stm32f1xx_hal_uart.c                     0x00000000   Number         0  stm32f1xx_hal_uart.o ABSOLUTE
    stm32f1xx_it.c                           0x00000000   Number         0  stm32f1xx_it.o ABSOLUTE
    system_stm32f1xx.c                       0x00000000   Number         0  system_stm32f1xx.o ABSOLUTE
    usart.c                                  0x00000000   Number         0  usart.o ABSOLUTE
    RESET                                    0x08000000   Section      304  startup_stm32f103xe.o(RESET)
    .ARM.Collect$$$$00000000                 0x08000130   Section        0  entry.o(.ARM.Collect$$$$00000000)
    .ARM.Collect$$$$00000001                 0x08000130   Section        4  entry2.o(.ARM.Collect$$$$00000001)
    .ARM.Collect$$$$00000004                 0x08000134   Section        4  entry5.o(.ARM.Collect$$$$00000004)
    .ARM.Collect$$$$00000008                 0x08000138   Section        0  entry7b.o(.ARM.Collect$$$$00000008)
    .ARM.Collect$$$$0000000A                 0x08000138   Section        0  entry8b.o(.ARM.Collect$$$$0000000A)
    .ARM.Collect$$$$0000000B                 0x08000138   Section        8  entry9a.o(.ARM.Collect$$$$0000000B)
    .ARM.Collect$$$$0000000D                 0x08000140   Section        0  entry10a.o(.ARM.Collect$$$$0000000D)
    .ARM.Collect$$$$0000000F                 0x08000140   Section        0  entry11a.o(.ARM.Collect$$$$0000000F)
    .ARM.Collect$$$$00002712                 0x08000140   Section        4  entry2.o(.ARM.Collect$$$$00002712)
    __lit__00000000                          0x08000140   Data           4  entry2.o(.ARM.Collect$$$$00002712)
    .text                                    0x08000144   Section       36  startup_stm32f103xe.o(.text)
    [Anonymous Symbol]                       0x08000168   Section        0  main.o(.text)
    [Anonymous Symbol]                       0x08000230   Section        0  gpio.o(.text)
    [Anonymous Symbol]                       0x080003ac   Section        0  dma.o(.text)
    [Anonymous Symbol]                       0x080003f0   Section        0  spi.o(.text)
    [Anonymous Symbol]                       0x080004e4   Section        0  usart.o(.text)
    [Anonymous Symbol]                       0x08000664   Section        0  stm32f1xx_it.o(.text)
    [Anonymous Symbol]                       0x080006bc   Section        0  stm32f1xx_hal_msp.o(.text)
    [Anonymous Symbol]                       0x08000700   Section        0  system_stm32f1xx.o(.text)
    [Anonymous Symbol]                       0x080007bc   Section        0  dw_main.o(.text)
    [Anonymous Symbol]                       0x08001054   Section        0  instance_anch.o(.text)
    [Anonymous Symbol]                       0x08001d24   Section        0  instance_common.o(.text)
    [Anonymous Symbol]                       0x080028f8   Section        0  instance_tag.o(.text)
    [Anonymous Symbol]                       0x0800325c   Section        0  deca_device.o(.text)
    [Anonymous Symbol]                       0x08006f7c   Section        0  deca_mutex.o(.text)
    [Anonymous Symbol]                       0x08006f9c   Section        0  deca_range_tables.o(.text)
    [Anonymous Symbol]                       0x08007158   Section        0  deca_sleep.o(.text)
    [Anonymous Symbol]                       0x0800715c   Section        0  deca_spi.o(.text)
    [Anonymous Symbol]                       0x08007240   Section        0  port.o(.text)
    [Anonymous Symbol]                       0x08007950   Section        0  stm32f1xx_hal.o(.text)
    [Anonymous Symbol]                       0x08007b5c   Section        0  stm32f1xx_hal_rcc.o(.text)
    [Anonymous Symbol]                       0x080083f0   Section        0  stm32f1xx_hal_gpio.o(.text)
    [Anonymous Symbol]                       0x08008810   Section        0  stm32f1xx_hal_dma.o(.text)
    [Anonymous Symbol]                       0x080096dc   Section        0  stm32f1xx_hal_cortex.o(.text)
    __NVIC_SystemReset                       0x080097ad   Thumb Code    36  stm32f1xx_hal_cortex.o(.text)
    [Anonymous Symbol]                       0x08009920   Section        0  stm32f1xx_hal_spi.o(.text)
    SPI_TxISR_16BIT                          0x0800a2a5   Thumb Code    30  stm32f1xx_hal_spi.o(.text)
    SPI_TxISR_8BIT                           0x0800a2c5   Thumb Code    32  stm32f1xx_hal_spi.o(.text)
    SPI_RxISR_16BIT                          0x0800a519   Thumb Code   268  stm32f1xx_hal_spi.o(.text)
    SPI_RxISR_8BIT                           0x0800a625   Thumb Code   272  stm32f1xx_hal_spi.o(.text)
    SPI_2linesRxISR_16BIT                    0x0800a735   Thumb Code    46  stm32f1xx_hal_spi.o(.text)
    SPI_2linesTxISR_16BIT                    0x0800a765   Thumb Code    46  stm32f1xx_hal_spi.o(.text)
    SPI_2linesRxISR_8BIT                     0x0800a795   Thumb Code    50  stm32f1xx_hal_spi.o(.text)
    SPI_2linesTxISR_8BIT                     0x0800a7c9   Thumb Code    50  stm32f1xx_hal_spi.o(.text)
    SPI_DMAHalfTransmitCplt                  0x0800a8c1   Thumb Code     6  stm32f1xx_hal_spi.o(.text)
    SPI_DMATransmitCplt                      0x0800a8c9   Thumb Code   208  stm32f1xx_hal_spi.o(.text)
    SPI_DMAError                             0x0800a999   Thumb Code    28  stm32f1xx_hal_spi.o(.text)
    SPI_DMAHalfReceiveCplt                   0x0800abad   Thumb Code     6  stm32f1xx_hal_spi.o(.text)
    SPI_DMAReceiveCplt                       0x0800abb5   Thumb Code   234  stm32f1xx_hal_spi.o(.text)
    SPI_DMAHalfTransmitReceiveCplt           0x0800aca1   Thumb Code     6  stm32f1xx_hal_spi.o(.text)
    SPI_DMATransmitReceiveCplt               0x0800aca9   Thumb Code   200  stm32f1xx_hal_spi.o(.text)
    SPI_AbortTx_ISR                          0x0800aec5   Thumb Code    24  stm32f1xx_hal_spi.o(.text)
    SPI_AbortRx_ISR                          0x0800aedd   Thumb Code    90  stm32f1xx_hal_spi.o(.text)
    SPI_DMATxAbortCallback                   0x0800b099   Thumb Code   140  stm32f1xx_hal_spi.o(.text)
    SPI_DMARxAbortCallback                   0x0800b125   Thumb Code   206  stm32f1xx_hal_spi.o(.text)
    SPI_DMAAbortOnError                      0x0800b385   Thumb Code    12  stm32f1xx_hal_spi.o(.text)
    SPI_CloseRxTx_ISR                        0x0800b3b5   Thumb Code   258  stm32f1xx_hal_spi.o(.text)
    SPI_CloseTx_ISR                          0x0800b4b9   Thumb Code   236  stm32f1xx_hal_spi.o(.text)
    [Anonymous Symbol]                       0x0800b5a4   Section        0  stm32f1xx_hal_uart.o(.text)
    UART_DMATransmitCplt                     0x0800bdc9   Thumb Code    40  stm32f1xx_hal_uart.o(.text)
    UART_DMATxHalfCplt                       0x0800bdf1   Thumb Code     6  stm32f1xx_hal_uart.o(.text)
    UART_DMAError                            0x0800bdf9   Thumb Code    84  stm32f1xx_hal_uart.o(.text)
    UART_DMAReceiveCplt                      0x0800bef1   Thumb Code    54  stm32f1xx_hal_uart.o(.text)
    UART_DMARxHalfCplt                       0x0800bf29   Thumb Code     6  stm32f1xx_hal_uart.o(.text)
    UART_DMATxAbortCallback                  0x0800c219   Thumb Code    36  stm32f1xx_hal_uart.o(.text)
    UART_DMARxAbortCallback                  0x0800c23d   Thumb Code    36  stm32f1xx_hal_uart.o(.text)
    UART_DMATxOnlyAbortCallback              0x0800c2c9   Thumb Code    14  stm32f1xx_hal_uart.o(.text)
    UART_DMARxOnlyAbortCallback              0x0800c349   Thumb Code    14  stm32f1xx_hal_uart.o(.text)
    UART_DMAAbortOnError                     0x0800c5b5   Thumb Code    12  stm32f1xx_hal_uart.o(.text)
    [Anonymous Symbol]                       0x0800c6a4   Section        0  kalman.o(.text)
    .text                                    0x0800d2ec   Section        0  memcpya.o(.text)
    .text                                    0x0800d310   Section        0  memseta.o(.text)
    .text                                    0x0800d334   Section        0  strcat.o(.text)
    .text                                    0x0800d34c   Section        0  fadd.o(.text)
    .text                                    0x0800d3fc   Section        0  fmul.o(.text)
    .text                                    0x0800d460   Section        0  fdiv.o(.text)
    .text                                    0x0800d4dc   Section        0  dadd.o(.text)
    .text                                    0x0800d62a   Section        0  dmul.o(.text)
    .text                                    0x0800d70e   Section        0  ddiv.o(.text)
    .text                                    0x0800d7ec   Section        0  dcmplt.o(.text)
    .text                                    0x0800d822   Section        0  dcmpgt.o(.text)
    .text                                    0x0800d858   Section        0  fflti.o(.text)
    .text                                    0x0800d86a   Section        0  ffltui.o(.text)
    .text                                    0x0800d874   Section        0  dflti.o(.text)
    .text                                    0x0800d896   Section        0  dfltl.o(.text)
    .text                                    0x0800d8be   Section        0  ffixi.o(.text)
    .text                                    0x0800d8f0   Section        0  dfixi.o(.text)
    .text                                    0x0800d92e   Section        0  dfixul.o(.text)
    .text                                    0x0800d95e   Section        0  f2d.o(.text)
    .text                                    0x0800d984   Section        0  d2f.o(.text)
    .text                                    0x0800d9bc   Section        0  uidiv.o(.text)
    .text                                    0x0800d9e8   Section        0  uldiv.o(.text)
    .text                                    0x0800da4a   Section        0  llshl.o(.text)
    .text                                    0x0800da68   Section        0  llushr.o(.text)
    .text                                    0x0800da88   Section        0  llsshr.o(.text)
    .text                                    0x0800daac   Section        0  fepilogue.o(.text)
    .text                                    0x0800daac   Section        0  iusefp.o(.text)
    .text                                    0x0800db1a   Section        0  depilogue.o(.text)
    .text                                    0x0800dbd4   Section       48  cdrcmple.o(.text)
    .text                                    0x0800dc04   Section       36  init.o(.text)
    i.__0sprintf                             0x0800dc28   Section        0  printfa.o(i.__0sprintf)
    i.__scatterload_copy                     0x0800dc50   Section       14  handlers.o(i.__scatterload_copy)
    i.__scatterload_null                     0x0800dc5e   Section        2  handlers.o(i.__scatterload_null)
    i.__scatterload_zeroinit                 0x0800dc60   Section       14  handlers.o(i.__scatterload_zeroinit)
    i._fp_digits                             0x0800dc70   Section        0  printfa.o(i._fp_digits)
    _fp_digits                               0x0800dc71   Thumb Code   366  printfa.o(i._fp_digits)
    i._printf_core                           0x0800ddf4   Section        0  printfa.o(i._printf_core)
    _printf_core                             0x0800ddf5   Thumb Code  1744  printfa.o(i._printf_core)
    i._printf_post_padding                   0x0800e4d0   Section        0  printfa.o(i._printf_post_padding)
    _printf_post_padding                     0x0800e4d1   Thumb Code    36  printfa.o(i._printf_post_padding)
    i._printf_pre_padding                    0x0800e4f4   Section        0  printfa.o(i._printf_pre_padding)
    _printf_pre_padding                      0x0800e4f5   Thumb Code    46  printfa.o(i._printf_pre_padding)
    i._sputc                                 0x0800e522   Section        0  printfa.o(i._sputc)
    _sputc                                   0x0800e523   Thumb Code    10  printfa.o(i._sputc)
    i.ceilf                                  0x0800e52c   Section        0  ceilf.o(i.ceilf)
    [Anonymous Symbol]                       0x0800e5bc   Section        0  stm32f1xx_hal_rcc.o(.rodata.HAL_RCC_GetSysClockFreq.aPredivFactorTable)
    HAL_RCC_GetSysClockFreq.aPredivFactorTable 0x0800e5bc   Data           2  stm32f1xx_hal_rcc.o(.rodata.HAL_RCC_GetSysClockFreq.aPredivFactorTable)
    HAL_RCC_GetSysClockFreq.aPLLMULFactorTable 0x0800e5e0   Data          16  stm32f1xx_hal_rcc.o(.rodata.cst16)
    [Anonymous Symbol]                       0x0800e870   Section        0  dw_main.o(.rodata.str1.1)
    .L.str.5                                 0x0800e870   Data          28  dw_main.o(.rodata.str1.1)
    .L.str.1                                 0x0800e88c   Data           5  dw_main.o(.rodata.str1.1)
    [Anonymous Symbol]                       0x20000000   Section        0  dw_main.o(.data..L_MergedGlobals)
    .L_MergedGlobals                         0x20000000   Data          80  dw_main.o(.data..L_MergedGlobals)
    [Anonymous Symbol]                       0x20000050   Section        0  stm32f1xx_hal.o(.data..L_MergedGlobals)
    .L_MergedGlobals                         0x20000050   Data          12  stm32f1xx_hal.o(.data..L_MergedGlobals)
    [Anonymous Symbol]                       0x20000060   Section        0  kalman.o(.data.kalman_filter_T0_A0.p_last)
    kalman_filter_T0_A0.p_last               0x20000060   Data           4  kalman.o(.data.kalman_filter_T0_A0.p_last)
    [Anonymous Symbol]                       0x20000064   Section        0  kalman.o(.data.kalman_filter_T0_A1.p_last)
    kalman_filter_T0_A1.p_last               0x20000064   Data           4  kalman.o(.data.kalman_filter_T0_A1.p_last)
    [Anonymous Symbol]                       0x20000068   Section        0  kalman.o(.data.kalman_filter_T0_A2.p_last)
    kalman_filter_T0_A2.p_last               0x20000068   Data           4  kalman.o(.data.kalman_filter_T0_A2.p_last)
    [Anonymous Symbol]                       0x2000006c   Section        0  kalman.o(.data.kalman_filter_T0_A3.p_last)
    kalman_filter_T0_A3.p_last               0x2000006c   Data           4  kalman.o(.data.kalman_filter_T0_A3.p_last)
    [Anonymous Symbol]                       0x20000070   Section        0  kalman.o(.data.kalman_filter_T1_A0.p_last)
    kalman_filter_T1_A0.p_last               0x20000070   Data           4  kalman.o(.data.kalman_filter_T1_A0.p_last)
    [Anonymous Symbol]                       0x20000074   Section        0  kalman.o(.data.kalman_filter_T1_A1.p_last)
    kalman_filter_T1_A1.p_last               0x20000074   Data           4  kalman.o(.data.kalman_filter_T1_A1.p_last)
    [Anonymous Symbol]                       0x20000078   Section        0  kalman.o(.data.kalman_filter_T1_A2.p_last)
    kalman_filter_T1_A2.p_last               0x20000078   Data           4  kalman.o(.data.kalman_filter_T1_A2.p_last)
    [Anonymous Symbol]                       0x2000007c   Section        0  kalman.o(.data.kalman_filter_T1_A3.p_last)
    kalman_filter_T1_A3.p_last               0x2000007c   Data           4  kalman.o(.data.kalman_filter_T1_A3.p_last)
    [Anonymous Symbol]                       0x20000080   Section        0  kalman.o(.data.kalman_filter_T2_A0.p_last)
    kalman_filter_T2_A0.p_last               0x20000080   Data           4  kalman.o(.data.kalman_filter_T2_A0.p_last)
    [Anonymous Symbol]                       0x20000084   Section        0  kalman.o(.data.kalman_filter_T2_A1.p_last)
    kalman_filter_T2_A1.p_last               0x20000084   Data           4  kalman.o(.data.kalman_filter_T2_A1.p_last)
    [Anonymous Symbol]                       0x20000088   Section        0  kalman.o(.data.kalman_filter_T2_A2.p_last)
    kalman_filter_T2_A2.p_last               0x20000088   Data           4  kalman.o(.data.kalman_filter_T2_A2.p_last)
    [Anonymous Symbol]                       0x2000008c   Section        0  kalman.o(.data.kalman_filter_T2_A3.p_last)
    kalman_filter_T2_A3.p_last               0x2000008c   Data           4  kalman.o(.data.kalman_filter_T2_A3.p_last)
    [Anonymous Symbol]                       0x20000090   Section        0  kalman.o(.data.kalman_filter_T3_A0.p_last)
    kalman_filter_T3_A0.p_last               0x20000090   Data           4  kalman.o(.data.kalman_filter_T3_A0.p_last)
    [Anonymous Symbol]                       0x20000094   Section        0  kalman.o(.data.kalman_filter_T3_A1.p_last)
    kalman_filter_T3_A1.p_last               0x20000094   Data           4  kalman.o(.data.kalman_filter_T3_A1.p_last)
    [Anonymous Symbol]                       0x20000098   Section        0  kalman.o(.data.kalman_filter_T3_A2.p_last)
    kalman_filter_T3_A2.p_last               0x20000098   Data           4  kalman.o(.data.kalman_filter_T3_A2.p_last)
    [Anonymous Symbol]                       0x2000009c   Section        0  kalman.o(.data.kalman_filter_T3_A3.p_last)
    kalman_filter_T3_A3.p_last               0x2000009c   Data           4  kalman.o(.data.kalman_filter_T3_A3.p_last)
    [Anonymous Symbol]                       0x200000a0   Section        0  deca_device.o(.data.pdw1000local)
    pdw1000local                             0x200000a0   Data           4  deca_device.o(.data.pdw1000local)
    [Anonymous Symbol]                       0x200000b0   Section        0  usart.o(.bss..L_MergedGlobals)
    .L_MergedGlobals                         0x200000b0   Data          72  usart.o(.bss..L_MergedGlobals)
    [Anonymous Symbol]                       0x20000100   Section        0  instance_common.o(.bss..L_MergedGlobals)
    .L_MergedGlobals                         0x20000100   Data          64  instance_common.o(.bss..L_MergedGlobals)
    inst_idistraw                            0x20000100   Data          32  instance_common.o(.bss..L_MergedGlobals)
    inst_idist                               0x20000120   Data          32  instance_common.o(.bss..L_MergedGlobals)
    [Anonymous Symbol]                       0x20000140   Section        0  port.o(.bss..L_MergedGlobals)
    .L_MergedGlobals                         0x20000140   Data           8  port.o(.bss..L_MergedGlobals)
    report_buf.1                             0x20000140   Data           4  port.o(.bss..L_MergedGlobals)
    report_buf.2                             0x20000144   Data           4  port.o(.bss..L_MergedGlobals)
    [Anonymous Symbol]                       0x20000150   Section        0  kalman.o(.bss..L_MergedGlobals)
    .L_MergedGlobals                         0x20000150   Data         124  kalman.o(.bss..L_MergedGlobals)
    kalman_filter_T0_A0.x_last               0x20000150   Data           4  kalman.o(.bss..L_MergedGlobals)
    kalman_filter_T0_A0.kg                   0x20000154   Data           4  kalman.o(.bss..L_MergedGlobals)
    kalman_filter_T0_A0.x_mid                0x20000158   Data           4  kalman.o(.bss..L_MergedGlobals)
    kalman_filter_T0_A0.x_now                0x2000015c   Data           4  kalman.o(.bss..L_MergedGlobals)
    kalman_filter_T0_A0.p_mid                0x20000160   Data           4  kalman.o(.bss..L_MergedGlobals)
    kalman_filter_T0_A0.p_now                0x20000164   Data           4  kalman.o(.bss..L_MergedGlobals)
    kalman_filter_T0_A0.sumerror_kalman      0x20000168   Data           4  kalman.o(.bss..L_MergedGlobals)
    kalman_filter_T0_A0.sumerror_measure     0x2000016c   Data           4  kalman.o(.bss..L_MergedGlobals)
    kalman_filter_T0_A1.x_last               0x20000170   Data           4  kalman.o(.bss..L_MergedGlobals)
    kalman_filter_T0_A1.kg                   0x20000174   Data           4  kalman.o(.bss..L_MergedGlobals)
    kalman_filter_T0_A1.x_mid                0x20000178   Data           4  kalman.o(.bss..L_MergedGlobals)
    kalman_filter_T0_A1.x_now                0x2000017c   Data           4  kalman.o(.bss..L_MergedGlobals)
    kalman_filter_T0_A1.p_mid                0x20000180   Data           4  kalman.o(.bss..L_MergedGlobals)
    kalman_filter_T0_A1.p_now                0x20000184   Data           4  kalman.o(.bss..L_MergedGlobals)
    kalman_filter_T0_A1.sumerror_kalman      0x20000188   Data           4  kalman.o(.bss..L_MergedGlobals)
    kalman_filter_T0_A1.sumerror_measure     0x2000018c   Data           4  kalman.o(.bss..L_MergedGlobals)
    kalman_filter_T0_A2.x_last               0x20000190   Data           4  kalman.o(.bss..L_MergedGlobals)
    kalman_filter_T0_A2.kg                   0x20000194   Data           4  kalman.o(.bss..L_MergedGlobals)
    kalman_filter_T0_A2.x_mid                0x20000198   Data           4  kalman.o(.bss..L_MergedGlobals)
    kalman_filter_T0_A2.x_now                0x2000019c   Data           4  kalman.o(.bss..L_MergedGlobals)
    kalman_filter_T0_A2.p_mid                0x200001a0   Data           4  kalman.o(.bss..L_MergedGlobals)
    kalman_filter_T0_A2.p_now                0x200001a4   Data           4  kalman.o(.bss..L_MergedGlobals)
    kalman_filter_T0_A2.sumerror_kalman      0x200001a8   Data           4  kalman.o(.bss..L_MergedGlobals)
    kalman_filter_T0_A2.sumerror_measure     0x200001ac   Data           4  kalman.o(.bss..L_MergedGlobals)
    kalman_filter_T0_A3.x_last               0x200001b0   Data           4  kalman.o(.bss..L_MergedGlobals)
    kalman_filter_T0_A3.kg                   0x200001b4   Data           4  kalman.o(.bss..L_MergedGlobals)
    kalman_filter_T0_A3.x_mid                0x200001b8   Data           4  kalman.o(.bss..L_MergedGlobals)
    kalman_filter_T0_A3.x_now                0x200001bc   Data           4  kalman.o(.bss..L_MergedGlobals)
    kalman_filter_T0_A3.p_mid                0x200001c0   Data           4  kalman.o(.bss..L_MergedGlobals)
    kalman_filter_T0_A3.p_now                0x200001c4   Data           4  kalman.o(.bss..L_MergedGlobals)
    kalman_filter_T0_A3.sumerror_kalman      0x200001c8   Data           4  kalman.o(.bss..L_MergedGlobals)
    [Anonymous Symbol]                       0x200001d0   Section        0  usart.o(.bss..L_MergedGlobals.1)
    .L_MergedGlobals.1                       0x200001d0   Data          72  usart.o(.bss..L_MergedGlobals.1)
    [Anonymous Symbol]                       0x20000220   Section        0  instance_common.o(.bss..L_MergedGlobals.1)
    .L_MergedGlobals.1                       0x20000220   Data          64  instance_common.o(.bss..L_MergedGlobals.1)
    inst_tdist                               0x20000220   Data          64  instance_common.o(.bss..L_MergedGlobals.1)
    [Anonymous Symbol]                       0x20000260   Section        0  kalman.o(.bss..L_MergedGlobals.1)
    .L_MergedGlobals.1                       0x20000260   Data         124  kalman.o(.bss..L_MergedGlobals.1)
    kalman_filter_T0_A3.sumerror_measure     0x20000260   Data           4  kalman.o(.bss..L_MergedGlobals.1)
    kalman_filter_T1_A0.x_last               0x20000264   Data           4  kalman.o(.bss..L_MergedGlobals.1)
    kalman_filter_T1_A0.kg                   0x20000268   Data           4  kalman.o(.bss..L_MergedGlobals.1)
    kalman_filter_T1_A0.x_mid                0x2000026c   Data           4  kalman.o(.bss..L_MergedGlobals.1)
    kalman_filter_T1_A0.x_now                0x20000270   Data           4  kalman.o(.bss..L_MergedGlobals.1)
    kalman_filter_T1_A0.p_mid                0x20000274   Data           4  kalman.o(.bss..L_MergedGlobals.1)
    kalman_filter_T1_A0.p_now                0x20000278   Data           4  kalman.o(.bss..L_MergedGlobals.1)
    kalman_filter_T1_A0.sumerror_kalman      0x2000027c   Data           4  kalman.o(.bss..L_MergedGlobals.1)
    kalman_filter_T1_A0.sumerror_measure     0x20000280   Data           4  kalman.o(.bss..L_MergedGlobals.1)
    kalman_filter_T1_A1.x_last               0x20000284   Data           4  kalman.o(.bss..L_MergedGlobals.1)
    kalman_filter_T1_A1.kg                   0x20000288   Data           4  kalman.o(.bss..L_MergedGlobals.1)
    kalman_filter_T1_A1.x_mid                0x2000028c   Data           4  kalman.o(.bss..L_MergedGlobals.1)
    kalman_filter_T1_A1.x_now                0x20000290   Data           4  kalman.o(.bss..L_MergedGlobals.1)
    kalman_filter_T1_A1.p_mid                0x20000294   Data           4  kalman.o(.bss..L_MergedGlobals.1)
    kalman_filter_T1_A1.p_now                0x20000298   Data           4  kalman.o(.bss..L_MergedGlobals.1)
    kalman_filter_T1_A1.sumerror_kalman      0x2000029c   Data           4  kalman.o(.bss..L_MergedGlobals.1)
    kalman_filter_T1_A1.sumerror_measure     0x200002a0   Data           4  kalman.o(.bss..L_MergedGlobals.1)
    kalman_filter_T1_A2.x_last               0x200002a4   Data           4  kalman.o(.bss..L_MergedGlobals.1)
    kalman_filter_T1_A2.kg                   0x200002a8   Data           4  kalman.o(.bss..L_MergedGlobals.1)
    kalman_filter_T1_A2.x_mid                0x200002ac   Data           4  kalman.o(.bss..L_MergedGlobals.1)
    kalman_filter_T1_A2.x_now                0x200002b0   Data           4  kalman.o(.bss..L_MergedGlobals.1)
    kalman_filter_T1_A2.p_mid                0x200002b4   Data           4  kalman.o(.bss..L_MergedGlobals.1)
    kalman_filter_T1_A2.p_now                0x200002b8   Data           4  kalman.o(.bss..L_MergedGlobals.1)
    kalman_filter_T1_A2.sumerror_kalman      0x200002bc   Data           4  kalman.o(.bss..L_MergedGlobals.1)
    kalman_filter_T1_A2.sumerror_measure     0x200002c0   Data           4  kalman.o(.bss..L_MergedGlobals.1)
    kalman_filter_T1_A3.x_last               0x200002c4   Data           4  kalman.o(.bss..L_MergedGlobals.1)
    kalman_filter_T1_A3.kg                   0x200002c8   Data           4  kalman.o(.bss..L_MergedGlobals.1)
    kalman_filter_T1_A3.x_mid                0x200002cc   Data           4  kalman.o(.bss..L_MergedGlobals.1)
    kalman_filter_T1_A3.x_now                0x200002d0   Data           4  kalman.o(.bss..L_MergedGlobals.1)
    kalman_filter_T1_A3.p_mid                0x200002d4   Data           4  kalman.o(.bss..L_MergedGlobals.1)
    kalman_filter_T1_A3.p_now                0x200002d8   Data           4  kalman.o(.bss..L_MergedGlobals.1)
    [Anonymous Symbol]                       0x200002e0   Section        0  kalman.o(.bss..L_MergedGlobals.2)
    .L_MergedGlobals.2                       0x200002e0   Data         124  kalman.o(.bss..L_MergedGlobals.2)
    kalman_filter_T1_A3.sumerror_kalman      0x200002e0   Data           4  kalman.o(.bss..L_MergedGlobals.2)
    kalman_filter_T1_A3.sumerror_measure     0x200002e4   Data           4  kalman.o(.bss..L_MergedGlobals.2)
    kalman_filter_T2_A0.x_last               0x200002e8   Data           4  kalman.o(.bss..L_MergedGlobals.2)
    kalman_filter_T2_A0.kg                   0x200002ec   Data           4  kalman.o(.bss..L_MergedGlobals.2)
    kalman_filter_T2_A0.x_mid                0x200002f0   Data           4  kalman.o(.bss..L_MergedGlobals.2)
    kalman_filter_T2_A0.x_now                0x200002f4   Data           4  kalman.o(.bss..L_MergedGlobals.2)
    kalman_filter_T2_A0.p_mid                0x200002f8   Data           4  kalman.o(.bss..L_MergedGlobals.2)
    kalman_filter_T2_A0.p_now                0x200002fc   Data           4  kalman.o(.bss..L_MergedGlobals.2)
    kalman_filter_T2_A0.sumerror_kalman      0x20000300   Data           4  kalman.o(.bss..L_MergedGlobals.2)
    kalman_filter_T2_A0.sumerror_measure     0x20000304   Data           4  kalman.o(.bss..L_MergedGlobals.2)
    kalman_filter_T2_A1.x_last               0x20000308   Data           4  kalman.o(.bss..L_MergedGlobals.2)
    kalman_filter_T2_A1.kg                   0x2000030c   Data           4  kalman.o(.bss..L_MergedGlobals.2)
    kalman_filter_T2_A1.x_mid                0x20000310   Data           4  kalman.o(.bss..L_MergedGlobals.2)
    kalman_filter_T2_A1.x_now                0x20000314   Data           4  kalman.o(.bss..L_MergedGlobals.2)
    kalman_filter_T2_A1.p_mid                0x20000318   Data           4  kalman.o(.bss..L_MergedGlobals.2)
    kalman_filter_T2_A1.p_now                0x2000031c   Data           4  kalman.o(.bss..L_MergedGlobals.2)
    kalman_filter_T2_A1.sumerror_kalman      0x20000320   Data           4  kalman.o(.bss..L_MergedGlobals.2)
    kalman_filter_T2_A1.sumerror_measure     0x20000324   Data           4  kalman.o(.bss..L_MergedGlobals.2)
    kalman_filter_T2_A2.x_last               0x20000328   Data           4  kalman.o(.bss..L_MergedGlobals.2)
    kalman_filter_T2_A2.kg                   0x2000032c   Data           4  kalman.o(.bss..L_MergedGlobals.2)
    kalman_filter_T2_A2.x_mid                0x20000330   Data           4  kalman.o(.bss..L_MergedGlobals.2)
    kalman_filter_T2_A2.x_now                0x20000334   Data           4  kalman.o(.bss..L_MergedGlobals.2)
    kalman_filter_T2_A2.p_mid                0x20000338   Data           4  kalman.o(.bss..L_MergedGlobals.2)
    kalman_filter_T2_A2.p_now                0x2000033c   Data           4  kalman.o(.bss..L_MergedGlobals.2)
    kalman_filter_T2_A2.sumerror_kalman      0x20000340   Data           4  kalman.o(.bss..L_MergedGlobals.2)
    kalman_filter_T2_A2.sumerror_measure     0x20000344   Data           4  kalman.o(.bss..L_MergedGlobals.2)
    kalman_filter_T2_A3.x_last               0x20000348   Data           4  kalman.o(.bss..L_MergedGlobals.2)
    kalman_filter_T2_A3.kg                   0x2000034c   Data           4  kalman.o(.bss..L_MergedGlobals.2)
    kalman_filter_T2_A3.x_mid                0x20000350   Data           4  kalman.o(.bss..L_MergedGlobals.2)
    kalman_filter_T2_A3.x_now                0x20000354   Data           4  kalman.o(.bss..L_MergedGlobals.2)
    kalman_filter_T2_A3.p_mid                0x20000358   Data           4  kalman.o(.bss..L_MergedGlobals.2)
    [Anonymous Symbol]                       0x20000360   Section        0  kalman.o(.bss..L_MergedGlobals.3)
    .L_MergedGlobals.3                       0x20000360   Data         124  kalman.o(.bss..L_MergedGlobals.3)
    kalman_filter_T2_A3.p_now                0x20000360   Data           4  kalman.o(.bss..L_MergedGlobals.3)
    kalman_filter_T2_A3.sumerror_kalman      0x20000364   Data           4  kalman.o(.bss..L_MergedGlobals.3)
    kalman_filter_T2_A3.sumerror_measure     0x20000368   Data           4  kalman.o(.bss..L_MergedGlobals.3)
    kalman_filter_T3_A0.x_last               0x2000036c   Data           4  kalman.o(.bss..L_MergedGlobals.3)
    kalman_filter_T3_A0.kg                   0x20000370   Data           4  kalman.o(.bss..L_MergedGlobals.3)
    kalman_filter_T3_A0.x_mid                0x20000374   Data           4  kalman.o(.bss..L_MergedGlobals.3)
    kalman_filter_T3_A0.x_now                0x20000378   Data           4  kalman.o(.bss..L_MergedGlobals.3)
    kalman_filter_T3_A0.p_mid                0x2000037c   Data           4  kalman.o(.bss..L_MergedGlobals.3)
    kalman_filter_T3_A0.p_now                0x20000380   Data           4  kalman.o(.bss..L_MergedGlobals.3)
    kalman_filter_T3_A0.sumerror_kalman      0x20000384   Data           4  kalman.o(.bss..L_MergedGlobals.3)
    kalman_filter_T3_A0.sumerror_measure     0x20000388   Data           4  kalman.o(.bss..L_MergedGlobals.3)
    kalman_filter_T3_A1.x_last               0x2000038c   Data           4  kalman.o(.bss..L_MergedGlobals.3)
    kalman_filter_T3_A1.kg                   0x20000390   Data           4  kalman.o(.bss..L_MergedGlobals.3)
    kalman_filter_T3_A1.x_mid                0x20000394   Data           4  kalman.o(.bss..L_MergedGlobals.3)
    kalman_filter_T3_A1.x_now                0x20000398   Data           4  kalman.o(.bss..L_MergedGlobals.3)
    kalman_filter_T3_A1.p_mid                0x2000039c   Data           4  kalman.o(.bss..L_MergedGlobals.3)
    kalman_filter_T3_A1.p_now                0x200003a0   Data           4  kalman.o(.bss..L_MergedGlobals.3)
    kalman_filter_T3_A1.sumerror_kalman      0x200003a4   Data           4  kalman.o(.bss..L_MergedGlobals.3)
    kalman_filter_T3_A1.sumerror_measure     0x200003a8   Data           4  kalman.o(.bss..L_MergedGlobals.3)
    kalman_filter_T3_A2.x_last               0x200003ac   Data           4  kalman.o(.bss..L_MergedGlobals.3)
    kalman_filter_T3_A2.kg                   0x200003b0   Data           4  kalman.o(.bss..L_MergedGlobals.3)
    kalman_filter_T3_A2.x_mid                0x200003b4   Data           4  kalman.o(.bss..L_MergedGlobals.3)
    kalman_filter_T3_A2.x_now                0x200003b8   Data           4  kalman.o(.bss..L_MergedGlobals.3)
    kalman_filter_T3_A2.p_mid                0x200003bc   Data           4  kalman.o(.bss..L_MergedGlobals.3)
    kalman_filter_T3_A2.p_now                0x200003c0   Data           4  kalman.o(.bss..L_MergedGlobals.3)
    kalman_filter_T3_A2.sumerror_kalman      0x200003c4   Data           4  kalman.o(.bss..L_MergedGlobals.3)
    kalman_filter_T3_A2.sumerror_measure     0x200003c8   Data           4  kalman.o(.bss..L_MergedGlobals.3)
    kalman_filter_T3_A3.x_last               0x200003cc   Data           4  kalman.o(.bss..L_MergedGlobals.3)
    kalman_filter_T3_A3.kg                   0x200003d0   Data           4  kalman.o(.bss..L_MergedGlobals.3)
    kalman_filter_T3_A3.x_mid                0x200003d4   Data           4  kalman.o(.bss..L_MergedGlobals.3)
    kalman_filter_T3_A3.x_now                0x200003d8   Data           4  kalman.o(.bss..L_MergedGlobals.3)
    [Anonymous Symbol]                       0x200003dc   Section        0  kalman.o(.bss..L_MergedGlobals.4)
    .L_MergedGlobals.4                       0x200003dc   Data          16  kalman.o(.bss..L_MergedGlobals.4)
    kalman_filter_T3_A3.p_mid                0x200003dc   Data           4  kalman.o(.bss..L_MergedGlobals.4)
    kalman_filter_T3_A3.p_now                0x200003e0   Data           4  kalman.o(.bss..L_MergedGlobals.4)
    kalman_filter_T3_A3.sumerror_kalman      0x200003e4   Data           4  kalman.o(.bss..L_MergedGlobals.4)
    kalman_filter_T3_A3.sumerror_measure     0x200003e8   Data           4  kalman.o(.bss..L_MergedGlobals.4)
    .L_MergedGlobals.7                       0x200003ec   Data           4  dw_main.o(.bss..L_MergedGlobals.7)
    dw_main.start_kalman_t0                  0x200003ec   Data           1  dw_main.o(.bss..L_MergedGlobals.7)
    dw_main.start_kalman_t1                  0x200003ed   Data           1  dw_main.o(.bss..L_MergedGlobals.7)
    dw_main.start_kalman_t2                  0x200003ee   Data           1  dw_main.o(.bss..L_MergedGlobals.7)
    dw_main.start_kalman_t3                  0x200003ef   Data           1  dw_main.o(.bss..L_MergedGlobals.7)
    [Anonymous Symbol]                       0x200003f0   Section        0  deca_device.o(.bss.dw1000local)
    dw1000local                              0x200003f0   Data          56  deca_device.o(.bss.dw1000local)
    [Anonymous Symbol]                       0x20000570   Section        0  instance_common.o(.bss.instance_data)
    instance_data                            0x20000570   Data        1168  instance_common.o(.bss.instance_data)
    [Anonymous Symbol]                       0x20000a00   Section        0  port.o(.bss.rbuf)
    rbuf                                     0x20000a00   Data        8192  port.o(.bss.rbuf)
    [Anonymous Symbol]                       0x20002a00   Section        0  port.o(.bss.signalResetDone)
    signalResetDone                          0x20002a00   Data           4  port.o(.bss.signalResetDone)
    txhandle.0                               0x20002a04   Data           1  port.o(.bss.txhandle.0)
    STACK                                    0x20002a08   Section     1024  startup_stm32f103xe.o(STACK)

    Global Symbols

    Symbol Name                              Value     Ov Type        Size  Object(Section)

    BuildAttributes$$THM_ISAv4$P$D$K$B$S$PE$A:L22UL41UL21$X:L11$S22US41US21$IEEE1$IW$~IW$USESV6$~STKCKD$USESV7$WCHAR32$ENUMINT$~SHL$OTIME$ROPI$IEEEJ$EBA8$MICROLIB$REQ8$PRES8$EABIv2 0x00000000   Number         0  anon$$obj.o ABSOLUTE
    _printf_a                                0x00000000   Number         0  stubs.o ABSOLUTE
    _printf_c                                0x00000000   Number         0  stubs.o ABSOLUTE
    _printf_charcount                        0x00000000   Number         0  stubs.o ABSOLUTE
    _printf_d                                0x00000000   Number         0  stubs.o ABSOLUTE
    _printf_e                                0x00000000   Number         0  stubs.o ABSOLUTE
    _printf_f                                0x00000000   Number         0  stubs.o ABSOLUTE
    _printf_flags                            0x00000000   Number         0  stubs.o ABSOLUTE
    _printf_fp_dec                           0x00000000   Number         0  stubs.o ABSOLUTE
    _printf_fp_hex                           0x00000000   Number         0  stubs.o ABSOLUTE
    _printf_g                                0x00000000   Number         0  stubs.o ABSOLUTE
    _printf_i                                0x00000000   Number         0  stubs.o ABSOLUTE
    _printf_int_dec                          0x00000000   Number         0  stubs.o ABSOLUTE
    _printf_l                                0x00000000   Number         0  stubs.o ABSOLUTE
    _printf_lc                               0x00000000   Number         0  stubs.o ABSOLUTE
    _printf_ll                               0x00000000   Number         0  stubs.o ABSOLUTE
    _printf_lld                              0x00000000   Number         0  stubs.o ABSOLUTE
    _printf_lli                              0x00000000   Number         0  stubs.o ABSOLUTE
    _printf_llo                              0x00000000   Number         0  stubs.o ABSOLUTE
    _printf_llu                              0x00000000   Number         0  stubs.o ABSOLUTE
    _printf_llx                              0x00000000   Number         0  stubs.o ABSOLUTE
    _printf_longlong_dec                     0x00000000   Number         0  stubs.o ABSOLUTE
    _printf_longlong_hex                     0x00000000   Number         0  stubs.o ABSOLUTE
    _printf_longlong_oct                     0x00000000   Number         0  stubs.o ABSOLUTE
    _printf_ls                               0x00000000   Number         0  stubs.o ABSOLUTE
    _printf_mbtowc                           0x00000000   Number         0  stubs.o ABSOLUTE
    _printf_n                                0x00000000   Number         0  stubs.o ABSOLUTE
    _printf_o                                0x00000000   Number         0  stubs.o ABSOLUTE
    _printf_p                                0x00000000   Number         0  stubs.o ABSOLUTE
    _printf_percent                          0x00000000   Number         0  stubs.o ABSOLUTE
    _printf_pre_padding                      0x00000000   Number         0  stubs.o ABSOLUTE
    _printf_return_value                     0x00000000   Number         0  stubs.o ABSOLUTE
    _printf_s                                0x00000000   Number         0  stubs.o ABSOLUTE
    _printf_sizespec                         0x00000000   Number         0  stubs.o ABSOLUTE
    _printf_str                              0x00000000   Number         0  stubs.o ABSOLUTE
    _printf_truncate_signed                  0x00000000   Number         0  stubs.o ABSOLUTE
    _printf_truncate_unsigned                0x00000000   Number         0  stubs.o ABSOLUTE
    _printf_u                                0x00000000   Number         0  stubs.o ABSOLUTE
    _printf_wc                               0x00000000   Number         0  stubs.o ABSOLUTE
    _printf_wctomb                           0x00000000   Number         0  stubs.o ABSOLUTE
    _printf_widthprec                        0x00000000   Number         0  stubs.o ABSOLUTE
    _printf_x                                0x00000000   Number         0  stubs.o ABSOLUTE
    __cpp_initialize__aeabi_                  - Undefined Weak Reference
    __cxa_finalize                            - Undefined Weak Reference
    __decompress                              - Undefined Weak Reference
    _clock_init                               - Undefined Weak Reference
    _microlib_exit                            - Undefined Weak Reference
    __Vectors_Size                           0x00000130   Number         0  startup_stm32f103xe.o ABSOLUTE
    __Vectors                                0x08000000   Data           4  startup_stm32f103xe.o(RESET)
    __Vectors_End                            0x08000130   Data           0  startup_stm32f103xe.o(RESET)
    __main                                   0x08000131   Thumb Code     0  entry.o(.ARM.Collect$$$$00000000)
    _main_stk                                0x08000131   Thumb Code     0  entry2.o(.ARM.Collect$$$$00000001)
    _main_scatterload                        0x08000135   Thumb Code     0  entry5.o(.ARM.Collect$$$$00000004)
    __main_after_scatterload                 0x08000139   Thumb Code     0  entry5.o(.ARM.Collect$$$$00000004)
    _main_clock                              0x08000139   Thumb Code     0  entry7b.o(.ARM.Collect$$$$00000008)
    _main_cpp_init                           0x08000139   Thumb Code     0  entry8b.o(.ARM.Collect$$$$0000000A)
    _main_init                               0x08000139   Thumb Code     0  entry9a.o(.ARM.Collect$$$$0000000B)
    __rt_final_cpp                           0x08000141   Thumb Code     0  entry10a.o(.ARM.Collect$$$$0000000D)
    __rt_final_exit                          0x08000141   Thumb Code     0  entry11a.o(.ARM.Collect$$$$0000000F)
    Reset_Handler                            0x08000145   Thumb Code     8  startup_stm32f103xe.o(.text)
    ADC1_2_IRQHandler                        0x0800015f   Thumb Code     0  startup_stm32f103xe.o(.text)
    ADC3_IRQHandler                          0x0800015f   Thumb Code     0  startup_stm32f103xe.o(.text)
    CAN1_RX1_IRQHandler                      0x0800015f   Thumb Code     0  startup_stm32f103xe.o(.text)
    CAN1_SCE_IRQHandler                      0x0800015f   Thumb Code     0  startup_stm32f103xe.o(.text)
    DMA1_Channel1_IRQHandler                 0x0800015f   Thumb Code     0  startup_stm32f103xe.o(.text)
    DMA1_Channel2_IRQHandler                 0x0800015f   Thumb Code     0  startup_stm32f103xe.o(.text)
    DMA1_Channel3_IRQHandler                 0x0800015f   Thumb Code     0  startup_stm32f103xe.o(.text)
    DMA1_Channel4_IRQHandler                 0x0800015f   Thumb Code     0  startup_stm32f103xe.o(.text)
    DMA1_Channel5_IRQHandler                 0x0800015f   Thumb Code     0  startup_stm32f103xe.o(.text)
    DMA2_Channel1_IRQHandler                 0x0800015f   Thumb Code     0  startup_stm32f103xe.o(.text)
    DMA2_Channel2_IRQHandler                 0x0800015f   Thumb Code     0  startup_stm32f103xe.o(.text)
    DMA2_Channel3_IRQHandler                 0x0800015f   Thumb Code     0  startup_stm32f103xe.o(.text)
    DMA2_Channel4_5_IRQHandler               0x0800015f   Thumb Code     0  startup_stm32f103xe.o(.text)
    EXTI15_10_IRQHandler                     0x0800015f   Thumb Code     0  startup_stm32f103xe.o(.text)
    EXTI1_IRQHandler                         0x0800015f   Thumb Code     0  startup_stm32f103xe.o(.text)
    EXTI2_IRQHandler                         0x0800015f   Thumb Code     0  startup_stm32f103xe.o(.text)
    EXTI3_IRQHandler                         0x0800015f   Thumb Code     0  startup_stm32f103xe.o(.text)
    EXTI4_IRQHandler                         0x0800015f   Thumb Code     0  startup_stm32f103xe.o(.text)
    FLASH_IRQHandler                         0x0800015f   Thumb Code     0  startup_stm32f103xe.o(.text)
    FSMC_IRQHandler                          0x0800015f   Thumb Code     0  startup_stm32f103xe.o(.text)
    I2C1_ER_IRQHandler                       0x0800015f   Thumb Code     0  startup_stm32f103xe.o(.text)
    I2C1_EV_IRQHandler                       0x0800015f   Thumb Code     0  startup_stm32f103xe.o(.text)
    I2C2_ER_IRQHandler                       0x0800015f   Thumb Code     0  startup_stm32f103xe.o(.text)
    I2C2_EV_IRQHandler                       0x0800015f   Thumb Code     0  startup_stm32f103xe.o(.text)
    PVD_IRQHandler                           0x0800015f   Thumb Code     0  startup_stm32f103xe.o(.text)
    RCC_IRQHandler                           0x0800015f   Thumb Code     0  startup_stm32f103xe.o(.text)
    RTC_Alarm_IRQHandler                     0x0800015f   Thumb Code     0  startup_stm32f103xe.o(.text)
    RTC_IRQHandler                           0x0800015f   Thumb Code     0  startup_stm32f103xe.o(.text)
    SDIO_IRQHandler                          0x0800015f   Thumb Code     0  startup_stm32f103xe.o(.text)
    SPI1_IRQHandler                          0x0800015f   Thumb Code     0  startup_stm32f103xe.o(.text)
    SPI2_IRQHandler                          0x0800015f   Thumb Code     0  startup_stm32f103xe.o(.text)
    SPI3_IRQHandler                          0x0800015f   Thumb Code     0  startup_stm32f103xe.o(.text)
    TAMPER_IRQHandler                        0x0800015f   Thumb Code     0  startup_stm32f103xe.o(.text)
    TIM1_BRK_IRQHandler                      0x0800015f   Thumb Code     0  startup_stm32f103xe.o(.text)
    TIM1_CC_IRQHandler                       0x0800015f   Thumb Code     0  startup_stm32f103xe.o(.text)
    TIM1_TRG_COM_IRQHandler                  0x0800015f   Thumb Code     0  startup_stm32f103xe.o(.text)
    TIM1_UP_IRQHandler                       0x0800015f   Thumb Code     0  startup_stm32f103xe.o(.text)
    TIM2_IRQHandler                          0x0800015f   Thumb Code     0  startup_stm32f103xe.o(.text)
    TIM3_IRQHandler                          0x0800015f   Thumb Code     0  startup_stm32f103xe.o(.text)
    TIM4_IRQHandler                          0x0800015f   Thumb Code     0  startup_stm32f103xe.o(.text)
    TIM5_IRQHandler                          0x0800015f   Thumb Code     0  startup_stm32f103xe.o(.text)
    TIM6_IRQHandler                          0x0800015f   Thumb Code     0  startup_stm32f103xe.o(.text)
    TIM7_IRQHandler                          0x0800015f   Thumb Code     0  startup_stm32f103xe.o(.text)
    TIM8_BRK_IRQHandler                      0x0800015f   Thumb Code     0  startup_stm32f103xe.o(.text)
    TIM8_CC_IRQHandler                       0x0800015f   Thumb Code     0  startup_stm32f103xe.o(.text)
    TIM8_TRG_COM_IRQHandler                  0x0800015f   Thumb Code     0  startup_stm32f103xe.o(.text)
    TIM8_UP_IRQHandler                       0x0800015f   Thumb Code     0  startup_stm32f103xe.o(.text)
    UART4_IRQHandler                         0x0800015f   Thumb Code     0  startup_stm32f103xe.o(.text)
    UART5_IRQHandler                         0x0800015f   Thumb Code     0  startup_stm32f103xe.o(.text)
    USART1_IRQHandler                        0x0800015f   Thumb Code     0  startup_stm32f103xe.o(.text)
    USART3_IRQHandler                        0x0800015f   Thumb Code     0  startup_stm32f103xe.o(.text)
    USBWakeUp_IRQHandler                     0x0800015f   Thumb Code     0  startup_stm32f103xe.o(.text)
    USB_HP_CAN1_TX_IRQHandler                0x0800015f   Thumb Code     0  startup_stm32f103xe.o(.text)
    USB_LP_CAN1_RX0_IRQHandler               0x0800015f   Thumb Code     0  startup_stm32f103xe.o(.text)
    WWDG_IRQHandler                          0x0800015f   Thumb Code     0  startup_stm32f103xe.o(.text)
    main                                     0x08000169   Thumb Code   118  main.o(.text)
    SystemClock_Config                       0x080001e1   Thumb Code    74  main.o(.text)
    Error_Handler                            0x0800022d   Thumb Code     2  main.o(.text)
    MX_GPIO_Init                             0x08000231   Thumb Code   378  gpio.o(.text)
    MX_DMA_Init                              0x080003ad   Thumb Code    68  dma.o(.text)
    MX_SPI1_Init                             0x080003f1   Thumb Code    76  spi.o(.text)
    HAL_SPI_MspInit                          0x0800043d   Thumb Code   124  spi.o(.text)
    HAL_SPI_MspDeInit                        0x080004b9   Thumb Code    44  spi.o(.text)
    MX_USART2_UART_Init                      0x080004e5   Thumb Code    62  usart.o(.text)
    HAL_UART_MspInit                         0x08000525   Thumb Code   250  usart.o(.text)
    HAL_UART_MspDeInit                       0x08000621   Thumb Code    68  usart.o(.text)
    NMI_Handler                              0x08000665   Thumb Code     2  stm32f1xx_it.o(.text)
    HardFault_Handler                        0x08000669   Thumb Code     2  stm32f1xx_it.o(.text)
    MemManage_Handler                        0x0800066d   Thumb Code     2  stm32f1xx_it.o(.text)
    BusFault_Handler                         0x08000671   Thumb Code     2  stm32f1xx_it.o(.text)
    UsageFault_Handler                       0x08000675   Thumb Code     2  stm32f1xx_it.o(.text)
    SVC_Handler                              0x08000679   Thumb Code     2  stm32f1xx_it.o(.text)
    DebugMon_Handler                         0x0800067d   Thumb Code     2  stm32f1xx_it.o(.text)
    PendSV_Handler                           0x08000681   Thumb Code     2  stm32f1xx_it.o(.text)
    SysTick_Handler                          0x08000685   Thumb Code     4  stm32f1xx_it.o(.text)
    DMA1_Channel6_IRQHandler                 0x08000689   Thumb Code    12  stm32f1xx_it.o(.text)
    DMA1_Channel7_IRQHandler                 0x08000695   Thumb Code    12  stm32f1xx_it.o(.text)
    EXTI9_5_IRQHandler                       0x080006a1   Thumb Code     6  stm32f1xx_it.o(.text)
    USART2_IRQHandler                        0x080006a9   Thumb Code    12  stm32f1xx_it.o(.text)
    EXTI0_IRQHandler                         0x080006b5   Thumb Code     6  stm32f1xx_it.o(.text)
    HAL_MspInit                              0x080006bd   Thumb Code    66  stm32f1xx_hal_msp.o(.text)
    SystemInit                               0x08000701   Thumb Code    80  system_stm32f1xx.o(.text)
    SystemCoreClockUpdate                    0x08000751   Thumb Code   106  system_stm32f1xx.o(.text)
    addressconfigure                         0x080007bd   Thumb Code    66  dw_main.o(.text)
    decarangingmode                          0x08000801   Thumb Code     6  dw_main.o(.text)
    inittestapplication                      0x08000809   Thumb Code   178  dw_main.o(.text)
    Add_CheckNum                             0x080008bd   Thumb Code    86  dw_main.o(.text)
    dw_main                                  0x08000915   Thumb Code  1856  dw_main.o(.text)
    anch_no_timeout_rx_reenable              0x08001055   Thumb Code    18  instance_anch.o(.text)
    anch_process_RX_timeout                  0x08001069   Thumb Code    30  instance_anch.o(.text)
    anch_enable_rx                           0x08001089   Thumb Code    60  instance_anch.o(.text)
    anch_txresponse_or_rx_reenable           0x080010c5   Thumb Code   262  instance_anch.o(.text)
    anch_prepare_anc2tag_response            0x080011cd   Thumb Code   230  instance_anch.o(.text)
    anch_handle_error_unknownframe_timeout   0x080012b5   Thumb Code   188  instance_anch.o(.text)
    rx_to_cb_anch                            0x08001371   Thumb Code   158  instance_anch.o(.text)
    rx_err_cb_anch                           0x08001411   Thumb Code   158  instance_anch.o(.text)
    rx_ok_cb_anch                            0x080014b1   Thumb Code   880  instance_anch.o(.text)
    check_state_change                       0x08001821   Thumb Code    18  instance_anch.o(.text)
    calc_tof                                 0x08001835   Thumb Code   228  instance_anch.o(.text)
    anch_app_run                             0x08001919   Thumb Code  1006  instance_anch.o(.text)
    anch_run                                 0x08001d09   Thumb Code    26  instance_anch.o(.text)
    instance_get_local_structure_ptr         0x08001d25   Thumb Code    26  instance_common.o(.text)
    instance_convert_usec_to_devtimeu        0x08001d41   Thumb Code    42  instance_common.o(.text)
    instance_calculate_rangefromTOF          0x08001d6d   Thumb Code   236  instance_common.o(.text)
    instance_set_tagdist                     0x08001e59   Thumb Code    36  instance_common.o(.text)
    instance_get_tagdist                     0x08001e7d   Thumb Code    22  instance_common.o(.text)
    instance_cleardisttable                  0x08001e95   Thumb Code    26  instance_common.o(.text)
    instance_cleardisttableall               0x08001eb1   Thumb Code    52  instance_common.o(.text)
    instance_get_role                        0x08001ee5   Thumb Code    12  instance_common.o(.text)
    instance_newrange                        0x08001ef1   Thumb Code    20  instance_common.o(.text)
    instance_newrangeancadd                  0x08001f05   Thumb Code    14  instance_common.o(.text)
    instance_newrangetagadd                  0x08001f15   Thumb Code    14  instance_common.o(.text)
    instance_newrangetim                     0x08001f25   Thumb Code    14  instance_common.o(.text)
    instance_clearcounts                     0x08001f35   Thumb Code    60  instance_common.o(.text)
    instance_init                            0x08001f71   Thumb Code   256  instance_common.o(.text)
    instance_clearevents                     0x08002071   Thumb Code    24  instance_common.o(.text)
    tx_conf_cb                               0x08002089   Thumb Code   176  instance_common.o(.text)
    instance_readdeviceid                    0x08002139   Thumb Code     4  instance_common.o(.text)
    instance_config                          0x0800213d   Thumb Code   188  instance_common.o(.text)
    instance_set_replydelay                  0x080021f9   Thumb Code   752  instance_common.o(.text)
    instance_get_rnum                        0x080024e9   Thumb Code    14  instance_common.o(.text)
    instance_get_rnuma                       0x080024f9   Thumb Code    16  instance_common.o(.text)
    instance_get_rnumanc                     0x08002509   Thumb Code    16  instance_common.o(.text)
    instance_get_lcount                      0x08002519   Thumb Code    14  instance_common.o(.text)
    instance_get_idist                       0x08002529   Thumb Code    22  instance_common.o(.text)
    instance_get_idistraw                    0x08002541   Thumb Code    24  instance_common.o(.text)
    instance_get_idist_mm                    0x08002559   Thumb Code    42  instance_common.o(.text)
    instance_get_idistraw_mm                 0x08002585   Thumb Code    44  instance_common.o(.text)
    instance_set_16bit_address               0x080025b1   Thumb Code    12  instance_common.o(.text)
    instance_config_frameheader_16bit        0x080025bd   Thumb Code    30  instance_common.o(.text)
    instance_send_delayed_frame              0x080025dd   Thumb Code    66  instance_common.o(.text)
    instance_seteventtime                    0x08002621   Thumb Code    22  instance_common.o(.text)
    instance_putevent                        0x08002639   Thumb Code    80  instance_common.o(.text)
    instance_peekevent                       0x08002689   Thumb Code    26  instance_common.o(.text)
    instance_getevent                        0x080026a5   Thumb Code   152  instance_common.o(.text)
    instance_config_txpower                  0x0800273d   Thumb Code    18  instance_common.o(.text)
    instance_set_txpower                     0x08002751   Thumb Code    38  instance_common.o(.text)
    instance_config_antennadelays            0x08002779   Thumb Code    20  instance_common.o(.text)
    instance_set_antennadelays               0x0800278d   Thumb Code    40  instance_common.o(.text)
    instance_get_txantdly                    0x080027b5   Thumb Code    12  instance_common.o(.text)
    instance_get_rxantdly                    0x080027c1   Thumb Code    12  instance_common.o(.text)
    instance_validranges                     0x080027cd   Thumb Code    20  instance_common.o(.text)
    calc_length_data                         0x080027e1   Thumb Code   148  instance_common.o(.text)
    instance_calc_ranges                     0x08002875   Thumb Code   132  instance_common.o(.text)
    tag_enable_rx                            0x080028f9   Thumb Code    72  instance_tag.o(.text)
    tag_process_rx_timeout                   0x08002941   Thumb Code    46  instance_tag.o(.text)
    tag_rx_reenable                          0x08002971   Thumb Code    82  instance_tag.o(.text)
    tag_handle_error_unknownframe            0x080029c5   Thumb Code   126  instance_tag.o(.text)
    rx_to_cb_tag                             0x08002a45   Thumb Code   120  instance_tag.o(.text)
    rx_err_cb_tag                            0x08002abd   Thumb Code   120  instance_tag.o(.text)
    rx_ok_cb_tag                             0x08002b35   Thumb Code   540  instance_tag.o(.text)
    tag_app_run                              0x08002d51   Thumb Code  1146  instance_tag.o(.text)
    tag_run                                  0x080031cd   Thumb Code   142  instance_tag.o(.text)
    dwt_setdevicedataptr                     0x0800325d   Thumb Code    40  deca_device.o(.text)
    dwt_initialise                           0x08003285   Thumb Code   962  deca_device.o(.text)
    dwt_readdevid                            0x08003649   Thumb Code    34  deca_device.o(.text)
    dwt_softreset                            0x0800366d   Thumb Code   276  deca_device.o(.text)
    _dwt_enableclocks                        0x08003781   Thumb Code   236  deca_device.o(.text)
    dwt_write8bitoffsetreg                   0x0800386d   Thumb Code    80  deca_device.o(.text)
    _dwt_otpread                             0x080038bd   Thumb Code   118  deca_device.o(.text)
    dwt_setxtaltrim                          0x08003935   Thumb Code    40  deca_device.o(.text)
    _dwt_loaducodefromrom                    0x0800395d   Thumb Code   190  deca_device.o(.text)
    dwt_read16bitoffsetreg                   0x08003a1d   Thumb Code    86  deca_device.o(.text)
    dwt_write16bitoffsetreg                  0x08003a75   Thumb Code    88  deca_device.o(.text)
    dwt_read32bitoffsetreg                   0x08003acd   Thumb Code    78  deca_device.o(.text)
    dwt_otprevision                          0x08003b1d   Thumb Code    14  deca_device.o(.text)
    dwt_setfinegraintxseq                    0x08003b2d   Thumb Code    48  deca_device.o(.text)
    dwt_setlnapamode                         0x08003b5d   Thumb Code   136  deca_device.o(.text)
    dwt_write32bitoffsetreg                  0x08003be5   Thumb Code   100  deca_device.o(.text)
    dwt_setgpiodirection                     0x08003c49   Thumb Code    50  deca_device.o(.text)
    dwt_writetodevice                        0x08003c7d   Thumb Code    74  deca_device.o(.text)
    dwt_setgpiovalue                         0x08003cc9   Thumb Code    50  deca_device.o(.text)
    dwt_getpartid                            0x08003cfd   Thumb Code    14  deca_device.o(.text)
    dwt_getlotid                             0x08003d0d   Thumb Code    14  deca_device.o(.text)
    dwt_configuretxrf                        0x08003d1d   Thumb Code    82  deca_device.o(.text)
    dwt_configure                            0x08003d71   Thumb Code  1170  deca_device.o(.text)
    _dwt_configlde                           0x08004205   Thumb Code    92  deca_device.o(.text)
    dwt_setrxantennadelay                    0x08004261   Thumb Code    48  deca_device.o(.text)
    dwt_settxantennadelay                    0x08004291   Thumb Code    40  deca_device.o(.text)
    dwt_writetxdata                          0x080042b9   Thumb Code    88  deca_device.o(.text)
    dwt_writetxfctrl                         0x08004311   Thumb Code    74  deca_device.o(.text)
    dwt_readrxdata                           0x0800435d   Thumb Code    70  deca_device.o(.text)
    dwt_readfromdevice                       0x080043a5   Thumb Code    78  deca_device.o(.text)
    dwt_readaccdata                          0x080043f5   Thumb Code   256  deca_device.o(.text)
    dwt_readdiagnostics                      0x080044f5   Thumb Code   170  deca_device.o(.text)
    dwt_readtxtimestamp                      0x080045a1   Thumb Code    28  deca_device.o(.text)
    dwt_readtxtimestamphi32                  0x080045bd   Thumb Code    36  deca_device.o(.text)
    dwt_readtxtimestamplo32                  0x080045e1   Thumb Code    34  deca_device.o(.text)
    dwt_readrxtimestamp                      0x08004605   Thumb Code    28  deca_device.o(.text)
    dwt_readrxtimestamphi32                  0x08004621   Thumb Code    36  deca_device.o(.text)
    dwt_readrxtimestamplo32                  0x08004645   Thumb Code    34  deca_device.o(.text)
    dwt_readsystimestamphi32                 0x08004669   Thumb Code    36  deca_device.o(.text)
    dwt_readsystime                          0x0800468d   Thumb Code    28  deca_device.o(.text)
    dwt_read8bitoffsetreg                    0x080046a9   Thumb Code    76  deca_device.o(.text)
    dwt_enableframefilter                    0x080046f5   Thumb Code   126  deca_device.o(.text)
    dwt_setpanid                             0x08004775   Thumb Code    42  deca_device.o(.text)
    dwt_setaddress16                         0x080047a1   Thumb Code    40  deca_device.o(.text)
    dwt_seteui                               0x080047c9   Thumb Code    28  deca_device.o(.text)
    dwt_geteui                               0x080047e5   Thumb Code    28  deca_device.o(.text)
    dwt_otpread                              0x08004801   Thumb Code   316  deca_device.o(.text)
    _dwt_otpsetmrregs                        0x0800493d   Thumb Code   714  deca_device.o(.text)
    _dwt_otpprogword32                       0x08004c09   Thumb Code   212  deca_device.o(.text)
    dwt_otpwriteandverify                    0x08004cdd   Thumb Code   842  deca_device.o(.text)
    _dwt_aonconfigupload                     0x08005029   Thumb Code    62  deca_device.o(.text)
    _dwt_aonarrayupload                      0x08005069   Thumb Code    62  deca_device.o(.text)
    dwt_entersleep                           0x080050a9   Thumb Code    62  deca_device.o(.text)
    dwt_configuresleepcnt                    0x080050e9   Thumb Code   412  deca_device.o(.text)
    dwt_calibratesleepcnt                    0x08005285   Thumb Code   550  deca_device.o(.text)
    dwt_configuresleep                       0x080054ad   Thumb Code    82  deca_device.o(.text)
    dwt_entersleepaftertx                    0x08005501   Thumb Code    98  deca_device.o(.text)
    dwt_spicswakeup                          0x08005565   Thumb Code   118  deca_device.o(.text)
    dwt_loadopsettabfromotp                  0x080055dd   Thumb Code   194  deca_device.o(.text)
    dwt_setsmarttxpower                      0x080056a1   Thumb Code   106  deca_device.o(.text)
    dwt_enableautoack                        0x0800570d   Thumb Code    94  deca_device.o(.text)
    dwt_setdblrxbuffmode                     0x0800576d   Thumb Code    88  deca_device.o(.text)
    dwt_setrxaftertxdelay                    0x080057c5   Thumb Code    96  deca_device.o(.text)
    dwt_setcallbacks                         0x08005825   Thumb Code    22  deca_device.o(.text)
    dwt_checkirq                             0x0800583d   Thumb Code    36  deca_device.o(.text)
    dwt_isr                                  0x08005861   Thumb Code   644  deca_device.o(.text)
    dwt_forcetrxoff                          0x08005ae5   Thumb Code   254  deca_device.o(.text)
    dwt_rxreset                              0x08005be5   Thumb Code    62  deca_device.o(.text)
    dwt_lowpowerlistenisr                    0x08005c25   Thumb Code   328  deca_device.o(.text)
    dwt_setlowpowerlistening                 0x08005d6d   Thumb Code    98  deca_device.o(.text)
    dwt_setleds                              0x08005dd1   Thumb Code   306  deca_device.o(.text)
    _dwt_disablesequencing                   0x08005f05   Thumb Code   114  deca_device.o(.text)
    dwt_setdelayedtrxtime                    0x08005f79   Thumb Code    54  deca_device.o(.text)
    dwt_starttx                              0x08005fb1   Thumb Code   214  deca_device.o(.text)
    dwt_syncrxbufptrs                        0x08006089   Thumb Code    70  deca_device.o(.text)
    dwt_setsniffmode                         0x080060d1   Thumb Code   188  deca_device.o(.text)
    dwt_setsnoozetime                        0x0800618d   Thumb Code    34  deca_device.o(.text)
    dwt_rxenable                             0x080061b1   Thumb Code   230  deca_device.o(.text)
    dwt_setrxtimeout                         0x08006299   Thumb Code   172  deca_device.o(.text)
    dwt_setpreambledetecttimeout             0x08006345   Thumb Code    42  deca_device.o(.text)
    dwt_setinterrupt                         0x08006371   Thumb Code   112  deca_device.o(.text)
    dwt_configeventcounters                  0x080063e1   Thumb Code    62  deca_device.o(.text)
    dwt_readeventcounters                    0x08006421   Thumb Code   306  deca_device.o(.text)
    dwt_getinitxtaltrim                      0x08006555   Thumb Code    14  deca_device.o(.text)
    dwt_configcwmode                         0x08006565   Thumb Code   428  deca_device.o(.text)
    dwt_configcontinuousframemode            0x08006711   Thumb Code   394  deca_device.o(.text)
    dwt_readtempvbat                         0x0800689d   Thumb Code   394  deca_device.o(.text)
    dwt_readwakeuptemp                       0x08006a29   Thumb Code    34  deca_device.o(.text)
    dwt_readwakeupvbat                       0x08006a4d   Thumb Code    34  deca_device.o(.text)
    dwt_calcbandwidthtempadj                 0x08006a71   Thumb Code   504  deca_device.o(.text)
    _dwt_computetxpowersetting               0x08006c69   Thumb Code   236  deca_device.o(.text)
    dwt_calcpowertempadj                     0x08006d55   Thumb Code    80  deca_device.o(.text)
    dwt_calcpgcount                          0x08006da5   Thumb Code   470  deca_device.o(.text)
    decamutexon                              0x08006f7d   Thumb Code    20  deca_mutex.o(.text)
    decamutexoff                             0x08006f91   Thumb Code    10  deca_mutex.o(.text)
    dwt_getrangebias                         0x08006f9d   Thumb Code   444  deca_range_tables.o(.text)
    deca_sleep                               0x08007159   Thumb Code     4  deca_sleep.o(.text)
    openspi                                  0x0800715d   Thumb Code     4  deca_spi.o(.text)
    closespi                                 0x08007161   Thumb Code     4  deca_spi.o(.text)
    writetospi                               0x08007165   Thumb Code   102  deca_spi.o(.text)
    readfromspi                              0x080071cd   Thumb Code   114  deca_spi.o(.text)
    portGetTickCnt                           0x08007241   Thumb Code     4  port.o(.text)
    usleep                                   0x08007245   Thumb Code    90  port.o(.text)
    Sleep                                    0x080072a1   Thumb Code     4  port.o(.text)
    peripherals_init                         0x080072a5   Thumb Code     4  port.o(.text)
    EXTI_GetITEnStatus                       0x080072a9   Thumb Code    32  port.o(.text)
    reset_DW1000                             0x080072c9   Thumb Code    96  port.o(.text)
    setup_DW1000RSTnIRQ                      0x08007329   Thumb Code   110  port.o(.text)
    port_is_boot1_low                        0x08007399   Thumb Code    24  port.o(.text)
    port_is_switch_on                        0x080073b1   Thumb Code    24  port.o(.text)
    led_toggle                               0x080073c9   Thumb Code   126  port.o(.text)
    led_off                                  0x08007449   Thumb Code   142  port.o(.text)
    led_on                                   0x080074d9   Thumb Code   142  port.o(.text)
    port_wakeup_dw1000                       0x08007569   Thumb Code    46  port.o(.text)
    port_wakeup_dw1000_fast                  0x08007599   Thumb Code   474  port.o(.text)
    port_set_dw1000_slowrate                 0x08007775   Thumb Code    16  port.o(.text)
    port_set_dw1000_fastrate                 0x08007785   Thumb Code    16  port.o(.text)
    HAL_GPIO_EXTI_Callback                   0x08007795   Thumb Code    66  port.o(.text)
    process_deca_irq                         0x080077d9   Thumb Code    42  port.o(.text)
    port_CheckEXT_IRQ                        0x08007805   Thumb Code    14  port.o(.text)
    port_DisableEXT_IRQ                      0x08007815   Thumb Code    24  port.o(.text)
    port_EnableEXT_IRQ                       0x0800782d   Thumb Code    16  port.o(.text)
    port_GetEXT_IRQStatus                    0x0800783d   Thumb Code    16  port.o(.text)
    port_tx_msg                              0x0800784d   Thumb Code   146  port.o(.text)
    flush_report_buff                        0x080078e1   Thumb Code   110  port.o(.text)
    HAL_Init                                 0x08007951   Thumb Code    38  stm32f1xx_hal.o(.text)
    HAL_InitTick                             0x08007979   Thumb Code    68  stm32f1xx_hal.o(.text)
    HAL_DeInit                               0x080079c1   Thumb Code    32  stm32f1xx_hal.o(.text)
    HAL_MspDeInit                            0x080079e1   Thumb Code     2  stm32f1xx_hal.o(.text)
    HAL_IncTick                              0x080079e5   Thumb Code    18  stm32f1xx_hal.o(.text)
    HAL_GetTick                              0x080079f9   Thumb Code    12  stm32f1xx_hal.o(.text)
    HAL_GetTickPrio                          0x08007a05   Thumb Code    12  stm32f1xx_hal.o(.text)
    HAL_SetTickFreq                          0x08007a11   Thumb Code    38  stm32f1xx_hal.o(.text)
    HAL_GetTickFreq                          0x08007a39   Thumb Code    12  stm32f1xx_hal.o(.text)
    HAL_Delay                                0x08007a45   Thumb Code    40  stm32f1xx_hal.o(.text)
    HAL_SuspendTick                          0x08007a6d   Thumb Code    18  stm32f1xx_hal.o(.text)
    HAL_ResumeTick                           0x08007a81   Thumb Code    18  stm32f1xx_hal.o(.text)
    HAL_GetHalVersion                        0x08007a95   Thumb Code    10  stm32f1xx_hal.o(.text)
    HAL_GetREVID                             0x08007aa1   Thumb Code    14  stm32f1xx_hal.o(.text)
    HAL_GetDEVID                             0x08007ab1   Thumb Code    16  stm32f1xx_hal.o(.text)
    HAL_GetUIDw0                             0x08007ac1   Thumb Code    12  stm32f1xx_hal.o(.text)
    HAL_GetUIDw1                             0x08007acd   Thumb Code    12  stm32f1xx_hal.o(.text)
    HAL_GetUIDw2                             0x08007ad9   Thumb Code    12  stm32f1xx_hal.o(.text)
    HAL_DBGMCU_EnableDBGSleepMode            0x08007ae5   Thumb Code    18  stm32f1xx_hal.o(.text)
    HAL_DBGMCU_DisableDBGSleepMode           0x08007af9   Thumb Code    18  stm32f1xx_hal.o(.text)
    HAL_DBGMCU_EnableDBGStopMode             0x08007b0d   Thumb Code    18  stm32f1xx_hal.o(.text)
    HAL_DBGMCU_DisableDBGStopMode            0x08007b21   Thumb Code    18  stm32f1xx_hal.o(.text)
    HAL_DBGMCU_EnableDBGStandbyMode          0x08007b35   Thumb Code    18  stm32f1xx_hal.o(.text)
    HAL_DBGMCU_DisableDBGStandbyMode         0x08007b49   Thumb Code    18  stm32f1xx_hal.o(.text)
    HAL_RCC_DeInit                           0x08007b5d   Thumb Code   238  stm32f1xx_hal_rcc.o(.text)
    HAL_RCC_OscConfig                        0x08007c4d   Thumb Code  1028  stm32f1xx_hal_rcc.o(.text)
    HAL_RCC_ClockConfig                      0x08008051   Thumb Code   424  stm32f1xx_hal_rcc.o(.text)
    HAL_RCC_GetSysClockFreq                  0x080081f9   Thumb Code    88  stm32f1xx_hal_rcc.o(.text)
    HAL_RCC_MCOConfig                        0x08008251   Thumb Code    82  stm32f1xx_hal_rcc.o(.text)
    HAL_RCC_EnableCSS                        0x080082a5   Thumb Code    12  stm32f1xx_hal_rcc.o(.text)
    HAL_RCC_DisableCSS                       0x080082b1   Thumb Code    12  stm32f1xx_hal_rcc.o(.text)
    HAL_RCC_GetHCLKFreq                      0x080082bd   Thumb Code    12  stm32f1xx_hal_rcc.o(.text)
    HAL_RCC_GetPCLK1Freq                     0x080082c9   Thumb Code    38  stm32f1xx_hal_rcc.o(.text)
    HAL_RCC_GetPCLK2Freq                     0x080082f1   Thumb Code    38  stm32f1xx_hal_rcc.o(.text)
    HAL_RCC_GetOscConfig                     0x08008319   Thumb Code   110  stm32f1xx_hal_rcc.o(.text)
    HAL_RCC_GetClockConfig                   0x08008389   Thumb Code    66  stm32f1xx_hal_rcc.o(.text)
    HAL_RCC_NMI_IRQHandler                   0x080083cd   Thumb Code    30  stm32f1xx_hal_rcc.o(.text)
    HAL_RCC_CSSCallback                      0x080083ed   Thumb Code     2  stm32f1xx_hal_rcc.o(.text)
    HAL_GPIO_Init                            0x080083f1   Thumb Code   514  stm32f1xx_hal_gpio.o(.text)
    HAL_GPIO_DeInit                          0x080085f5   Thumb Code   428  stm32f1xx_hal_gpio.o(.text)
    HAL_GPIO_ReadPin                         0x080087a1   Thumb Code    10  stm32f1xx_hal_gpio.o(.text)
    HAL_GPIO_WritePin                        0x080087ad   Thumb Code    10  stm32f1xx_hal_gpio.o(.text)
    HAL_GPIO_TogglePin                       0x080087b9   Thumb Code    18  stm32f1xx_hal_gpio.o(.text)
    HAL_GPIO_LockPin                         0x080087cd   Thumb Code    40  stm32f1xx_hal_gpio.o(.text)
    HAL_GPIO_EXTI_IRQHandler                 0x080087f5   Thumb Code    22  stm32f1xx_hal_gpio.o(.text)
    HAL_DMA_Init                             0x08008811   Thumb Code   146  stm32f1xx_hal_dma.o(.text)
    HAL_DMA_DeInit                           0x080088a5   Thumb Code   124  stm32f1xx_hal_dma.o(.text)
    HAL_DMA_Start                            0x08008921   Thumb Code   104  stm32f1xx_hal_dma.o(.text)
    HAL_DMA_Start_IT                         0x08008989   Thumb Code   156  stm32f1xx_hal_dma.o(.text)
    HAL_DMA_Abort                            0x08008a25   Thumb Code    62  stm32f1xx_hal_dma.o(.text)
    HAL_DMA_Abort_IT                         0x08008a65   Thumb Code   286  stm32f1xx_hal_dma.o(.text)
    HAL_DMA_PollForTransfer                  0x08008b85   Thumb Code  1948  stm32f1xx_hal_dma.o(.text)
    HAL_DMA_IRQHandler                       0x08009321   Thumb Code   764  stm32f1xx_hal_dma.o(.text)
    HAL_DMA_RegisterCallback                 0x0800961d   Thumb Code    78  stm32f1xx_hal_dma.o(.text)
    HAL_DMA_UnRegisterCallback               0x0800966d   Thumb Code   104  stm32f1xx_hal_dma.o(.text)
    HAL_DMA_GetState                         0x080096d5   Thumb Code     4  stm32f1xx_hal_dma.o(.text)
    HAL_DMA_GetError                         0x080096d9   Thumb Code     4  stm32f1xx_hal_dma.o(.text)
    HAL_NVIC_SetPriorityGrouping             0x080096dd   Thumb Code    32  stm32f1xx_hal_cortex.o(.text)
    HAL_NVIC_SetPriority                     0x080096fd   Thumb Code   100  stm32f1xx_hal_cortex.o(.text)
    HAL_NVIC_EnableIRQ                       0x08009761   Thumb Code    32  stm32f1xx_hal_cortex.o(.text)
    HAL_NVIC_DisableIRQ                      0x08009781   Thumb Code    40  stm32f1xx_hal_cortex.o(.text)
    HAL_NVIC_SystemReset                     0x080097a9   Thumb Code     4  stm32f1xx_hal_cortex.o(.text)
    HAL_SYSTICK_Config                       0x080097d1   Thumb Code    44  stm32f1xx_hal_cortex.o(.text)
    HAL_NVIC_GetPriorityGrouping             0x080097fd   Thumb Code    16  stm32f1xx_hal_cortex.o(.text)
    HAL_NVIC_GetPriority                     0x0800980d   Thumb Code    96  stm32f1xx_hal_cortex.o(.text)
    HAL_NVIC_SetPendingIRQ                   0x0800986d   Thumb Code    32  stm32f1xx_hal_cortex.o(.text)
    HAL_NVIC_GetPendingIRQ                   0x0800988d   Thumb Code    40  stm32f1xx_hal_cortex.o(.text)
    HAL_NVIC_ClearPendingIRQ                 0x080098b5   Thumb Code    32  stm32f1xx_hal_cortex.o(.text)
    HAL_NVIC_GetActive                       0x080098d5   Thumb Code    40  stm32f1xx_hal_cortex.o(.text)
    HAL_SYSTICK_CLKSourceConfig              0x080098fd   Thumb Code    26  stm32f1xx_hal_cortex.o(.text)
    HAL_SYSTICK_IRQHandler                   0x08009919   Thumb Code     4  stm32f1xx_hal_cortex.o(.text)
    HAL_SYSTICK_Callback                     0x0800991d   Thumb Code     2  stm32f1xx_hal_cortex.o(.text)
    HAL_SPI_Init                             0x08009921   Thumb Code   116  stm32f1xx_hal_spi.o(.text)
    HAL_SPI_DeInit                           0x08009999   Thumb Code    42  stm32f1xx_hal_spi.o(.text)
    HAL_SPI_Transmit                         0x080099c9   Thumb Code   628  stm32f1xx_hal_spi.o(.text)
    HAL_SPI_Receive                          0x08009c3d   Thumb Code   696  stm32f1xx_hal_spi.o(.text)
    HAL_SPI_TransmitReceive                  0x08009ef5   Thumb Code   788  stm32f1xx_hal_spi.o(.text)
    HAL_SPI_Transmit_IT                      0x0800a209   Thumb Code   154  stm32f1xx_hal_spi.o(.text)
    HAL_SPI_Receive_IT                       0x0800a2e5   Thumb Code   342  stm32f1xx_hal_spi.o(.text)
    HAL_SPI_TransmitReceive_IT               0x0800a43d   Thumb Code   220  stm32f1xx_hal_spi.o(.text)
    HAL_SPI_Transmit_DMA                     0x0800a7fd   Thumb Code   196  stm32f1xx_hal_spi.o(.text)
    HAL_SPI_Receive_DMA                      0x0800a9b5   Thumb Code   238  stm32f1xx_hal_spi.o(.text)
    HAL_SPI_TransmitReceive_DMA              0x0800aaa5   Thumb Code   264  stm32f1xx_hal_spi.o(.text)
    HAL_SPI_Abort                            0x0800ad71   Thumb Code   338  stm32f1xx_hal_spi.o(.text)
    HAL_SPI_Abort_IT                         0x0800af39   Thumb Code   352  stm32f1xx_hal_spi.o(.text)
    HAL_SPI_AbortCpltCallback                0x0800b1f5   Thumb Code     2  stm32f1xx_hal_spi.o(.text)
    HAL_SPI_DMAPause                         0x0800b1f9   Thumb Code    30  stm32f1xx_hal_spi.o(.text)
    HAL_SPI_DMAResume                        0x0800b219   Thumb Code    30  stm32f1xx_hal_spi.o(.text)
    HAL_SPI_DMAStop                          0x0800b239   Thumb Code    72  stm32f1xx_hal_spi.o(.text)
    HAL_SPI_IRQHandler                       0x0800b281   Thumb Code   260  stm32f1xx_hal_spi.o(.text)
    HAL_SPI_ErrorCallback                    0x0800b391   Thumb Code     2  stm32f1xx_hal_spi.o(.text)
    HAL_SPI_TxCpltCallback                   0x0800b395   Thumb Code     2  stm32f1xx_hal_spi.o(.text)
    HAL_SPI_RxCpltCallback                   0x0800b399   Thumb Code     2  stm32f1xx_hal_spi.o(.text)
    HAL_SPI_TxRxCpltCallback                 0x0800b39d   Thumb Code     2  stm32f1xx_hal_spi.o(.text)
    HAL_SPI_TxHalfCpltCallback               0x0800b3a1   Thumb Code     2  stm32f1xx_hal_spi.o(.text)
    HAL_SPI_RxHalfCpltCallback               0x0800b3a5   Thumb Code     2  stm32f1xx_hal_spi.o(.text)
    HAL_SPI_TxRxHalfCpltCallback             0x0800b3a9   Thumb Code     2  stm32f1xx_hal_spi.o(.text)
    HAL_SPI_GetState                         0x0800b3ad   Thumb Code     4  stm32f1xx_hal_spi.o(.text)
    HAL_SPI_GetError                         0x0800b3b1   Thumb Code     4  stm32f1xx_hal_spi.o(.text)
    HAL_UART_Init                            0x0800b5a5   Thumb Code   212  stm32f1xx_hal_uart.o(.text)
    HAL_HalfDuplex_Init                      0x0800b67d   Thumb Code   220  stm32f1xx_hal_uart.o(.text)
    HAL_LIN_Init                             0x0800b759   Thumb Code   238  stm32f1xx_hal_uart.o(.text)
    HAL_MultiProcessor_Init                  0x0800b849   Thumb Code   250  stm32f1xx_hal_uart.o(.text)
    HAL_UART_DeInit                          0x0800b945   Thumb Code    44  stm32f1xx_hal_uart.o(.text)
    HAL_UART_Transmit                        0x0800b975   Thumb Code   432  stm32f1xx_hal_uart.o(.text)
    HAL_UART_Receive                         0x0800bb25   Thumb Code   414  stm32f1xx_hal_uart.o(.text)
    HAL_UART_Transmit_IT                     0x0800bcc5   Thumb Code    60  stm32f1xx_hal_uart.o(.text)
    HAL_UART_Receive_IT                      0x0800bd01   Thumb Code    76  stm32f1xx_hal_uart.o(.text)
    HAL_UART_Transmit_DMA                    0x0800bd4d   Thumb Code   122  stm32f1xx_hal_uart.o(.text)
    HAL_UART_Receive_DMA                     0x0800be4d   Thumb Code   164  stm32f1xx_hal_uart.o(.text)
    HAL_UART_DMAPause                        0x0800bf31   Thumb Code    86  stm32f1xx_hal_uart.o(.text)
    HAL_UART_DMAResume                       0x0800bf89   Thumb Code   104  stm32f1xx_hal_uart.o(.text)
    HAL_UART_DMAStop                         0x0800bff1   Thumb Code   106  stm32f1xx_hal_uart.o(.text)
    HAL_UART_Abort                           0x0800c05d   Thumb Code   128  stm32f1xx_hal_uart.o(.text)
    HAL_UART_AbortTransmit                   0x0800c0dd   Thumb Code    72  stm32f1xx_hal_uart.o(.text)
    HAL_UART_AbortReceive                    0x0800c125   Thumb Code    80  stm32f1xx_hal_uart.o(.text)
    HAL_UART_Abort_IT                        0x0800c175   Thumb Code   164  stm32f1xx_hal_uart.o(.text)
    HAL_UART_AbortCpltCallback               0x0800c261   Thumb Code     2  stm32f1xx_hal_uart.o(.text)
    HAL_UART_AbortTransmit_IT                0x0800c265   Thumb Code    98  stm32f1xx_hal_uart.o(.text)
    HAL_UART_AbortTransmitCpltCallback       0x0800c2d9   Thumb Code     2  stm32f1xx_hal_uart.o(.text)
    HAL_UART_AbortReceive_IT                 0x0800c2dd   Thumb Code   106  stm32f1xx_hal_uart.o(.text)
    HAL_UART_AbortReceiveCpltCallback        0x0800c359   Thumb Code     2  stm32f1xx_hal_uart.o(.text)
    HAL_UART_IRQHandler                      0x0800c35d   Thumb Code   600  stm32f1xx_hal_uart.o(.text)
    HAL_UART_ErrorCallback                   0x0800c5c1   Thumb Code     2  stm32f1xx_hal_uart.o(.text)
    HAL_UART_TxCpltCallback                  0x0800c5c5   Thumb Code     2  stm32f1xx_hal_uart.o(.text)
    HAL_UART_TxHalfCpltCallback              0x0800c5c9   Thumb Code     2  stm32f1xx_hal_uart.o(.text)
    HAL_UART_RxCpltCallback                  0x0800c5cd   Thumb Code     2  stm32f1xx_hal_uart.o(.text)
    HAL_UART_RxHalfCpltCallback              0x0800c5d1   Thumb Code     2  stm32f1xx_hal_uart.o(.text)
    HAL_LIN_SendBreak                        0x0800c5d5   Thumb Code    38  stm32f1xx_hal_uart.o(.text)
    HAL_MultiProcessor_EnterMuteMode         0x0800c5fd   Thumb Code    38  stm32f1xx_hal_uart.o(.text)
    HAL_MultiProcessor_ExitMuteMode          0x0800c625   Thumb Code    38  stm32f1xx_hal_uart.o(.text)
    HAL_HalfDuplex_EnableTransmitter         0x0800c64d   Thumb Code    36  stm32f1xx_hal_uart.o(.text)
    HAL_HalfDuplex_EnableReceiver            0x0800c671   Thumb Code    40  stm32f1xx_hal_uart.o(.text)
    HAL_UART_GetState                        0x0800c699   Thumb Code     8  stm32f1xx_hal_uart.o(.text)
    HAL_UART_GetError                        0x0800c6a1   Thumb Code     4  stm32f1xx_hal_uart.o(.text)
    kalman_filter_T0_A0                      0x0800c6a5   Thumb Code   202  kalman.o(.text)
    kalman_filter_T0_A1                      0x0800c771   Thumb Code   202  kalman.o(.text)
    kalman_filter_T0_A2                      0x0800c83d   Thumb Code   202  kalman.o(.text)
    kalman_filter_T0_A3                      0x0800c909   Thumb Code   208  kalman.o(.text)
    kalman_filter_T1_A0                      0x0800c9d9   Thumb Code   184  kalman.o(.text)
    kalman_filter_T1_A1                      0x0800ca91   Thumb Code   184  kalman.o(.text)
    kalman_filter_T1_A2                      0x0800cb49   Thumb Code   184  kalman.o(.text)
    kalman_filter_T1_A3                      0x0800cc01   Thumb Code   200  kalman.o(.text)
    kalman_filter_T2_A0                      0x0800ccc9   Thumb Code   202  kalman.o(.text)
    kalman_filter_T2_A1                      0x0800cd95   Thumb Code   202  kalman.o(.text)
    kalman_filter_T2_A2                      0x0800ce61   Thumb Code   202  kalman.o(.text)
    kalman_filter_T2_A3                      0x0800cf2d   Thumb Code   198  kalman.o(.text)
    kalman_filter_T3_A0                      0x0800cff5   Thumb Code   184  kalman.o(.text)
    kalman_filter_T3_A1                      0x0800d0ad   Thumb Code   184  kalman.o(.text)
    kalman_filter_T3_A2                      0x0800d165   Thumb Code   184  kalman.o(.text)
    kalman_filter_T3_A3                      0x0800d21d   Thumb Code   208  kalman.o(.text)
    __aeabi_memcpy                           0x0800d2ed   Thumb Code    36  memcpya.o(.text)
    __aeabi_memcpy4                          0x0800d2ed   Thumb Code     0  memcpya.o(.text)
    __aeabi_memcpy8                          0x0800d2ed   Thumb Code     0  memcpya.o(.text)
    __aeabi_memset                           0x0800d311   Thumb Code    14  memseta.o(.text)
    __aeabi_memset4                          0x0800d311   Thumb Code     0  memseta.o(.text)
    __aeabi_memset8                          0x0800d311   Thumb Code     0  memseta.o(.text)
    __aeabi_memclr                           0x0800d31f   Thumb Code     4  memseta.o(.text)
    __aeabi_memclr4                          0x0800d31f   Thumb Code     0  memseta.o(.text)
    __aeabi_memclr8                          0x0800d31f   Thumb Code     0  memseta.o(.text)
    _memset$wrapper                          0x0800d323   Thumb Code    18  memseta.o(.text)
    strcat                                   0x0800d335   Thumb Code    24  strcat.o(.text)
    __aeabi_fadd                             0x0800d34d   Thumb Code   164  fadd.o(.text)
    __aeabi_fsub                             0x0800d3f1   Thumb Code     6  fadd.o(.text)
    __aeabi_frsub                            0x0800d3f7   Thumb Code     6  fadd.o(.text)
    __aeabi_fmul                             0x0800d3fd   Thumb Code   100  fmul.o(.text)
    __aeabi_fdiv                             0x0800d461   Thumb Code   124  fdiv.o(.text)
    __aeabi_dadd                             0x0800d4dd   Thumb Code   322  dadd.o(.text)
    __aeabi_dsub                             0x0800d61f   Thumb Code     6  dadd.o(.text)
    __aeabi_drsub                            0x0800d625   Thumb Code     6  dadd.o(.text)
    __aeabi_dmul                             0x0800d62b   Thumb Code   228  dmul.o(.text)
    __aeabi_ddiv                             0x0800d70f   Thumb Code   222  ddiv.o(.text)
    __aeabi_dcmplt                           0x0800d7ed   Thumb Code    54  dcmplt.o(.text)
    __aeabi_dcmpgt                           0x0800d823   Thumb Code    54  dcmpgt.o(.text)
    __aeabi_i2f                              0x0800d859   Thumb Code    18  fflti.o(.text)
    __aeabi_ui2f                             0x0800d86b   Thumb Code    10  ffltui.o(.text)
    __aeabi_i2d                              0x0800d875   Thumb Code    34  dflti.o(.text)
    __aeabi_l2d                              0x0800d897   Thumb Code    40  dfltl.o(.text)
    __aeabi_f2iz                             0x0800d8bf   Thumb Code    50  ffixi.o(.text)
    __aeabi_d2iz                             0x0800d8f1   Thumb Code    62  dfixi.o(.text)
    __aeabi_d2ulz                            0x0800d92f   Thumb Code    48  dfixul.o(.text)
    __aeabi_f2d                              0x0800d95f   Thumb Code    38  f2d.o(.text)
    __aeabi_d2f                              0x0800d985   Thumb Code    56  d2f.o(.text)
    __aeabi_uidiv                            0x0800d9bd   Thumb Code     0  uidiv.o(.text)
    __aeabi_uidivmod                         0x0800d9bd   Thumb Code    44  uidiv.o(.text)
    __aeabi_uldivmod                         0x0800d9e9   Thumb Code    98  uldiv.o(.text)
    __aeabi_llsl                             0x0800da4b   Thumb Code    30  llshl.o(.text)
    _ll_shift_l                              0x0800da4b   Thumb Code     0  llshl.o(.text)
    __aeabi_llsr                             0x0800da69   Thumb Code    32  llushr.o(.text)
    _ll_ushift_r                             0x0800da69   Thumb Code     0  llushr.o(.text)
    __aeabi_lasr                             0x0800da89   Thumb Code    36  llsshr.o(.text)
    _ll_sshift_r                             0x0800da89   Thumb Code     0  llsshr.o(.text)
    __I$use$fp                               0x0800daad   Thumb Code     0  iusefp.o(.text)
    _float_round                             0x0800daad   Thumb Code    18  fepilogue.o(.text)
    _float_epilogue                          0x0800dabf   Thumb Code    92  fepilogue.o(.text)
    _double_round                            0x0800db1b   Thumb Code    30  depilogue.o(.text)
    _double_epilogue                         0x0800db39   Thumb Code   156  depilogue.o(.text)
    __aeabi_cdrcmple                         0x0800dbd5   Thumb Code    48  cdrcmple.o(.text)
    __scatterload                            0x0800dc05   Thumb Code    28  init.o(.text)
    __scatterload_rt2                        0x0800dc05   Thumb Code     0  init.o(.text)
    __0sprintf                               0x0800dc29   Thumb Code    34  printfa.o(i.__0sprintf)
    __1sprintf                               0x0800dc29   Thumb Code     0  printfa.o(i.__0sprintf)
    __2sprintf                               0x0800dc29   Thumb Code     0  printfa.o(i.__0sprintf)
    __c89sprintf                             0x0800dc29   Thumb Code     0  printfa.o(i.__0sprintf)
    sprintf                                  0x0800dc29   Thumb Code     0  printfa.o(i.__0sprintf)
    __scatterload_copy                       0x0800dc51   Thumb Code    14  handlers.o(i.__scatterload_copy)
    __scatterload_null                       0x0800dc5f   Thumb Code     2  handlers.o(i.__scatterload_null)
    __scatterload_zeroinit                   0x0800dc61   Thumb Code    14  handlers.o(i.__scatterload_zeroinit)
    __mathlib_ceilf                          0x0800e52d   Thumb Code     0  ceilf.o(i.ceilf)
    ceilf                                    0x0800e52d   Thumb Code   110  ceilf.o(i.ceilf)
    AHBPrescTable                            0x0800e5a4   Data          16  system_stm32f1xx.o(.rodata.AHBPrescTable)
    APBPrescTable                            0x0800e5b4   Data           8  system_stm32f1xx.o(.rodata.APBPrescTable)
    agc_config                               0x0800e5c0   Data           8  deca_params_init.o(.rodata.agc_config)
    chan_idx                                 0x0800e5c8   Data           8  deca_params_init.o(.rodata.chan_idx)
    chan_idxnb                               0x0800e5d0   Data           8  deca_range_tables.o(.rodata.chan_idxnb)
    chan_idxwb                               0x0800e5d8   Data           8  deca_range_tables.o(.rodata.chan_idxwb)
    digital_bb_config                        0x0800e5f0   Data          32  deca_params_init.o(.rodata.digital_bb_config)
    dtune1                                   0x0800e610   Data           4  deca_params_init.o(.rodata.dtune1)
    dwnsSFDlen                               0x0800e614   Data           3  deca_params_init.o(.rodata.dwnsSFDlen)
    fs_pll_cfg                               0x0800e618   Data          24  deca_params_init.o(.rodata.fs_pll_cfg)
    fs_pll_tune                              0x0800e630   Data           6  deca_params_init.o(.rodata.fs_pll_tune)
    lde_replicaCoeff                         0x0800e636   Data          50  deca_params_init.o(.rodata.lde_replicaCoeff)
    range25cm16PRFnb                         0x0800e668   Data         148  deca_range_tables.o(.rodata.range25cm16PRFnb)
    range25cm16PRFwb                         0x0800e6fc   Data         136  deca_range_tables.o(.rodata.range25cm16PRFwb)
    range25cm64PRFnb                         0x0800e784   Data         104  deca_range_tables.o(.rodata.range25cm64PRFnb)
    range25cm64PRFwb                         0x0800e7ec   Data         118  deca_range_tables.o(.rodata.range25cm64PRFwb)
    rx_config                                0x0800e862   Data           2  deca_params_init.o(.rodata.rx_config)
    sftsh                                    0x0800e864   Data          12  deca_params_init.o(.rodata.sftsh)
    txSpectrumConfig                         0x0800e894   Data          96  instance_calib.o(.rodata.txSpectrumConfig)
    tx_config                                0x0800e8f4   Data          24  deca_params_init.o(.rodata.tx_config)
    txpwr_compensation                       0x0800e910   Data          48  deca_params_init.o(.rodata.txpwr_compensation)
    Region$$Table$$Base                      0x0800e940   Number         0  anon$$obj.o(Region$$Table)
    Region$$Table$$Limit                     0x0800e960   Number         0  anon$$obj.o(Region$$Table)
    s1switch                                 0x20000000   Data           1  dw_main.o(.data..L_MergedGlobals)
    instance_anchaddr                        0x20000004   Data           4  dw_main.o(.data..L_MergedGlobals)
    dr_mode                                  0x20000008   Data           4  dw_main.o(.data..L_MergedGlobals)
    instance_mode                            0x2000000c   Data           4  dw_main.o(.data..L_MergedGlobals)
    NanTWRReports                            0x20000010   Data           8  dw_main.o(.data..L_MergedGlobals)
    chConfig                                 0x20000018   Data          10  dw_main.o(.data..L_MergedGlobals)
    sfConfig                                 0x20000022   Data          20  dw_main.o(.data..L_MergedGlobals)
    Send_Frame                               0x20000038   Data          24  dw_main.o(.data..L_MergedGlobals)
    uwTickPrio                               0x20000050   Data           4  stm32f1xx_hal.o(.data..L_MergedGlobals)
    uwTickFreq                               0x20000054   Data           4  stm32f1xx_hal.o(.data..L_MergedGlobals)
    uwTick                                   0x20000058   Data           4  stm32f1xx_hal.o(.data..L_MergedGlobals)
    SystemCoreClock                          0x2000005c   Data           4  system_stm32f1xx.o(.data.SystemCoreClock)
    hdma_usart2_rx                           0x200000b0   Data          72  usart.o(.bss..L_MergedGlobals)
    hdma_usart2_tx                           0x200001d0   Data          72  usart.o(.bss..L_MergedGlobals.1)
    dw_event_g                               0x20000428   Data         160  instance_common.o(.bss.dw_event_g)
    hspi1                                    0x200004c8   Data          92  spi.o(.bss.hspi1)
    huart2                                   0x20000524   Data          72  usart.o(.bss.huart2)
    __initial_sp                             0x20002e08   Data           0  startup_stm32f103xe.o(STACK)



==============================================================================

Memory Map of the image

  Image Entry point : 0x08000131

  Load Region LR_IROM1 (Base: 0x08000000, Size: 0x0000ea10, Max: 0x00040000, ABSOLUTE)

    Execution Region ER_IROM1 (Exec base: 0x08000000, Load base: 0x08000000, Size: 0x0000e960, Max: 0x00040000, ABSOLUTE)

    Exec Addr    Load Addr    Size         Type   Attr      Idx    E Section Name        Object

    0x08000000   0x08000000   0x00000130   Data   RO            3    RESET               startup_stm32f103xe.o
    0x08000130   0x08000130   0x00000000   Code   RO          514  * .ARM.Collect$$$$00000000  mc_w.l(entry.o)
    0x08000130   0x08000130   0x00000004   Code   RO          820    .ARM.Collect$$$$00000001  mc_w.l(entry2.o)
    0x08000134   0x08000134   0x00000004   Code   RO          823    .ARM.Collect$$$$00000004  mc_w.l(entry5.o)
    0x08000138   0x08000138   0x00000000   Code   RO          825    .ARM.Collect$$$$00000008  mc_w.l(entry7b.o)
    0x08000138   0x08000138   0x00000000   Code   RO          827    .ARM.Collect$$$$0000000A  mc_w.l(entry8b.o)
    0x08000138   0x08000138   0x00000008   Code   RO          828    .ARM.Collect$$$$0000000B  mc_w.l(entry9a.o)
    0x08000140   0x08000140   0x00000000   Code   RO          830    .ARM.Collect$$$$0000000D  mc_w.l(entry10a.o)
    0x08000140   0x08000140   0x00000000   Code   RO          832    .ARM.Collect$$$$0000000F  mc_w.l(entry11a.o)
    0x08000140   0x08000140   0x00000004   Code   RO          821    .ARM.Collect$$$$00002712  mc_w.l(entry2.o)
    0x08000144   0x08000144   0x00000024   Code   RO            4    .text               startup_stm32f103xe.o
    0x08000168   0x08000168   0x000000c6   Code   RO           10    .text               main.o
    0x0800022e   0x0800022e   0x00000002   PAD
    0x08000230   0x08000230   0x0000017a   Code   RO           23    .text               gpio.o
    0x080003aa   0x080003aa   0x00000002   PAD
    0x080003ac   0x080003ac   0x00000044   Code   RO           35    .text               dma.o
    0x080003f0   0x080003f0   0x000000f4   Code   RO           60    .text               spi.o
    0x080004e4   0x080004e4   0x00000180   Code   RO           73    .text               usart.o
    0x08000664   0x08000664   0x00000056   Code   RO           88    .text               stm32f1xx_it.o
    0x080006ba   0x080006ba   0x00000002   PAD
    0x080006bc   0x080006bc   0x00000042   Code   RO           99    .text               stm32f1xx_hal_msp.o
    0x080006fe   0x080006fe   0x00000002   PAD
    0x08000700   0x08000700   0x000000ba   Code   RO          111    .text               system_stm32f1xx.o
    0x080007ba   0x080007ba   0x00000002   PAD
    0x080007bc   0x080007bc   0x00000898   Code   RO          126    .text               dw_main.o
    0x08001054   0x08001054   0x00000cce   Code   RO          141    .text               instance_anch.o
    0x08001d22   0x08001d22   0x00000002   PAD
    0x08001d24   0x08001d24   0x00000bd4   Code   RO          169    .text               instance_common.o
    0x080028f8   0x080028f8   0x00000962   Code   RO          185    .text               instance_tag.o
    0x0800325a   0x0800325a   0x00000002   PAD
    0x0800325c   0x0800325c   0x00003d1e   Code   RO          197    .text               deca_device.o
    0x08006f7a   0x08006f7a   0x00000002   PAD
    0x08006f7c   0x08006f7c   0x0000001e   Code   RO          232    .text               deca_mutex.o
    0x08006f9a   0x08006f9a   0x00000002   PAD
    0x08006f9c   0x08006f9c   0x000001bc   Code   RO          244    .text               deca_range_tables.o
    0x08007158   0x08007158   0x00000004   Code   RO          262    .text               deca_sleep.o
    0x0800715c   0x0800715c   0x000000e2   Code   RO          273    .text               deca_spi.o
    0x0800723e   0x0800723e   0x00000002   PAD
    0x08007240   0x08007240   0x0000070e   Code   RO          285    .text               port.o
    0x0800794e   0x0800794e   0x00000002   PAD
    0x08007950   0x08007950   0x0000020a   Code   RO          325    .text               stm32f1xx_hal.o
    0x08007b5a   0x08007b5a   0x00000002   PAD
    0x08007b5c   0x08007b5c   0x00000892   Code   RO          338    .text               stm32f1xx_hal_rcc.o
    0x080083ee   0x080083ee   0x00000002   PAD
    0x080083f0   0x080083f0   0x0000041e   Code   RO          364    .text               stm32f1xx_hal_gpio.o
    0x0800880e   0x0800880e   0x00000002   PAD
    0x08008810   0x08008810   0x00000ecc   Code   RO          376    .text               stm32f1xx_hal_dma.o
    0x080096dc   0x080096dc   0x00000242   Code   RO          388    .text               stm32f1xx_hal_cortex.o
    0x0800991e   0x0800991e   0x00000002   PAD
    0x08009920   0x08009920   0x00001c84   Code   RO          449    .text               stm32f1xx_hal_spi.o
    0x0800b5a4   0x0800b5a4   0x00001100   Code   RO          463    .text               stm32f1xx_hal_uart.o
    0x0800c6a4   0x0800c6a4   0x00000c48   Code   RO          475    .text               kalman.o
    0x0800d2ec   0x0800d2ec   0x00000024   Code   RO          517    .text               mc_w.l(memcpya.o)
    0x0800d310   0x0800d310   0x00000024   Code   RO          519    .text               mc_w.l(memseta.o)
    0x0800d334   0x0800d334   0x00000018   Code   RO          521    .text               mc_w.l(strcat.o)
    0x0800d34c   0x0800d34c   0x000000b0   Code   RO          786    .text               mf_w.l(fadd.o)
    0x0800d3fc   0x0800d3fc   0x00000064   Code   RO          788    .text               mf_w.l(fmul.o)
    0x0800d460   0x0800d460   0x0000007c   Code   RO          790    .text               mf_w.l(fdiv.o)
    0x0800d4dc   0x0800d4dc   0x0000014e   Code   RO          792    .text               mf_w.l(dadd.o)
    0x0800d62a   0x0800d62a   0x000000e4   Code   RO          794    .text               mf_w.l(dmul.o)
    0x0800d70e   0x0800d70e   0x000000de   Code   RO          796    .text               mf_w.l(ddiv.o)
    0x0800d7ec   0x0800d7ec   0x00000036   Code   RO          798    .text               mf_w.l(dcmplt.o)
    0x0800d822   0x0800d822   0x00000036   Code   RO          800    .text               mf_w.l(dcmpgt.o)
    0x0800d858   0x0800d858   0x00000012   Code   RO          802    .text               mf_w.l(fflti.o)
    0x0800d86a   0x0800d86a   0x0000000a   Code   RO          804    .text               mf_w.l(ffltui.o)
    0x0800d874   0x0800d874   0x00000022   Code   RO          806    .text               mf_w.l(dflti.o)
    0x0800d896   0x0800d896   0x00000028   Code   RO          808    .text               mf_w.l(dfltl.o)
    0x0800d8be   0x0800d8be   0x00000032   Code   RO          810    .text               mf_w.l(ffixi.o)
    0x0800d8f0   0x0800d8f0   0x0000003e   Code   RO          812    .text               mf_w.l(dfixi.o)
    0x0800d92e   0x0800d92e   0x00000030   Code   RO          814    .text               mf_w.l(dfixul.o)
    0x0800d95e   0x0800d95e   0x00000026   Code   RO          816    .text               mf_w.l(f2d.o)
    0x0800d984   0x0800d984   0x00000038   Code   RO          818    .text               mf_w.l(d2f.o)
    0x0800d9bc   0x0800d9bc   0x0000002c   Code   RO          839    .text               mc_w.l(uidiv.o)
    0x0800d9e8   0x0800d9e8   0x00000062   Code   RO          841    .text               mc_w.l(uldiv.o)
    0x0800da4a   0x0800da4a   0x0000001e   Code   RO          843    .text               mc_w.l(llshl.o)
    0x0800da68   0x0800da68   0x00000020   Code   RO          845    .text               mc_w.l(llushr.o)
    0x0800da88   0x0800da88   0x00000024   Code   RO          847    .text               mc_w.l(llsshr.o)
    0x0800daac   0x0800daac   0x00000000   Code   RO          849    .text               mc_w.l(iusefp.o)
    0x0800daac   0x0800daac   0x0000006e   Code   RO          850    .text               mf_w.l(fepilogue.o)
    0x0800db1a   0x0800db1a   0x000000ba   Code   RO          852    .text               mf_w.l(depilogue.o)
    0x0800dbd4   0x0800dbd4   0x00000030   Code   RO          854    .text               mf_w.l(cdrcmple.o)
    0x0800dc04   0x0800dc04   0x00000024   Code   RO          856    .text               mc_w.l(init.o)
    0x0800dc28   0x0800dc28   0x00000028   Code   RO          760    i.__0sprintf        mc_w.l(printfa.o)
    0x0800dc50   0x0800dc50   0x0000000e   Code   RO          862    i.__scatterload_copy  mc_w.l(handlers.o)
    0x0800dc5e   0x0800dc5e   0x00000002   Code   RO          863    i.__scatterload_null  mc_w.l(handlers.o)
    0x0800dc60   0x0800dc60   0x0000000e   Code   RO          864    i.__scatterload_zeroinit  mc_w.l(handlers.o)
    0x0800dc6e   0x0800dc6e   0x00000002   PAD
    0x0800dc70   0x0800dc70   0x00000184   Code   RO          765    i._fp_digits        mc_w.l(printfa.o)
    0x0800ddf4   0x0800ddf4   0x000006dc   Code   RO          766    i._printf_core      mc_w.l(printfa.o)
    0x0800e4d0   0x0800e4d0   0x00000024   Code   RO          767    i._printf_post_padding  mc_w.l(printfa.o)
    0x0800e4f4   0x0800e4f4   0x0000002e   Code   RO          768    i._printf_pre_padding  mc_w.l(printfa.o)
    0x0800e522   0x0800e522   0x0000000a   Code   RO          770    i._sputc            mc_w.l(printfa.o)
    0x0800e52c   0x0800e52c   0x00000078   Code   RO          511    i.ceilf             m_ws.l(ceilf.o)
    0x0800e5a4   0x0800e5a4   0x00000010   Data   RO          114    .rodata.AHBPrescTable  system_stm32f1xx.o
    0x0800e5b4   0x0800e5b4   0x00000008   Data   RO          115    .rodata.APBPrescTable  system_stm32f1xx.o
    0x0800e5bc   0x0800e5bc   0x00000002   Data   RO          341    .rodata.HAL_RCC_GetSysClockFreq.aPredivFactorTable  stm32f1xx_hal_rcc.o
    0x0800e5be   0x0800e5be   0x00000002   PAD
    0x0800e5c0   0x0800e5c0   0x00000008   Data   RO          217    .rodata.agc_config  deca_params_init.o
    0x0800e5c8   0x0800e5c8   0x00000008   Data   RO          212    .rodata.chan_idx    deca_params_init.o
    0x0800e5d0   0x0800e5d0   0x00000008   Data   RO          246    .rodata.chan_idxnb  deca_range_tables.o
    0x0800e5d8   0x0800e5d8   0x00000008   Data   RO          247    .rodata.chan_idxwb  deca_range_tables.o
    0x0800e5e0   0x0800e5e0   0x00000010   Data   RO          340    .rodata.cst16       stm32f1xx_hal_rcc.o
    0x0800e5f0   0x0800e5f0   0x00000020   Data   RO          221    .rodata.digital_bb_config  deca_params_init.o
    0x0800e610   0x0800e610   0x00000004   Data   RO          220    .rodata.dtune1      deca_params_init.o
    0x0800e614   0x0800e614   0x00000003   Data   RO          218    .rodata.dwnsSFDlen  deca_params_init.o
    0x0800e617   0x0800e617   0x00000001   PAD
    0x0800e618   0x0800e618   0x00000018   Data   RO          214    .rodata.fs_pll_cfg  deca_params_init.o
    0x0800e630   0x0800e630   0x00000006   Data   RO          215    .rodata.fs_pll_tune  deca_params_init.o
    0x0800e636   0x0800e636   0x00000032   Data   RO          222    .rodata.lde_replicaCoeff  deca_params_init.o
    0x0800e668   0x0800e668   0x00000094   Data   RO          248    .rodata.range25cm16PRFnb  deca_range_tables.o
    0x0800e6fc   0x0800e6fc   0x00000088   Data   RO          249    .rodata.range25cm16PRFwb  deca_range_tables.o
    0x0800e784   0x0800e784   0x00000068   Data   RO          250    .rodata.range25cm64PRFnb  deca_range_tables.o
    0x0800e7ec   0x0800e7ec   0x00000076   Data   RO          251    .rodata.range25cm64PRFwb  deca_range_tables.o
    0x0800e862   0x0800e862   0x00000002   Data   RO          216    .rodata.rx_config   deca_params_init.o
    0x0800e864   0x0800e864   0x0000000c   Data   RO          219    .rodata.sftsh       deca_params_init.o
    0x0800e870   0x0800e870   0x00000021   Data   RO          128    .rodata.str1.1      dw_main.o
    0x0800e891   0x0800e891   0x00000003   PAD
    0x0800e894   0x0800e894   0x00000060   Data   RO          155    .rodata.txSpectrumConfig  instance_calib.o
    0x0800e8f4   0x0800e8f4   0x00000018   Data   RO          213    .rodata.tx_config   deca_params_init.o
    0x0800e90c   0x0800e90c   0x00000004   PAD
    0x0800e910   0x0800e910   0x00000030   Data   RO          223    .rodata.txpwr_compensation  deca_params_init.o
    0x0800e940   0x0800e940   0x00000020   Data   RO          860    Region$$Table       anon$$obj.o


    Execution Region RW_IRAM1 (Exec base: 0x20000000, Load base: 0x0800e960, Size: 0x00002e08, Max: 0x0000c000, ABSOLUTE)

    Exec Addr    Load Addr    Size         Type   Attr      Idx    E Section Name        Object

    0x20000000   0x0800e960   0x00000050   Data   RW          129    .data..L_MergedGlobals  dw_main.o
    0x20000050   0x0800e9b0   0x0000000c   Data   RW          327    .data..L_MergedGlobals  stm32f1xx_hal.o
    0x2000005c   0x0800e9bc   0x00000004   Data   RW          113    .data.SystemCoreClock  system_stm32f1xx.o
    0x20000060   0x0800e9c0   0x00000004   Data   RW          479    .data.kalman_filter_T0_A0.p_last  kalman.o
    0x20000064   0x0800e9c4   0x00000004   Data   RW          480    .data.kalman_filter_T0_A1.p_last  kalman.o
    0x20000068   0x0800e9c8   0x00000004   Data   RW          481    .data.kalman_filter_T0_A2.p_last  kalman.o
    0x2000006c   0x0800e9cc   0x00000004   Data   RW          482    .data.kalman_filter_T0_A3.p_last  kalman.o
    0x20000070   0x0800e9d0   0x00000004   Data   RW          483    .data.kalman_filter_T1_A0.p_last  kalman.o
    0x20000074   0x0800e9d4   0x00000004   Data   RW          484    .data.kalman_filter_T1_A1.p_last  kalman.o
    0x20000078   0x0800e9d8   0x00000004   Data   RW          485    .data.kalman_filter_T1_A2.p_last  kalman.o
    0x2000007c   0x0800e9dc   0x00000004   Data   RW          486    .data.kalman_filter_T1_A3.p_last  kalman.o
    0x20000080   0x0800e9e0   0x00000004   Data   RW          487    .data.kalman_filter_T2_A0.p_last  kalman.o
    0x20000084   0x0800e9e4   0x00000004   Data   RW          488    .data.kalman_filter_T2_A1.p_last  kalman.o
    0x20000088   0x0800e9e8   0x00000004   Data   RW          489    .data.kalman_filter_T2_A2.p_last  kalman.o
    0x2000008c   0x0800e9ec   0x00000004   Data   RW          490    .data.kalman_filter_T2_A3.p_last  kalman.o
    0x20000090   0x0800e9f0   0x00000004   Data   RW          491    .data.kalman_filter_T3_A0.p_last  kalman.o
    0x20000094   0x0800e9f4   0x00000004   Data   RW          492    .data.kalman_filter_T3_A1.p_last  kalman.o
    0x20000098   0x0800e9f8   0x00000004   Data   RW          493    .data.kalman_filter_T3_A2.p_last  kalman.o
    0x2000009c   0x0800e9fc   0x00000004   Data   RW          494    .data.kalman_filter_T3_A3.p_last  kalman.o
    0x200000a0   0x0800ea00   0x00000004   Data   RW          200    .data.pdw1000local  deca_device.o
    0x200000a4   0x0800ea04   0x0000000c   PAD
    0x200000b0        -       0x00000048   Zero   RW           76    .bss..L_MergedGlobals  usart.o
    0x200000f8   0x0800ea04   0x00000008   PAD
    0x20000100        -       0x00000040   Zero   RW          173    .bss..L_MergedGlobals  instance_common.o
    0x20000140        -       0x00000008   Zero   RW          290    .bss..L_MergedGlobals  port.o
    0x20000148   0x0800ea04   0x00000008   PAD
    0x20000150        -       0x0000007c   Zero   RW          495    .bss..L_MergedGlobals  kalman.o
    0x200001cc   0x0800ea04   0x00000004   PAD
    0x200001d0        -       0x00000048   Zero   RW           77    .bss..L_MergedGlobals.1  usart.o
    0x20000218   0x0800ea04   0x00000008   PAD
    0x20000220        -       0x00000040   Zero   RW          174    .bss..L_MergedGlobals.1  instance_common.o
    0x20000260        -       0x0000007c   Zero   RW          496    .bss..L_MergedGlobals.1  kalman.o
    0x200002dc   0x0800ea04   0x00000004   PAD
    0x200002e0        -       0x0000007c   Zero   RW          497    .bss..L_MergedGlobals.2  kalman.o
    0x2000035c   0x0800ea04   0x00000004   PAD
    0x20000360        -       0x0000007c   Zero   RW          498    .bss..L_MergedGlobals.3  kalman.o
    0x200003dc        -       0x00000010   Zero   RW          499    .bss..L_MergedGlobals.4  kalman.o
    0x200003ec        -       0x00000004   Zero   RW          130    .bss..L_MergedGlobals.7  dw_main.o
    0x200003f0        -       0x00000038   Zero   RW          199    .bss.dw1000local    deca_device.o
    0x20000428        -       0x000000a0   Zero   RW          172    .bss.dw_event_g     instance_common.o
    0x200004c8        -       0x0000005c   Zero   RW           62    .bss.hspi1          spi.o
    0x20000524        -       0x00000048   Zero   RW           75    .bss.huart2         usart.o
    0x2000056c   0x0800ea04   0x00000004   PAD
    0x20000570        -       0x00000490   Zero   RW          171    .bss.instance_data  instance_common.o
    0x20000a00        -       0x00002000   Zero   RW          288    .bss.rbuf           port.o
    0x20002a00        -       0x00000004   Zero   RW          287    .bss.signalResetDone  port.o
    0x20002a04        -       0x00000001   Zero   RW          289    .bss.txhandle.0     port.o
    0x20002a05   0x0800ea04   0x00000003   PAD
    0x20002a08        -       0x00000400   Zero   RW            1    STACK               startup_stm32f103xe.o


==============================================================================

Image component sizes


      Code (inc. data)   RO Data    RW Data    ZI Data      Debug   Object Name

     15646         22          0          4         56     125942   deca_device.o
        30          0          0          0          0        760   deca_mutex.o
         0          0        221          0          0       1508   deca_params_init.o
       444          0        522          0          0       2254   deca_range_tables.o
         4          0          0          0          0        508   deca_sleep.o
       226          0          0          0          0       2297   deca_spi.o
        68          0          0          0          0       2417   dma.o
      2200        128         33         80          4      11400   dw_main.o
       378          0          0          0          0       1970   gpio.o
      3278         10          0          0          0      15392   instance_anch.o
         0          0         96          0          0       1272   instance_calib.o
      3028         14          0          0       1456      17515   instance_common.o
      2402         20          0          0          0      12492   instance_tag.o
      3144          0          0         64        512       8415   kalman.o
       198          0          0          0          0       3485   main.o
      1806         18          0          0       8205       9912   port.o
       244          0          0          0         92       4604   spi.o
        36          8        304          0       1024        784   startup_stm32f103xe.o
       522          0          0         12          0       6169   stm32f1xx_hal.o
       578          0          0          0          0       8761   stm32f1xx_hal_cortex.o
      3788         10          0          0          0       8292   stm32f1xx_hal_dma.o
      1054         20          0          0          0       4642   stm32f1xx_hal_gpio.o
        66          0          0          0          0       1345   stm32f1xx_hal_msp.o
      2194          0         18          0          0       7959   stm32f1xx_hal_rcc.o
      7300          0          0          0          0      23110   stm32f1xx_hal_spi.o
      4352          0          0          0          0      17479   stm32f1xx_hal_uart.o
        86          0          0          0          0       1671   stm32f1xx_it.o
       186          0         24          4          0       2253   system_stm32f1xx.o
       384          0          0          0        216       6054   usart.o

    ----------------------------------------------------------------------
     53672        250       1260        164      11620     310662   Object Totals
         0          0         32          0          0          0   (incl. Generated)
        30          0         10          0         55          0   (incl. Padding)

    ----------------------------------------------------------------------

      Code (inc. data)   RO Data    RW Data    ZI Data      Debug   Library Member Name

       120         10          0          0          0         84   ceilf.o
         0          0          0          0          0          0   entry.o
         0          0          0          0          0          0   entry10a.o
         0          0          0          0          0          0   entry11a.o
         8          4          0          0          0          0   entry2.o
         4          0          0          0          0          0   entry5.o
         0          0          0          0          0          0   entry7b.o
         0          0          0          0          0          0   entry8b.o
         8          4          0          0          0          0   entry9a.o
        30          0          0          0          0          0   handlers.o
        36          8          0          0          0         68   init.o
         0          0          0          0          0          0   iusefp.o
        30          0          0          0          0         68   llshl.o
        36          0          0          0          0         68   llsshr.o
        32          0          0          0          0         68   llushr.o
        36          0          0          0          0         68   memcpya.o
        36          0          0          0          0        108   memseta.o
      2276         86          0          0          0        520   printfa.o
        24          0          0          0          0         68   strcat.o
        44          0          0          0          0         80   uidiv.o
        98          0          0          0          0         92   uldiv.o
        48          0          0          0          0         68   cdrcmple.o
        56          0          0          0          0         88   d2f.o
       334          0          0          0          0        148   dadd.o
        54          0          0          0          0         80   dcmpgt.o
        54          0          0          0          0         80   dcmplt.o
       222          0          0          0          0        100   ddiv.o
       186          0          0          0          0        176   depilogue.o
        62          0          0          0          0         80   dfixi.o
        48          0          0          0          0         68   dfixul.o
        34          0          0          0          0         76   dflti.o
        40          0          0          0          0         80   dfltl.o
       228          0          0          0          0         96   dmul.o
        38          0          0          0          0         68   f2d.o
       176          0          0          0          0        140   fadd.o
       124          0          0          0          0         88   fdiv.o
       110          0          0          0          0        168   fepilogue.o
        50          0          0          0          0         68   ffixi.o
        18          0          0          0          0         68   fflti.o
        10          0          0          0          0         68   ffltui.o
       100          0          0          0          0         76   fmul.o

    ----------------------------------------------------------------------
      4812        112          0          0          0       3176   Library Totals
         2          0          0          0          0          0   (incl. Padding)

    ----------------------------------------------------------------------

      Code (inc. data)   RO Data    RW Data    ZI Data      Debug   Library Name

       120         10          0          0          0         84   m_ws.l
      2698        102          0          0          0       1208   mc_w.l
      1992          0          0          0          0       1884   mf_w.l

    ----------------------------------------------------------------------
      4812        112          0          0          0       3176   Library Totals

    ----------------------------------------------------------------------

==============================================================================


      Code (inc. data)   RO Data    RW Data    ZI Data      Debug   

     58484        362       1260        164      11620     311874   Grand Totals
     58484        362       1260        164      11620     311874   ELF Image Totals
     58484        362       1260        164          0          0   ROM Totals

==============================================================================

    Total RO  Size (Code + RO Data)                59744 (  58.34kB)
    Total RW  Size (RW Data + ZI Data)             11784 (  11.51kB)
    Total ROM Size (Code + RO Data + RW Data)      59908 (  58.50kB)

==============================================================================

