Component: ARM Compiler 6.15 Tool: armlink [5dd79300]

==============================================================================

Section Cross References

    main.o(.text) refers (Special) to _printf_percent.o(.ARM.Collect$$_printf_percent$$00000000) for _printf_percent
    main.o(.text) refers (Special) to _printf_s.o(.ARM.Collect$$_printf_percent$$00000014) for _printf_s
    main.o(.text) refers (Special) to _printf_str.o(.text) for _printf_str
    main.o(.text) refers to stm32f4xx_hal.o(.text) for HAL_Init
    main.o(.text) refers to hw_led.o(.text) for HW_LED_Init
    main.o(.text) refers to hw_key.o(.text) for HW_KEY_Init
    main.o(.text) refers to hw_spiflash.o(.text) for HW_SPIFlash_Init
    main.o(.text) refers to hw_touch.o(.text) for HW_Touch_Init
    main.o(.text) refers to hw_cpu_temp.o(.text) for HW_CPU_TEMP_Init
    main.o(.text) refers to hw_time.o(.text) for HW_Time_Init
    main.o(.text) refers to main.o(.bss.StartTask_Handler) for StartTask_Handler
    main.o(.text) refers to tasks.o(.text) for xTaskCreate
    main.o(.text) refers to visual_debug.o(.text) for Visual_Debug_Init
    main.o(.text) refers to fatfs.o(.text) for FATFS_Init
    main.o(.text) refers to setting_save.o(.text) for Load_Setting
    main.o(.text) refers to guicharpex.o(.text) for HZ_Font_Init
    main.o(.text) refers to get_location.o(.text) for Get_Location_Init
    main.o(.text) refers to music_play.o(.text) for Music_Init
==============================================================================

Removing Unused input sections from the image.

    Removing main.o(.ARM.exidx), (64 bytes).
    Removing main.o(.ARM.use_no_argv), (4 bytes).
    Removing emwin_main.o(.ARM.exidx), (64 bytes).
    Removing hw_touch.o(.ARM.exidx), (96 bytes).
    Removing hw_spiflash.o(.ARM.exidx), (64 bytes).
    Removing hw_sdram.o(.ARM.exidx), (16 bytes).
    Removing hw_sdio_sd.o(.ARM.exidx), (32 bytes).
    Removing hw_led.o(.ARM.exidx), (8 bytes).
    Removing hw_lcd.o(.ARM.exidx), (32 bytes).
    Removing hw_key.o(.ARM.exidx), (16 bytes).
    Removing hw_cpu_temp.o(.ARM.exidx), (16 bytes).
    Removing hw_time.o(.ARM.exidx), (64 bytes).
    Removing hw_music.o(.ARM.exidx), (200 bytes).
    Removing hw_voice_discern.o(.ARM.exidx), (64 bytes).
    Removing hw_sport_ctrl.o(.ARM.exidx), (40 bytes).
    Removing hw_get_location.o(.ARM.exidx), (24 bytes).
    Removing hw_wifi.o(.ARM.exidx), (56 bytes).
    Removing hw_machine_vision.o(.text), (0 bytes).
==============================================================================

Image Symbol Table

    Local Symbols

    Symbol Name                              Value     Ov Type        Size  Object(Section)

    ../MP3_LIB/real/arm/asmmisc.s            0x00000000   Number         0  asmmisc.o ABSOLUTE
    ../MP3_LIB/real/arm/asmpoly_thumb2.s     0x00000000   Number         0  asmpoly_thumb2.o ABSOLUTE
    ../SYSTEM/Src/startup_stm32f429xx.s      0x00000000   Number         0  startup_stm32f429xx.o ABSOLUTE
    ../clib/angel/boardlib.s                 0x00000000   Number         0  boardinit1.o ABSOLUTE
    ../clib/angel/boardlib.s                 0x00000000   Number         0  boardinit2.o ABSOLUTE
    ../clib/angel/boardlib.s                 0x00000000   Number         0  boardinit3.o ABSOLUTE
    ../clib/angel/boardlib.s                 0x00000000   Number         0  boardshut.o ABSOLUTE
    ../clib/angel/dczerorl2.s                0x00000000   Number         0  __dczerorl2.o ABSOLUTE
    ../clib/angel/handlers.s                 0x00000000   Number         0  __scatter_zi.o ABSOLUTE
    ../clib/angel/kernel.s                   0x00000000   Number         0  __rtentry.o ABSOLUTE
    ../clib/angel/kernel.s                   0x00000000   Number         0  rtexit.o ABSOLUTE
    ../clib/angel/kernel.s                   0x00000000   Number         0  __rtentry2.o ABSOLUTE
    ../clib/angel/kernel.s                   0x00000000   Number         0  __rtentry4.o ABSOLUTE
    ../clib/angel/kernel.s                   0x00000000   Number         0  rtexit2.o ABSOLUTE
    ../clib/angel/rt.s                       0x00000000   Number         0  rt_ctype_table.o ABSOLUTE
    ../clib/angel/rt.s                       0x00000000   Number         0  rt_errno_addr.o ABSOLUTE
    ../clib/angel/rt.s                       0x00000000   Number         0  rt_errno_addr_intlibspace.o ABSOLUTE
    ../clib/angel/rt.s                       0x00000000   Number         0  aeabi_ldiv0.o ABSOLUTE
    ../clib/angel/rt.s                       0x00000000   Number         0  aeabi_ldiv0_sigfpe.o ABSOLUTE
    ../clib/angel/rt.s                       0x00000000   Number         0  rt_locale.o ABSOLUTE
    ../clib/angel/rt.s                       0x00000000   Number         0  rt_locale_intlibspace.o ABSOLUTE
    ../clib/angel/rt.s                       0x00000000   Number         0  rt_div0.o ABSOLUTE
    ../clib/angel/rt.s                       0x00000000   Number         0  rt_raise.o ABSOLUTE
    ../clib/angel/scatter.s                  0x00000000   Number         0  __scatter.o ABSOLUTE
    ../clib/angel/startup.s                  0x00000000   Number         0  __main.o ABSOLUTE
    ../clib/angel/sys.s                      0x00000000   Number         0  use_no_semi_2.o ABSOLUTE
    ../clib/angel/sys.s                      0x00000000   Number         0  libspace.o ABSOLUTE
    ../clib/angel/sys.s                      0x00000000   Number         0  use_no_semi.o ABSOLUTE
    ../clib/angel/sys.s                      0x00000000   Number         0  mutex_dummy.o ABSOLUTE
    ../clib/angel/sys.s                      0x00000000   Number         0  indicate_semi.o ABSOLUTE
    ../clib/angel/sys.s                      0x00000000   Number         0  sys_stackheap_outer.o ABSOLUTE
    ../clib/angel/sysapp.c                   0x00000000   Number         0  sys_system.o ABSOLUTE
    ../clib/angel/sysapp.c                   0x00000000   Number         0  sys_rename.o ABSOLUTE
    ../clib/angel/sysapp.c                   0x00000000   Number         0  getenv.o ABSOLUTE
    ../clib/angel/sysapp.c                   0x00000000   Number         0  sys_system_hlt.o ABSOLUTE
    ../clib/angel/sysapp.c                   0x00000000   Number         0  sys_rename_hlt.o ABSOLUTE
    ../clib/angel/sysapp.c                   0x00000000   Number         0  sys_command.o ABSOLUTE
    ../clib/angel/sysapp.c                   0x00000000   Number         0  sys_command_hlt.o ABSOLUTE
    ../clib/armsys.c                         0x00000000   Number         0  argv_veneer.o ABSOLUTE
    ../clib/armsys.c                         0x00000000   Number         0  argv_veneer.o ABSOLUTE
    ../clib/armsys.c                         0x00000000   Number         0  _get_argv_nomalloc.o ABSOLUTE
    ../clib/armsys.c                         0x00000000   Number         0  no_argv.o ABSOLUTE
    ../clib/assert.c                         0x00000000   Number         0  assert_stdio.o ABSOLUTE
    ../clib/bigflt.c                         0x00000000   Number         0  bigflt0.o ABSOLUTE
    ../clib/btod.s                           0x00000000   Number         0  btod.o ABSOLUTE
    ../clib/btod_accurate.c                  0x00000000   Number         0  btod_accurate.o ABSOLUTE
    ../clib/btod_accurate.c                  0x00000000   Number         0  dtob_accurate.o ABSOLUTE
    ../clib/btod_accurate.c                  0x00000000   Number         0  btod_accurate_common.o ABSOLUTE
    ../clib/ctype.c                          0x00000000   Number         0  tolower.o ABSOLUTE
    ../clib/ctype.c                          0x00000000   Number         0  toupper.o ABSOLUTE
    ../clib/ctype.c                          0x00000000   Number         0  isspace.o ABSOLUTE
    ../clib/fenv.c                           0x00000000   Number         0  _rserrno.o ABSOLUTE
    ../clib/heapalloc.c                      0x00000000   Number         0  hrguard.o ABSOLUTE
    ../clib/heapaux.c                        0x00000000   Number         0  heapauxi.o ABSOLUTE
    ../clib/libinit.s                        0x00000000   Number         0  libinit2.o ABSOLUTE
    ../clib/libinit.s                        0x00000000   Number         0  libshutdown2.o ABSOLUTE
    ../clib/libinit.s                        0x00000000   Number         0  libinit.o ABSOLUTE
    ../clib/libinit.s                        0x00000000   Number         0  libshutdown.o ABSOLUTE
    ../clib/locale.c                         0x00000000   Number         0  locale.o ABSOLUTE
    ../clib/locale.c                         0x00000000   Number         0  localeconv.o ABSOLUTE
    ../clib/locale.c                         0x00000000   Number         0  _lconv.o ABSOLUTE
    ../clib/locale.c                         0x00000000   Number         0  locale_r.o ABSOLUTE
    ../clib/locale.c                         0x00000000   Number         0  _c16rtomb.o ABSOLUTE
    ../clib/locale.s                         0x00000000   Number         0  lc_ctype_c.o ABSOLUTE
    ../clib/locale.s                         0x00000000   Number         0  lc_collate_c.o ABSOLUTE
    ../clib/locale.s                         0x00000000   Number         0  lc_time_c.o ABSOLUTE
    ../clib/locale.s                         0x00000000   Number         0  null_locale.o ABSOLUTE
    ../clib/locale.s                         0x00000000   Number         0  lc_monetary_c.o ABSOLUTE
    ../clib/locale.s                         0x00000000   Number         0  lc_numeric_c.o ABSOLUTE
    ../clib/longlong.s                       0x00000000   Number         0  lludivv7m.o ABSOLUTE
    ../clib/longlong.s                       0x00000000   Number         0  llshl.o ABSOLUTE
    ../clib/longlong.s                       0x00000000   Number         0  lludiv10.o ABSOLUTE
    ../clib/longlong.s                       0x00000000   Number         0  llushr.o ABSOLUTE
    ../clib/memcpset.s                       0x00000000   Number         0  rt_memcpy_v6.o ABSOLUTE
    ../clib/memcpset.s                       0x00000000   Number         0  rt_memmove_v6.o ABSOLUTE
    ../clib/memcpset.s                       0x00000000   Number         0  memcpy.o ABSOLUTE
    ../clib/memcpset.s                       0x00000000   Number         0  rt_memcpy_w.o ABSOLUTE
    ../clib/memcpset.s                       0x00000000   Number         0  memset.o ABSOLUTE
    ../clib/memcpset.s                       0x00000000   Number         0  aeabi_memset.o ABSOLUTE
    ../clib/memcpset.s                       0x00000000   Number         0  aeabi_memset4.o ABSOLUTE
    ../clib/memcpset.s                       0x00000000   Number         0  rt_memclr.o ABSOLUTE
    ../clib/memcpset.s                       0x00000000   Number         0  rt_memclr_w.o ABSOLUTE
    ../clib/memcpset.s                       0x00000000   Number         0  strncpy.o ABSOLUTE
    ../clib/memcpset.s                       0x00000000   Number         0  strcmpv7em.o ABSOLUTE
    ../clib/memcpset.s                       0x00000000   Number         0  rt_memmove_w.o ABSOLUTE
    ../clib/misc.s                           0x00000000   Number         0  printf_stubs.o ABSOLUTE
    ../clib/printf.c                         0x00000000   Number         0  vsnprintf.o ABSOLUTE
    ../clib/printf.c                         0x00000000   Number         0  __2printf.o ABSOLUTE
    ../clib/printf.c                         0x00000000   Number         0  __2fprintf.o ABSOLUTE
    ../clib/printf.c                         0x00000000   Number         0  __2sprintf.o ABSOLUTE
    ../clib/printf.c                         0x00000000   Number         0  __2snprintf.o ABSOLUTE
    ../clib/printf.c                         0x00000000   Number         0  noretval__2printf.o ABSOLUTE
    ../clib/printf.c                         0x00000000   Number         0  noretval__2fprintf.o ABSOLUTE
    ../clib/printf.c                         0x00000000   Number         0  noretval__2sprintf.o ABSOLUTE
    ../clib/printf.c                         0x00000000   Number         0  noretval__2snprintf.o ABSOLUTE
    ../clib/printf.c                         0x00000000   Number         0  __printf.o ABSOLUTE
    ../clib/printf.c                         0x00000000   Number         0  _printf_pad.o ABSOLUTE
    ../clib/printf.c                         0x00000000   Number         0  _printf_truncate.o ABSOLUTE
    ../clib/printf.c                         0x00000000   Number         0  _printf_str.o ABSOLUTE
    ../clib/printf.c                         0x00000000   Number         0  _printf_dec.o ABSOLUTE
    ../clib/printf.c                         0x00000000   Number         0  _printf_charcount.o ABSOLUTE
    ../clib/printf.c                         0x00000000   Number         0  _printf_wctomb.o ABSOLUTE
    ../clib/printf.c                         0x00000000   Number         0  _printf_oct_ll.o ABSOLUTE
    ../clib/printf.c                         0x00000000   Number         0  _printf_oct_int.o ABSOLUTE
    ../clib/printf.c                         0x00000000   Number         0  _printf_oct_int_ll.o ABSOLUTE
    ../clib/printf.c                         0x00000000   Number         0  _printf_hex_ll.o ABSOLUTE
    ../clib/printf.c                         0x00000000   Number         0  _printf_hex_int.o ABSOLUTE
    ../clib/printf.c                         0x00000000   Number         0  _printf_hex_int_ll.o ABSOLUTE
    ../clib/printf.c                         0x00000000   Number         0  _printf_hex_ptr.o ABSOLUTE
    ../clib/printf.c                         0x00000000   Number         0  _printf_hex_int_ptr.o ABSOLUTE
    ../clib/printf.c                         0x00000000   Number         0  _printf_hex_ll_ptr.o ABSOLUTE
    ../clib/printf.c                         0x00000000   Number         0  _printf_hex_int_ll_ptr.o ABSOLUTE
    ../clib/printf.c                         0x00000000   Number         0  __printf_flags.o ABSOLUTE
    ../clib/printf.c                         0x00000000   Number         0  __printf_ss.o ABSOLUTE
    ../clib/printf.c                         0x00000000   Number         0  __printf_flags_ss.o ABSOLUTE
    ../clib/printf.c                         0x00000000   Number         0  __printf_wp.o ABSOLUTE
    ../clib/printf.c                         0x00000000   Number         0  __printf_flags_wp.o ABSOLUTE
    ../clib/printf.c                         0x00000000   Number         0  __printf_ss_wp.o ABSOLUTE
    ../clib/printf.c                         0x00000000   Number         0  __printf_flags_ss_wp.o ABSOLUTE
    ../clib/printf.c                         0x00000000   Number         0  sprintf.o ABSOLUTE
    ../clib/printf.c                         0x00000000   Number         0  _printf_intcommon.o ABSOLUTE
    ../clib/printf.c                         0x00000000   Number         0  _printf_fp_dec.o ABSOLUTE
    ../clib/printf.c                         0x00000000   Number         0  _printf_fp_dec_accurate.o ABSOLUTE
    ../clib/printf.c                         0x00000000   Number         0  _printf_fp_hex.o ABSOLUTE
    ../clib/printf.c                         0x00000000   Number         0  _printf_char_common.o ABSOLUTE
    ../clib/printf.c                         0x00000000   Number         0  _sputc.o ABSOLUTE
    ../clib/printf.c                         0x00000000   Number         0  _snputc.o ABSOLUTE
    ../clib/printf.c                         0x00000000   Number         0  _printf_char.o ABSOLUTE
    ../clib/printf.c                         0x00000000   Number         0  _printf_char_file.o ABSOLUTE
    ../clib/printf.c                         0x00000000   Number         0  _printf_wchar.o ABSOLUTE
    ../clib/printf.c                         0x00000000   Number         0  _printf_longlong_dec.o ABSOLUTE
    ../clib/printf.c                         0x00000000   Number         0  _printf_fp_infnan.o ABSOLUTE
    ../clib/printf.c                         0x00000000   Number         0  __printf_nopercent.o ABSOLUTE
    ../clib/printf.c                         0x00000000   Number         0  _printf_char_file_locked.o ABSOLUTE
    ../clib/printf_percent.s                 0x00000000   Number         0  _printf_c.o ABSOLUTE
    ../clib/printf_percent.s                 0x00000000   Number         0  _printf_s.o ABSOLUTE
    ../clib/printf_percent.s                 0x00000000   Number         0  _printf_n.o ABSOLUTE
    ../clib/printf_percent.s                 0x00000000   Number         0  _printf_x.o ABSOLUTE
    ../clib/printf_percent.s                 0x00000000   Number         0  _printf_p.o ABSOLUTE
    ../clib/printf_percent.s                 0x00000000   Number         0  _printf_o.o ABSOLUTE
    ../clib/printf_percent.s                 0x00000000   Number         0  _printf_i.o ABSOLUTE
    ../clib/printf_percent.s                 0x00000000   Number         0  _printf_d.o ABSOLUTE
    ../clib/printf_percent.s                 0x00000000   Number         0  _printf_u.o ABSOLUTE
    ../clib/printf_percent.s                 0x00000000   Number         0  _printf_f.o ABSOLUTE
    ../clib/printf_percent.s                 0x00000000   Number         0  _printf_e.o ABSOLUTE
    ../clib/printf_percent.s                 0x00000000   Number         0  _printf_g.o ABSOLUTE
    ../clib/printf_percent.s                 0x00000000   Number         0  _printf_a.o ABSOLUTE
    ../clib/printf_percent.s                 0x00000000   Number         0  _printf_percent.o ABSOLUTE
    ../clib/printf_percent.s                 0x00000000   Number         0  _printf_lc.o ABSOLUTE
    ../clib/printf_percent.s                 0x00000000   Number         0  _printf_percent_end.o ABSOLUTE
    ../clib/printf_percent.s                 0x00000000   Number         0  _printf_lli.o ABSOLUTE
    ../clib/printf_percent.s                 0x00000000   Number         0  _printf_lld.o ABSOLUTE
    ../clib/printf_percent.s                 0x00000000   Number         0  _printf_llu.o ABSOLUTE
    ../clib/printf_percent.s                 0x00000000   Number         0  _printf_ll.o ABSOLUTE
    ../clib/printf_percent.s                 0x00000000   Number         0  _printf_l.o ABSOLUTE
    ../clib/printf_percent.s                 0x00000000   Number         0  _printf_ls.o ABSOLUTE
    ../clib/printf_percent.s                 0x00000000   Number         0  _printf_llo.o ABSOLUTE
    ../clib/printf_percent.s                 0x00000000   Number         0  _printf_llx.o ABSOLUTE
    ../clib/scanf.c                          0x00000000   Number         0  __0sscanf.o ABSOLUTE
    ../clib/scanf.c                          0x00000000   Number         0  scanf_fp.o ABSOLUTE
    ../clib/scanf.c                          0x00000000   Number         0  scanf_fp_accurate.o ABSOLUTE
    ../clib/scanf.c                          0x00000000   Number         0  scanf_char.o ABSOLUTE
    ../clib/scanf.c                          0x00000000   Number         0  _sgetc.o ABSOLUTE
    ../clib/scanf.c                          0x00000000   Number         0  strtod.o ABSOLUTE
    ../clib/scanf.c                          0x00000000   Number         0  strtof.o ABSOLUTE
    ../clib/scanf.c                          0x00000000   Number         0  _scanf.o ABSOLUTE
    ../clib/scanf.c                          0x00000000   Number         0  scanf_hexfp.o ABSOLUTE
    ../clib/scanf.c                          0x00000000   Number         0  scanf_infnan.o ABSOLUTE
    ../clib/scanf.c                          0x00000000   Number         0  _chval.o ABSOLUTE
    ../clib/signal.c                         0x00000000   Number         0  defsig_abrt_outer.o ABSOLUTE
    ../clib/signal.c                         0x00000000   Number         0  defsig_abrt_formal.o ABSOLUTE
    ../clib/signal.c                         0x00000000   Number         0  defsig_exit.o ABSOLUTE
    ../clib/signal.c                         0x00000000   Number         0  defsig_abrt_inner.o ABSOLUTE
    ../clib/signal.c                         0x00000000   Number         0  defsig_rtred_outer.o ABSOLUTE
    ../clib/signal.c                         0x00000000   Number         0  defsig_rtred_formal.o ABSOLUTE
    ../clib/signal.c                         0x00000000   Number         0  __raise.o ABSOLUTE
    ../clib/signal.c                         0x00000000   Number         0  defsig_general.o ABSOLUTE
    ../clib/signal.c                         0x00000000   Number         0  defsig_fpe_outer.o ABSOLUTE
    ../clib/signal.c                         0x00000000   Number         0  defsig_fpe_formal.o ABSOLUTE
    ../clib/signal.c                         0x00000000   Number         0  defsig_rtred_inner.o ABSOLUTE
    ../clib/signal.c                         0x00000000   Number         0  defsig_fpe_inner.o ABSOLUTE
    ../clib/signal.c                         0x00000000   Number         0  defsig_rtmem_inner.o ABSOLUTE
    ../clib/signal.c                         0x00000000   Number         0  defsig_rtmem_outer.o ABSOLUTE
    ../clib/signal.c                         0x00000000   Number         0  defsig_rtmem_formal.o ABSOLUTE
    ../clib/signal.c                         0x00000000   Number         0  defsig_stak_inner.o ABSOLUTE
    ../clib/signal.c                         0x00000000   Number         0  defsig_pvfn_inner.o ABSOLUTE
    ../clib/signal.c                         0x00000000   Number         0  defsig_cppl_inner.o ABSOLUTE
    ../clib/signal.c                         0x00000000   Number         0  defsig_segv_inner.o ABSOLUTE
    ../clib/signal.c                         0x00000000   Number         0  defsig_other.o ABSOLUTE
    ../clib/signal.s                         0x00000000   Number         0  defsig.o ABSOLUTE
    ../clib/stdio.c                          0x00000000   Number         0  clearerr.o ABSOLUTE
    ../clib/stdio.c                          0x00000000   Number         0  feof.o ABSOLUTE
    ../clib/stdio.c                          0x00000000   Number         0  ferror.o ABSOLUTE
    ../clib/stdio.c                          0x00000000   Number         0  fflush.o ABSOLUTE
    ../clib/stdio.c                          0x00000000   Number         0  fgets.o ABSOLUTE
    ../clib/stdio.c                          0x00000000   Number         0  fputc.o ABSOLUTE
    ../clib/stdio.c                          0x00000000   Number         0  fputs.o ABSOLUTE
    ../clib/stdio.c                          0x00000000   Number         0  fread.o ABSOLUTE
    ../clib/stdio.c                          0x00000000   Number         0  fseek.o ABSOLUTE
    ../clib/stdio.c                          0x00000000   Number         0  ftell.o ABSOLUTE
    ../clib/stdio.c                          0x00000000   Number         0  fwrite.o ABSOLUTE
    ../clib/stdio.c                          0x00000000   Number         0  getc.o ABSOLUTE
    ../clib/stdio.c                          0x00000000   Number         0  puts.o ABSOLUTE
    ../clib/stdio.c                          0x00000000   Number         0  setvbuf.o ABSOLUTE
    ../clib/stdio.c                          0x00000000   Number         0  tmpnam.o ABSOLUTE
    ../clib/stdio.c                          0x00000000   Number         0  ungetc.o ABSOLUTE
    ../clib/stdio.c                          0x00000000   Number         0  fopen.o ABSOLUTE
    ../clib/stdio.c                          0x00000000   Number         0  stdio_streams.o ABSOLUTE
    ../clib/stdio.c                          0x00000000   Number         0  fclose_tmpfile.o ABSOLUTE
    ../clib/stdio.c                          0x00000000   Number         0  fputc_locked.o ABSOLUTE
    ../clib/stdio.c                          0x00000000   Number         0  ftell_locked.o ABSOLUTE
    ../clib/stdio.c                          0x00000000   Number         0  fclose_locked.o ABSOLUTE
    ../clib/stdio.c                          0x00000000   Number         0  ungetc_locked.o ABSOLUTE
    ../clib/stdio.c                          0x00000000   Number         0  fseek_locked.o ABSOLUTE
    ../clib/stdio.c                          0x00000000   Number         0  clearerr_locked.o ABSOLUTE
    ../clib/stdio.c                          0x00000000   Number         0  feof_locked.o ABSOLUTE
    ../clib/stdio.c                          0x00000000   Number         0  ferror_locked.o ABSOLUTE
    ../clib/stdio.c                          0x00000000   Number         0  fflush_locked.o ABSOLUTE
    ../clib/stdio.c                          0x00000000   Number         0  setvbuf_locked.o ABSOLUTE
    ../clib/stdio.c                          0x00000000   Number         0  tmpnam_locked.o ABSOLUTE
    ../clib/stdio.c                          0x00000000   Number         0  fopen_locked.o ABSOLUTE
    ../clib/stdio.c                          0x00000000   Number         0  fgetc.o ABSOLUTE
    ../clib/stdio.c                          0x00000000   Number         0  flsbuf.o ABSOLUTE
    ../clib/stdio.c                          0x00000000   Number         0  stdio.o ABSOLUTE
    ../clib/stdio.c                          0x00000000   Number         0  streamlock.o ABSOLUTE
    ../clib/stdio.c                          0x00000000   Number         0  initio.o ABSOLUTE
    ../clib/stdio.c                          0x00000000   Number         0  fgetc_locked.o ABSOLUTE
    ../clib/stdio.c                          0x00000000   Number         0  initio_locked.o ABSOLUTE
    ../clib/stdio.c                          0x00000000   Number         0  filbuf.o ABSOLUTE
    ../clib/stdio.c                          0x00000000   Number         0  fwritefast.o ABSOLUTE
    ../clib/stdio.c                          0x00000000   Number         0  fputs_locked.o ABSOLUTE
    ../clib/stdio.c                          0x00000000   Number         0  puts_locked.o ABSOLUTE
    ../clib/stdio.c                          0x00000000   Number         0  fwritefast_locked.o ABSOLUTE
    ../clib/stdio.c                          0x00000000   Number         0  freadfast.o ABSOLUTE
    ../clib/stdio.c                          0x00000000   Number         0  fread_bytes_avail.o ABSOLUTE
    ../clib/stdio.c                          0x00000000   Number         0  flushlinebuffered.o ABSOLUTE
    ../clib/stdio.c                          0x00000000   Number         0  fgets_locked.o ABSOLUTE
    ../clib/stdio.c                          0x00000000   Number         0  freadfast_locked.o ABSOLUTE
    ../clib/stdio.c                          0x00000000   Number         0  fread_bytes_avail_locked.o ABSOLUTE
    ../clib/stdio.c                          0x00000000   Number         0  flushlinebuffered_locked.o ABSOLUTE
    ../clib/stdlib.c                         0x00000000   Number         0  exit.o ABSOLUTE
    ../clib/stdlib.c                         0x00000000   Number         0  abort.o ABSOLUTE
    ../clib/string.c                         0x00000000   Number         0  strcoll.o ABSOLUTE
    ../clib/string.c                         0x00000000   Number         0  strerror.o ABSOLUTE
    ../clib/string.c                         0x00000000   Number         0  strchr.o ABSOLUTE
    ../clib/string.c                         0x00000000   Number         0  strpbrk.o ABSOLUTE
    ../clib/string.c                         0x00000000   Number         0  strspn.o ABSOLUTE
    ../clib/string.c                         0x00000000   Number         0  strstr.o ABSOLUTE
    ../clib/string.c                         0x00000000   Number         0  memcmp.o ABSOLUTE
    ../clib/string.c                         0x00000000   Number         0  strcpy.o ABSOLUTE
    ../clib/string.c                         0x00000000   Number         0  strncasecmp.o ABSOLUTE
    ../clib/string.c                         0x00000000   Number         0  strrchr.o ABSOLUTE
    ../clib/string.c                         0x00000000   Number         0  strlen.o ABSOLUTE
    ../clib/string.c                         0x00000000   Number         0  memchr.o ABSOLUTE
    ../clib/string.c                         0x00000000   Number         0  strncmp.o ABSOLUTE
    ../clib/string.c                         0x00000000   Number         0  strcat.o ABSOLUTE
    ../clib/time.c                           0x00000000   Number         0  gmtime.o ABSOLUTE
    ../clib/time.c                           0x00000000   Number         0  localtime.o ABSOLUTE
    ../clib/time.c                           0x00000000   Number         0  mktime.o ABSOLUTE
    ../clib/time.c                           0x00000000   Number         0  strftime.o ABSOLUTE
    ../clib/time.c                           0x00000000   Number         0  _monlen.o ABSOLUTE
    ../clib/time.c                           0x00000000   Number         0  localtime_internal.o ABSOLUTE
    ../clib/wchar.c                          0x00000000   Number         0  flsbuf_fwide.o ABSOLUTE
    ../clib/wchar.c                          0x00000000   Number         0  filbuf_fwide.o ABSOLUTE
    ../fplib/d2f.s                           0x00000000   Number         0  d2f.o ABSOLUTE
    ../fplib/daddsub.s                       0x00000000   Number         0  daddsub_clz.o ABSOLUTE
    ../fplib/dcheck1.s                       0x00000000   Number         0  dcheck1.o ABSOLUTE
    ../fplib/dcmp.s                          0x00000000   Number         0  dcmp.o ABSOLUTE
    ../fplib/dcmpi.s                         0x00000000   Number         0  dcmpi.o ABSOLUTE
    ../fplib/ddiv.s                          0x00000000   Number         0  ddiv.o ABSOLUTE
    ../fplib/deqf.s                          0x00000000   Number         0  deqf.o ABSOLUTE
    ../fplib/dfix.s                          0x00000000   Number         0  dfix.o ABSOLUTE
    ../fplib/dflt.s                          0x00000000   Number         0  dflt_clz.o ABSOLUTE
    ../fplib/dgeqf.s                         0x00000000   Number         0  dgeqf.o ABSOLUTE
    ../fplib/dleqf.s                         0x00000000   Number         0  dleqf.o ABSOLUTE
    ../fplib/dmul.s                          0x00000000   Number         0  dmul.o ABSOLUTE
    ../fplib/dnaninf.s                       0x00000000   Number         0  dnaninf.o ABSOLUTE
    ../fplib/dretinf.s                       0x00000000   Number         0  dretinf.o ABSOLUTE
    ../fplib/drleqf.s                        0x00000000   Number         0  drleqf.o ABSOLUTE
    ../fplib/dsqrt.s                         0x00000000   Number         0  dsqrt_umaal.o ABSOLUTE
    ../fplib/f2d.s                           0x00000000   Number         0  f2d.o ABSOLUTE
    ../fplib/ffltll.s                        0x00000000   Number         0  ffltll_clz.o ABSOLUTE
    ../fplib/fnaninf.s                       0x00000000   Number         0  fnaninf.o ABSOLUTE
    ../fplib/fpconst.s                       0x00000000   Number         0  fpconst.o ABSOLUTE
    ../fplib/fpinit.s                        0x00000000   Number         0  fpinit.o ABSOLUTE
    ../fplib/frem.s                          0x00000000   Number         0  frem_clz.o ABSOLUTE
    ../fplib/fretinf.s                       0x00000000   Number         0  fretinf.o ABSOLUTE
    ../fplib/istatus.s                       0x00000000   Number         0  istatus.o ABSOLUTE
    ../fplib/printf1.s                       0x00000000   Number         0  printf1.o ABSOLUTE
    ../fplib/printf2.s                       0x00000000   Number         0  printf2.o ABSOLUTE
    ../fplib/printf2a.s                      0x00000000   Number         0  printf2a.o ABSOLUTE
    ../fplib/printf2b.s                      0x00000000   Number         0  printf2b.o ABSOLUTE
    ../fplib/retnan.s                        0x00000000   Number         0  retnan.o ABSOLUTE
    ../fplib/scalbn.s                        0x00000000   Number         0  scalbn.o ABSOLUTE
    ../fplib/scanf1.s                        0x00000000   Number         0  scanf1.o ABSOLUTE
    ../fplib/scanf2.s                        0x00000000   Number         0  scanf2.o ABSOLUTE
    ../fplib/scanf2a.s                       0x00000000   Number         0  scanf2a.o ABSOLUTE
    ../fplib/scanf2b.s                       0x00000000   Number         0  scanf2b.o ABSOLUTE
    ../fplib/setjmp.s                        0x00000000   Number         0  setjmp.o ABSOLUTE
    ../fplib/trapv.s                         0x00000000   Number         0  trapv.o ABSOLUTE
    ../fplib/usenofp.s                       0x00000000   Number         0  usenofp.o ABSOLUTE
    ../mathlib/acosf.c                       0x00000000   Number         0  acosf.o ABSOLUTE
    ../mathlib/asinf.c                       0x00000000   Number         0  asinf.o ABSOLUTE
    ../mathlib/atan2f.c                      0x00000000   Number         0  atan2f.o ABSOLUTE
    ../mathlib/ceil.c                        0x00000000   Number         0  ceil.o ABSOLUTE
    ../mathlib/ceilf.c                       0x00000000   Number         0  ceilf.o ABSOLUTE
    ../mathlib/cosf.c                        0x00000000   Number         0  cosf.o ABSOLUTE
    ../mathlib/difftime.c                    0x00000000   Number         0  difftime.o ABSOLUTE
    ../mathlib/dunder.c                      0x00000000   Number         0  dunder.o ABSOLUTE
    ../mathlib/expf.c                        0x00000000   Number         0  expf.o ABSOLUTE
    ../mathlib/floor.c                       0x00000000   Number         0  floor.o ABSOLUTE
    ../mathlib/floorf.c                      0x00000000   Number         0  floorf.o ABSOLUTE
    ../mathlib/fmodf.c                       0x00000000   Number         0  fmodf.o ABSOLUTE
    ../mathlib/fpclassify.c                  0x00000000   Number         0  fpclassify.o ABSOLUTE
    ../mathlib/fpclassifyf.c                 0x00000000   Number         0  fpclassifyf.o ABSOLUTE
    ../mathlib/frexp.c                       0x00000000   Number         0  frexp.o ABSOLUTE
    ../mathlib/frexpf.c                      0x00000000   Number         0  frexpf.o ABSOLUTE
    ../mathlib/funder.c                      0x00000000   Number         0  funder.o ABSOLUTE
    ../mathlib/ldexp.c                       0x00000000   Number         0  ldexp.o ABSOLUTE
    ../mathlib/log10f.c                      0x00000000   Number         0  log10f.o ABSOLUTE
    ../mathlib/log2f.c                       0x00000000   Number         0  log2f.o ABSOLUTE
    ../mathlib/logf.c                        0x00000000   Number         0  logf.o ABSOLUTE
    ../mathlib/narrow.c                      0x00000000   Number         0  narrow.o ABSOLUTE
    ../mathlib/powf.c                        0x00000000   Number         0  powf.o ABSOLUTE
    ../mathlib/rredf.c                       0x00000000   Number         0  rredf.o ABSOLUTE
    ../mathlib/sinf.c                        0x00000000   Number         0  sinf.o ABSOLUTE
    ../mathlib/sqrt.c                        0x00000000   Number         0  sqrt.o ABSOLUTE
    ../mathlib/sqrtf.c                       0x00000000   Number         0  sqrtf.o ABSOLUTE
    ../mathlib/strtod.c                      0x00000000   Number         0  strtod.o ABSOLUTE
    ../mathlib/strtof.c                      0x00000000   Number         0  strtof.o ABSOLUTE
    ../mathlib/tanf.c                        0x00000000   Number         0  tanf.o ABSOLUTE
    ..\..\..\Utilities\Third_Party\STemWin540_20170609\GUI\ConvertColor\GUICC_16.c 0x00000000   Number         0  guicc_16.o ABSOLUTE
    ..\..\..\Utilities\Third_Party\STemWin540_20170609\GUI\ConvertColor\GUICC_1616I.c 0x00000000   Number         0  guicc_1616i.o ABSOLUTE
    ..\..\..\Utilities\Third_Party\STemWin540_20170609\GUI\ConvertColor\GUICC_8666.c 0x00000000   Number         0  guicc_8666.o ABSOLUTE
    ..\..\..\Utilities\Third_Party\STemWin540_20170609\GUI\ConvertColor\GUICC_88666I.c 0x00000000   Number         0  guicc_88666i.o ABSOLUTE
    ..\..\..\Utilities\Third_Party\STemWin540_20170609\GUI\ConvertColor\GUICC_M1555I.c 0x00000000   Number         0  guicc_m1555i.o ABSOLUTE
    ..\..\..\Utilities\Third_Party\STemWin540_20170609\GUI\ConvertColor\GUICC_M4444I.c 0x00000000   Number         0  guicc_m4444i.o ABSOLUTE
    ..\..\..\Utilities\Third_Party\STemWin540_20170609\GUI\ConvertColor\GUICC_M8888I.c 0x00000000   Number         0  guicc_m8888i.o ABSOLUTE
    ..\..\..\Utilities\Third_Party\STemWin540_20170609\GUI\Core\GUICC_0.c 0x00000000   Number         0  guicc_0.o ABSOLUTE
    ..\..\..\Utilities\Third_Party\STemWin540_20170609\GUI\Core\GUICC_8888.c 0x00000000   Number         0  guicc_8888.o ABSOLUTE
    ..\..\..\Utilities\Third_Party\STemWin540_20170609\GUI\Core\GUICC_8888_Index2Color.c 0x00000000   Number         0  guicc_8888_index2color.o ABSOLUTE
    ..\..\..\Utilities\Third_Party\STemWin540_20170609\GUI\Core\GUICC_888_Index2Color.c 0x00000000   Number         0  guicc_888_index2color.o ABSOLUTE
    ..\..\..\Utilities\Third_Party\STemWin540_20170609\GUI\Core\GUICC_M555_Index2Color.c 0x00000000   Number         0  guicc_m555_index2color.o ABSOLUTE
    ..\..\..\Utilities\Third_Party\STemWin540_20170609\GUI\Core\GUICC_M565.c 0x00000000   Number         0  guicc_m565.o ABSOLUTE
    ..\..\..\Utilities\Third_Party\STemWin540_20170609\GUI\Core\GUICC_M888.c 0x00000000   Number         0  guicc_m888.o ABSOLUTE
    ..\..\..\Utilities\Third_Party\STemWin540_20170609\GUI\Core\GUICC_M8888I_Index2Color.c 0x00000000   Number         0  guicc_m8888i_index2color.o ABSOLUTE
    ..\..\..\Utilities\Third_Party\STemWin540_20170609\GUI\Core\GUICC_M888_Index2Color.c 0x00000000   Number         0  guicc_m888_index2color.o ABSOLUTE
    ..\..\..\Utilities\Third_Party\STemWin540_20170609\GUI\Core\GUI_2DLib.c 0x00000000   Number         0  gui_2dlib.o ABSOLUTE
    ..\..\..\Utilities\Third_Party\STemWin540_20170609\GUI\Core\GUI_Alloc.c 0x00000000   Number         0  gui_alloc.o ABSOLUTE
    ..\..\..\Utilities\Third_Party\STemWin540_20170609\GUI\Core\GUI_Arc.c 0x00000000   Number         0  gui_arc.o ABSOLUTE
    ..\..\..\Utilities\Third_Party\STemWin540_20170609\GUI\Core\GUI_BMP.c 0x00000000   Number         0  gui_bmp.o ABSOLUTE
    ..\..\..\Utilities\Third_Party\STemWin540_20170609\GUI\Core\GUI_Char.c 0x00000000   Number         0  gui_char.o ABSOLUTE
    ..\..\..\Utilities\Third_Party\STemWin540_20170609\GUI\Core\GUI_CharLine.c 0x00000000   Number         0  gui_charline.o ABSOLUTE
    ..\..\..\Utilities\Third_Party\STemWin540_20170609\GUI\Core\GUI_CharM.c 0x00000000   Number         0  gui_charm.o ABSOLUTE
    ..\..\..\Utilities\Third_Party\STemWin540_20170609\GUI\Core\GUI_CharP.c 0x00000000   Number         0  gui_charp.o ABSOLUTE
    ..\..\..\Utilities\Third_Party\STemWin540_20170609\GUI\Core\GUI_Circ.c 0x00000000   Number         0  gui_circ.o ABSOLUTE
    ..\..\..\Utilities\Third_Party\STemWin540_20170609\GUI\Core\GUI_Common.c 0x00000000   Number         0  gui_common.o ABSOLUTE
    ..\..\..\Utilities\Third_Party\STemWin540_20170609\GUI\Core\GUI_Core.c 0x00000000   Number         0  gui_core.o ABSOLUTE
    ..\..\..\Utilities\Third_Party\STemWin540_20170609\GUI\Core\GUI_Cursor.c 0x00000000   Number         0  gui_cursor.o ABSOLUTE
    ..\..\..\Utilities\Third_Party\STemWin540_20170609\GUI\Core\GUI_CursorResource.c 0x00000000   Number         0  gui_cursorresource.o ABSOLUTE
    ..\..\..\Utilities\Third_Party\STemWin540_20170609\GUI\Core\GUI_Device.c 0x00000000   Number         0  gui_device.o ABSOLUTE
    ..\..\..\Utilities\Third_Party\STemWin540_20170609\GUI\Core\GUI_DispChar.c 0x00000000   Number         0  gui_dispchar.o ABSOLUTE
    ..\..\..\Utilities\Third_Party\STemWin540_20170609\GUI\Core\GUI_DispString.c 0x00000000   Number         0  gui_dispstring.o ABSOLUTE
    ..\..\..\Utilities\Third_Party\STemWin540_20170609\GUI\Core\GUI_DrawBitmap.c 0x00000000   Number         0  gui_drawbitmap.o ABSOLUTE
    ..\..\..\Utilities\Third_Party\STemWin540_20170609\GUI\Core\GUI_DrawGradient.c 0x00000000   Number         0  gui_drawgradient.o ABSOLUTE
    ..\..\..\Utilities\Third_Party\STemWin540_20170609\GUI\Core\GUI_DrawLib.c 0x00000000   Number         0  gui_drawlib.o ABSOLUTE
    ..\..\..\Utilities\Third_Party\STemWin540_20170609\GUI\Core\GUI_DrawLine.c 0x00000000   Number         0  gui_drawline.o ABSOLUTE
    ..\..\..\Utilities\Third_Party\STemWin540_20170609\GUI\Core\GUI_FillPolygon.c 0x00000000   Number         0  gui_fillpolygon.o ABSOLUTE
    ..\..\..\Utilities\Third_Party\STemWin540_20170609\GUI\Core\GUI_GIF.c 0x00000000   Number         0  gui_gif.o ABSOLUTE
    ..\..\..\Utilities\Third_Party\STemWin540_20170609\GUI\Core\GUI_JPEG.c 0x00000000   Number         0  gui_jpeg.o ABSOLUTE
    ..\..\..\Utilities\Third_Party\STemWin540_20170609\GUI\Core\GUI_MULTIBUF.c 0x00000000   Number         0  gui_multibuf.o ABSOLUTE
    ..\..\..\Utilities\Third_Party\STemWin540_20170609\GUI\Core\GUI_OnKey.c 0x00000000   Number         0  gui_onkey.o ABSOLUTE
    ..\..\..\Utilities\Third_Party\STemWin540_20170609\GUI\Core\GUI_PID.c 0x00000000   Number         0  gui_pid.o ABSOLUTE
    ..\..\..\Utilities\Third_Party\STemWin540_20170609\GUI\Core\GUI_SPRITE.c 0x00000000   Number         0  gui_sprite.o ABSOLUTE
    ..\..\..\Utilities\Third_Party\STemWin540_20170609\GUI\Core\GUI_SPRITE_Anim.c 0x00000000   Number         0  gui_sprite_anim.o ABSOLUTE
    ..\..\..\Utilities\Third_Party\STemWin540_20170609\GUI\Core\GUI_SelectLayer.c 0x00000000   Number         0  gui_selectlayer.o ABSOLUTE
    ..\..\..\Utilities\Third_Party\STemWin540_20170609\GUI\Core\GUI_SetAlpha.c 0x00000000   Number         0  gui_setalpha.o ABSOLUTE
    ..\..\..\Utilities\Third_Party\STemWin540_20170609\GUI\Core\GUI_Task.c 0x00000000   Number         0  gui_task.o ABSOLUTE
    ..\..\..\Utilities\Third_Party\STemWin540_20170609\GUI\Core\GUI_Time.c 0x00000000   Number         0  gui_time.o ABSOLUTE
    ..\..\..\Utilities\Third_Party\STemWin540_20170609\GUI\Core\GUI_Timer.c 0x00000000   Number         0  gui_timer.o ABSOLUTE
    ..\..\..\Utilities\Third_Party\STemWin540_20170609\GUI\Core\GUI_UC.c 0x00000000   Number         0  gui_uc.o ABSOLUTE
    ..\..\..\Utilities\Third_Party\STemWin540_20170609\GUI\Core\GUI_Val.c 0x00000000   Number         0  gui_val.o ABSOLUTE
    ..\..\..\Utilities\Third_Party\STemWin540_20170609\GUI\Core\GUI_WaitEvent.c 0x00000000   Number         0  gui_waitevent.o ABSOLUTE
    ..\..\..\Utilities\Third_Party\STemWin540_20170609\GUI\Core\GUI__Alpha.c 0x00000000   Number         0  gui__alpha.o ABSOLUTE
    ..\..\..\Utilities\Third_Party\STemWin540_20170609\GUI\Core\GUI__BiDiRouting.c 0x00000000   Number         0  gui__bidirouting.o ABSOLUTE
    ..\..\..\Utilities\Third_Party\STemWin540_20170609\GUI\Core\GUI__CompactPixelIndices.c 0x00000000   Number         0  gui__compactpixelindices.o ABSOLUTE
    ..\..\..\Utilities\Third_Party\STemWin540_20170609\GUI\Core\GUI__DivTbl.c 0x00000000   Number         0  gui__divtbl.o ABSOLUTE
    ..\..\..\Utilities\Third_Party\STemWin540_20170609\GUI\Core\GUI__DrawTwinArc.c 0x00000000   Number         0  gui__drawtwinarc.o ABSOLUTE
    ..\..\..\Utilities\Third_Party\STemWin540_20170609\GUI\Core\GUI__ExpandPixelIndices.c 0x00000000   Number         0  gui__expandpixelindices.o ABSOLUTE
    ..\..\..\Utilities\Third_Party\STemWin540_20170609\GUI\Core\GUI__GetCursorPos.c 0x00000000   Number         0  gui__getcursorpos.o ABSOLUTE
    ..\..\..\Utilities\Third_Party\STemWin540_20170609\GUI\Core\GUI__ManageCache.c 0x00000000   Number         0  gui__managecache.o ABSOLUTE
    ..\..\..\Utilities\Third_Party\STemWin540_20170609\GUI\Core\GUI__Private.c 0x00000000   Number         0  gui__private.o ABSOLUTE
    ..\..\..\Utilities\Third_Party\STemWin540_20170609\GUI\Core\GUI__SinHQ.c 0x00000000   Number         0  gui__sinhq.o ABSOLUTE
    ..\..\..\Utilities\Third_Party\STemWin540_20170609\GUI\Core\GUI__Wrap.c 0x00000000   Number         0  gui__wrap.o ABSOLUTE
    ..\..\..\Utilities\Third_Party\STemWin540_20170609\GUI\Core\LCD.c 0x00000000   Number         0  lcd.o ABSOLUTE
    ..\..\..\Utilities\Third_Party\STemWin540_20170609\GUI\Core\LCD_AA.c 0x00000000   Number         0  lcd_aa.o ABSOLUTE
    ..\..\..\Utilities\Third_Party\STemWin540_20170609\GUI\Core\LCD_Color.c 0x00000000   Number         0  lcd_color.o ABSOLUTE
    ..\..\..\Utilities\Third_Party\STemWin540_20170609\GUI\Core\LCD_GetColorIndex.c 0x00000000   Number         0  lcd_getcolorindex.o ABSOLUTE
    ..\..\..\Utilities\Third_Party\STemWin540_20170609\GUI\Core\LCD_GetEx.c 0x00000000   Number         0  lcd_getex.o ABSOLUTE
    ..\..\..\Utilities\Third_Party\STemWin540_20170609\GUI\Core\LCD_GetNumDisplays.c 0x00000000   Number         0  lcd_getnumdisplays.o ABSOLUTE
    ..\..\..\Utilities\Third_Party\STemWin540_20170609\GUI\Core\LCD_GetP.c 0x00000000   Number         0  lcd_getp.o ABSOLUTE
    ..\..\..\Utilities\Third_Party\STemWin540_20170609\GUI\Core\LCD_GetPixelColor.c 0x00000000   Number         0  lcd_getpixelcolor.o ABSOLUTE
    ..\..\..\Utilities\Third_Party\STemWin540_20170609\GUI\Core\LCD_Mirror.c 0x00000000   Number         0  lcd_mirror.o ABSOLUTE
    ..\..\..\Utilities\Third_Party\STemWin540_20170609\GUI\Core\LCD_ReadRect.c 0x00000000   Number         0  lcd_readrect.o ABSOLUTE
    ..\..\..\Utilities\Third_Party\STemWin540_20170609\GUI\Core\LCD_SelectLCD.c 0x00000000   Number         0  lcd_selectlcd.o ABSOLUTE
    ..\..\..\Utilities\Third_Party\STemWin540_20170609\GUI\Core\LCD_Set.c 0x00000000   Number         0  lcd_set.o ABSOLUTE
    ..\..\..\Utilities\Third_Party\STemWin540_20170609\GUI\Core\LCD_SetClipRectEx.c 0x00000000   Number         0  lcd_setcliprectex.o ABSOLUTE
    ..\..\..\Utilities\Third_Party\STemWin540_20170609\GUI\Core\LCD_UpdateColorIndices.c 0x00000000   Number         0  lcd_updatecolorindices.o ABSOLUTE
    ..\..\..\Utilities\Third_Party\STemWin540_20170609\GUI\DisplayDriver\GUIDRV_Lin_16.c 0x00000000   Number         0  guidrv_lin_16.o ABSOLUTE
    ..\..\..\Utilities\Third_Party\STemWin540_20170609\GUI\Font\F13_1.c 0x00000000   Number         0  f13_1.o ABSOLUTE
    ..\..\..\Utilities\Third_Party\STemWin540_20170609\GUI\Font\F13_ASCII.c 0x00000000   Number         0  f13_ascii.o ABSOLUTE
    ..\..\..\Utilities\Third_Party\STemWin540_20170609\GUI\Font\F6x8.c 0x00000000   Number         0  f6x8.o ABSOLUTE
    ..\..\..\Utilities\Third_Party\STemWin540_20170609\GUI\MemDev\GUIDEV.c 0x00000000   Number         0  guidev.o ABSOLUTE
    ..\..\..\Utilities\Third_Party\STemWin540_20170609\GUI\MemDev\GUIDEV_16.c 0x00000000   Number         0  guidev_16.o ABSOLUTE
    ..\..\..\Utilities\Third_Party\STemWin540_20170609\GUI\MemDev\GUIDEV_32.c 0x00000000   Number         0  guidev_32.o ABSOLUTE
    ..\..\..\Utilities\Third_Party\STemWin540_20170609\GUI\MemDev\GUIDEV_Banding.c 0x00000000   Number         0  guidev_banding.o ABSOLUTE
    ..\..\..\Utilities\Third_Party\STemWin540_20170609\GUI\MemDev\GUIDEV_Clear.c 0x00000000   Number         0  guidev_clear.o ABSOLUTE
    ..\..\..\Utilities\Third_Party\STemWin540_20170609\GUI\MemDev\GUIDEV_CreateFixed.c 0x00000000   Number         0  guidev_createfixed.o ABSOLUTE
    ..\..\..\Utilities\Third_Party\STemWin540_20170609\GUI\MemDev\GUIDEV_GetDataPtr.c 0x00000000   Number         0  guidev_getdataptr.o ABSOLUTE
    ..\..\..\Utilities\Third_Party\STemWin540_20170609\GUI\MemDev\GUIDEV_GetPos.c 0x00000000   Number         0  guidev_getpos.o ABSOLUTE
    ..\..\..\Utilities\Third_Party\STemWin540_20170609\GUI\MemDev\GUIDEV_GetXSize.c 0x00000000   Number         0  guidev_getxsize.o ABSOLUTE
    ..\..\..\Utilities\Third_Party\STemWin540_20170609\GUI\MemDev\GUIDEV_GetYSize.c 0x00000000   Number         0  guidev_getysize.o ABSOLUTE
    ..\..\..\Utilities\Third_Party\STemWin540_20170609\GUI\MemDev\GUIDEV_ReduceYSize.c 0x00000000   Number         0  guidev_reduceysize.o ABSOLUTE
    ..\..\..\Utilities\Third_Party\STemWin540_20170609\GUI\MemDev\GUIDEV_SetOrg.c 0x00000000   Number         0  guidev_setorg.o ABSOLUTE
    ..\..\..\Utilities\Third_Party\STemWin540_20170609\GUI\MemDev\GUIDEV_StaticDevices.c 0x00000000   Number         0  guidev_staticdevices.o ABSOLUTE
    ..\..\..\Utilities\Third_Party\STemWin540_20170609\GUI\MemDev\GUIDEV_Usage.c 0x00000000   Number         0  guidev_usage.o ABSOLUTE
    ..\..\..\Utilities\Third_Party\STemWin540_20170609\GUI\MemDev\GUIDEV_UsageBM.c 0x00000000   Number         0  guidev_usagebm.o ABSOLUTE
    ..\..\..\Utilities\Third_Party\STemWin540_20170609\GUI\MemDev\GUIDEV_Write.c 0x00000000   Number         0  guidev_write.o ABSOLUTE
    ..\..\..\Utilities\Third_Party\STemWin540_20170609\GUI\MemDev\GUIDEV_WriteToActiveAlpha.c 0x00000000   Number         0  guidev_writetoactivealpha.o ABSOLUTE
    ..\..\..\Utilities\Third_Party\STemWin540_20170609\GUI\MemDev\GUIDEV_WriteToActiveOpaque.c 0x00000000   Number         0  guidev_writetoactiveopaque.o ABSOLUTE
    ..\..\..\Utilities\Third_Party\STemWin540_20170609\GUI\WM\WM.c 0x00000000   Number         0  wm.o ABSOLUTE
    ..\..\..\Utilities\Third_Party\STemWin540_20170609\GUI\WM\WM_BringToTop.c 0x00000000   Number         0  wm_bringtotop.o ABSOLUTE
    ..\..\..\Utilities\Third_Party\STemWin540_20170609\GUI\WM\WM_GetWindowSize.c 0x00000000   Number         0  wm_getwindowsize.o ABSOLUTE
    ..\..\..\Utilities\Third_Party\STemWin540_20170609\GUI\WM\WM_Hide.c 0x00000000   Number         0  wm_hide.o ABSOLUTE
    ..\..\..\Utilities\Third_Party\STemWin540_20170609\GUI\WM\WM_Lib.c 0x00000000   Number         0  wm_lib.o ABSOLUTE
    ..\..\..\Utilities\Third_Party\STemWin540_20170609\GUI\WM\WM_MULTIBUF.c 0x00000000   Number         0  wm_multibuf.o ABSOLUTE
    ..\..\..\Utilities\Third_Party\STemWin540_20170609\GUI\WM\WM_MemDev.c 0x00000000   Number         0  wm_memdev.o ABSOLUTE
    ..\..\..\Utilities\Third_Party\STemWin540_20170609\GUI\WM\WM_Move.c 0x00000000   Number         0  wm_move.o ABSOLUTE
    ..\..\..\Utilities\Third_Party\STemWin540_20170609\GUI\WM\WM_PID__GetPrevState.c 0x00000000   Number         0  wm_pid__getprevstate.o ABSOLUTE
    ..\..\..\Utilities\Third_Party\STemWin540_20170609\GUI\WM\WM_Screen2Win.c 0x00000000   Number         0  wm_screen2win.o ABSOLUTE
    ..\..\..\Utilities\Third_Party\STemWin540_20170609\GUI\WM\WM_SetCapture.c 0x00000000   Number         0  wm_setcapture.o ABSOLUTE
    ..\..\..\Utilities\Third_Party\STemWin540_20170609\GUI\WM\WM_SetCaptureMove.c 0x00000000   Number         0  wm_setcapturemove.o ABSOLUTE
    ..\..\..\Utilities\Third_Party\STemWin540_20170609\GUI\WM\WM_SetFocusOnNextChild.c 0x00000000   Number         0  wm_setfocusonnextchild.o ABSOLUTE
    ..\..\..\Utilities\Third_Party\STemWin540_20170609\GUI\WM\WM_SetFocusOnPrevChild.c 0x00000000   Number         0  wm_setfocusonprevchild.o ABSOLUTE
    ..\..\..\Utilities\Third_Party\STemWin540_20170609\GUI\WM\WM_SetScrollbar.c 0x00000000   Number         0  wm_setscrollbar.o ABSOLUTE
    ..\..\..\Utilities\Third_Party\STemWin540_20170609\GUI\WM\WM_SetTrans.c 0x00000000   Number         0  wm_settrans.o ABSOLUTE
    ..\..\..\Utilities\Third_Party\STemWin540_20170609\GUI\WM\WM_Timer.c 0x00000000   Number         0  wm_timer.o ABSOLUTE
    ..\..\..\Utilities\Third_Party\STemWin540_20170609\GUI\WM\WM_Touch.c 0x00000000   Number         0  wm_touch.o ABSOLUTE
    ..\..\..\Utilities\Third_Party\STemWin540_20170609\GUI\WM\WM_UserData.c 0x00000000   Number         0  wm_userdata.o ABSOLUTE
    ..\..\..\Utilities\Third_Party\STemWin540_20170609\GUI\WM\WM__Private.c 0x00000000   Number         0  wm__private.o ABSOLUTE
    ..\..\..\Utilities\Third_Party\STemWin540_20170609\GUI\Widget\BUTTON.c 0x00000000   Number         0  button.o ABSOLUTE
    ..\..\..\Utilities\Third_Party\STemWin540_20170609\GUI\Widget\BUTTON_SelfDraw.c 0x00000000   Number         0  button_selfdraw.o ABSOLUTE
    ..\..\..\Utilities\Third_Party\STemWin540_20170609\GUI\Widget\BUTTON_Skin.c 0x00000000   Number         0  button_skin.o ABSOLUTE
    ..\..\..\Utilities\Third_Party\STemWin540_20170609\GUI\Widget\BUTTON_SkinFlex.c 0x00000000   Number         0  button_skinflex.o ABSOLUTE
    ..\..\..\Utilities\Third_Party\STemWin540_20170609\GUI\Widget\BUTTON__SetDrawObj.c 0x00000000   Number         0  button__setdrawobj.o ABSOLUTE
    ..\..\..\Utilities\Third_Party\STemWin540_20170609\GUI\Widget\DIALOG.c 0x00000000   Number         0  dialog.o ABSOLUTE
    ..\..\..\Utilities\Third_Party\STemWin540_20170609\GUI\Widget\FRAMEWIN.c 0x00000000   Number         0  framewin.o ABSOLUTE
    ..\..\..\Utilities\Third_Party\STemWin540_20170609\GUI\Widget\FRAMEWIN_AddButton.c 0x00000000   Number         0  framewin_addbutton.o ABSOLUTE
    ..\..\..\Utilities\Third_Party\STemWin540_20170609\GUI\Widget\FRAMEWIN_ButtonClose.c 0x00000000   Number         0  framewin_buttonclose.o ABSOLUTE
    ..\..\..\Utilities\Third_Party\STemWin540_20170609\GUI\Widget\FRAMEWIN_Skin.c 0x00000000   Number         0  framewin_skin.o ABSOLUTE
    ..\..\..\Utilities\Third_Party\STemWin540_20170609\GUI\Widget\FRAMEWIN_SkinFlex.c 0x00000000   Number         0  framewin_skinflex.o ABSOLUTE
    ..\..\..\Utilities\Third_Party\STemWin540_20170609\GUI\Widget\FRAMEWIN__UpdateButtons.c 0x00000000   Number         0  framewin__updatebuttons.o ABSOLUTE
    ..\..\..\Utilities\Third_Party\STemWin540_20170609\GUI\Widget\GUI_DRAW.c 0x00000000   Number         0  gui_draw.o ABSOLUTE
    ..\..\..\Utilities\Third_Party\STemWin540_20170609\GUI\Widget\GUI_DRAW_Self.c 0x00000000   Number         0  gui_draw_self.o ABSOLUTE
    ..\..\..\Utilities\Third_Party\STemWin540_20170609\GUI\Widget\MULTIEDIT.c 0x00000000   Number         0  multiedit.o ABSOLUTE
    ..\..\..\Utilities\Third_Party\STemWin540_20170609\GUI\Widget\PROGBAR.c 0x00000000   Number         0  progbar.o ABSOLUTE
    ..\..\..\Utilities\Third_Party\STemWin540_20170609\GUI\Widget\PROGBAR_Skin.c 0x00000000   Number         0  progbar_skin.o ABSOLUTE
    ..\..\..\Utilities\Third_Party\STemWin540_20170609\GUI\Widget\PROGBAR_SkinFlex.c 0x00000000   Number         0  progbar_skinflex.o ABSOLUTE
    ..\..\..\Utilities\Third_Party\STemWin540_20170609\GUI\Widget\SCROLLBAR.c 0x00000000   Number         0  scrollbar.o ABSOLUTE
    ..\..\..\Utilities\Third_Party\STemWin540_20170609\GUI\Widget\SCROLLBAR_Skin.c 0x00000000   Number         0  scrollbar_skin.o ABSOLUTE
    ..\..\..\Utilities\Third_Party\STemWin540_20170609\GUI\Widget\SCROLLBAR_SkinFlex.c 0x00000000   Number         0  scrollbar_skinflex.o ABSOLUTE
    ..\..\..\Utilities\Third_Party\STemWin540_20170609\GUI\Widget\TEXT.c 0x00000000   Number         0  text.o ABSOLUTE
    ..\..\..\Utilities\Third_Party\STemWin540_20170609\GUI\Widget\WIDGET.c 0x00000000   Number         0  widget.o ABSOLUTE
    ..\..\..\Utilities\Third_Party\STemWin540_20170609\GUI\Widget\WIDGET_Effect_None.c 0x00000000   Number         0  widget_effect_none.o ABSOLUTE
    ..\..\..\Utilities\Third_Party\STemWin540_20170609\GUI\Widget\WIDGET_Effect_Simple.c 0x00000000   Number         0  widget_effect_simple.o ABSOLUTE
    EMWIN_Main.c                             0x00000000   Number         0  emwin_main.o ABSOLUTE
    GUICharPEx.c                             0x00000000   Number         0  guicharpex.o ABSOLUTE
    GUIConf.c                                0x00000000   Number         0  guiconf.o ABSOLUTE
    GUI_Font12.c                             0x00000000   Number         0  gui_font12.o ABSOLUTE
    GUI_Font16.c                             0x00000000   Number         0  gui_font16.o ABSOLUTE
    GUI_Font24.c                             0x00000000   Number         0  gui_font24.o ABSOLUTE
    GUI_Font32.c                             0x00000000   Number         0  gui_font32.o ABSOLUTE
    GUI_Touch.c                              0x00000000   Number         0  gui_touch.o ABSOLUTE
    GUI_UC_EncodeNone.c                      0x00000000   Number         0  gui_uc_encodenone.o ABSOLUTE
    GUI_X_FreeRTOS.c                         0x00000000   Number         0  gui_x_freertos.o ABSOLUTE
    STemWIN_PIC.c                            0x00000000   Number         0  stemwin_pic.o ABSOLUTE
    bitstream.c                              0x00000000   Number         0  bitstream.o ABSOLUTE
    buffers.c                                0x00000000   Number         0  buffers.o ABSOLUTE
    cJSON.c                                  0x00000000   Number         0  cjson.o ABSOLUTE
    clib_redef.c                             0x00000000   Number         0  clib_redef.o ABSOLUTE
    cpu_utils.c                              0x00000000   Number         0  cpu_utils.o ABSOLUTE
    croutine.c                               0x00000000   Number         0  croutine.o ABSOLUTE
    dc.s                                     0x00000000   Number         0  dc.o ABSOLUTE
    dct32.c                                  0x00000000   Number         0  dct32.o ABSOLUTE
    dequant.c                                0x00000000   Number         0  dequant.o ABSOLUTE
    diskio.c                                 0x00000000   Number         0  diskio.o ABSOLUTE
    dqchan.c                                 0x00000000   Number         0  dqchan.o ABSOLUTE
    emWin_Drive.c                            0x00000000   Number         0  emwin_drive.o ABSOLUTE
    event_groups.c                           0x00000000   Number         0  event_groups.o ABSOLUTE
    fatfs.c                                  0x00000000   Number         0  fatfs.o ABSOLUTE
    ff.c                                     0x00000000   Number         0  ff.o ABSOLUTE
    ffsystem.c                               0x00000000   Number         0  ffsystem.o ABSOLUTE
    ffunicode.c                              0x00000000   Number         0  ffunicode.o ABSOLUTE
    flash_burn.c                             0x00000000   Number         0  flash_burn.o ABSOLUTE
    get_location.c                           0x00000000   Number         0  get_location.o ABSOLUTE
    heap_5.c                                 0x00000000   Number         0  heap_5.o ABSOLUTE
    huffman.c                                0x00000000   Number         0  huffman.o ABSOLUTE
    hufftabs.c                               0x00000000   Number         0  hufftabs.o ABSOLUTE
    hw_cpu_temp.c                            0x00000000   Number         0  hw_cpu_temp.o ABSOLUTE
    hw_diastimeter.c                         0x00000000   Number         0  hw_diastimeter.o ABSOLUTE
    hw_fingerprint.c                         0x00000000   Number         0  hw_fingerprint.o ABSOLUTE
    hw_get_location.c                        0x00000000   Number         0  hw_get_location.o ABSOLUTE
    hw_key.c                                 0x00000000   Number         0  hw_key.o ABSOLUTE
    hw_lcd.c                                 0x00000000   Number         0  hw_lcd.o ABSOLUTE
    hw_led.c                                 0x00000000   Number         0  hw_led.o ABSOLUTE
    hw_machine_vision.c                      0x00000000   Number         0  hw_machine_vision.o ABSOLUTE
    hw_music.c                               0x00000000   Number         0  hw_music.o ABSOLUTE
    hw_sdio_sd.c                             0x00000000   Number         0  hw_sdio_sd.o ABSOLUTE
    hw_sdram.c                               0x00000000   Number         0  hw_sdram.o ABSOLUTE
    hw_spiflash.c                            0x00000000   Number         0  hw_spiflash.o ABSOLUTE
    hw_sport_ctrl.c                          0x00000000   Number         0  hw_sport_ctrl.o ABSOLUTE
    hw_time.c                                0x00000000   Number         0  hw_time.o ABSOLUTE
    hw_touch.c                               0x00000000   Number         0  hw_touch.o ABSOLUTE
    hw_voice_discern.c                       0x00000000   Number         0  hw_voice_discern.o ABSOLUTE
    hw_wifi.c                                0x00000000   Number         0  hw_wifi.o ABSOLUTE
    iic_software.c                           0x00000000   Number         0  iic_software.o ABSOLUTE
    imdct.c                                  0x00000000   Number         0  imdct.o ABSOLUTE
    lapi.c                                   0x00000000   Number         0  lapi.o ABSOLUTE
    lauxlib.c                                0x00000000   Number         0  lauxlib.o ABSOLUTE
    lbaselib.c                               0x00000000   Number         0  lbaselib.o ABSOLUTE
    lcode.c                                  0x00000000   Number         0  lcode.o ABSOLUTE
    lcorolib.c                               0x00000000   Number         0  lcorolib.o ABSOLUTE
    lctype.c                                 0x00000000   Number         0  lctype.o ABSOLUTE
    ldblib.c                                 0x00000000   Number         0  ldblib.o ABSOLUTE
    ldebug.c                                 0x00000000   Number         0  ldebug.o ABSOLUTE
    ldo.c                                    0x00000000   Number         0  ldo.o ABSOLUTE
    ldump.c                                  0x00000000   Number         0  ldump.o ABSOLUTE
    lfunc.c                                  0x00000000   Number         0  lfunc.o ABSOLUTE
    lgc.c                                    0x00000000   Number         0  lgc.o ABSOLUTE
    linit.c                                  0x00000000   Number         0  linit.o ABSOLUTE
    liolib.c                                 0x00000000   Number         0  liolib.o ABSOLUTE
    list.c                                   0x00000000   Number         0  list.o ABSOLUTE
    llex.c                                   0x00000000   Number         0  llex.o ABSOLUTE
    lmathlib.c                               0x00000000   Number         0  lmathlib.o ABSOLUTE
    lmem.c                                   0x00000000   Number         0  lmem.o ABSOLUTE
    loadlib.c                                0x00000000   Number         0  loadlib.o ABSOLUTE
    lobject.c                                0x00000000   Number         0  lobject.o ABSOLUTE
    lopcodes.c                               0x00000000   Number         0  lopcodes.o ABSOLUTE
    loslib.c                                 0x00000000   Number         0  loslib.o ABSOLUTE
    lparser.c                                0x00000000   Number         0  lparser.o ABSOLUTE
    lstate.c                                 0x00000000   Number         0  lstate.o ABSOLUTE
    lstring.c                                0x00000000   Number         0  lstring.o ABSOLUTE
    lstrlib.c                                0x00000000   Number         0  lstrlib.o ABSOLUTE
    ltable.c                                 0x00000000   Number         0  ltable.o ABSOLUTE
    ltablib.c                                0x00000000   Number         0  ltablib.o ABSOLUTE
    ltm.c                                    0x00000000   Number         0  ltm.o ABSOLUTE
    lua_extra_lib.c                          0x00000000   Number         0  lua_extra_lib.o ABSOLUTE
    lundump.c                                0x00000000   Number         0  lundump.o ABSOLUTE
    lutf8lib.c                               0x00000000   Number         0  lutf8lib.o ABSOLUTE
    lvm.c                                    0x00000000   Number         0  lvm.o ABSOLUTE
    lzio.c                                   0x00000000   Number         0  lzio.o ABSOLUTE
    main.c                                   0x00000000   Number         0  main.o ABSOLUTE
    mp3_play.c                               0x00000000   Number         0  mp3_play.o ABSOLUTE
    mp3dec.c                                 0x00000000   Number         0  mp3dec.o ABSOLUTE
    mp3tabs.c                                0x00000000   Number         0  mp3tabs.o ABSOLUTE
    music_play.c                             0x00000000   Number         0  music_play.o ABSOLUTE
    port.c                                   0x00000000   Number         0  port.o ABSOLUTE
    queue.c                                  0x00000000   Number         0  queue.o ABSOLUTE
    scalfact.c                               0x00000000   Number         0  scalfact.o ABSOLUTE
    setting_save.c                           0x00000000   Number         0  setting_save.o ABSOLUTE
    sport_ctrl.c                             0x00000000   Number         0  sport_ctrl.o ABSOLUTE
    stm32f4xx_hal.c                          0x00000000   Number         0  stm32f4xx_hal.o ABSOLUTE
    stm32f4xx_hal_adc.c                      0x00000000   Number         0  stm32f4xx_hal_adc.o ABSOLUTE
    stm32f4xx_hal_adc_ex.c                   0x00000000   Number         0  stm32f4xx_hal_adc_ex.o ABSOLUTE
    stm32f4xx_hal_can.c                      0x00000000   Number         0  stm32f4xx_hal_can.o ABSOLUTE
    stm32f4xx_hal_cec.c                      0x00000000   Number         0  stm32f4xx_hal_cec.o ABSOLUTE
    stm32f4xx_hal_cortex.c                   0x00000000   Number         0  stm32f4xx_hal_cortex.o ABSOLUTE
    stm32f4xx_hal_crc.c                      0x00000000   Number         0  stm32f4xx_hal_crc.o ABSOLUTE
    stm32f4xx_hal_cryp.c                     0x00000000   Number         0  stm32f4xx_hal_cryp.o ABSOLUTE
    stm32f4xx_hal_cryp_ex.c                  0x00000000   Number         0  stm32f4xx_hal_cryp_ex.o ABSOLUTE
    stm32f4xx_hal_dac.c                      0x00000000   Number         0  stm32f4xx_hal_dac.o ABSOLUTE
    stm32f4xx_hal_dac_ex.c                   0x00000000   Number         0  stm32f4xx_hal_dac_ex.o ABSOLUTE
    stm32f4xx_hal_dcmi.c                     0x00000000   Number         0  stm32f4xx_hal_dcmi.o ABSOLUTE
    stm32f4xx_hal_dcmi_ex.c                  0x00000000   Number         0  stm32f4xx_hal_dcmi_ex.o ABSOLUTE
    stm32f4xx_hal_dma.c                      0x00000000   Number         0  stm32f4xx_hal_dma.o ABSOLUTE
    stm32f4xx_hal_dma2d.c                    0x00000000   Number         0  stm32f4xx_hal_dma2d.o ABSOLUTE
    stm32f4xx_hal_dma_ex.c                   0x00000000   Number         0  stm32f4xx_hal_dma_ex.o ABSOLUTE
    stm32f4xx_hal_dsi.c                      0x00000000   Number         0  stm32f4xx_hal_dsi.o ABSOLUTE
    stm32f4xx_hal_eth.c                      0x00000000   Number         0  stm32f4xx_hal_eth.o ABSOLUTE
    stm32f4xx_hal_flash.c                    0x00000000   Number         0  stm32f4xx_hal_flash.o ABSOLUTE
    stm32f4xx_hal_flash_ex.c                 0x00000000   Number         0  stm32f4xx_hal_flash_ex.o ABSOLUTE
    stm32f4xx_hal_flash_ramfunc.c            0x00000000   Number         0  stm32f4xx_hal_flash_ramfunc.o ABSOLUTE
    stm32f4xx_hal_fmpi2c.c                   0x00000000   Number         0  stm32f4xx_hal_fmpi2c.o ABSOLUTE
    stm32f4xx_hal_fmpi2c_ex.c                0x00000000   Number         0  stm32f4xx_hal_fmpi2c_ex.o ABSOLUTE
    stm32f4xx_hal_gpio.c                     0x00000000   Number         0  stm32f4xx_hal_gpio.o ABSOLUTE
    stm32f4xx_hal_hash.c                     0x00000000   Number         0  stm32f4xx_hal_hash.o ABSOLUTE
    stm32f4xx_hal_hash_ex.c                  0x00000000   Number         0  stm32f4xx_hal_hash_ex.o ABSOLUTE
    stm32f4xx_hal_hcd.c                      0x00000000   Number         0  stm32f4xx_hal_hcd.o ABSOLUTE
    stm32f4xx_hal_i2c.c                      0x00000000   Number         0  stm32f4xx_hal_i2c.o ABSOLUTE
    stm32f4xx_hal_i2c_ex.c                   0x00000000   Number         0  stm32f4xx_hal_i2c_ex.o ABSOLUTE
    stm32f4xx_hal_i2s.c                      0x00000000   Number         0  stm32f4xx_hal_i2s.o ABSOLUTE
    stm32f4xx_hal_i2s_ex.c                   0x00000000   Number         0  stm32f4xx_hal_i2s_ex.o ABSOLUTE
    stm32f4xx_hal_irda.c                     0x00000000   Number         0  stm32f4xx_hal_irda.o ABSOLUTE
    stm32f4xx_hal_iwdg.c                     0x00000000   Number         0  stm32f4xx_hal_iwdg.o ABSOLUTE
    stm32f4xx_hal_lptim.c                    0x00000000   Number         0  stm32f4xx_hal_lptim.o ABSOLUTE
    stm32f4xx_hal_ltdc.c                     0x00000000   Number         0  stm32f4xx_hal_ltdc.o ABSOLUTE
    stm32f4xx_hal_ltdc_ex.c                  0x00000000   Number         0  stm32f4xx_hal_ltdc_ex.o ABSOLUTE
    stm32f4xx_hal_nand.c                     0x00000000   Number         0  stm32f4xx_hal_nand.o ABSOLUTE
    stm32f4xx_hal_nor.c                      0x00000000   Number         0  stm32f4xx_hal_nor.o ABSOLUTE
    stm32f4xx_hal_pccard.c                   0x00000000   Number         0  stm32f4xx_hal_pccard.o ABSOLUTE
    stm32f4xx_hal_pcd.c                      0x00000000   Number         0  stm32f4xx_hal_pcd.o ABSOLUTE
    stm32f4xx_hal_pcd_ex.c                   0x00000000   Number         0  stm32f4xx_hal_pcd_ex.o ABSOLUTE
    stm32f4xx_hal_pwr.c                      0x00000000   Number         0  stm32f4xx_hal_pwr.o ABSOLUTE
    stm32f4xx_hal_pwr_ex.c                   0x00000000   Number         0  stm32f4xx_hal_pwr_ex.o ABSOLUTE
    stm32f4xx_hal_qspi.c                     0x00000000   Number         0  stm32f4xx_hal_qspi.o ABSOLUTE
    stm32f4xx_hal_rcc.c                      0x00000000   Number         0  stm32f4xx_hal_rcc.o ABSOLUTE
    stm32f4xx_hal_rcc_ex.c                   0x00000000   Number         0  stm32f4xx_hal_rcc_ex.o ABSOLUTE
    stm32f4xx_hal_rng.c                      0x00000000   Number         0  stm32f4xx_hal_rng.o ABSOLUTE
    stm32f4xx_hal_rtc.c                      0x00000000   Number         0  stm32f4xx_hal_rtc.o ABSOLUTE
    stm32f4xx_hal_rtc_ex.c                   0x00000000   Number         0  stm32f4xx_hal_rtc_ex.o ABSOLUTE
    stm32f4xx_hal_sai.c                      0x00000000   Number         0  stm32f4xx_hal_sai.o ABSOLUTE
    stm32f4xx_hal_sai_ex.c                   0x00000000   Number         0  stm32f4xx_hal_sai_ex.o ABSOLUTE
    stm32f4xx_hal_sd.c                       0x00000000   Number         0  stm32f4xx_hal_sd.o ABSOLUTE
    stm32f4xx_hal_sdram.c                    0x00000000   Number         0  stm32f4xx_hal_sdram.o ABSOLUTE
    stm32f4xx_hal_smartcard.c                0x00000000   Number         0  stm32f4xx_hal_smartcard.o ABSOLUTE
    stm32f4xx_hal_spdifrx.c                  0x00000000   Number         0  stm32f4xx_hal_spdifrx.o ABSOLUTE
    stm32f4xx_hal_spi.c                      0x00000000   Number         0  stm32f4xx_hal_spi.o ABSOLUTE
    stm32f4xx_hal_sram.c                     0x00000000   Number         0  stm32f4xx_hal_sram.o ABSOLUTE
    stm32f4xx_hal_tim.c                      0x00000000   Number         0  stm32f4xx_hal_tim.o ABSOLUTE
    stm32f4xx_hal_tim_ex.c                   0x00000000   Number         0  stm32f4xx_hal_tim_ex.o ABSOLUTE
    stm32f4xx_hal_uart.c                     0x00000000   Number         0  stm32f4xx_hal_uart.o ABSOLUTE
    stm32f4xx_hal_usart.c                    0x00000000   Number         0  stm32f4xx_hal_usart.o ABSOLUTE
    stm32f4xx_hal_wwdg.c                     0x00000000   Number         0  stm32f4xx_hal_wwdg.o ABSOLUTE
    stm32f4xx_ll_fmc.c                       0x00000000   Number         0  stm32f4xx_ll_fmc.o ABSOLUTE
    stm32f4xx_ll_fsmc.c                      0x00000000   Number         0  stm32f4xx_ll_fsmc.o ABSOLUTE
    stm32f4xx_ll_sdmmc.c                     0x00000000   Number         0  stm32f4xx_ll_sdmmc.o ABSOLUTE
    stm32f4xx_ll_usb.c                       0x00000000   Number         0  stm32f4xx_ll_usb.o ABSOLUTE
    stm32f4xx_sys.c                          0x00000000   Number         0  stm32f4xx_sys.o ABSOLUTE
    stproc.c                                 0x00000000   Number         0  stproc.o ABSOLUTE
    stream_buffer.c                          0x00000000   Number         0  stream_buffer.o ABSOLUTE
    subband.c                                0x00000000   Number         0  subband.o ABSOLUTE
    system_stm32f4xx.c                       0x00000000   Number         0  system_stm32f4xx.o ABSOLUTE
    tasks.c                                  0x00000000   Number         0  tasks.o ABSOLUTE
    timers.c                                 0x00000000   Number         0  timers.o ABSOLUTE
    trigtabs.c                               0x00000000   Number         0  trigtabs.o ABSOLUTE
    trilateration.c                          0x00000000   Number         0  trilateration.o ABSOLUTE
    visual_debug.c                           0x00000000   Number         0  visual_debug.o ABSOLUTE
    voice_recognition.c                      0x00000000   Number         0  voice_recognition.o ABSOLUTE
    wav_play.c                               0x00000000   Number         0  wav_play.o ABSOLUTE
    wifi_process.c                           0x00000000   Number         0  wifi_process.o ABSOLUTE
    win_get_location.c                       0x00000000   Number         0  win_get_location.o ABSOLUTE
    RESET                                    0x08000000   Section      428  startup_stm32f429xx.o(RESET)
    !!!main                                  0x080001ac   Section        8  __main.o(!!!main)
    !!!scatter                               0x080001b4   Section       52  __scatter.o(!!!scatter)
    !!dczerorl2                              0x080001e8   Section       90  __dczerorl2.o(!!dczerorl2)
    !!handler_zi                             0x08000244   Section       28  __scatter_zi.o(!!handler_zi)
    .ARM.Collect$$_printf_percent$$00000000  0x08000260   Section        0  _printf_percent.o(.ARM.Collect$$_printf_percent$$00000000)
    .ARM.Collect$$_printf_percent$$00000001  0x08000260   Section        6  _printf_n.o(.ARM.Collect$$_printf_percent$$00000001)
    .ARM.Collect$$_printf_percent$$00000002  0x08000266   Section        6  _printf_p.o(.ARM.Collect$$_printf_percent$$00000002)
    .ARM.Collect$$_printf_percent$$00000003  0x0800026c   Section        6  _printf_f.o(.ARM.Collect$$_printf_percent$$00000003)
    .ARM.Collect$$_printf_percent$$00000004  0x08000272   Section        6  _printf_e.o(.ARM.Collect$$_printf_percent$$00000004)
    .ARM.Collect$$_printf_percent$$00000005  0x08000278   Section        6  _printf_g.o(.ARM.Collect$$_printf_percent$$00000005)
    .ARM.Collect$$_printf_percent$$00000006  0x0800027e   Section        6  _printf_a.o(.ARM.Collect$$_printf_percent$$00000006)
    .ARM.Collect$$_printf_percent$$00000007  0x08000284   Section       10  _printf_ll.o(.ARM.Collect$$_printf_percent$$00000007)
    .ARM.Collect$$_printf_percent$$00000008  0x0800028e   Section        6  _printf_i.o(.ARM.Collect$$_printf_percent$$00000008)
    .ARM.Collect$$_printf_percent$$00000009  0x08000294   Section        6  _printf_d.o(.ARM.Collect$$_printf_percent$$00000009)
    .ARM.Collect$$_printf_percent$$0000000A  0x0800029a   Section        6  _printf_u.o(.ARM.Collect$$_printf_percent$$0000000A)
    .ARM.Collect$$_printf_percent$$0000000B  0x080002a0   Section        6  _printf_o.o(.ARM.Collect$$_printf_percent$$0000000B)
    .ARM.Collect$$_printf_percent$$0000000C  0x080002a6   Section        6  _printf_x.o(.ARM.Collect$$_printf_percent$$0000000C)
    .ARM.Collect$$_printf_percent$$0000000D  0x080002ac   Section        6  _printf_lli.o(.ARM.Collect$$_printf_percent$$0000000D)
    .ARM.Collect$$_printf_percent$$0000000E  0x080002b2   Section        6  _printf_lld.o(.ARM.Collect$$_printf_percent$$0000000E)
    .ARM.Collect$$_printf_percent$$0000000F  0x080002b8   Section        6  _printf_llu.o(.ARM.Collect$$_printf_percent$$0000000F)
    .ARM.Collect$$_printf_percent$$00000010  0x080002be   Section        6  _printf_llo.o(.ARM.Collect$$_printf_percent$$00000010)
    .ARM.Collect$$_printf_percent$$00000011  0x080002c4   Section        6  _printf_llx.o(.ARM.Collect$$_printf_percent$$00000011)
    .ARM.Collect$$_printf_percent$$00000012  0x080002ca   Section       10  _printf_l.o(.ARM.Collect$$_printf_percent$$00000012)
    .ARM.Collect$$_printf_percent$$00000013  0x080002d4   Section        6  _printf_c.o(.ARM.Collect$$_printf_percent$$00000013)
    .ARM.Collect$$_printf_percent$$00000014  0x080002da   Section        6  _printf_s.o(.ARM.Collect$$_printf_percent$$00000014)
    .ARM.Collect$$_printf_percent$$00000015  0x080002e0   Section        6  _printf_lc.o(.ARM.Collect$$_printf_percent$$00000015)
    .ARM.Collect$$_printf_percent$$00000016  0x080002e6   Section        6  _printf_ls.o(.ARM.Collect$$_printf_percent$$00000016)
    .ARM.Collect$$_printf_percent$$00000017  0x080002ec   Section        4  _printf_percent_end.o(.ARM.Collect$$_printf_percent$$00000017)
    .ARM.Collect$$libinit$$00000000          0x080002f0   Section        2  libinit.o(.ARM.Collect$$libinit$$00000000)
    .ARM.Collect$$libinit$$00000001          0x080002f2   Section        4  libinit2.o(.ARM.Collect$$libinit$$00000001)
    .ARM.Collect$$libinit$$00000004          0x080002f6   Section        0  libinit2.o(.ARM.Collect$$libinit$$00000004)
    .ARM.Collect$$libinit$$0000000A          0x080002f6   Section        0  libinit2.o(.ARM.Collect$$libinit$$0000000A)
    .ARM.Collect$$libinit$$0000000C          0x080002f6   Section        0  libinit2.o(.ARM.Collect$$libinit$$0000000C)
    .ARM.Collect$$libinit$$0000000E          0x080002f6   Section        0  libinit2.o(.ARM.Collect$$libinit$$0000000E)
    .ARM.Collect$$libinit$$0000000F          0x080002f6   Section        6  libinit2.o(.ARM.Collect$$libinit$$0000000F)
    .ARM.Collect$$libinit$$00000010          0x080002fc   Section       10  libinit2.o(.ARM.Collect$$libinit$$00000010)
    .ARM.Collect$$libinit$$00000011          0x08000306   Section        0  libinit2.o(.ARM.Collect$$libinit$$00000011)
    .ARM.Collect$$libinit$$00000012          0x08000306   Section       12  libinit2.o(.ARM.Collect$$libinit$$00000012)
    .ARM.Collect$$libinit$$00000013          0x08000312   Section        0  libinit2.o(.ARM.Collect$$libinit$$00000013)
    .ARM.Collect$$libinit$$00000014          0x08000312   Section       10  libinit2.o(.ARM.Collect$$libinit$$00000014)
    .ARM.Collect$$libinit$$00000015          0x0800031c   Section        0  libinit2.o(.ARM.Collect$$libinit$$00000015)
    .ARM.Collect$$libinit$$00000016          0x0800031c   Section       10  libinit2.o(.ARM.Collect$$libinit$$00000016)
    .ARM.Collect$$libinit$$00000017          0x08000326   Section        0  libinit2.o(.ARM.Collect$$libinit$$00000017)
    .ARM.Collect$$libinit$$00000019          0x08000326   Section        0  libinit2.o(.ARM.Collect$$libinit$$00000019)
    .ARM.Collect$$libinit$$0000001B          0x08000326   Section        0  libinit2.o(.ARM.Collect$$libinit$$0000001B)
    .ARM.Collect$$libinit$$0000001D          0x08000326   Section        0  libinit2.o(.ARM.Collect$$libinit$$0000001D)
    .ARM.Collect$$libinit$$0000001F          0x08000326   Section        0  libinit2.o(.ARM.Collect$$libinit$$0000001F)
    .ARM.Collect$$libinit$$00000021          0x08000326   Section        0  libinit2.o(.ARM.Collect$$libinit$$00000021)
    .ARM.Collect$$libinit$$00000023          0x08000326   Section        0  libinit2.o(.ARM.Collect$$libinit$$00000023)
    .ARM.Collect$$libinit$$00000024          0x08000326   Section        4  libinit2.o(.ARM.Collect$$libinit$$00000024)
    .ARM.Collect$$libinit$$00000025          0x0800032a   Section        0  libinit2.o(.ARM.Collect$$libinit$$00000025)
    .ARM.Collect$$libinit$$0000002C          0x0800032a   Section        0  libinit2.o(.ARM.Collect$$libinit$$0000002C)
    .ARM.Collect$$libinit$$0000002E          0x0800032a   Section        0  libinit2.o(.ARM.Collect$$libinit$$0000002E)
    .ARM.Collect$$libinit$$00000030          0x0800032a   Section        0  libinit2.o(.ARM.Collect$$libinit$$00000030)
    .ARM.Collect$$libinit$$00000032          0x0800032a   Section        0  libinit2.o(.ARM.Collect$$libinit$$00000032)
    .ARM.Collect$$libinit$$00000033          0x0800032a   Section        2  libinit2.o(.ARM.Collect$$libinit$$00000033)
    .ARM.Collect$$libshutdown$$00000000      0x0800032c   Section        2  libshutdown.o(.ARM.Collect$$libshutdown$$00000000)
    .ARM.Collect$$libshutdown$$00000002      0x0800032e   Section        0  libshutdown2.o(.ARM.Collect$$libshutdown$$00000002)
    .ARM.Collect$$libshutdown$$00000003      0x0800032e   Section        4  libshutdown2.o(.ARM.Collect$$libshutdown$$00000003)
    .ARM.Collect$$libshutdown$$00000004      0x08000332   Section        0  libshutdown2.o(.ARM.Collect$$libshutdown$$00000004)
    .ARM.Collect$$libshutdown$$00000007      0x08000332   Section        0  libshutdown2.o(.ARM.Collect$$libshutdown$$00000007)
    .ARM.Collect$$libshutdown$$0000000A      0x08000332   Section        0  libshutdown2.o(.ARM.Collect$$libshutdown$$0000000A)
    .ARM.Collect$$libshutdown$$0000000C      0x08000332   Section        0  libshutdown2.o(.ARM.Collect$$libshutdown$$0000000C)
    .ARM.Collect$$libshutdown$$0000000F      0x08000332   Section        0  libshutdown2.o(.ARM.Collect$$libshutdown$$0000000F)
    .ARM.Collect$$libshutdown$$00000010      0x08000332   Section        2  libshutdown2.o(.ARM.Collect$$libshutdown$$00000010)
    .ARM.Collect$$rtentry$$00000000          0x08000334   Section        0  __rtentry.o(.ARM.Collect$$rtentry$$00000000)
    .ARM.Collect$$rtentry$$00000002          0x08000334   Section        0  __rtentry2.o(.ARM.Collect$$rtentry$$00000002)
    .ARM.Collect$$rtentry$$00000004          0x08000334   Section        6  __rtentry4.o(.ARM.Collect$$rtentry$$00000004)
    .ARM.Collect$$rtentry$$00000009          0x0800033a   Section        0  __rtentry2.o(.ARM.Collect$$rtentry$$00000009)
    .ARM.Collect$$rtentry$$0000000A          0x0800033a   Section        4  __rtentry2.o(.ARM.Collect$$rtentry$$0000000A)
    .ARM.Collect$$rtentry$$0000000C          0x0800033e   Section        0  __rtentry2.o(.ARM.Collect$$rtentry$$0000000C)
    .ARM.Collect$$rtentry$$0000000D          0x0800033e   Section        8  __rtentry2.o(.ARM.Collect$$rtentry$$0000000D)
    .ARM.Collect$$rtexit$$00000000           0x08000346   Section        2  rtexit.o(.ARM.Collect$$rtexit$$00000000)
    .ARM.Collect$$rtexit$$00000002           0x08000348   Section        0  rtexit2.o(.ARM.Collect$$rtexit$$00000002)
    .ARM.Collect$$rtexit$$00000003           0x08000348   Section        4  rtexit2.o(.ARM.Collect$$rtexit$$00000003)
    .ARM.Collect$$rtexit$$00000004           0x0800034c   Section        6  rtexit2.o(.ARM.Collect$$rtexit$$00000004)
    [Anonymous Symbol]                       0x08000354   Section        0  main.o(.text)
    start_task                               0x080003ad   Thumb Code   348  main.o(.text)
    touch_task                               0x08000509   Thumb Code    12  main.o(.text)
    EMWIN_task                               0x08000515   Thumb Code    60  main.o(.text)
    Sys_Tick_Task                            0x08000551   Thumb Code    26  main.o(.text)
    Fresh_Task                               0x0800056b   Thumb Code    16  main.o(.text)
    Key_Task                                 0x0800057b   Thumb Code    36  main.o(.text)
    Lua_Task                                 0x080005a1   Thumb Code   280  main.o(.text)
    [Anonymous Symbol]                       0x080006b8   Section        0  emwin_main.o(.text)
    _cbBKWindow                              0x080008e9   Thumb Code   872  emwin_main.o(.text)
    debug_window_clear                       0x08000c51   Thumb Code     4  emwin_main.o(.text)
    volume_add                               0x08000c55   Thumb Code    38  emwin_main.o(.text)
    volume_sub                               0x08000c7b   Thumb Code    38  emwin_main.o(.text)
    save_change                              0x08000ca1   Thumb Code     4  emwin_main.o(.text)
    Wifi_Link_Test                           0x08000ca5   Thumb Code     4  emwin_main.o(.text)
    direction_set                            0x08000ca9   Thumb Code    40  emwin_main.o(.text)
    [Anonymous Symbol]                       0x08000cd0   Section        0  hw_touch.o(.text)
    [Anonymous Symbol]                       0x08001224   Section        0  hw_spiflash.o(.text)
    sFLASH_WriteEnable                       0x0800126d   Thumb Code    66  hw_spiflash.o(.text)
    sFLASH_WaitForWriteEnd                   0x080012af   Thumb Code    88  hw_spiflash.o(.text)
    sFLASH_WriteBuffer_NoCheck               0x080014e7   Thumb Code   180  hw_spiflash.o(.text)
    sFLASH_WritePage                         0x0800176d   Thumb Code   176  hw_spiflash.o(.text)
    [Anonymous Symbol]                       0x0800181c   Section        0  hw_sdram.o(.text)
    [Anonymous Symbol]                       0x08001ba8   Section        0  hw_sdio_sd.o(.text)
    [Anonymous Symbol]                       0x08001d9c   Section        0  hw_led.o(.text)
    [Anonymous Symbol]                       0x08001e18   Section        0  hw_lcd.o(.text)
    [Anonymous Symbol]                       0x080020bc   Section        0  hw_key.o(.text)
    [Anonymous Symbol]                       0x080021b0   Section        0  hw_cpu_temp.o(.text)
    [Anonymous Symbol]                       0x080022f8   Section        0  hw_time.o(.text)
    DS3231_Read_Byte                         0x08002521   Thumb Code   174  hw_time.o(.text)
    DS3231_Write_Byte                        0x080026af   Thumb Code   138  hw_time.o(.text)
    [Anonymous Symbol]                       0x08002744   Section        0  hw_music.o(.text)
    WM8978_Write_Reg                         0x08002801   Thumb Code   130  hw_music.o(.text)
    [Anonymous Symbol]                       0x08002e20   Section        0  hw_voice_discern.o(.text)
    LD_Check_ASRBusyFlag_b2                  0x080032db   Thumb Code    44  hw_voice_discern.o(.text)
    [Anonymous Symbol]                       0x08003308   Section        0  hw_sport_ctrl.o(.text)
    [Anonymous Symbol]                       0x080035a0   Section        0  hw_get_location.o(.text)
    [Anonymous Symbol]                       0x0800379c   Section        0  hw_wifi.o(.text)
    [Anonymous Symbol]                       0x08003aa0   Section        0  hw_fingerprint.o(.text)
    [Anonymous Symbol]                       0x08003b64   Section        0  cpu_utils.o(.text)
    [Anonymous Symbol]                       0x08003c40   Section        0  iic_software.o(.text)
    [Anonymous Symbol]                       0x08003f40   Section        0  cjson.o(.text)
    parse_value                              0x080041d1   Thumb Code   848  cjson.o(.text)
    buffer_skip_whitespace                   0x08004521   Thumb Code    46  cjson.o(.text)
    print                                    0x0800455b   Thumb Code   166  cjson.o(.text)
    print_value                              0x0800465d   Thumb Code   868  cjson.o(.text)
    get_object_item                          0x08004a51   Thumb Code   150  cjson.o(.text)
    add_item_to_object                       0x08004b1b   Thumb Code   134  cjson.o(.text)
    replace_item_in_object                   0x080052bd   Thumb Code   110  cjson.o(.text)
    parse_string                             0x08005a4d   Thumb Code   506  cjson.o(.text)
    parse_hex4                               0x08005c47   Thumb Code    80  cjson.o(.text)
    ensure                                   0x08005c97   Thumb Code   144  cjson.o(.text)
    print_string_ptr                         0x08005d29   Thumb Code   308  cjson.o(.text)
    [Anonymous Symbol]                       0x08005e5c   Section        0  lua_extra_lib.o(.text)
    Lua_Led_Ctrl                             0x08005e8d   Thumb Code    32  lua_extra_lib.o(.text)
    Lua_Sleep                                0x08005ead   Thumb Code    12  lua_extra_lib.o(.text)
    Lua_Delay                                0x08005eb9   Thumb Code    16  lua_extra_lib.o(.text)
    Lua_Check_Key                            0x08005ec9   Thumb Code    92  lua_extra_lib.o(.text)
    Lua_Music_Play                           0x08005f25   Thumb Code    16  lua_extra_lib.o(.text)
    Lua_Musci_Start                          0x08005f35   Thumb Code    20  lua_extra_lib.o(.text)
    Lua_Musci_Stop                           0x08005f49   Thumb Code    20  lua_extra_lib.o(.text)
    Lua_Musci_Wait_End                       0x08005f5d   Thumb Code    32  lua_extra_lib.o(.text)
    Lua_Volume                               0x08005f7d   Thumb Code    44  lua_extra_lib.o(.text)
    [Anonymous Symbol]                       0x08005fa8   Section        0  flash_burn.o(.text)
    [Anonymous Symbol]                       0x08006380   Section        0  setting_save.o(.text)
    [Anonymous Symbol]                       0x080070b8   Section        0  music_play.o(.text)
    Empty_start_Or_play                      0x080071f9   Thumb Code     2  music_play.o(.text)
    [Anonymous Symbol]                       0x080072f0   Section        0  wav_play.o(.text)
    wav_put_buf0                             0x08007575   Thumb Code    50  wav_play.o(.text)
    wav_put_buf1                             0x080075a7   Thumb Code    50  wav_play.o(.text)
    wav_play_start                           0x080075d9   Thumb Code    54  wav_play.o(.text)
    wav_play_stop                            0x0800760f   Thumb Code    70  wav_play.o(.text)
    WAV_MUSIC_TASK                           0x08007695   Thumb Code   124  wav_play.o(.text)
    wav_buffill                              0x08007711   Thumb Code   130  wav_play.o(.text)
    [Anonymous Symbol]                       0x08007794   Section        0  sport_ctrl.o(.text)
    Sport_Ctrl_Send_Task                     0x08007e51   Thumb Code   174  sport_ctrl.o(.text)
    Sport_Ctrl_Recieve_Task                  0x08007f01   Thumb Code   292  sport_ctrl.o(.text)
    [Anonymous Symbol]                       0x08008024   Section        0  visual_debug.o(.text)
    Message_Process                          0x080082b1   Thumb Code   154  visual_debug.o(.text)
    [Anonymous Symbol]                       0x0800834c   Section        0  voice_recognition.o(.text)
    Set_Default_Trigger                      0x0800859d   Thumb Code   112  voice_recognition.o(.text)
    Voice_Task                               0x0800860d   Thumb Code   196  voice_recognition.o(.text)
    use_voice_func                           0x080086b4   Number         0  voice_recognition.o(.text)
    voice_trigger                            0x080086d1   Thumb Code   140  voice_recognition.o(.text)
    voice_play_music                         0x0800875d   Thumb Code   160  voice_recognition.o(.text)
    run_direct                               0x080087fd   Thumb Code    40  voice_recognition.o(.text)
    run_turn                                 0x08008825   Thumb Code    40  voice_recognition.o(.text)
    [Anonymous Symbol]                       0x08008850   Section        0  get_location.o(.text)
    UWB_Recive_Task                          0x08008a71   Thumb Code   424  get_location.o(.text)
    [Anonymous Symbol]                       0x08008c18   Section        0  win_get_location.o(.text)
    _cbDialog                                0x08008c71   Thumb Code  1104  win_get_location.o(.text)
    [Anonymous Symbol]                       0x080090c0   Section        0  trilateration.o(.text)
    [Anonymous Symbol]                       0x0800b548   Section        0  wifi_process.o(.text)
    check_end                                0x0800b5d0   Number         0  wifi_process.o(.text)
    Wifi_Send_Message                        0x0800b731   Thumb Code    82  wifi_process.o(.text)
    Wifi_Error_CallBack                      0x0800b909   Thumb Code   144  wifi_process.o(.text)
    WIFI_Process_Task                        0x0800b999   Thumb Code   464  wifi_process.o(.text)
    WIFI_ESP8266_Init                        0x0800bb69   Thumb Code   316  wifi_process.o(.text)
    Wifi_Send_Cmd                            0x0800bca5   Thumb Code    88  wifi_process.o(.text)
    Wifi_Printf                              0x0800bcfd   Thumb Code    54  wifi_process.o(.text)
    [Anonymous Symbol]                       0x0800bd34   Section        0  stm32f4xx_sys.o(.text)
    [Anonymous Symbol]                       0x0800c168   Section        0  clib_redef.o(.text)
    $v0                                      0x0800c498   Number         0  startup_stm32f429xx.o(.text)
    .text                                    0x0800c498   Section       64  startup_stm32f429xx.o(.text)
    [Anonymous Symbol]                       0x0800c4d8   Section        0  system_stm32f4xx.o(.text)
    [Anonymous Symbol]                       0x0800c570   Section        0  list.o(.text)
    [Anonymous Symbol]                       0x0800c608   Section        0  queue.o(.text)
    prvCopyDataToQueue                       0x0800ccef   Thumb Code   120  queue.o(.text)
    prvNotifyQueueSetContainer               0x0800cd67   Thumb Code   158  queue.o(.text)
    prvUnlockQueue                           0x0800ce05   Thumb Code   126  queue.o(.text)
    [Anonymous Symbol]                       0x0800d77c   Section        0  tasks.o(.text)
    prvInitialiseNewTask                     0x0800d81d   Thumb Code   154  tasks.o(.text)
    prvAddNewTaskToReadyList                 0x0800d8b7   Thumb Code   284  tasks.o(.text)
    prvDeleteTCB                             0x0800db47   Thumb Code    64  tasks.o(.text)
    prvAddCurrentTaskToDelayedList           0x0800dc4b   Thumb Code   160  tasks.o(.text)
    __tagsym$$used.0                         0x0800e15e   Number         0  tasks.o(.text)
    prvIdleTask                              0x0800e421   Thumb Code   112  tasks.o(.text)
    prvListTasksWithinSingleList             0x0800e75d   Thumb Code    86  tasks.o(.text)
    [Anonymous Symbol]                       0x0800f4f8   Section        0  timers.o(.text)
    prvCheckForValidListAndQueue             0x0800f575   Thumb Code   124  timers.o(.text)
    prvTimerTask                             0x0800f5f1   Thumb Code   512  timers.o(.text)
    prvInitialiseNewTimer                    0x0800f829   Thumb Code    92  timers.o(.text)
    prvSampleTimeNow                         0x0800fb81   Thumb Code   196  timers.o(.text)
    prvInsertTimerInActiveList               0x0800fc45   Thumb Code    64  timers.o(.text)
    [Anonymous Symbol]                       0x0800fc90   Section        0  port.o(.text)
    prvTaskExitError                         0x0800fcb9   Thumb Code    70  port.o(.text)
    pxCurrentTCBConst2                       0x0800fd20   Number         0  port.o(.text)
    vPortEnableVFP                           0x0800fe9b   Thumb Code    18  port.o(.text)
    prvPortStartFirstTask                    0x0800fead   Thumb Code    40  port.o(.text)
    pxCurrentTCBConst                        0x0800ffe0   Number         0  port.o(.text)
    [Anonymous Symbol]                       0x08010088   Section        0  heap_5.o(.text)
    prvInsertBlockIntoFreeList               0x0801019b   Thumb Code    84  heap_5.o(.text)
    [Anonymous Symbol]                       0x08010628   Section        0  diskio.o(.text)
    [Anonymous Symbol]                       0x08010778   Section        0  ff.o(.text)
    get_ldnumber                             0x080107ff   Thumb Code    74  ff.o(.text)
    mount_volume                             0x08010849   Thumb Code   900  ff.o(.text)
    follow_path                              0x08010eff   Thumb Code   902  ff.o(.text)
    dir_register                             0x08011285   Thumb Code  1048  ff.o(.text)
    init_alloc_info                          0x0801169d   Thumb Code    38  ff.o(.text)
    store_xdir                               0x080116c3   Thumb Code   132  ff.o(.text)
    remove_chain                             0x08011747   Thumb Code   276  ff.o(.text)
    move_window                              0x0801185b   Thumb Code    54  ff.o(.text)
    get_fat                                  0x08011891   Thumb Code   374  ff.o(.text)
    validate                                 0x08011bf1   Thumb Code    72  ff.o(.text)
    clmt_clust                               0x08011c39   Thumb Code    56  ff.o(.text)
    create_chain                             0x08011ee7   Thumb Code   576  ff.o(.text)
    fill_first_frag                          0x080122ff   Thumb Code    50  ff.o(.text)
    fill_last_frag                           0x08012331   Thumb Code    50  ff.o(.text)
    load_obj_xdir                            0x08012363   Thumb Code    52  ff.o(.text)
    sync_fs                                  0x08012397   Thumb Code   128  ff.o(.text)
    dir_sdi                                  0x0801291b   Thumb Code   170  ff.o(.text)
    dir_read                                 0x08012a77   Thumb Code   352  ff.o(.text)
    get_fileinfo                             0x08012bd7   Thumb Code   494  ff.o(.text)
    dir_next                                 0x08012dc5   Thumb Code   234  ff.o(.text)
    pattern_match                            0x08012ee5   Thumb Code   192  ff.o(.text)
    dir_remove                               0x08013413   Thumb Code    88  ff.o(.text)
    dir_clear                                0x08013657   Thumb Code   202  ff.o(.text)
    put_utf                                  0x08013a69   Thumb Code    50  ff.o(.text)
    tchar2uni                                0x08013c8d   Thumb Code    72  ff.o(.text)
    dir_alloc                                0x08013cd5   Thumb Code   100  ff.o(.text)
    f_mkfs.defopt                            0x08014b84   Number         0  ff.o(.text)
    putc_bfd                                 0x08014c15   Thumb Code    58  ff.o(.text)
    putc_flush                               0x08014c4f   Thumb Code    46  ff.o(.text)
    ld_qword                                 0x08014f1b   Thumb Code    32  ff.o(.text)
    check_fs                                 0x08014f3b   Thumb Code   254  ff.o(.text)
    dir_find                                 0x08015039   Thumb Code   508  ff.o(.text)
    xname_sum                                0x08015235   Thumb Code    58  ff.o(.text)
    put_fat                                  0x0801526f   Thumb Code   250  ff.o(.text)
    change_bitmap                            0x08015369   Thumb Code   154  ff.o(.text)
    sync_window                              0x08015403   Thumb Code    68  ff.o(.text)
    load_xdir                                0x08015447   Thumb Code   306  ff.o(.text)
    get_achar                                0x08015579   Thumb Code    68  ff.o(.text)
    [Anonymous Symbol]                       0x080155bc   Section        0  ffsystem.o(.text)
    [Anonymous Symbol]                       0x08015630   Section        0  ffunicode.o(.text)
    [Anonymous Symbol]                       0x08015820   Section        0  fatfs.o(.text)
    stringmatchlen                           0x08015ec9   Thumb Code   328  fatfs.o(.text)
    [Anonymous Symbol]                       0x08016010   Section        0  stm32f4xx_hal.o(.text)
    [Anonymous Symbol]                       0x080161d8   Section        0  stm32f4xx_hal_adc.o(.text)
    ADC_DMAConvCplt                          0x08016753   Thumb Code    22  stm32f4xx_hal_adc.o(.text)
    ADC_DMAHalfConvCplt                      0x08016769   Thumb Code     6  stm32f4xx_hal_adc.o(.text)
    ADC_DMAError                             0x0801676f   Thumb Code    20  stm32f4xx_hal_adc.o(.text)
    [Anonymous Symbol]                       0x08016930   Section        0  stm32f4xx_hal_adc_ex.o(.text)
    ADC_MultiModeDMAConvCplt                 0x08016c0b   Thumb Code    22  stm32f4xx_hal_adc_ex.o(.text)
    ADC_MultiModeDMAHalfConvCplt             0x08016c21   Thumb Code     6  stm32f4xx_hal_adc_ex.o(.text)
    ADC_MultiModeDMAError                    0x08016c27   Thumb Code    20  stm32f4xx_hal_adc_ex.o(.text)
    [Anonymous Symbol]                       0x08016e4c   Section        0  stm32f4xx_hal_cortex.o(.text)
    __NVIC_SystemReset                       0x08016f0b   Thumb Code    38  stm32f4xx_hal_cortex.o(.text)
    [Anonymous Symbol]                       0x080170cc   Section        0  stm32f4xx_hal_dma.o(.text)
    [Anonymous Symbol]                       0x0801760c   Section        0  stm32f4xx_hal_dma_ex.o(.text)
    [Anonymous Symbol]                       0x08017750   Section        0  stm32f4xx_hal_dma2d.o(.text)
    DMA2D_SetConfig                          0x08017809   Thumb Code   148  stm32f4xx_hal_dma2d.o(.text)
    [Anonymous Symbol]                       0x08017d40   Section        0  stm32f4xx_hal_gpio.o(.text)
    [Anonymous Symbol]                       0x08018034   Section        0  stm32f4xx_hal_ltdc.o(.text)
    LTDC_SetConfig                           0x08018263   Thumb Code   288  stm32f4xx_hal_ltdc.o(.text)
    [Anonymous Symbol]                       0x08018780   Section        0  stm32f4xx_hal_pwr_ex.o(.text)
    [Anonymous Symbol]                       0x08018a48   Section        0  stm32f4xx_hal_rcc.o(.text)
    [Anonymous Symbol]                       0x080191b8   Section        0  stm32f4xx_hal_rcc_ex.o(.text)
    [Anonymous Symbol]                       0x080194a4   Section        0  stm32f4xx_hal_sai.o(.text)
    SAI_Disable                              0x080196e9   Thumb Code    66  stm32f4xx_hal_sai.o(.text)
    SAI_FillFifo                             0x0801985d   Thumb Code   106  stm32f4xx_hal_sai.o(.text)
    SAI_Transmit_IT8Bit                      0x08019a45   Thumb Code    62  stm32f4xx_hal_sai.o(.text)
    SAI_Transmit_IT16Bit                     0x08019a83   Thumb Code    62  stm32f4xx_hal_sai.o(.text)
    SAI_Transmit_IT32Bit                     0x08019ac1   Thumb Code    62  stm32f4xx_hal_sai.o(.text)
    SAI_Receive_IT8Bit                       0x08019b8b   Thumb Code    66  stm32f4xx_hal_sai.o(.text)
    SAI_Receive_IT16Bit                      0x08019bcd   Thumb Code    64  stm32f4xx_hal_sai.o(.text)
    SAI_Receive_IT32Bit                      0x08019c0d   Thumb Code    64  stm32f4xx_hal_sai.o(.text)
    SAI_DMATxHalfCplt                        0x08019dc9   Thumb Code     6  stm32f4xx_hal_sai.o(.text)
    SAI_DMATxCplt                            0x08019dcf   Thumb Code   132  stm32f4xx_hal_sai.o(.text)
    SAI_DMAError                             0x08019e53   Thumb Code    30  stm32f4xx_hal_sai.o(.text)
    SAI_DMARxHalfCplt                        0x08019f0f   Thumb Code     6  stm32f4xx_hal_sai.o(.text)
    SAI_DMARxCplt                            0x08019f15   Thumb Code    64  stm32f4xx_hal_sai.o(.text)
    [Anonymous Symbol]                       0x0801a090   Section        0  stm32f4xx_hal_sai_ex.o(.text)
    [Anonymous Symbol]                       0x0801a168   Section        0  stm32f4xx_hal_sd.o(.text)
    SD_CmdResp1Error                         0x0801a955   Thumb Code   234  stm32f4xx_hal_sd.o(.text)
    SD_IsCardProgramming                     0x0801acd3   Thumb Code   324  stm32f4xx_hal_sd.o(.text)
    SD_DMA_RxCplt                            0x0801af01   Thumb Code    28  stm32f4xx_hal_sd.o(.text)
    SD_DMA_RxError                           0x0801af1d   Thumb Code     8  stm32f4xx_hal_sd.o(.text)
    SD_DMA_TxCplt                            0x0801b019   Thumb Code    28  stm32f4xx_hal_sd.o(.text)
    SD_DMA_TxError                           0x0801b035   Thumb Code     8  stm32f4xx_hal_sd.o(.text)
    SD_FindSCR                               0x0801b53f   Thumb Code   286  stm32f4xx_hal_sd.o(.text)
    [Anonymous Symbol]                       0x0801b80c   Section        0  stm32f4xx_hal_sdram.o(.text)
    [Anonymous Symbol]                       0x0801bbc0   Section        0  stm32f4xx_hal_spi.o(.text)
    SPI_WaitOnFlagUntilTimeout               0x0801bdd1   Thumb Code   164  stm32f4xx_hal_spi.o(.text)
    SPI_TxISR                                0x0801c389   Thumb Code   212  stm32f4xx_hal_spi.o(.text)
    SPI_RxISR                                0x0801c517   Thumb Code    62  stm32f4xx_hal_spi.o(.text)
    SPI_2LinesRxISR                          0x0801c61f   Thumb Code    40  stm32f4xx_hal_spi.o(.text)
    SPI_DMAHalfTransmitCplt                  0x0801c709   Thumb Code     6  stm32f4xx_hal_spi.o(.text)
    SPI_DMATransmitCplt                      0x0801c70f   Thumb Code   126  stm32f4xx_hal_spi.o(.text)
    SPI_DMAError                             0x0801c78d   Thumb Code    26  stm32f4xx_hal_spi.o(.text)
    SPI_DMAHalfReceiveCplt                   0x0801c99f   Thumb Code     6  stm32f4xx_hal_spi.o(.text)
    SPI_DMAReceiveCplt                       0x0801c9a5   Thumb Code   194  stm32f4xx_hal_spi.o(.text)
    SPI_DMAHalfTransmitReceiveCplt           0x0801ca67   Thumb Code     6  stm32f4xx_hal_spi.o(.text)
    SPI_DMATransmitReceiveCplt               0x0801ca6d   Thumb Code    48  stm32f4xx_hal_spi.o(.text)
    SPI_RxCloseIRQHandler                    0x0801cbf3   Thumb Code   206  stm32f4xx_hal_spi.o(.text)
    SPI_DMAEndTransmitReceive                0x0801ccc1   Thumb Code   156  stm32f4xx_hal_spi.o(.text)
    [Anonymous Symbol]                       0x0801cd5c   Section        0  stm32f4xx_hal_tim.o(.text)
    TIM_DMAPeriodElapsedCplt                 0x0801cfd1   Thumb Code    12  stm32f4xx_hal_tim.o(.text)
    TIM_OC1_SetConfig                        0x0801e3f7   Thumb Code    92  stm32f4xx_hal_tim.o(.text)
    TIM_OC3_SetConfig                        0x0801e4b7   Thumb Code   100  stm32f4xx_hal_tim.o(.text)
    TIM_OC4_SetConfig                        0x0801e51b   Thumb Code    78  stm32f4xx_hal_tim.o(.text)
    TIM_DMATriggerCplt                       0x0801e99f   Thumb Code    12  stm32f4xx_hal_tim.o(.text)
    TIM_SlaveTimer_SetConfig                 0x0801ee75   Thumb Code   178  stm32f4xx_hal_tim.o(.text)
    [Anonymous Symbol]                       0x0801efd8   Section        0  stm32f4xx_hal_tim_ex.o(.text)
    [Anonymous Symbol]                       0x0801fb60   Section        0  stm32f4xx_hal_uart.o(.text)
    UART_SetConfig                           0x0801fbbb   Thumb Code   312  stm32f4xx_hal_uart.o(.text)
    UART_WaitOnFlagUntilTimeout              0x0801ff15   Thumb Code   114  stm32f4xx_hal_uart.o(.text)
    UART_DMATransmitCplt                     0x08020167   Thumb Code    38  stm32f4xx_hal_uart.o(.text)
    UART_DMATxHalfCplt                       0x0802018d   Thumb Code     6  stm32f4xx_hal_uart.o(.text)
    UART_DMAError                            0x08020193   Thumb Code    26  stm32f4xx_hal_uart.o(.text)
    UART_DMAReceiveCplt                      0x0802022d   Thumb Code    48  stm32f4xx_hal_uart.o(.text)
    UART_DMARxHalfCplt                       0x0802025d   Thumb Code     6  stm32f4xx_hal_uart.o(.text)
    [Anonymous Symbol]                       0x0802060c   Section        0  stm32f4xx_ll_fmc.o(.text)
    [Anonymous Symbol]                       0x08020b98   Section        0  stm32f4xx_ll_sdmmc.o(.text)
    [Anonymous Symbol]                       0x08020c7c   Section        0  lapi.o(.text)
    index2value                              0x08020edb   Thumb Code   102  lapi.o(.text)
    auxgetstr                                0x080214bf   Thumb Code   106  lapi.o(.text)
    auxsetstr                                0x0802179f   Thumb Code   154  lapi.o(.text)
    aux_rawset                               0x0802195f   Thumb Code   100  lapi.o(.text)
    f_call                                   0x08021bd9   Thumb Code    10  lapi.o(.text)
    aux_upvalue                              0x08021fad   Thumb Code   136  lapi.o(.text)
    [Anonymous Symbol]                       0x08022164   Section        0  lauxlib.o(.text)
    pushglobalfuncname                       0x080225b5   Thumb Code   160  lauxlib.o(.text)
    prepbuffsize                             0x08022b81   Thumb Code   216  lauxlib.o(.text)
    errfile                                  0x08022e91   Thumb Code    96  lauxlib.o(.text)
    skipcomment                              0x08022ef1   Thumb Code   112  lauxlib.o(.text)
    getF                                     0x08022f61   Thumb Code    56  lauxlib.o(.text)
    getS                                     0x08022fbb   Thumb Code    18  lauxlib.o(.text)
    l_alloc                                  0x0802345d   Thumb Code    20  lauxlib.o(.text)
    panic                                    0x08023471   Thumb Code   132  lauxlib.o(.text)
    warnfoff                                 0x080234f5   Thumb Code     2  lauxlib.o(.text)
    findfield                                0x080235cd   Thumb Code   172  lauxlib.o(.text)
    resizebox                                0x08023679   Thumb Code    88  lauxlib.o(.text)
    boxgc                                    0x080236d1   Thumb Code    14  lauxlib.o(.text)
    checkcontrol                             0x080236e1   Thumb Code    80  lauxlib.o(.text)
    warnfon                                  0x08023731   Thumb Code    72  lauxlib.o(.text)
    warnfcont                                0x08023779   Thumb Code    88  lauxlib.o(.text)
    [Anonymous Symbol]                       0x080237d0   Section        0  lbaselib.o(.text)
    luaB_assert                              0x08023835   Thumb Code    96  lbaselib.o(.text)
    luaB_collectgarbage                      0x08023895   Thumb Code   348  lbaselib.o(.text)
    luaB_collectgarbage.optsnum              0x080239c4   Number         0  lbaselib.o(.text)
    luaB_dofile                              0x080239f1   Thumb Code    86  lbaselib.o(.text)
    luaB_error                               0x08023a47   Thumb Code    72  lbaselib.o(.text)
    luaB_getmetatable                        0x08023a8f   Thumb Code    48  lbaselib.o(.text)
    luaB_ipairs                              0x08023abf   Thumb Code    46  lbaselib.o(.text)
    luaB_loadfile                            0x08023aed   Thumb Code    72  lbaselib.o(.text)
    luaB_load                                0x08023b35   Thumb Code   156  lbaselib.o(.text)
    luaB_next                                0x08023bd1   Thumb Code    44  lbaselib.o(.text)
    luaB_pairs                               0x08023bfd   Thumb Code   100  lbaselib.o(.text)
    luaB_pcall                               0x08023c61   Thumb Code    80  lbaselib.o(.text)
    luaB_print                               0x08023cb1   Thumb Code   114  lbaselib.o(.text)
    luaB_warn                                0x08023d23   Thumb Code   100  lbaselib.o(.text)
    luaB_rawequal                            0x08023d87   Thumb Code    40  lbaselib.o(.text)
    luaB_rawlen                              0x08023db1   Thumb Code    64  lbaselib.o(.text)
    luaB_rawget                              0x08023df1   Thumb Code    40  lbaselib.o(.text)
    luaB_rawset                              0x08023e19   Thumb Code    48  lbaselib.o(.text)
    luaB_select                              0x08023e49   Thumb Code   112  lbaselib.o(.text)
    luaB_setmetatable                        0x08023eb9   Thumb Code   140  lbaselib.o(.text)
    luaB_tonumber                            0x08023f45   Thumb Code   328  lbaselib.o(.text)
    luaB_tostring                            0x0802408d   Thumb Code    24  lbaselib.o(.text)
    luaB_type                                0x080240a5   Thumb Code    64  lbaselib.o(.text)
    luaB_xpcall                              0x080240e5   Thumb Code    90  lbaselib.o(.text)
    dofilecont                               0x0802413f   Thumb Code    10  lbaselib.o(.text)
    ipairsaux                                0x08024149   Thumb Code    42  lbaselib.o(.text)
    load_aux                                 0x08024173   Thumb Code    70  lbaselib.o(.text)
    generic_reader                           0x080241b9   Thumb Code   196  lbaselib.o(.text)
    finishpcall                              0x0802427d   Thumb Code    42  lbaselib.o(.text)
    [Anonymous Symbol]                       0x080242a8   Section        0  lcode.o(.text)
    tonumeral                                0x08024313   Thumb Code    46  lcode.o(.text)
    fixjump                                  0x08024429   Thumb Code    84  lcode.o(.text)
    patchlistaux                             0x080244c7   Thumb Code    90  lcode.o(.text)
    savelineinfo                             0x08024585   Thumb Code   172  lcode.o(.text)
    luaK_codek                               0x0802471f   Thumb Code    52  lcode.o(.text)
    freeregs                                 0x080248f7   Thumb Code    80  lcode.o(.text)
    exp2reg                                  0x08024991   Thumb Code   206  lcode.o(.text)
    luaK_exp2K                               0x08024ae9   Thumb Code   140  lcode.o(.text)
    jumponcond                               0x08024d89   Thumb Code   144  lcode.o(.text)
    constfolding                             0x08025095   Thumb Code   268  lcode.o(.text)
    isSCnumber                               0x0802524f   Thumb Code    76  lcode.o(.text)
    finishbinexpneg                          0x080256e5   Thumb Code    98  lcode.o(.text)
    codearith                                0x08025747   Thumb Code   166  lcode.o(.text)
    codeorder                                0x080257ed   Thumb Code   192  lcode.o(.text)
    removelastlineinfo                       0x080258c5   Thumb Code    46  lcode.o(.text)
    patchtestreg                             0x08025a37   Thumb Code   100  lcode.o(.text)
    addk                                     0x08025a9d   Thumb Code   236  lcode.o(.text)
    discharge2reg                            0x08025b89   Thumb Code   266  lcode.o(.text)
    need_value                               0x08025c93   Thumb Code    92  lcode.o(.text)
    discharge2anyreg                         0x08025cef   Thumb Code    48  lcode.o(.text)
    removevalues                             0x08025d1f   Thumb Code    56  lcode.o(.text)
    finishbinexpval                          0x08025d57   Thumb Code   156  lcode.o(.text)
    [Anonymous Symbol]                       0x08025df4   Section        0  lcorolib.o(.text)
    luaB_cocreate                            0x08025e25   Thumb Code    42  lcorolib.o(.text)
    luaB_coresume                            0x08025e4f   Thumb Code    74  lcorolib.o(.text)
    luaB_corunning                           0x08025e99   Thumb Code    20  lcorolib.o(.text)
    luaB_costatus                            0x08025ead   Thumb Code    38  lcorolib.o(.text)
    luaB_cowrap                              0x08025ed3   Thumb Code    28  lcorolib.o(.text)
    luaB_yield                               0x08025eef   Thumb Code    24  lcorolib.o(.text)
    luaB_yieldable                           0x08025f07   Thumb Code    38  lcorolib.o(.text)
    luaB_close                               0x08025f2d   Thumb Code   120  lcorolib.o(.text)
    getco                                    0x08025fa5   Thumb Code    36  lcorolib.o(.text)
    auxresume                                0x08025fc9   Thumb Code   172  lcorolib.o(.text)
    auxstatus                                0x08026075   Thumb Code    70  lcorolib.o(.text)
    luaB_auxwrap                             0x080260bb   Thumb Code   116  lcorolib.o(.text)
    [Anonymous Symbol]                       0x08026130   Section        0  ldblib.o(.text)
    db_debug                                 0x08026161   Thumb Code   264  ldblib.o(.text)
    db_getuservalue                          0x08026269   Thumb Code    66  ldblib.o(.text)
    db_gethook                               0x080262ad   Thumb Code   236  ldblib.o(.text)
    db_getinfo                               0x08026399   Thumb Code   768  ldblib.o(.text)
    db_getlocal                              0x08026699   Thumb Code   176  ldblib.o(.text)
    db_getregistry                           0x08026749   Thumb Code    18  ldblib.o(.text)
    db_getmetatable                          0x0802675b   Thumb Code    30  ldblib.o(.text)
    db_getupvalue                            0x08026779   Thumb Code     4  ldblib.o(.text)
    db_upvaluejoin                           0x0802677d   Thumb Code   104  ldblib.o(.text)
    db_upvalueid                             0x080267e5   Thumb Code    36  ldblib.o(.text)
    db_setuservalue                          0x08026809   Thumb Code    62  ldblib.o(.text)
    db_sethook                               0x08026849   Thumb Code   292  ldblib.o(.text)
    db_setlocal                              0x0802696d   Thumb Code   150  ldblib.o(.text)
    db_setmetatable                          0x08026a05   Thumb Code    64  ldblib.o(.text)
    db_setupvalue                            0x08026a45   Thumb Code    20  ldblib.o(.text)
    db_traceback                             0x08026a59   Thumb Code    94  ldblib.o(.text)
    db_setcstacklimit                        0x08026ab7   Thumb Code    30  ldblib.o(.text)
    getthread                                0x08026ad5   Thumb Code    40  ldblib.o(.text)
    hookf                                    0x08026afd   Thumb Code   120  ldblib.o(.text)
    hookf.hooknames                          0x08026b60   Number         0  ldblib.o(.text)
    checkstack                               0x08026b75   Thumb Code    52  ldblib.o(.text)
    treatstackoption                         0x08026ba9   Thumb Code    50  ldblib.o(.text)
    auxupvalue                               0x08026bdb   Thumb Code    72  ldblib.o(.text)
    checkupval                               0x08026c25   Thumb Code    88  ldblib.o(.text)
    [Anonymous Symbol]                       0x08026c7c   Section        0  ldebug.o(.text)
    varinfo                                  0x08027369   Thumb Code   176  ldebug.o(.text)
    getobjname                               0x0802772d   Thumb Code   656  ldebug.o(.text)
    gxf                                      0x080279bd   Thumb Code   100  ldebug.o(.text)
    [Anonymous Symbol]                       0x08027a20   Section        0  ldo.o(.text)
    ccall                                    0x08028195   Thumb Code    70  ldo.o(.text)
    resume                                   0x08028329   Thumb Code    96  ldo.o(.text)
    unroll                                   0x08028389   Thumb Code    60  ldo.o(.text)
    f_parser                                 0x08028555   Thumb Code   120  ldo.o(.text)
    finishCcall                              0x080285cd   Thumb Code    64  ldo.o(.text)
    checkmode                                0x0802860d   Thumb Code    88  ldo.o(.text)
    [Anonymous Symbol]                       0x08028664   Section        0  ldump.o(.text)
    dumpFunction                             0x08028795   Thumb Code   762  ldump.o(.text)
    dumpString                               0x08028a8f   Thumb Code    60  ldump.o(.text)
    dumpSize                                 0x08028acb   Thumb Code    72  ldump.o(.text)
    [Anonymous Symbol]                       0x08028b14   Section        0  lfunc.o(.text)
    newupval                                 0x08028bd1   Thumb Code    62  lfunc.o(.text)
    varerror                                 0x08028ca5   Thumb Code    44  lfunc.o(.text)
    trynewtbcupval                           0x08028cd1   Thumb Code    10  lfunc.o(.text)
    prepclosingmethod                        0x08028cdb   Thumb Code    64  lfunc.o(.text)
    callclose                                0x08028d1b   Thumb Code    10  lfunc.o(.text)
    [Anonymous Symbol]                       0x08028f74   Section        0  lgc.o(.text)
    reallymarkobject                         0x08028fbb   Thumb Code   138  lgc.o(.text)
    getgclist                                0x08029075   Thumb Code    60  lgc.o(.text)
    entergen                                 0x080291c3   Thumb Code    42  lgc.o(.text)
    enterinc                                 0x080291ed   Thumb Code    96  lgc.o(.text)
    separatetobefnz                          0x080292c3   Thumb Code    82  lgc.o(.text)
    singlestep                               0x08029341   Thumb Code   288  lgc.o(.text)
    sweeplist                                0x08029719   Thumb Code   104  lgc.o(.text)
    freeobj                                  0x08029781   Thumb Code   174  lgc.o(.text)
    atomic                                   0x0802982f   Thumb Code   394  lgc.o(.text)
    atomic2gen                               0x080299b9   Thumb Code   100  lgc.o(.text)
    markmt                                   0x08029a1d   Thumb Code    38  lgc.o(.text)
    convergeephemerons                       0x08029a43   Thumb Code    80  lgc.o(.text)
    clearbyvalues                            0x08029a93   Thumb Code   164  lgc.o(.text)
    markbeingfnz                             0x08029b37   Thumb Code    42  lgc.o(.text)
    clearbykeys                              0x08029b61   Thumb Code    98  lgc.o(.text)
    propagatemark                            0x08029bc5   Thumb Code  1104  lgc.o(.text)
    traverseephemeron                        0x0802a015   Thumb Code   320  lgc.o(.text)
    iscleared                                0x0802a155   Thumb Code    36  lgc.o(.text)
    genlink                                  0x0802a179   Thumb Code    48  lgc.o(.text)
    sweep2old                                0x0802a1a9   Thumb Code    90  lgc.o(.text)
    finishgencycle                           0x0802a203   Thumb Code    84  lgc.o(.text)
    checkSizes                               0x0802a257   Thumb Code    52  lgc.o(.text)
    correctgraylist                          0x0802a28b   Thumb Code    84  lgc.o(.text)
    GCTM                                     0x0802a2e1   Thumb Code   240  lgc.o(.text)
    dothecall                                0x0802a3d1   Thumb Code    10  lgc.o(.text)
    sweepstep                                0x0802a3db   Thumb Code    48  lgc.o(.text)
    setpause                                 0x0802a40b   Thumb Code    68  lgc.o(.text)
    markold                                  0x0802a44f   Thumb Code    50  lgc.o(.text)
    sweepgen                                 0x0802a481   Thumb Code   132  lgc.o(.text)
    sweepgen.nextage                         0x0802a4fc   Number         0  lgc.o(.text)
    [Anonymous Symbol]                       0x0802a504   Section        0  linit.o(.text)
    [Anonymous Symbol]                       0x0802a538   Section        0  llex.o(.text)
    lexerror                                 0x0802a5e9   Thumb Code    96  llex.o(.text)
    llex                                     0x0802a71d   Thumb Code  2096  llex.o(.text)
    save                                     0x0802af5d   Thumb Code    92  llex.o(.text)
    inclinenumber                            0x0802afb9   Thumb Code   128  llex.o(.text)
    skip_sep                                 0x0802b039   Thumb Code   106  llex.o(.text)
    read_long_string                         0x0802b0a5   Thumb Code   312  llex.o(.text)
    check_next1                              0x0802b1dd   Thumb Code    44  llex.o(.text)
    read_numeral                             0x0802b209   Thumb Code   284  llex.o(.text)
    esccheck                                 0x0802b325   Thumb Code    60  llex.o(.text)
    gethexa                                  0x0802b361   Thumb Code   100  llex.o(.text)
    check_next2                              0x0802b3c5   Thumb Code    60  llex.o(.text)
    [Anonymous Symbol]                       0x0802b400   Section        0  lmathlib.o(.text)
    math_abs                                 0x0802b4e1   Thumb Code    60  lmathlib.o(.text)
    math_acos                                0x0802b51d   Thumb Code    24  lmathlib.o(.text)
    math_asin                                0x0802b535   Thumb Code    24  lmathlib.o(.text)
    math_atan                                0x0802b54d   Thumb Code    56  lmathlib.o(.text)
    math_ceil                                0x0802b585   Thumb Code    44  lmathlib.o(.text)
    math_cos                                 0x0802b5b1   Thumb Code    24  lmathlib.o(.text)
    math_deg                                 0x0802b5c9   Thumb Code    32  lmathlib.o(.text)
    math_exp                                 0x0802b5e9   Thumb Code    24  lmathlib.o(.text)
    math_toint                               0x0802b601   Thumb Code    48  lmathlib.o(.text)
    math_floor                               0x0802b631   Thumb Code    44  lmathlib.o(.text)
    math_fmod                                0x0802b65d   Thumb Code   144  lmathlib.o(.text)
    math_ult                                 0x0802b6ed   Thumb Code    38  lmathlib.o(.text)
    math_log                                 0x0802b713   Thumb Code   134  lmathlib.o(.text)
    math_max                                 0x0802b799   Thumb Code    86  lmathlib.o(.text)
    math_min                                 0x0802b7ef   Thumb Code    88  lmathlib.o(.text)
    math_modf                                0x0802b849   Thumb Code   128  lmathlib.o(.text)
    math_rad                                 0x0802b8c9   Thumb Code    32  lmathlib.o(.text)
    math_sin                                 0x0802b8e9   Thumb Code    24  lmathlib.o(.text)
    math_sqrt                                0x0802b901   Thumb Code    56  lmathlib.o(.text)
    math_tan                                 0x0802b939   Thumb Code    24  lmathlib.o(.text)
    math_type                                0x0802b951   Thumb Code    76  lmathlib.o(.text)
    pushnumint                               0x0802b99d   Thumb Code    56  lmathlib.o(.text)
    setseed                                  0x0802b9d5   Thumb Code    66  lmathlib.o(.text)
    nextrand                                 0x0802ba17   Thumb Code   142  lmathlib.o(.text)
    math_random                              0x0802baa5   Thumb Code   268  lmathlib.o(.text)
    math_randomseed                          0x0802bbb1   Thumb Code    82  lmathlib.o(.text)
    [Anonymous Symbol]                       0x0802bc04   Section        0  lmem.o(.text)
    tryagain                                 0x0802bd1f   Thumb Code    50  lmem.o(.text)
    [Anonymous Symbol]                       0x0802bd94   Section        0  loadlib.o(.text)
    createsearcherstable.searchers           0x0802bf10   Number         0  loadlib.o(.text)
    setpath                                  0x0802bf81   Thumb Code   292  loadlib.o(.text)
    gctm                                     0x0802c0a5   Thumb Code    54  loadlib.o(.text)
    ll_loadlib                               0x0802c0dd   Thumb Code    96  loadlib.o(.text)
    ll_searchpath                            0x0802c13d   Thumb Code   120  loadlib.o(.text)
    lookforfunc                              0x0802c1b5   Thumb Code   118  loadlib.o(.text)
    searchpath                               0x0802c22d   Thumb Code   300  loadlib.o(.text)
    searcher_preload                         0x0802c359   Thumb Code   120  loadlib.o(.text)
    searcher_Lua                             0x0802c3d1   Thumb Code    62  loadlib.o(.text)
    searcher_C                               0x0802c40f   Thumb Code    64  loadlib.o(.text)
    searcher_Croot                           0x0802c451   Thumb Code   152  loadlib.o(.text)
    findfile                                 0x0802c4e9   Thumb Code   112  loadlib.o(.text)
    checkload                                0x0802c559   Thumb Code   116  loadlib.o(.text)
    loadfunc                                 0x0802c5cd   Thumb Code   120  loadlib.o(.text)
    ll_require                               0x0802c645   Thumb Code   512  loadlib.o(.text)
    [Anonymous Symbol]                       0x0802c844   Section        0  lobject.o(.text)
    intarith                                 0x0802c955   Thumb Code   118  lobject.o(.text)
    numarith                                 0x0802c9cd   Thumb Code   112  lobject.o(.text)
    tostringbuff                             0x0802cc9d   Thumb Code   116  lobject.o(.text)
    addstr2buff                              0x0802cf09   Thumb Code    84  lobject.o(.text)
    l_str2dloc                               0x0802d039   Thumb Code    72  lobject.o(.text)
    pushstr                                  0x0802d081   Thumb Code    50  lobject.o(.text)
    [Anonymous Symbol]                       0x0802d0b4   Section        0  lparser.o(.text)
    open_func                                0x0802d217   Thumb Code    96  lparser.o(.text)
    allocupvalue                             0x0802d277   Thumb Code   110  lparser.o(.text)
    statlist                                 0x0802d2e5   Thumb Code    52  lparser.o(.text)
    close_func                               0x0802d319   Thumb Code   268  lparser.o(.text)
    enterblock                               0x0802d425   Thumb Code    56  lparser.o(.text)
    errorlimit                               0x0802d45d   Thumb Code   128  lparser.o(.text)
    statement                                0x0802d4dd   Thumb Code  2684  lparser.o(.text)
    block                                    0x0802df59   Thumb Code    68  lparser.o(.text)
    check_match                              0x0802df9d   Thumb Code   124  lparser.o(.text)
    str_checkname                            0x0802e019   Thumb Code    30  lparser.o(.text)
    test_then_block                          0x0802e037   Thumb Code   310  lparser.o(.text)
    checknext                                0x0802e16d   Thumb Code    14  lparser.o(.text)
    leaveblock                               0x0802e17b   Thumb Code   410  lparser.o(.text)
    subexpr                                  0x0802e315   Thumb Code   692  lparser.o(.text)
    constructor                              0x0802e5c9   Thumb Code   358  lparser.o(.text)
    body                                     0x0802e731   Thumb Code   476  lparser.o(.text)
    suffixedexp                              0x0802e90d   Thumb Code   244  lparser.o(.text)
    recfield                                 0x0802ea01   Thumb Code   130  lparser.o(.text)
    yindex                                   0x0802ea83   Thumb Code    40  lparser.o(.text)
    new_localvar                             0x0802eaab   Thumb Code   102  lparser.o(.text)
    adjustlocalvars                          0x0802eb11   Thumb Code   278  lparser.o(.text)
    fieldsel                                 0x0802ec27   Thumb Code    58  lparser.o(.text)
    funcargs                                 0x0802ec61   Thumb Code   256  lparser.o(.text)
    singlevar                                0x0802ed61   Thumb Code    74  lparser.o(.text)
    singlevaraux                             0x0802edab   Thumb Code   358  lparser.o(.text)
    explist                                  0x0802ef11   Thumb Code    56  lparser.o(.text)
    newlabelentry                            0x0802ef49   Thumb Code   112  lparser.o(.text)
    createlabel                              0x0802efb9   Thumb Code   334  lparser.o(.text)
    undefgoto                                0x0802f109   Thumb Code   140  lparser.o(.text)
    jumpscopeerror                           0x0802f195   Thumb Code   112  lparser.o(.text)
    cond                                     0x0802f205   Thumb Code    42  lparser.o(.text)
    error_expected                           0x0802f231   Thumb Code    40  lparser.o(.text)
    forbody                                  0x0802f259   Thumb Code   224  lparser.o(.text)
    forbody.forprep                          0x0802f330   Number         0  lparser.o(.text)
    forbody.forloop                          0x0802f334   Number         0  lparser.o(.text)
    fixforjump                               0x0802f339   Thumb Code    80  lparser.o(.text)
    adjust_assign                            0x0802f389   Thumb Code    88  lparser.o(.text)
    restassign                               0x0802f3e1   Thumb Code   472  lparser.o(.text)
    [Anonymous Symbol]                       0x0802f5b8   Section        0  lstate.o(.text)
    stack_init                               0x0802f71d   Thumb Code    92  lstate.o(.text)
    freestack                                0x0802f7a1   Thumb Code    44  lstate.o(.text)
    f_luaopen                                0x0802f925   Thumb Code   132  lstate.o(.text)
    close_state                              0x0802f9a9   Thumb Code    60  lstate.o(.text)
    [Anonymous Symbol]                       0x0802fab0   Section        0  lstring.o(.text)
    tablerehash                              0x0802fb83   Thumb Code    86  lstring.o(.text)
    [Anonymous Symbol]                       0x0802fedc   Section        0  lstrlib.o(.text)
    str_byte                                 0x0802ff79   Thumb Code   168  lstrlib.o(.text)
    str_char                                 0x08030021   Thumb Code   116  lstrlib.o(.text)
    str_dump                                 0x08030095   Thumb Code   116  lstrlib.o(.text)
    str_find                                 0x08030109   Thumb Code     6  lstrlib.o(.text)
    str_format                               0x08030111   Thumb Code  1504  lstrlib.o(.text)
    gmatch                                   0x080306f1   Thumb Code   150  lstrlib.o(.text)
    str_gsub                                 0x08030789   Thumb Code   792  lstrlib.o(.text)
    str_len                                  0x08030aa1   Thumb Code    28  lstrlib.o(.text)
    str_lower                                0x08030abd   Thumb Code    68  lstrlib.o(.text)
    str_match                                0x08030b01   Thumb Code     6  lstrlib.o(.text)
    str_rep                                  0x08030b09   Thumb Code   216  lstrlib.o(.text)
    str_reverse                              0x08030be1   Thumb Code    66  lstrlib.o(.text)
    str_sub                                  0x08030c23   Thumb Code   126  lstrlib.o(.text)
    str_upper                                0x08030ca1   Thumb Code    68  lstrlib.o(.text)
    str_pack                                 0x08030ce5   Thumb Code   816  lstrlib.o(.text)
    str_packsize                             0x08031015   Thumb Code   192  lstrlib.o(.text)
    str_unpack                               0x080310d5   Thumb Code   592  lstrlib.o(.text)
    writer                                   0x08031325   Thumb Code    40  lstrlib.o(.text)
    str_find_aux                             0x0803134d   Thumb Code   412  lstrlib.o(.text)
    match                                    0x080314e9   Thumb Code   792  lstrlib.o(.text)
    push_captures                            0x08031801   Thumb Code    72  lstrlib.o(.text)
    start_capture                            0x08031849   Thumb Code    70  lstrlib.o(.text)
    classend                                 0x08031891   Thumb Code   164  lstrlib.o(.text)
    matchbracketclass                        0x08031935   Thumb Code   122  lstrlib.o(.text)
    singlematch                              0x080319af   Thumb Code    62  lstrlib.o(.text)
    match_class                              0x080319ed   Thumb Code   234  lstrlib.o(.text)
    push_onecapture                          0x08031ad7   Thumb Code    36  lstrlib.o(.text)
    get_onecapture                           0x08031afd   Thumb Code   116  lstrlib.o(.text)
    gmatch_aux                               0x08031b71   Thumb Code    90  lstrlib.o(.text)
    getdetails                               0x08031bcd   Thumb Code   212  lstrlib.o(.text)
    packint                                  0x08031ca1   Thumb Code   114  lstrlib.o(.text)
    getoption                                0x08031d15   Thumb Code   392  lstrlib.o(.text)
    getnumlimit                              0x08031e9d   Thumb Code   128  lstrlib.o(.text)
    unpackint                                0x08031f1d   Thumb Code   224  lstrlib.o(.text)
    arith_add                                0x08031ffd   Thumb Code    20  lstrlib.o(.text)
    arith_sub                                0x08032011   Thumb Code    20  lstrlib.o(.text)
    arith_mul                                0x08032025   Thumb Code    20  lstrlib.o(.text)
    arith_mod                                0x08032039   Thumb Code    20  lstrlib.o(.text)
    arith_pow                                0x0803204d   Thumb Code    20  lstrlib.o(.text)
    arith_div                                0x08032061   Thumb Code    20  lstrlib.o(.text)
    arith_idiv                               0x08032075   Thumb Code    20  lstrlib.o(.text)
    arith_unm                                0x08032089   Thumb Code    20  lstrlib.o(.text)
    arith                                    0x0803209d   Thumb Code   200  lstrlib.o(.text)
    tonum                                    0x08032165   Thumb Code    68  lstrlib.o(.text)
    [Anonymous Symbol]                       0x080321a8   Section        0  ltable.o(.text)
    setnodevector                            0x08032449   Thumb Code   140  ltable.o(.text)
    freehash                                 0x0803250d   Thumb Code    20  ltable.o(.text)
    mainposition                             0x08032835   Thumb Code   272  ltable.o(.text)
    getgeneric                               0x08032a51   Thumb Code   156  ltable.o(.text)
    [Anonymous Symbol]                       0x08032d08   Section        0  ltablib.o(.text)
    tconcat                                  0x08032d39   Thumb Code   138  ltablib.o(.text)
    tinsert                                  0x08032dc5   Thumb Code   180  ltablib.o(.text)
    tpack                                    0x08032e79   Thumb Code    76  ltablib.o(.text)
    tunpack                                  0x08032ec5   Thumb Code   164  ltablib.o(.text)
    tremove                                  0x08032f69   Thumb Code   128  ltablib.o(.text)
    tmove                                    0x08032fe9   Thumb Code   316  ltablib.o(.text)
    sort                                     0x08033125   Thumb Code   108  ltablib.o(.text)
    checktab                                 0x08033191   Thumb Code   172  ltablib.o(.text)
    addfield                                 0x0803323d   Thumb Code   124  ltablib.o(.text)
    auxsort                                  0x080332b9   Thumb Code   620  ltablib.o(.text)
    sort_comp                                0x08033525   Thumb Code   104  ltablib.o(.text)
    [Anonymous Symbol]                       0x0803358c   Section        0  ltm.o(.text)
    callbinTM                                0x080337d1   Thumb Code    74  ltm.o(.text)
    [Anonymous Symbol]                       0x08033a34   Section        0  lundump.o(.text)
    loadByte                                 0x08033be1   Thumb Code    50  lundump.o(.text)
    loadFunction                             0x08033c15   Thumb Code   876  lundump.o(.text)
    checkliteral                             0x08033f81   Thumb Code    58  lundump.o(.text)
    error                                    0x08033fbd   Thumb Code    52  lundump.o(.text)
    fchecksize                               0x08033ff1   Thumb Code    56  lundump.o(.text)
    loadBlock                                0x08034029   Thumb Code    28  lundump.o(.text)
    loadStringN                              0x08034045   Thumb Code   138  lundump.o(.text)
    loadUnsigned                             0x080340d1   Thumb Code    64  lundump.o(.text)
    [Anonymous Symbol]                       0x08034110   Section        0  lutf8lib.o(.text)
    byteoffset                               0x0803416d   Thumb Code   328  lutf8lib.o(.text)
    codepoint                                0x080342b5   Thumb Code   256  lutf8lib.o(.text)
    utfchar                                  0x080343b5   Thumb Code    76  lutf8lib.o(.text)
    utflen                                   0x08034401   Thumb Code   276  lutf8lib.o(.text)
    iter_codes                               0x08034515   Thumb Code    72  lutf8lib.o(.text)
    utf8_decode                              0x0803455d   Thumb Code   184  lutf8lib.o(.text)
    utf8_decode.limits                       0x080345fc   Number         0  lutf8lib.o(.text)
    pushutfchar                              0x08034615   Thumb Code    68  lutf8lib.o(.text)
    iter_auxlax                              0x08034659   Thumb Code     4  lutf8lib.o(.text)
    iter_auxstrict                           0x0803465d   Thumb Code     4  lutf8lib.o(.text)
    iter_aux                                 0x08034661   Thumb Code   118  lutf8lib.o(.text)
    [Anonymous Symbol]                       0x080346d8   Section        0  lvm.o(.text)
    l_strton                                 0x0803471f   Thumb Code    50  lvm.o(.text)
    LTnum                                    0x08034ab9   Thumb Code   272  lvm.o(.text)
    lessthanothers                           0x08034bc9   Thumb Code    44  lvm.o(.text)
    LEnum                                    0x08034c15   Thumb Code   272  lvm.o(.text)
    lessequalothers                          0x08034d25   Thumb Code    52  lvm.o(.text)
    __arm_cp.21_4                            0x0803572c   Number         4  lvm.o(.text)
    __arm_cp.21_5                            0x08035730   Number         4  lvm.o(.text)
    l_strcmp                                 0x08038845   Thumb Code    84  lvm.o(.text)
    [Anonymous Symbol]                       0x08038898   Section        0  lzio.o(.text)
    [Anonymous Symbol]                       0x08038928   Section        0  emwin_drive.o(.text)
    CUSTOM_CopyBuffer                        0x08038b7d   Thumb Code    70  emwin_drive.o(.text)
    CUSTOM_CopyRect                          0x08038bc3   Thumb Code    72  emwin_drive.o(.text)
    LCD_LL_GetPixelformat                    0x08038c0b   Thumb Code   144  emwin_drive.o(.text)
    CUSTOM_FillRect                          0x08038c9b   Thumb Code   184  emwin_drive.o(.text)
    LCD_DrawBitmap8bpp                       0x08038d53   Thumb Code   120  emwin_drive.o(.text)
    LCD_DrawBitmap16bpp                      0x08038dcb   Thumb Code    82  emwin_drive.o(.text)
    Color2IndexBulk_M1555IDMA2D              0x08038e1d   Thumb Code   104  emwin_drive.o(.text)
    Index2ColorBulk_M1555IDMA2D              0x08038e85   Thumb Code   124  emwin_drive.o(.text)
    Color2IndexBulk_M565DMA2D                0x08038f01   Thumb Code   104  emwin_drive.o(.text)
    Index2ColorBulk_M565DMA2D                0x08038f69   Thumb Code   124  emwin_drive.o(.text)
    Color2IndexBulk_M4444IDMA2D              0x08038fe5   Thumb Code   104  emwin_drive.o(.text)
    Index2ColorBulk_M4444IDMA2D              0x0803904d   Thumb Code   124  emwin_drive.o(.text)
    Color2IndexBulk_M888DMA2D                0x080390c9   Thumb Code   100  emwin_drive.o(.text)
    Index2ColorBulk_M888DMA2D                0x0803912d   Thumb Code   120  emwin_drive.o(.text)
    Color2IndexBulk_M8888IDMA2D              0x080391a5   Thumb Code   100  emwin_drive.o(.text)
    Index2ColorBulk_M8888IDMA2D              0x08039209   Thumb Code   120  emwin_drive.o(.text)
    DMA2D_AlphaBlending                      0x08039281   Thumb Code   158  emwin_drive.o(.text)
    _LCD_GetpPalConvTable                    0x0803931f   Thumb Code   120  emwin_drive.o(.text)
    DMA2D_MixColors                          0x08039397   Thumb Code   114  emwin_drive.o(.text)
    LCD_MixColorsBulk                        0x08039409   Thumb Code   242  emwin_drive.o(.text)
    DMA2D_CopyBuffer                         0x0803974d   Thumb Code    74  emwin_drive.o(.text)
    [Anonymous Symbol]                       0x08039798   Section        0  gui_touch.o(.text)
    [Anonymous Symbol]                       0x080397e8   Section        0  guiconf.o(.text)
    [Anonymous Symbol]                       0x08039810   Section        0  gui_x_freertos.o(.text)
    _GetCharCode                             0x080398f5   Thumb Code    12  gui_uc_encodenone.o(.text)
    [Anonymous Symbol]                       0x080398f4   Section        0  gui_uc_encodenone.o(.text)
    _GetCharSize                             0x08039901   Thumb Code    12  gui_uc_encodenone.o(.text)
    _CalcSizeOfChar                          0x0803990d   Thumb Code    16  gui_uc_encodenone.o(.text)
    _Encode                                  0x0803991d   Thumb Code    18  gui_uc_encodenone.o(.text)
    [Anonymous Symbol]                       0x08039930   Section        0  guicharpex.o(.text)
    .text                                    0x08039d04   Section        2  use_no_semi_2.o(.text)
    .text                                    0x08039d08   Section       16  rt_ctype_table.o(.text)
    .text                                    0x08039d18   Section        8  rt_errno_addr_intlibspace.o(.text)
    .text                                    0x08039d20   Section        0  hrguard.o(.text)
    .text                                    0x08039d24   Section      240  lludivv7m.o(.text)
    .text                                    0x08039e14   Section        0  tolower.o(.text)
    .text                                    0x08039e2e   Section        0  toupper.o(.text)
    .text                                    0x08039e4c   Section        0  vsnprintf.o(.text)
    .text                                    0x08039e80   Section        0  __2printf.o(.text)
    .text                                    0x08039e98   Section        0  __2fprintf.o(.text)
    .text                                    0x08039eac   Section        0  __2sprintf.o(.text)
    .text                                    0x08039ed8   Section        0  __2snprintf.o(.text)
    .text                                    0x08039f10   Section        0  _printf_pad.o(.text)
    .text                                    0x08039f5e   Section        0  _printf_truncate.o(.text)
    .text                                    0x08039f82   Section        0  _printf_str.o(.text)
    .text                                    0x08039fd4   Section        0  _printf_dec.o(.text)
    .text                                    0x0803a04c   Section        0  _printf_charcount.o(.text)
    .text                                    0x0803a074   Section        0  _printf_wctomb.o(.text)
    _printf_longlong_oct_internal            0x0803a131   Thumb Code     0  _printf_oct_int_ll.o(.text)
    .text                                    0x0803a130   Section        0  _printf_oct_int_ll.o(.text)
    _printf_hex_common                       0x0803a1a1   Thumb Code     0  _printf_hex_int_ll_ptr.o(.text)
    .text                                    0x0803a1a0   Section        0  _printf_hex_int_ll_ptr.o(.text)
    .text                                    0x0803a234   Section        0  __printf_flags_ss_wp.o(.text)
    .text                                    0x0803a3bc   Section        0  __0sscanf.o(.text)
    .text                                    0x0803a3f8   Section        0  feof.o(.text)
    .text                                    0x0803a400   Section        0  ferror.o(.text)
    .text                                    0x0803a408   Section        0  fflush.o(.text)
    .text                                    0x0803a46c   Section        0  fgets.o(.text)
    .text                                    0x0803a4b6   Section        0  fputs.o(.text)
    .text                                    0x0803a4d8   Section        0  fseek.o(.text)
    .text                                    0x0803a5d0   Section        0  ftell.o(.text)
    .text                                    0x0803a612   Section        0  getc.o(.text)
    .text                                    0x0803a618   Section        0  puts.o(.text)
    .text                                    0x0803a644   Section        0  setvbuf.o(.text)
    _freopen_locked                          0x0803a68d   Thumb Code     0  fopen.o(.text)
    .text                                    0x0803a68c   Section        0  fopen.o(.text)
    .text                                    0x0803a77c   Section        0  fclose_tmpfile.o(.text)
    .text                                    0x0803a7e4   Section        0  localeconv.o(.text)
    .text                                    0x0803a7f4   Section        0  exit.o(.text)
    .text                                    0x0803a806   Section        0  abort.o(.text)
    .text                                    0x0803a81c   Section        0  strcoll.o(.text)
    .text                                    0x0803a850   Section        0  strerror.o(.text)
    .text                                    0x0803a958   Section        0  strchr.o(.text)
    .text                                    0x0803a96c   Section        0  strpbrk.o(.text)
    .text                                    0x0803a98a   Section        0  strspn.o(.text)
    .text                                    0x0803a9a6   Section        0  strstr.o(.text)
    .text                                    0x0803a9ca   Section        0  memcmp.o(.text)
    .text                                    0x0803aa22   Section        0  strcpy.o(.text)
    .text                                    0x0803aa6a   Section        0  strrchr.o(.text)
    .text                                    0x0803aa80   Section        0  strlen.o(.text)
    .text                                    0x0803aabe   Section        0  memchr.o(.text)
    .text                                    0x0803aad2   Section        0  strncmp.o(.text)
    .text                                    0x0803ab68   Section        0  strcat.o(.text)
    .text                                    0x0803ab80   Section      138  rt_memcpy_v6.o(.text)
    .text                                    0x0803ac0a   Section      132  rt_memmove_v6.o(.text)
    .text                                    0x0803ac8e   Section        8  memcpy.o(.text)
    .text                                    0x0803ac96   Section      100  rt_memcpy_w.o(.text)
    .text                                    0x0803acfa   Section       22  memset.o(.text)
    .text                                    0x0803ad10   Section       16  aeabi_memset.o(.text)
    .text                                    0x0803ad20   Section       16  aeabi_memset4.o(.text)
    .text                                    0x0803ad30   Section       68  rt_memclr.o(.text)
    .text                                    0x0803ad74   Section       78  rt_memclr_w.o(.text)
    .text                                    0x0803adc2   Section       86  strncpy.o(.text)
    .text                                    0x0803ae18   Section      124  strcmpv7em.o(.text)
    .text                                    0x0803ae94   Section        0  heapauxi.o(.text)
    $v0                                      0x0803ae9a   Number         0  setjmp.o(.text)
    .text                                    0x0803ae9a   Section       98  setjmp.o(.text)
    .text                                    0x0803aefc   Section        8  libspace.o(.text)
    .text                                    0x0803af04   Section        2  use_no_semi.o(.text)
    .text                                    0x0803af08   Section        8  rt_locale_intlibspace.o(.text)
    .text                                    0x0803af10   Section        0  _rserrno.o(.text)
    .text                                    0x0803af26   Section        0  _printf_intcommon.o(.text)
    _fp_digits                               0x0803afd9   Thumb Code   432  _printf_fp_dec.o(.text)
    .text                                    0x0803afd8   Section        0  _printf_fp_dec.o(.text)
    .text                                    0x0803b3f4   Section        0  _printf_fp_hex.o(.text)
    _printf_input_char                       0x0803b6f1   Thumb Code    10  _printf_char_common.o(.text)
    .text                                    0x0803b6f0   Section        0  _printf_char_common.o(.text)
    .text                                    0x0803b720   Section        0  _sputc.o(.text)
    .text                                    0x0803b72a   Section        0  _snputc.o(.text)
    .text                                    0x0803b73a   Section        0  _printf_char.o(.text)
    .text                                    0x0803b768   Section        0  _printf_char_file.o(.text)
    .text                                    0x0803b78c   Section        0  _printf_wchar.o(.text)
    .text                                    0x0803b7b8   Section        0  _printf_longlong_dec.o(.text)
    _fp_value                                0x0803b835   Thumb Code   588  scanf_fp.o(.text)
    .text                                    0x0803b834   Section        0  scanf_fp.o(.text)
    _scanf_char_input                        0x0803bd2d   Thumb Code    12  scanf_char.o(.text)
    .text                                    0x0803bd2c   Section        0  scanf_char.o(.text)
    .text                                    0x0803bd58   Section        0  _sgetc.o(.text)
    _local_sscanf                            0x0803bd99   Thumb Code    68  strtod.o(.text)
    .text                                    0x0803bd98   Section        0  strtod.o(.text)
    .text                                    0x0803be48   Section        0  strtof.o(.text)
    .text                                    0x0803be50   Section        0  flsbuf.o(.text)
    .text                                    0x0803c028   Section        0  stdio.o(.text)
    .text                                    0x0803c118   Section        0  initio.o(.text)
    .text                                    0x0803c250   Section        0  _lconv.o(.text)
    .text                                    0x0803c2c2   Section        0  _c16rtomb.o(.text)
    .text                                    0x0803c30a   Section        0  defsig_abrt_outer.o(.text)
    .text                                    0x0803c318   Section      122  rt_memmove_w.o(.text)
    .text                                    0x0803c392   Section       38  llshl.o(.text)
    .text                                    0x0803c3b8   Section      138  lludiv10.o(.text)
    .text                                    0x0803c442   Section        0  isspace.o(.text)
    .text                                    0x0803c454   Section        0  _printf_fp_infnan.o(.text)
    .text                                    0x0803c4d4   Section        0  _scanf.o(.text)
    .text                                    0x0803c848   Section        0  bigflt0.o(.text)
    .text                                    0x0803c92c   Section        0  filbuf.o(.text)
    .text                                    0x0803cb66   Section        0  fwritefast.o(.text)
    .text                                    0x0803cc22   Section        0  defsig_exit.o(.text)
    .text                                    0x0803cc2c   Section        0  defsig_abrt_inner.o(.text)
    .text                                    0x0803cc5c   Section        0  defsig_rtred_outer.o(.text)
    .text                                    0x0803cc6a   Section       74  sys_stackheap_outer.o(.text)
    .text                                    0x0803ccb4   Section        0  scanf_hexfp.o(.text)
    .text                                    0x0803cfd4   Section        0  scanf_infnan.o(.text)
    .text                                    0x0803d108   Section        0  freadfast.o(.text)
    .text                                    0x0803d220   Section        0  flushlinebuffered.o(.text)
    .text                                    0x0803d258   Section        0  defsig_general.o(.text)
    .text                                    0x0803d28c   Section        0  defsig_rtred_inner.o(.text)
    .text                                    0x0803d2c0   Section        0  _chval.o(.text)
    CL$$btod_d2e                             0x0803d2dc   Section       62  btod.o(CL$$btod_d2e)
    CL$$btod_d2e_denorm_low                  0x0803d31a   Section       70  btod.o(CL$$btod_d2e_denorm_low)
    CL$$btod_d2e_norm_op1                    0x0803d360   Section       96  btod.o(CL$$btod_d2e_norm_op1)
    CL$$btod_div_common                      0x0803d3c0   Section      824  btod.o(CL$$btod_div_common)
    CL$$btod_e2d                             0x0803d6f8   Section      132  btod.o(CL$$btod_e2d)
    CL$$btod_e2e                             0x0803d77c   Section      220  btod.o(CL$$btod_e2e)
    CL$$btod_ediv                            0x0803d858   Section       42  btod.o(CL$$btod_ediv)
    CL$$btod_edivd                           0x0803d882   Section       42  btod.o(CL$$btod_edivd)
    CL$$btod_emul                            0x0803d8ac   Section       42  btod.o(CL$$btod_emul)
    CL$$btod_emuld                           0x0803d8d6   Section       42  btod.o(CL$$btod_emuld)
    CL$$btod_mult_common                     0x0803d900   Section      580  btod.o(CL$$btod_mult_common)
    i.BUTTON_Callback                        0x0803db44   Section        0  button.o(i.BUTTON_Callback)
    i.BUTTON_CreateAsChild                   0x0803dc78   Section        0  button.o(i.BUTTON_CreateAsChild)
    i.BUTTON_CreateEx                        0x0803dc9a   Section        0  button.o(i.BUTTON_CreateEx)
    i.BUTTON_CreateUser                      0x0803dcb4   Section        0  button.o(i.BUTTON_CreateUser)
    i.BUTTON_DrawSkinFlex                    0x0803dd38   Section        0  button_skinflex.o(i.BUTTON_DrawSkinFlex)
    i.BUTTON_SetFont                         0x0803df74   Section        0  button.o(i.BUTTON_SetFont)
    i.BUTTON_SetSelfDraw                     0x0803dfa0   Section        0  button_selfdraw.o(i.BUTTON_SetSelfDraw)
    i.BUTTON_SetText                         0x0803dfbe   Section        0  button.o(i.BUTTON_SetText)
    i.BUTTON__SetDrawObj                     0x0803e016   Section        0  button__setdrawobj.o(i.BUTTON__SetDrawObj)
    CL_DispChar                              0x0803e059   Thumb Code   142  gui_dispchar.o(i.CL_DispChar)
    i.CL_DispChar                            0x0803e058   Section        0  gui_dispchar.o(i.CL_DispChar)
    i.FRAMEWIN_AddButton                     0x0803e0ec   Section        0  framewin_addbutton.o(i.FRAMEWIN_AddButton)
    i.FRAMEWIN_AddCloseButton                0x0803e164   Section        0  framewin_buttonclose.o(i.FRAMEWIN_AddCloseButton)
    i.FRAMEWIN_Callback                      0x0803e18c   Section        0  framewin.o(i.FRAMEWIN_Callback)
    i.FRAMEWIN_CreateIndirect                0x0803e4c8   Section        0  framewin.o(i.FRAMEWIN_CreateIndirect)
    i.FRAMEWIN_CreateUser                    0x0803e510   Section        0  framewin.o(i.FRAMEWIN_CreateUser)
    i.FRAMEWIN_DrawSkinFlex                  0x0803e64c   Section        0  framewin_skinflex.o(i.FRAMEWIN_DrawSkinFlex)
    i.FRAMEWIN_GetActive                     0x0803e9d4   Section        0  framewin.o(i.FRAMEWIN_GetActive)
    i.FRAMEWIN_GetBorderSize                 0x0803ea04   Section        0  framewin.o(i.FRAMEWIN_GetBorderSize)
    i.FRAMEWIN_GetTitleHeight                0x0803ea36   Section        0  framewin.o(i.FRAMEWIN_GetTitleHeight)
    i.FRAMEWIN_SetFont                       0x0803ea72   Section        0  framewin.o(i.FRAMEWIN_SetFont)
    i.FRAMEWIN_SetText                       0x0803eaf8   Section        0  framewin.o(i.FRAMEWIN_SetText)
    i.FRAMEWIN_SetTextAlign                  0x0803eb46   Section        0  framewin.o(i.FRAMEWIN_SetTextAlign)
    i.FRAMEWIN__CalcPositions                0x0803eb7c   Section        0  framewin.o(i.FRAMEWIN__CalcPositions)
    i.FRAMEWIN__CalcTitleHeight              0x0803ecc4   Section        0  framewin.o(i.FRAMEWIN__CalcTitleHeight)
    i.FRAMEWIN__GetBorderSize                0x0803ecea   Section        0  framewin.o(i.FRAMEWIN__GetBorderSize)
    i.FRAMEWIN__GetTitleLimits               0x0803ed30   Section        0  framewin.o(i.FRAMEWIN__GetTitleLimits)
    i.FRAMEWIN__UpdateButtons                0x0803edc2   Section        0  framewin__updatebuttons.o(i.FRAMEWIN__UpdateButtons)
    i.FRAMEWIN__UpdatePositions              0x0803eec4   Section        0  framewin.o(i.FRAMEWIN__UpdatePositions)
    FRAMEWIN__cbClient                       0x0803ef3b   Thumb Code   266  framewin.o(i.FRAMEWIN__cbClient)
    i.FRAMEWIN__cbClient                     0x0803ef3a   Section        0  framewin.o(i.FRAMEWIN__cbClient)
    i.GL_DispChar                            0x0803f044   Section        0  gui_char.o(i.GL_DispChar)
    i.GL_SetDefault                          0x0803f0a4   Section        0  gui_common.o(i.GL_SetDefault)
    i.GUICC_M1555I_SetCustColorConv          0x0803f138   Section        0  guicc_m1555i.o(i.GUICC_M1555I_SetCustColorConv)
    i.GUICC_M4444I_SetCustColorConv          0x0803f144   Section        0  guicc_m4444i.o(i.GUICC_M4444I_SetCustColorConv)
    i.GUICC_M565_SetCustColorConv            0x0803f150   Section        0  guicc_m565.o(i.GUICC_M565_SetCustColorConv)
    i.GUICC_M8888I_SetCustColorConv          0x0803f15c   Section        0  guicc_m8888i.o(i.GUICC_M8888I_SetCustColorConv)
    i.GUICC_M888_SetCustColorConv            0x0803f168   Section        0  guicc_m888.o(i.GUICC_M888_SetCustColorConv)
    i.GUIMONO_DispChar                       0x0803f174   Section        0  gui_charm.o(i.GUIMONO_DispChar)
    i.GUIMONO_GetCharDistX                   0x0803f2ac   Section        0  gui_charm.o(i.GUIMONO_GetCharDistX)
    i.GUIMONO_GetFontInfo                    0x0803f2c4   Section        0  gui_charm.o(i.GUIMONO_GetFontInfo)
    i.GUIMONO_IsInFont                       0x0803f2ca   Section        0  gui_charm.o(i.GUIMONO_IsInFont)
    i.GUIPROP_DispChar                       0x0803f304   Section        0  gui_charp.o(i.GUIPROP_DispChar)
    i.GUIPROP_GetCharDistX                   0x0803f3f4   Section        0  gui_charp.o(i.GUIPROP_GetCharDistX)
    i.GUIPROP_GetFontInfo                    0x0803f454   Section        0  gui_charp.o(i.GUIPROP_GetFontInfo)
    i.GUIPROP_IsInFont                       0x0803f45a   Section        0  gui_charp.o(i.GUIPROP_IsInFont)
    i.GUITASK_CopyContext                    0x0803f480   Section        0  gui_task.o(i.GUITASK_CopyContext)
    i.GUITASK_Init                           0x0803f534   Section        0  gui_task.o(i.GUITASK_Init)
    i.GUI_ALLOC_AllocNoInit                  0x0803f5b0   Section        0  gui_alloc.o(i.GUI_ALLOC_AllocNoInit)
    i.GUI_ALLOC_AllocZero                    0x0803f5d0   Section        0  gui_alloc.o(i.GUI_ALLOC_AllocZero)
    i.GUI_ALLOC_AssignMemory                 0x0803f658   Section        0  gui_alloc.o(i.GUI_ALLOC_AssignMemory)
    i.GUI_ALLOC_Free                         0x0803f668   Section        0  gui_alloc.o(i.GUI_ALLOC_Free)
    i.GUI_ALLOC_FreeFixedBlock               0x0803f6ac   Section        0  gui_alloc.o(i.GUI_ALLOC_FreeFixedBlock)
    i.GUI_ALLOC_FreePtr                      0x0803f6c8   Section        0  gui_alloc.o(i.GUI_ALLOC_FreePtr)
    i.GUI_ALLOC_FreePtrArray                 0x0803f718   Section        0  gui_alloc.o(i.GUI_ALLOC_FreePtrArray)
    i.GUI_ALLOC_GetFixedBlock                0x0803f794   Section        0  gui_alloc.o(i.GUI_ALLOC_GetFixedBlock)
    i.GUI_ALLOC_GetMaxSize                   0x0803f844   Section        0  gui_alloc.o(i.GUI_ALLOC_GetMaxSize)
    i.GUI_ALLOC_GetNumUsedBytes              0x0803f888   Section        0  gui_alloc.o(i.GUI_ALLOC_GetNumUsedBytes)
    i.GUI_ALLOC_GetSize                      0x0803f898   Section        0  gui_alloc.o(i.GUI_ALLOC_GetSize)
    i.GUI_ALLOC_Lock                         0x0803f8b8   Section        0  gui_alloc.o(i.GUI_ALLOC_Lock)
    i.GUI_ALLOC_LockH                        0x0803f8c8   Section        0  gui_alloc.o(i.GUI_ALLOC_LockH)
    i.GUI_ALLOC_Realloc                      0x0803f8f0   Section        0  gui_alloc.o(i.GUI_ALLOC_Realloc)
    i.GUI_ALLOC_RequestSize                  0x0803f9fc   Section        0  gui_alloc.o(i.GUI_ALLOC_RequestSize)
    i.GUI_ALLOC_SetAvBlockSize               0x0803fa78   Section        0  gui_alloc.o(i.GUI_ALLOC_SetAvBlockSize)
    i.GUI_ALLOC_Unlock                       0x0803fa94   Section        0  gui_alloc.o(i.GUI_ALLOC_Unlock)
    i.GUI_ALLOC_UnlockH                      0x0803faa4   Section        0  gui_alloc.o(i.GUI_ALLOC_UnlockH)
    i.GUI_ALLOC_h2p                          0x0803fad4   Section        0  gui_alloc.o(i.GUI_ALLOC_h2p)
    i.GUI_AddDecMin                          0x0803fae8   Section        0  gui_val.o(i.GUI_AddDecMin)
    i.GUI_AddDecShift                        0x0803fb04   Section        0  gui_common.o(i.GUI_AddDecShift)
    i.GUI_CURSOR_SelectEx                    0x0803fbd8   Section        0  gui_cursor.o(i.GUI_CURSOR_SelectEx)
    i.GUI_CURSOR_SetPositionEx               0x0803fccc   Section        0  gui_cursor.o(i.GUI_CURSOR_SetPositionEx)
    i.GUI_CURSOR_Show                        0x0803fd40   Section        0  gui_cursor.o(i.GUI_CURSOR_Show)
    i.GUI_CalcColorDist                      0x0803fd9c   Section        0  gui_common.o(i.GUI_CalcColorDist)
    i.GUI_Clear                              0x0803fddc   Section        0  gui_core.o(i.GUI_Clear)
    i.GUI_CreateDialogBox                    0x0803fe4c   Section        0  dialog.o(i.GUI_CreateDialogBox)
    i.GUI_DCACHE_Clear                       0x0803ff0c   Section        0  gui_core.o(i.GUI_DCACHE_Clear)
    i.GUI_DEVICE_Create                      0x0803ff1c   Section        0  gui_device.o(i.GUI_DEVICE_Create)
    i.GUI_DEVICE_CreateAndLink               0x0803ff74   Section        0  gui_device.o(i.GUI_DEVICE_CreateAndLink)
    i.GUI_DEVICE_Delete                      0x0803ffe4   Section        0  gui_device.o(i.GUI_DEVICE_Delete)
    i.GUI_DEVICE_Link                        0x0803ffe8   Section        0  gui_device.o(i.GUI_DEVICE_Link)
    i.GUI_DEVICE_LinkDevices                 0x0804008c   Section        0  gui_device.o(i.GUI_DEVICE_LinkDevices)
    i.GUI_DEVICE_Unlink                      0x08040130   Section        0  gui_device.o(i.GUI_DEVICE_Unlink)
    i.GUI_DEVICE_UnlinkTaskDevices           0x0804016c   Section        0  gui_device.o(i.GUI_DEVICE_UnlinkTaskDevices)
    i.GUI_DEVICE__GetpDriver                 0x08040170   Section        0  gui_device.o(i.GUI_DEVICE__GetpDriver)
    i.GUI_DRAW_SELF_Create                   0x08040198   Section        0  gui_draw_self.o(i.GUI_DRAW_SELF_Create)
    i.GUI_DRAW__Draw                         0x080401d4   Section        0  gui_draw.o(i.GUI_DRAW__Draw)
    i.GUI_Delay                              0x08040204   Section        0  gui_time.o(i.GUI_Delay)
    i.GUI_DispCharAt                         0x08040278   Section        0  gui_dispchar.o(i.GUI_DispCharAt)
    i.GUI_DispChars                          0x080402a0   Section        0  gui_dispchar.o(i.GUI_DispChars)
    i.GUI_DispString                         0x080402c0   Section        0  gui_dispstring.o(i.GUI_DispString)
    i.GUI_DispStringAt                       0x080403cc   Section        0  gui_dispstring.o(i.GUI_DispStringAt)
    i.GUI_DispStringInRect                   0x080403f4   Section        0  gui_dispstring.o(i.GUI_DispStringInRect)
    i.GUI_DispStringInRectMax                0x0804044c   Section        0  gui_dispstring.o(i.GUI_DispStringInRectMax)
    i.GUI_DispStringInRectWrap               0x080404a2   Section        0  gui_dispstring.o(i.GUI_DispStringInRectWrap)
    i.GUI_DrawBitmap                         0x080405e4   Section        0  gui_drawbitmap.o(i.GUI_DrawBitmap)
    i.GUI_DrawGradientH                      0x080406d8   Section        0  gui_drawgradient.o(i.GUI_DrawGradientH)
    i.GUI_DrawGradientV                      0x080408b4   Section        0  gui_drawgradient.o(i.GUI_DrawGradientV)
    i.GUI_DrawHLine                          0x08040ad0   Section        0  gui_drawlib.o(i.GUI_DrawHLine)
    i.GUI_DrawPixel                          0x08040b28   Section        0  gui_drawlib.o(i.GUI_DrawPixel)
    i.GUI_DrawRect                           0x08040b78   Section        0  gui_2dlib.o(i.GUI_DrawRect)
    i.GUI_DrawVLine                          0x08040c08   Section        0  gui_drawlib.o(i.GUI_DrawVLine)
    i.GUI_EndDialog                          0x08040c5c   Section        0  dialog.o(i.GUI_EndDialog)
    i.GUI_Exec                               0x08040c98   Section        0  gui_common.o(i.GUI_Exec)
    i.GUI_FillRect                           0x08040d1c   Section        0  gui_drawlib.o(i.GUI_FillRect)
    i.GUI_FillRectEx                         0x08040d74   Section        0  gui_drawlib.o(i.GUI_FillRectEx)
    i.GUI_GetBitmapPixelIndex                0x08040dd4   Section        0  gui_common.o(i.GUI_GetBitmapPixelIndex)
    i.GUI_GetBitmapPixelIndexEx              0x08040e76   Section        0  gui_common.o(i.GUI_GetBitmapPixelIndexEx)
    i.GUI_GetBitsPerPixelEx                  0x08040f00   Section        0  lcd_getex.o(i.GUI_GetBitsPerPixelEx)
    i.GUI_GetBkColor                         0x08040f14   Section        0  gui_common.o(i.GUI_GetBkColor)
    i.GUI_GetCharDistX                       0x08040f2c   Section        0  gui_char.o(i.GUI_GetCharDistX)
    i.GUI_GetCharDistXEx                     0x08040f50   Section        0  gui_char.o(i.GUI_GetCharDistXEx)
    i.GUI_GetClientRect                      0x08040f78   Section        0  gui_common.o(i.GUI_GetClientRect)
    i.GUI_GetColor                           0x08040f82   Section        0  gui_common.o(i.GUI_GetColor)
    i.GUI_GetCursorLayer                     0x08040f9c   Section        0  gui_selectlayer.o(i.GUI_GetCursorLayer)
    i.GUI_GetDrawMode                        0x08040fb0   Section        0  gui_common.o(i.GUI_GetDrawMode)
    i.GUI_GetFontDistY                       0x08040fc8   Section        0  gui_char.o(i.GUI_GetFontDistY)
    i.GUI_GetFontSizeY                       0x08040fe4   Section        0  gui_common.o(i.GUI_GetFontSizeY)
    i.GUI_GetLayerPosEx                      0x08041004   Section        0  gui_selectlayer.o(i.GUI_GetLayerPosEx)
    i.GUI_GetOrg                             0x0804102c   Section        0  gui_common.o(i.GUI_GetOrg)
    i.GUI_GetStringDistX                     0x08041058   Section        0  gui_dispstring.o(i.GUI_GetStringDistX)
    i.GUI_GetTime                            0x0804106c   Section        0  gui_time.o(i.GUI_GetTime)
    i.GUI_GetYAdjust                         0x08041070   Section        0  gui_char.o(i.GUI_GetYAdjust)
    i.GUI_GetYDistOfFont                     0x080410b0   Section        0  gui_common.o(i.GUI_GetYDistOfFont)
    i.GUI_GetYSizeOfFont                     0x080410b4   Section        0  gui_common.o(i.GUI_GetYSizeOfFont)
    i.GUI_GetpfColor2IndexEx                 0x080410c0   Section        0  lcd_getex.o(i.GUI_GetpfColor2IndexEx)
    i.GUI_GetpfIndex2ColorEx                 0x080410d0   Section        0  lcd_getex.o(i.GUI_GetpfIndex2ColorEx)
    i.GUI_GotoXY                             0x080410e0   Section        0  gui_common.o(i.GUI_GotoXY)
    i.GUI_Init                               0x08041100   Section        0  gui_core.o(i.GUI_Init)
    i.GUI_Lock                               0x08041214   Section        0  gui_task.o(i.GUI_Lock)
    i.GUI_Long2Len                           0x080412ac   Section        0  gui_common.o(i.GUI_Long2Len)
    i.GUI_MEMDEV_Clear                       0x080412e0   Section        0  guidev_clear.o(i.GUI_MEMDEV_Clear)
    i.GUI_MEMDEV_CopyToLCD                   0x0804132c   Section        0  guidev.o(i.GUI_MEMDEV_CopyToLCD)
    i.GUI_MEMDEV_CopyToLCDAt                 0x08041338   Section        0  guidev.o(i.GUI_MEMDEV_CopyToLCDAt)
    i.GUI_MEMDEV_CreateEx                    0x08041420   Section        0  guidev.o(i.GUI_MEMDEV_CreateEx)
    i.GUI_MEMDEV_Delete                      0x080414b4   Section        0  guidev.o(i.GUI_MEMDEV_Delete)
    i.GUI_MEMDEV_Draw                        0x08041500   Section        0  guidev_banding.o(i.GUI_MEMDEV_Draw)
    i.GUI_MEMDEV_GetBitsPerPixel             0x08041660   Section        0  guidev.o(i.GUI_MEMDEV_GetBitsPerPixel)
    i.GUI_MEMDEV_GetDataPtr                  0x08041692   Section        0  guidev_getdataptr.o(i.GUI_MEMDEV_GetDataPtr)
    i.GUI_MEMDEV_GetYSize                    0x080416b8   Section        0  guidev_getysize.o(i.GUI_MEMDEV_GetYSize)
    i.GUI_MEMDEV_Paint1Static                0x080416ec   Section        0  guidev_staticdevices.o(i.GUI_MEMDEV_Paint1Static)
    i.GUI_MEMDEV_ReduceYSize                 0x0804186c   Section        0  guidev_reduceysize.o(i.GUI_MEMDEV_ReduceYSize)
    i.GUI_MEMDEV_Select                      0x080418a8   Section        0  guidev.o(i.GUI_MEMDEV_Select)
    i.GUI_MEMDEV_SetOrg                      0x080418f8   Section        0  guidev_setorg.o(i.GUI_MEMDEV_SetOrg)
    i.GUI_MEMDEV_Write                       0x08041968   Section        0  guidev_write.o(i.GUI_MEMDEV_Write)
    i.GUI_MEMDEV__CreateFixed                0x080419cc   Section        0  guidev.o(i.GUI_MEMDEV__CreateFixed)
    i.GUI_MEMDEV__WriteToActiveAlpha         0x08041ad4   Section        0  guidev_writetoactivealpha.o(i.GUI_MEMDEV__WriteToActiveAlpha)
    i.GUI_MEMDEV__WriteToActiveAt            0x08041c84   Section        0  guidev.o(i.GUI_MEMDEV__WriteToActiveAt)
    i.GUI_MEMDEV__WriteToActiveOpaque        0x08041cb8   Section        0  guidev_writetoactiveopaque.o(i.GUI_MEMDEV__WriteToActiveOpaque)
    i.GUI_MULTIBUF_Begin                     0x080424d4   Section        0  gui_multibuf.o(i.GUI_MULTIBUF_Begin)
    i.GUI_MULTIBUF_BeginEx                   0x080424e4   Section        0  gui_multibuf.o(i.GUI_MULTIBUF_BeginEx)
    i.GUI_MULTIBUF_ConfigEx                  0x08042574   Section        0  gui_multibuf.o(i.GUI_MULTIBUF_ConfigEx)
    i.GUI_MULTIBUF_ConfirmEx                 0x080425b0   Section        0  gui_multibuf.o(i.GUI_MULTIBUF_ConfirmEx)
    i.GUI_MULTIBUF_End                       0x080425e4   Section        0  gui_multibuf.o(i.GUI_MULTIBUF_End)
    i.GUI_MULTIBUF_EndEx                     0x08042660   Section        0  gui_multibuf.o(i.GUI_MULTIBUF_EndEx)
    i.GUI_MergeRect                          0x080426d4   Section        0  gui_common.o(i.GUI_MergeRect)
    i.GUI_MoveRect                           0x08042730   Section        0  gui_common.o(i.GUI_MoveRect)
    i.GUI_PID_GetState                       0x08042750   Section        0  gui_pid.o(i.GUI_PID_GetState)
    i.GUI_PID_IsEmpty                        0x080427ac   Section        0  gui_pid.o(i.GUI_PID_IsEmpty)
    i.GUI_PID_StoreState                     0x080427c0   Section        0  gui_pid.o(i.GUI_PID_StoreState)
    i.GUI_PollKeyMsg                         0x08042890   Section        0  gui_onkey.o(i.GUI_PollKeyMsg)
    i.GUI_ReadRectEx                         0x080428d0   Section        0  lcd_readrect.o(i.GUI_ReadRectEx)
    i.GUI_RectsIntersect                     0x0804294c   Section        0  gui_common.o(i.GUI_RectsIntersect)
    i.GUI_RestoreContext                     0x08042984   Section        0  gui_common.o(i.GUI_RestoreContext)
    i.GUI_SPRITE_Delete                      0x08042994   Section        0  gui_sprite.o(i.GUI_SPRITE_Delete)
    i.GUI_SPRITE_SetPosition                 0x080429f0   Section        0  gui_sprite.o(i.GUI_SPRITE_SetPosition)
    i.GUI_SPRITE_Show                        0x08042f64   Section        0  gui_sprite.o(i.GUI_SPRITE_Show)
    i.GUI_SPRITE__CreateEx                   0x08042fc4   Section        0  gui_sprite.o(i.GUI_SPRITE__CreateEx)
    i.GUI_SaveContext_W                      0x080430b4   Section        0  gui_common.o(i.GUI_SaveContext_W)
    i.GUI_SelectLCD                          0x080430c4   Section        0  gui_common.o(i.GUI_SelectLCD)
    i.GUI_SelectLayer                        0x080430e0   Section        0  gui_selectlayer.o(i.GUI_SelectLayer)
    i.GUI_SetBkColor                         0x08043118   Section        0  gui_common.o(i.GUI_SetBkColor)
    i.GUI_SetColor                           0x0804312e   Section        0  gui_common.o(i.GUI_SetColor)
    i.GUI_SetDefaultFont                     0x08043144   Section        0  gui_core.o(i.GUI_SetDefaultFont)
    i.GUI_SetDrawMode                        0x08043150   Section        0  gui_common.o(i.GUI_SetDrawMode)
    i.GUI_SetFont                            0x08043168   Section        0  gui_common.o(i.GUI_SetFont)
    i.GUI_SetFuncAlphaBlending               0x08043188   Section        0  gui__alpha.o(i.GUI_SetFuncAlphaBlending)
    i.GUI_SetFuncGetpPalConvTable            0x08043198   Section        0  gui_core.o(i.GUI_SetFuncGetpPalConvTable)
    i.GUI_SetFuncMixColors                   0x080431a4   Section        0  gui__alpha.o(i.GUI_SetFuncMixColors)
    i.GUI_SetFuncMixColorsBulk               0x080431b4   Section        0  gui__alpha.o(i.GUI_SetFuncMixColorsBulk)
    i.GUI_SetLayerPosEx                      0x080431c4   Section        0  gui_selectlayer.o(i.GUI_SetLayerPosEx)
    i.GUI_SetLayerSizeEx                     0x080431e4   Section        0  gui_selectlayer.o(i.GUI_SetLayerSizeEx)
    i.GUI_SetLayerVisEx                      0x08043204   Section        0  gui_selectlayer.o(i.GUI_SetLayerVisEx)
    i.GUI_SetOrg                             0x08043220   Section        0  gui_common.o(i.GUI_SetOrg)
    i.GUI_SetTextMode                        0x08043260   Section        0  gui_common.o(i.GUI_SetTextMode)
    i.GUI_SignalEvent                        0x08043280   Section        0  gui_waitevent.o(i.GUI_SignalEvent)
    i.GUI_StoreKey                           0x08043290   Section        0  gui_onkey.o(i.GUI_StoreKey)
    i.GUI_TIMER_Create                       0x080432a4   Section        0  gui_timer.o(i.GUI_TIMER_Create)
    i.GUI_TIMER_Delete                       0x08043340   Section        0  gui_timer.o(i.GUI_TIMER_Delete)
    i.GUI_TIMER_Exec                         0x080433fc   Section        0  gui_timer.o(i.GUI_TIMER_Exec)
    i.GUI_TIMER_GetFlag                      0x0804346c   Section        0  gui_timer.o(i.GUI_TIMER_GetFlag)
    i.GUI_TIMER_Restart                      0x0804349c   Section        0  gui_timer.o(i.GUI_TIMER_Restart)
    i.GUI_TIMER_SetPeriod                    0x08043528   Section        0  gui_timer.o(i.GUI_TIMER_SetPeriod)
    i.GUI_TIMER__GetFirstTimer               0x08043550   Section        0  gui_timer.o(i.GUI_TIMER__GetFirstTimer)
    i.GUI_TIMER__GetNextTimerLin             0x08043578   Section        0  gui_timer.o(i.GUI_TIMER__GetNextTimerLin)
    i.GUI_UC_Encode                          0x080435b0   Section        0  gui_uc.o(i.GUI_UC_Encode)
    i.GUI_UC_GetCharCode                     0x080435d4   Section        0  gui_uc.o(i.GUI_UC_GetCharCode)
    i.GUI_UC_GetCharSize                     0x080435f4   Section        0  gui_uc.o(i.GUI_UC_GetCharSize)
    i.GUI_UC__CalcSizeOfChar                 0x08043614   Section        0  gui_uc.o(i.GUI_UC__CalcSizeOfChar)
    i.GUI_UC__GetCharCodeInc                 0x08043620   Section        0  gui_uc.o(i.GUI_UC__GetCharCodeInc)
    i.GUI_UC__NumBytes2NumChars              0x0804364c   Section        0  gui_uc.o(i.GUI_UC__NumBytes2NumChars)
    i.GUI_UC__NumChars2NumBytes              0x08043680   Section        0  gui_uc.o(i.GUI_UC__NumChars2NumBytes)
    i.GUI_USAGE_AddRect                      0x080436ac   Section        0  guidev_usage.o(i.GUI_USAGE_AddRect)
    GUI_USAGE_BM_AddHLine                    0x080436d5   Thumb Code   120  guidev_usagebm.o(i.GUI_USAGE_BM_AddHLine)
    i.GUI_USAGE_BM_AddHLine                  0x080436d4   Section        0  guidev_usagebm.o(i.GUI_USAGE_BM_AddHLine)
    GUI_USAGE_BM_AddPixel                    0x0804374d   Thumb Code    46  guidev_usagebm.o(i.GUI_USAGE_BM_AddPixel)
    i.GUI_USAGE_BM_AddPixel                  0x0804374c   Section        0  guidev_usagebm.o(i.GUI_USAGE_BM_AddPixel)
    GUI_USAGE_BM_Clear                       0x0804377b   Thumb Code    14  guidev_usagebm.o(i.GUI_USAGE_BM_Clear)
    i.GUI_USAGE_BM_Clear                     0x0804377a   Section        0  guidev_usagebm.o(i.GUI_USAGE_BM_Clear)
    i.GUI_USAGE_BM_Create                    0x08043788   Section        0  guidev_usagebm.o(i.GUI_USAGE_BM_Create)
    GUI_USAGE_BM_GetNextDirty                0x080437e5   Thumb Code   196  guidev_usagebm.o(i.GUI_USAGE_BM_GetNextDirty)
    i.GUI_USAGE_BM_GetNextDirty              0x080437e4   Section        0  guidev_usagebm.o(i.GUI_USAGE_BM_GetNextDirty)
    i.GUI_USAGE_DecUseCnt                    0x080438a8   Section        0  guidev_usage.o(i.GUI_USAGE_DecUseCnt)
    i.GUI_Unlock                             0x080438d8   Section        0  gui_task.o(i.GUI_Unlock)
    i.GUI__AllocAlphaBuffer                  0x080438ec   Section        0  gui__alpha.o(i.GUI__AllocAlphaBuffer)
    i.GUI__AlphaPreserveTrans                0x08043908   Section        0  gui_setalpha.o(i.GUI__AlphaPreserveTrans)
    i.GUI__CompactPixelIndices               0x08043930   Section        0  gui__compactpixelindices.o(i.GUI__CompactPixelIndices)
    i.GUI__CompactPixelIndicesEx             0x08043abc   Section        0  gui__compactpixelindices.o(i.GUI__CompactPixelIndicesEx)
    i.GUI__ConvertColor2Index                0x08043acc   Section        0  gui__compactpixelindices.o(i.GUI__ConvertColor2Index)
    i.GUI__DispLine                          0x08043c64   Section        0  gui_charline.o(i.GUI__DispLine)
    i.GUI__DispStringInRect                  0x08043e48   Section        0  gui_dispstring.o(i.GUI__DispStringInRect)
    i.GUI__DivideRound32                     0x08043fa0   Section        0  gui__private.o(i.GUI__DivideRound32)
    i.GUI__DoAlphaBlending                   0x08043fbc   Section        0  gui__alpha.o(i.GUI__DoAlphaBlending)
    i.GUI__DrawTwinArc2                      0x08044190   Section        0  gui__drawtwinarc.o(i.GUI__DrawTwinArc2)
    i.GUI__DrawTwinArc4                      0x08044394   Section        0  gui__drawtwinarc.o(i.GUI__DrawTwinArc4)
    i.GUI__ExpandPixelIndicesEx              0x08044608   Section        0  gui__expandpixelindices.o(i.GUI__ExpandPixelIndicesEx)
    i.GUI__GetAlphaBuffer                    0x0804476c   Section        0  gui__alpha.o(i.GUI__GetAlphaBuffer)
    i.GUI__GetCursorPosChar                  0x08044810   Section        0  gui__getcursorpos.o(i.GUI__GetCursorPosChar)
    i.GUI__GetCursorPosX                     0x08044820   Section        0  gui__getcursorpos.o(i.GUI__GetCursorPosX)
    i.GUI__GetLineDistX                      0x08044830   Section        0  gui_charline.o(i.GUI__GetLineDistX)
    i.GUI__GetLineNumChars                   0x080448a4   Section        0  gui_charline.o(i.GUI__GetLineNumChars)
    i.GUI__GetNumChars                       0x080448e8   Section        0  gui_uc.o(i.GUI__GetNumChars)
    i.GUI__GetOverlap                        0x08044930   Section        0  gui_charline.o(i.GUI__GetOverlap)
    i.GUI__HandleEOLine                      0x08044948   Section        0  gui__private.o(i.GUI__HandleEOLine)
    i.GUI__IntersectRect                     0x0804496c   Section        0  gui__private.o(i.GUI__IntersectRect)
    i.GUI__IntersectRects                    0x080449ae   Section        0  gui__private.o(i.GUI__IntersectRects)
    i.GUI__InvertRectColors                  0x08044a00   Section        0  gui_common.o(i.GUI__InvertRectColors)
    i.GUI__ManageCache                       0x08044a64   Section        0  gui__managecache.o(i.GUI__ManageCache)
    i.GUI__ManageCacheEx                     0x08044a74   Section        0  gui__managecache.o(i.GUI__ManageCacheEx)
    i.GUI__MixColors                         0x08044b60   Section        0  gui__alpha.o(i.GUI__MixColors)
    i.GUI__MixColorsBulk                     0x08044bc8   Section        0  gui__alpha.o(i.GUI__MixColorsBulk)
    i.GUI__ReduceRect                        0x08044c3c   Section        0  gui__private.o(i.GUI__ReduceRect)
    i.GUI__RegisterExit                      0x08044c58   Section        0  gui_core.o(i.GUI__RegisterExit)
    i.GUI__SetText                           0x08044c68   Section        0  gui__private.o(i.GUI__SetText)
    i.GUI__WrapGetNumBytesToNextLine         0x08044d2c   Section        0  gui__wrap.o(i.GUI__WrapGetNumBytesToNextLine)
    i.GUI__WrapGetNumCharsDisp               0x08044db0   Section        0  gui__wrap.o(i.GUI__WrapGetNumCharsDisp)
    i.GUI__memset                            0x08044dd8   Section        0  gui__private.o(i.GUI__memset)
    i.GUI__memset16                          0x08044eac   Section        0  gui__private.o(i.GUI__memset16)
    i.GUI__sqrt32                            0x08044f52   Section        0  gui__private.o(i.GUI__sqrt32)
    i.GUI__strcmp                            0x08044f6c   Section        0  gui__private.o(i.GUI__strcmp)
    i.LCD_AA_MixColors16                     0x08044fa0   Section        0  lcd_aa.o(i.LCD_AA_MixColors16)
    i.LCD_AA_SetAndMask                      0x08044ff4   Section        0  lcd_aa.o(i.LCD_AA_SetAndMask)
    i.LCD_Color2Index                        0x08045004   Section        0  lcd.o(i.LCD_Color2Index)
    i.LCD_Color2Index_8666                   0x08045020   Section        0  guicc_8666.o(i.LCD_Color2Index_8666)
    i.LCD_DrawBitmap                         0x08045098   Section        0  lcd.o(i.LCD_DrawBitmap)
    i.LCD_DrawHLine                          0x08045318   Section        0  lcd.o(i.LCD_DrawHLine)
    i.LCD_DrawPixel                          0x0804537c   Section        0  lcd.o(i.LCD_DrawPixel)
    i.LCD_DrawVLine                          0x080453ec   Section        0  lcd.o(i.LCD_DrawVLine)
    i.LCD_FillRect                           0x08045450   Section        0  lcd.o(i.LCD_FillRect)
    i.LCD_GetBitsPerPixelEx                  0x080454bc   Section        0  lcd_getex.o(i.LCD_GetBitsPerPixelEx)
    i.LCD_GetBkColorIndex                    0x080454dc   Section        0  lcd_getcolorindex.o(i.LCD_GetBkColorIndex)
    i.LCD_GetColorIndex                      0x080454ec   Section        0  lcd_getcolorindex.o(i.LCD_GetColorIndex)
    i.LCD_GetDevFunc                         0x080454fc   Section        0  lcd_getex.o(i.LCD_GetDevFunc)
    i.LCD_GetMirrorXEx                       0x08045514   Section        0  lcd_getex.o(i.LCD_GetMirrorXEx)
    i.LCD_GetMirrorYEx                       0x08045532   Section        0  lcd_getex.o(i.LCD_GetMirrorYEx)
    i.LCD_GetNumColors                       0x08045550   Section        0  lcd_getex.o(i.LCD_GetNumColors)
    i.LCD_GetNumColorsEx                     0x08045578   Section        0  lcd_getex.o(i.LCD_GetNumColorsEx)
    i.LCD_GetNumLayers                       0x08045596   Section        0  lcd_getnumdisplays.o(i.LCD_GetNumLayers)
    i.LCD_GetPalette                         0x080455b4   Section        0  lcd_getex.o(i.LCD_GetPalette)
    i.LCD_GetPixelIndex                      0x080455d8   Section        0  lcd_getp.o(i.LCD_GetPixelIndex)
    i.LCD_GetPosEx                           0x08045638   Section        0  lcd_set.o(i.LCD_GetPosEx)
    i.LCD_GetSwapXYEx                        0x08045664   Section        0  lcd_getex.o(i.LCD_GetSwapXYEx)
    i.LCD_GetVXSizeEx                        0x08045682   Section        0  lcd_getex.o(i.LCD_GetVXSizeEx)
    i.LCD_GetVXSizeMax                       0x080456a0   Section        0  lcd_getex.o(i.LCD_GetVXSizeMax)
    i.LCD_GetVYSizeEx                        0x080456d4   Section        0  lcd_getex.o(i.LCD_GetVYSizeEx)
    i.LCD_GetXSize                           0x080456f4   Section        0  lcd_getex.o(i.LCD_GetXSize)
    i.LCD_GetXSizeDisplay                    0x0804571c   Section        0  lcd_getex.o(i.LCD_GetXSizeDisplay)
    i.LCD_GetXSizeEx                         0x08045728   Section        0  lcd_getex.o(i.LCD_GetXSizeEx)
    i.LCD_GetXSizeMax                        0x08045746   Section        0  lcd_getex.o(i.LCD_GetXSizeMax)
    i.LCD_GetYSize                           0x0804577c   Section        0  lcd_getex.o(i.LCD_GetYSize)
    i.LCD_GetYSizeDisplay                    0x080457a4   Section        0  lcd_getex.o(i.LCD_GetYSizeDisplay)
    i.LCD_GetYSizeEx                         0x080457b0   Section        0  lcd_getex.o(i.LCD_GetYSizeEx)
    i.LCD_GetYSizeMax                        0x080457ce   Section        0  lcd_getex.o(i.LCD_GetYSizeMax)
    i.LCD_GetpPalConvTable                   0x08045804   Section        0  lcd_color.o(i.LCD_GetpPalConvTable)
    i.LCD_GetpPalConvTableBM                 0x08045878   Section        0  lcd_color.o(i.LCD_GetpPalConvTableBM)
    i.LCD_Index2Color                        0x080458ec   Section        0  lcd.o(i.LCD_Index2Color)
    i.LCD_Index2Color_8666                   0x08045908   Section        0  guicc_8666.o(i.LCD_Index2Color_8666)
    i.LCD_Index2Color_888                    0x08045978   Section        0  guicc_888_index2color.o(i.LCD_Index2Color_888)
    i.LCD_Index2Color_8888                   0x0804597a   Section        0  guicc_8888_index2color.o(i.LCD_Index2Color_8888)
    i.LCD_Index2Color_M565                   0x0804597c   Section        0  guicc_m565.o(i.LCD_Index2Color_M565)
    i.LCD_Index2Color_M888                   0x080459a8   Section        0  guicc_m888_index2color.o(i.LCD_Index2Color_M888)
    i.LCD_Index2Color_M8888I                 0x080459bc   Section        0  guicc_m8888i_index2color.o(i.LCD_Index2Color_M8888I)
    i.LCD_InitColors                         0x080459dc   Section        0  lcd_color.o(i.LCD_InitColors)
    i.LCD_InitLUT                            0x08045a14   Section        0  lcd_color.o(i.LCD_InitLUT)
    LCD_ReadRectEx                           0x08045a9d   Thumb Code   544  lcd_readrect.o(i.LCD_ReadRectEx)
    i.LCD_ReadRectEx                         0x08045a9c   Section        0  lcd_readrect.o(i.LCD_ReadRectEx)
    i.LCD_SelectLCD                          0x08045cc0   Section        0  lcd_selectlcd.o(i.LCD_SelectLCD)
    i.LCD_SetBkColor                         0x08045d08   Section        0  lcd.o(i.LCD_SetBkColor)
    i.LCD_SetBkColorIndex                    0x08045d14   Section        0  lcd.o(i.LCD_SetBkColorIndex)
    i.LCD_SetClipRectEx                      0x08045d2c   Section        0  lcd_setcliprectex.o(i.LCD_SetClipRectEx)
    i.LCD_SetClipRectMax                     0x08045d60   Section        0  lcd.o(i.LCD_SetClipRectMax)
    i.LCD_SetColor                           0x08045d7c   Section        0  lcd.o(i.LCD_SetColor)
    i.LCD_SetColorIndex                      0x08045d88   Section        0  lcd.o(i.LCD_SetColorIndex)
    i.LCD_SetDevFunc                         0x08045da0   Section        0  lcd_set.o(i.LCD_SetDevFunc)
    i.LCD_SetDisplaySize                     0x08045dcc   Section        0  lcd_getex.o(i.LCD_SetDisplaySize)
    i.LCD_SetDrawMode                        0x08045dd8   Section        0  lcd.o(i.LCD_SetDrawMode)
    i.LCD_SetLUTEntryEx                      0x08045de4   Section        0  lcd_set.o(i.LCD_SetLUTEntryEx)
    i.LCD_SetPixelIndex                      0x08045e10   Section        0  lcd.o(i.LCD_SetPixelIndex)
    i.LCD_SetPosEx                           0x08045e60   Section        0  lcd_set.o(i.LCD_SetPosEx)
    i.LCD_SetSizeEx                          0x08045e8c   Section        0  lcd_set.o(i.LCD_SetSizeEx)
    i.LCD_SetVRAMAddrEx                      0x08045eb8   Section        0  lcd_set.o(i.LCD_SetVRAMAddrEx)
    i.LCD_SetVSizeEx                         0x08045ee0   Section        0  lcd_set.o(i.LCD_SetVSizeEx)
    i.LCD_SetVisEx                           0x08045f0c   Section        0  lcd_set.o(i.LCD_SetVisEx)
    i.LCD_UpdateColorIndices                 0x08045f34   Section        0  lcd_updatecolorindices.o(i.LCD_UpdateColorIndices)
    i.LCD__DrawBitmap_1bpp                   0x08045f58   Section        0  lcd.o(i.LCD__DrawBitmap_1bpp)
    i.LCD__GetBPPDevice                      0x08046154   Section        0  lcd_getex.o(i.LCD__GetBPPDevice)
    i.MULTIEDIT_Callback                     0x080461e4   Section        0  multiedit.o(i.MULTIEDIT_Callback)
    i.MULTIEDIT_CreateEx                     0x0804667a   Section        0  multiedit.o(i.MULTIEDIT_CreateEx)
    i.MULTIEDIT_CreateUser                   0x080466a0   Section        0  multiedit.o(i.MULTIEDIT_CreateUser)
    i.MULTIEDIT_SetAutoScrollH               0x080467b8   Section        0  multiedit.o(i.MULTIEDIT_SetAutoScrollH)
    i.MULTIEDIT_SetAutoScrollV               0x080467be   Section        0  multiedit.o(i.MULTIEDIT_SetAutoScrollV)
    i.MULTIEDIT_SetBkColor                   0x080467c4   Section        0  multiedit.o(i.MULTIEDIT_SetBkColor)
    i.MULTIEDIT_SetFocusable                 0x0804680e   Section        0  multiedit.o(i.MULTIEDIT_SetFocusable)
    i.MULTIEDIT_SetFont                      0x0804684a   Section        0  multiedit.o(i.MULTIEDIT_SetFont)
    i.MULTIEDIT_SetInsertMode                0x080468ae   Section        0  multiedit.o(i.MULTIEDIT_SetInsertMode)
    i.MULTIEDIT_SetMaxNumChars               0x080468b4   Section        0  multiedit.o(i.MULTIEDIT_SetMaxNumChars)
    i.MULTIEDIT_SetReadOnly                  0x08046970   Section        0  multiedit.o(i.MULTIEDIT_SetReadOnly)
    i.MULTIEDIT_SetText                      0x08046976   Section        0  multiedit.o(i.MULTIEDIT_SetText)
    i.MULTIEDIT_SetTextColor                 0x08046996   Section        0  multiedit.o(i.MULTIEDIT_SetTextColor)
    i.MULTIEDIT_SetWrapNone                  0x080469cc   Section        0  multiedit.o(i.MULTIEDIT_SetWrapNone)
    i.PROGBAR_Callback                       0x080469d2   Section        0  progbar.o(i.PROGBAR_Callback)
    i.PROGBAR_CreateEx                       0x08046a2a   Section        0  progbar.o(i.PROGBAR_CreateEx)
    i.PROGBAR_CreateUser                     0x08046a44   Section        0  progbar.o(i.PROGBAR_CreateUser)
    i.PROGBAR_DrawSkinFlex                   0x08046b28   Section        0  progbar_skinflex.o(i.PROGBAR_DrawSkinFlex)
    i.PROGBAR_SetValue                       0x08046ca0   Section        0  progbar.o(i.PROGBAR_SetValue)
    i.PROGBAR__GetTextLocked                 0x08046e2e   Section        0  progbar.o(i.PROGBAR__GetTextLocked)
    i.PROGBAR__GetTextRect                   0x08046e34   Section        0  progbar.o(i.PROGBAR__GetTextRect)
    i.PROGBAR__Value2Pos                     0x08046eb4   Section        0  progbar.o(i.PROGBAR__Value2Pos)
    i.SCROLLBAR_AddValue                     0x08046f0a   Section        0  scrollbar.o(i.SCROLLBAR_AddValue)
    i.SCROLLBAR_Callback                     0x08046f88   Section        0  scrollbar.o(i.SCROLLBAR_Callback)
    i.SCROLLBAR_CreateAttached               0x08047440   Section        0  scrollbar.o(i.SCROLLBAR_CreateAttached)
    i.SCROLLBAR_CreateUser                   0x0804747c   Section        0  scrollbar.o(i.SCROLLBAR_CreateUser)
    i.SCROLLBAR_Dec                          0x08047590   Section        0  scrollbar.o(i.SCROLLBAR_Dec)
    i.SCROLLBAR_DrawSkinFlex                 0x08047598   Section        0  scrollbar_skinflex.o(i.SCROLLBAR_DrawSkinFlex)
    i.SCROLLBAR_Inc                          0x08047770   Section        0  scrollbar.o(i.SCROLLBAR_Inc)
    i.SCROLLBAR__Rect2VRect                  0x08047776   Section        0  scrollbar.o(i.SCROLLBAR__Rect2VRect)
    i.TEXT_Callback                          0x080477ac   Section        0  text.o(i.TEXT_Callback)
    i.TEXT_CreateEx                          0x08047876   Section        0  text.o(i.TEXT_CreateEx)
    i.TEXT_CreateIndirect                    0x0804789a   Section        0  text.o(i.TEXT_CreateIndirect)
    i.TEXT_CreateUser                        0x080478dc   Section        0  text.o(i.TEXT_CreateUser)
    i.TEXT_SetFont                           0x08047984   Section        0  text.o(i.TEXT_SetFont)
    i.TEXT_SetText                           0x080479b6   Section        0  text.o(i.TEXT_SetText)
    i.TEXT_SetTextColor                      0x08047a0e   Section        0  text.o(i.TEXT_SetTextColor)
    i.WIDGET_AndState                        0x08047a40   Section        0  widget.o(i.WIDGET_AndState)
    i.WIDGET_HandleActive                    0x08047a76   Section        0  widget.o(i.WIDGET_HandleActive)
    i.WIDGET_OrState                         0x08047c0c   Section        0  widget.o(i.WIDGET_OrState)
    i.WIDGET_SetEffect                       0x08047c42   Section        0  widget.o(i.WIDGET_SetEffect)
    i.WIDGET_SetFocusable                    0x08047c5c   Section        0  widget.o(i.WIDGET_SetFocusable)
    i.WIDGET__DrawTriangle                   0x08047cb6   Section        0  widget.o(i.WIDGET__DrawTriangle)
    i.WIDGET__EFFECT_DrawDown                0x08047d04   Section        0  widget.o(i.WIDGET__EFFECT_DrawDown)
    i.WIDGET__GetClientRect                  0x08047da2   Section        0  widget.o(i.WIDGET__GetClientRect)
    i.WIDGET__Init                           0x08047de0   Section        0  widget.o(i.WIDGET__Init)
    i.WIDGET__RotateRect90                   0x08047df0   Section        0  widget.o(i.WIDGET__RotateRect90)
    i.WIDGET__SetScrollState                 0x08047e14   Section        0  widget.o(i.WIDGET__SetScrollState)
    i.WM_Activate                            0x08047e3c   Section        0  wm.o(i.WM_Activate)
    i.WM_BringToBottom                       0x08047e4c   Section        0  wm_lib.o(i.WM_BringToBottom)
    i.WM_BringToTop                          0x08047ee4   Section        0  wm_bringtotop.o(i.WM_BringToTop)
    i.WM_CheckScrollPos                      0x08047f6c   Section        0  wm_lib.o(i.WM_CheckScrollPos)
    i.WM_CreateTimer                         0x08047fb4   Section        0  wm_timer.o(i.WM_CreateTimer)
    i.WM_CreateWindowAsChild                 0x08048014   Section        0  wm.o(i.WM_CreateWindowAsChild)
    i.WM_Deactivate                          0x0804816c   Section        0  wm.o(i.WM_Deactivate)
    i.WM_DefaultProc                         0x0804818c   Section        0  wm.o(i.WM_DefaultProc)
    i.WM_DeleteTimer                         0x080481d2   Section        0  wm_timer.o(i.WM_DeleteTimer)
    i.WM_DeleteWindow                        0x08048200   Section        0  wm.o(i.WM_DeleteWindow)
    i.WM_DisableMemdev                       0x0804839c   Section        0  wm_memdev.o(i.WM_DisableMemdev)
    i.WM_Exec                                0x080483c4   Section        0  wm.o(i.WM_Exec)
    i.WM_ForEachDesc                         0x08048758   Section        0  wm_lib.o(i.WM_ForEachDesc)
    i.WM_GetActiveWindow                     0x08048778   Section        0  wm.o(i.WM_GetActiveWindow)
    i.WM_GetClientRect                       0x08048784   Section        0  wm_lib.o(i.WM_GetClientRect)
    i.WM_GetClientRectEx                     0x080487b8   Section        0  wm_lib.o(i.WM_GetClientRectEx)
    i.WM_GetClientWindow                     0x080487d2   Section        0  wm_lib.o(i.WM_GetClientWindow)
    i.WM_GetDesktopWindow                    0x080487ec   Section        0  wm_lib.o(i.WM_GetDesktopWindow)
    i.WM_GetDesktopWindowEx                  0x08048804   Section        0  wm_lib.o(i.WM_GetDesktopWindowEx)
    i.WM_GetDialogItem                       0x08048818   Section        0  wm_lib.o(i.WM_GetDialogItem)
    i.WM_GetFirstChild                       0x080488e2   Section        0  wm_lib.o(i.WM_GetFirstChild)
    i.WM_GetFocusedWindow                    0x080488fc   Section        0  wm_lib.o(i.WM_GetFocusedWindow)
    i.WM_GetHasTrans                         0x0804891c   Section        0  wm_settrans.o(i.WM_GetHasTrans)
    i.WM_GetId                               0x0804893e   Section        0  wm_lib.o(i.WM_GetId)
    i.WM_GetInsideRectEx                     0x0804895a   Section        0  wm_lib.o(i.WM_GetInsideRectEx)
    i.WM_GetInsideRectExScrollbar            0x0804896e   Section        0  wm_lib.o(i.WM_GetInsideRectExScrollbar)
    i.WM_GetNextSibling                      0x08048a6a   Section        0  wm_lib.o(i.WM_GetNextSibling)
    i.WM_GetParent                           0x08048a84   Section        0  wm_lib.o(i.WM_GetParent)
    i.WM_GetScrollPartner                    0x08048a9e   Section        0  wm_lib.o(i.WM_GetScrollPartner)
    i.WM_GetScrollState                      0x08048ae6   Section        0  wm_lib.o(i.WM_GetScrollState)
    i.WM_GetScrollbarH                       0x08048afa   Section        0  wm_lib.o(i.WM_GetScrollbarH)
    i.WM_GetScrollbarV                       0x08048b80   Section        0  wm_lib.o(i.WM_GetScrollbarV)
    i.WM_GetWindowOrgX                       0x08048c06   Section        0  wm_lib.o(i.WM_GetWindowOrgX)
    i.WM_GetWindowRectEx                     0x08048c26   Section        0  wm_lib.o(i.WM_GetWindowRectEx)
    i.WM_GetWindowSizeX                      0x08048c4e   Section        0  wm_getwindowsize.o(i.WM_GetWindowSizeX)
    i.WM_GetWindowSizeY                      0x08048c7e   Section        0  wm_getwindowsize.o(i.WM_GetWindowSizeY)
