Component: ARM Compiler 6.15 Tool: armlink [5dd79300]

==============================================================================

Section Cross References

    main.o(.text) refers (Special) to _printf_f.o(.ARM.Collect$$_printf_percent$$00000003) for _printf_f
    main.o(.text) refers (Special) to printf1.o(x$fpl$printf1) for _printf_fp_dec
    main.o(.text) refers (Special) to _printf_percent.o(.ARM.Collect$$_printf_percent$$00000000) for _printf_percent
    main.o(.text) refers (Special) to _printf_pad.o(.text) for _printf_pre_padding
    main.o(.text.main) refers (Special) to _printf_f.o(.ARM.Collect$$_printf_percent$$00000003) for _printf_f
    main.o(.text.main) refers (Special) to printf1.o(x$fpl$printf1) for _printf_fp_dec
    main.o(.text.main) refers (Special) to _printf_percent.o(.ARM.Collect$$_printf_percent$$00000000) for _printf_percent
    main.o(.text.main) refers (Special) to _printf_pad.o(.text) for _printf_pre_padding
    main.o(.text.main) refers to stm32f4xx_hal.o(.text.HAL_Init) for HAL_Init
    main.o(.text.main) refers to hw_led.o(.text.HW_LED_Init) for HW_LED_Init
    main.o(.text.main) refers to hw_key.o(.text.HW_KEY_Init) for HW_KEY_Init
    main.o(.text.main) refers to hw_motor.o(.text.HW_Motor_Init) for HW_Motor_Init
    main.o(.text.main) refers to hw_battery.o(.text.HW_Battery_Init) for HW_Battery_Init
    main.o(.text.main) refers to hw_encoder.o(.text.HW_Encoder_Init) for HW_Encoder_Init
    main.o(.text.main) refers to hw_oled.o(.text.HW_OLED_Init) for HW_OLED_Init
    main.o(.text.main) refers to hw_posture.o(.text.HW_Posture_Init) for HW_Posture_Init
    main.o(.text.main) refers to hw_distance.o(.text.HW_Distance_Init) for HW_Distance_Init
    main.o(.text.main) refers to hw_app_transe.o(.text.HW_APP_Transe_Init) for HW_APP_Transe_Init
==============================================================================

Removing Unused input sections from the image.

    Removing main.o(.text), (0 bytes).
    Removing main.o(.ARM.exidx.text.main), (8 bytes).
    Removing main.o(.ARM.use_no_argv), (4 bytes).
    Removing system_stm32f4xx.o(.text), (0 bytes).
    Removing system_stm32f4xx.o(.ARM.exidx.text.SystemInit), (8 bytes).
    Removing system_stm32f4xx.o(.text.SystemCoreClockUpdate), (124 bytes).
    Removing system_stm32f4xx.o(.ARM.exidx.text.SystemCoreClockUpdate), (8 bytes).
    Removing stm32f4xx_sys.o(.text), (0 bytes).
    Removing stm32f4xx_sys.o(.ARM.exidx.text.delay_us), (8 bytes).
    Removing stm32f4xx_sys.o(.ARM.exidx.text.delay_ms), (8 bytes).
    Removing stm32f4xx_sys.o(.text.delay_xms), (36 bytes).
    Removing stm32f4xx_sys.o(.ARM.exidx.text.delay_xms), (8 bytes).
    Removing stm32f4xx_sys.o(.ARM.exidx.text.SysTick_Handler), (8 bytes).
    Removing stm32f4xx_sys.o(.ARM.exidx.text.HAL_MspInit), (8 bytes).
    Removing clib_rdef.o(.text), (0 bytes).
    Removing clib_rdef.o(.ARM.exidx.text._sys_open), (8 bytes).
    Removing clib_rdef.o(.ARM.exidx.text._sys_close), (8 bytes).
    Removing clib_rdef.o(.ARM.exidx.text._sys_write), (8 bytes).
==============================================================================

Image Symbol Table

    Local Symbols

    Symbol Name                              Value     Ov Type        Size  Object(Section)

    ../SYSTEM/Src/startup_stm32f405xx.s      0x00000000   Number         0  startup_stm32f405xx.o ABSOLUTE
    ../clib/angel/boardlib.s                 0x00000000   Number         0  boardinit1.o ABSOLUTE
    ../clib/angel/boardlib.s                 0x00000000   Number         0  boardinit2.o ABSOLUTE
    ../clib/angel/boardlib.s                 0x00000000   Number         0  boardinit3.o ABSOLUTE
    ../clib/angel/boardlib.s                 0x00000000   Number         0  boardshut.o ABSOLUTE
    ../clib/angel/handlers.s                 0x00000000   Number         0  __scatter_copy.o ABSOLUTE
    ../clib/angel/handlers.s                 0x00000000   Number         0  __scatter_zi.o ABSOLUTE
    ../clib/angel/kernel.s                   0x00000000   Number         0  __rtentry.o ABSOLUTE
    ../clib/angel/kernel.s                   0x00000000   Number         0  __rtentry2.o ABSOLUTE
    ../clib/angel/kernel.s                   0x00000000   Number         0  __rtentry4.o ABSOLUTE
    ../clib/angel/kernel.s                   0x00000000   Number         0  rtexit.o ABSOLUTE
    ../clib/angel/kernel.s                   0x00000000   Number         0  rtexit2.o ABSOLUTE
    ../clib/angel/rt.s                       0x00000000   Number         0  aeabi_ldiv0.o ABSOLUTE
    ../clib/angel/rt.s                       0x00000000   Number         0  aeabi_ldiv0_sigfpe.o ABSOLUTE
    ../clib/angel/rt.s                       0x00000000   Number         0  rt_div0.o ABSOLUTE
    ../clib/angel/rt.s                       0x00000000   Number         0  rt_locale.o ABSOLUTE
    ../clib/angel/rt.s                       0x00000000   Number         0  rt_locale_intlibspace.o ABSOLUTE
    ../clib/angel/rt.s                       0x00000000   Number         0  rt_errno_addr.o ABSOLUTE
    ../clib/angel/rt.s                       0x00000000   Number         0  rt_errno_addr_intlibspace.o ABSOLUTE
    ../clib/angel/rt.s                       0x00000000   Number         0  rt_raise.o ABSOLUTE
    ../clib/angel/rt.s                       0x00000000   Number         0  rt_heap_descriptor.o ABSOLUTE
    ../clib/angel/rt.s                       0x00000000   Number         0  rt_heap_descriptor_intlibspace.o ABSOLUTE
    ../clib/angel/scatter.s                  0x00000000   Number         0  __scatter.o ABSOLUTE
    ../clib/angel/startup.s                  0x00000000   Number         0  __main.o ABSOLUTE
    ../clib/angel/sys.s                      0x00000000   Number         0  use_no_semi_2.o ABSOLUTE
    ../clib/angel/sys.s                      0x00000000   Number         0  use_no_semi.o ABSOLUTE
    ../clib/angel/sys.s                      0x00000000   Number         0  libspace.o ABSOLUTE
    ../clib/angel/sys.s                      0x00000000   Number         0  mutex_dummy.o ABSOLUTE
    ../clib/angel/sys.s                      0x00000000   Number         0  sys_stackheap_outer.o ABSOLUTE
    ../clib/angel/sys.s                      0x00000000   Number         0  indicate_semi.o ABSOLUTE
    ../clib/angel/sysapp.c                   0x00000000   Number         0  sys_command.o ABSOLUTE
    ../clib/angel/sysapp.c                   0x00000000   Number         0  sys_command_hlt.o ABSOLUTE
    ../clib/armsys.c                         0x00000000   Number         0  _get_argv.o ABSOLUTE
    ../clib/armsys.c                         0x00000000   Number         0  argv_veneer.o ABSOLUTE
    ../clib/armsys.c                         0x00000000   Number         0  argv_veneer.o ABSOLUTE
    ../clib/armsys.c                         0x00000000   Number         0  _get_argv_nomalloc.o ABSOLUTE
    ../clib/armsys.c                         0x00000000   Number         0  no_argv.o ABSOLUTE
    ../clib/assert.c                         0x00000000   Number         0  assert_stdio.o ABSOLUTE
    ../clib/bigflt.c                         0x00000000   Number         0  bigflt0.o ABSOLUTE
    ../clib/btod.s                           0x00000000   Number         0  btod.o ABSOLUTE
    ../clib/btod_accurate.c                  0x00000000   Number         0  btod_accurate.o ABSOLUTE
    ../clib/btod_accurate.c                  0x00000000   Number         0  btod_accurate_common.o ABSOLUTE
    ../clib/fenv.c                           0x00000000   Number         0  _rserrno.o ABSOLUTE
    ../clib/heap1.c                          0x00000000   Number         0  h1_alloc.o ABSOLUTE
    ../clib/heap1.c                          0x00000000   Number         0  h1_free.o ABSOLUTE
    ../clib/heap1.c                          0x00000000   Number         0  h1_alloc_threads.o ABSOLUTE
    ../clib/heap1.c                          0x00000000   Number         0  h1_free_threads.o ABSOLUTE
    ../clib/heap1.c                          0x00000000   Number         0  h1_init.o ABSOLUTE
    ../clib/heap1.c                          0x00000000   Number         0  h1_init_threads.o ABSOLUTE
    ../clib/heap1.c                          0x00000000   Number         0  h1_extend.o ABSOLUTE
    ../clib/heap1.c                          0x00000000   Number         0  h1_extend_threads.o ABSOLUTE
    ../clib/heap1.c                          0x00000000   Number         0  h1_final.o ABSOLUTE
    ../clib/heap1.c                          0x00000000   Number         0  h1_final_threads.o ABSOLUTE
    ../clib/heap2.c                          0x00000000   Number         0  heap2.o ABSOLUTE
    ../clib/heap2.c                          0x00000000   Number         0  heap2_threads.o ABSOLUTE
    ../clib/heap2.c                          0x00000000   Number         0  fdtree.o ABSOLUTE
    ../clib/heapalloc.c                      0x00000000   Number         0  malloc.o ABSOLUTE
    ../clib/heapalloc.c                      0x00000000   Number         0  free.o ABSOLUTE
    ../clib/heapalloc.c                      0x00000000   Number         0  hguard.o ABSOLUTE
    ../clib/heapalloc.c                      0x00000000   Number         0  init_alloc.o ABSOLUTE
    ../clib/heapalloc.c                      0x00000000   Number         0  heapstubs.o ABSOLUTE
    ../clib/heapalloc.c                      0x00000000   Number         0  hrguard.o ABSOLUTE
    ../clib/heapalloc.c                      0x00000000   Number         0  term_alloc.o ABSOLUTE
    ../clib/heapaux.c                        0x00000000   Number         0  heapauxi.o ABSOLUTE
    ../clib/heapaux.c                        0x00000000   Number         0  heapauxa.o ABSOLUTE
    ../clib/libinit.s                        0x00000000   Number         0  libinit.o ABSOLUTE
    ../clib/libinit.s                        0x00000000   Number         0  libinit2.o ABSOLUTE
    ../clib/libinit.s                        0x00000000   Number         0  libshutdown2.o ABSOLUTE
    ../clib/libinit.s                        0x00000000   Number         0  libshutdown.o ABSOLUTE
    ../clib/locale.s                         0x00000000   Number         0  lc_numeric_c.o ABSOLUTE
    ../clib/longlong.s                       0x00000000   Number         0  lludivv7m.o ABSOLUTE
    ../clib/longlong.s                       0x00000000   Number         0  lludiv10.o ABSOLUTE
    ../clib/longlong.s                       0x00000000   Number         0  llushr.o ABSOLUTE
    ../clib/maybe.s                          0x00000000   Number         0  maybetermalloc1.o ABSOLUTE
    ../clib/maybe.s                          0x00000000   Number         0  maybetermalloc2.o ABSOLUTE
    ../clib/memcpset.s                       0x00000000   Number         0  rt_memclr_w.o ABSOLUTE
    ../clib/memcpset.s                       0x00000000   Number         0  strcmpv7em.o ABSOLUTE
    ../clib/memcpset.s                       0x00000000   Number         0  rt_memcpy_v6.o ABSOLUTE
    ../clib/memcpset.s                       0x00000000   Number         0  rt_memcpy_w.o ABSOLUTE
    ../clib/misc.s                           0x00000000   Number         0  printf_stubs.o ABSOLUTE
    ../clib/printf.c                         0x00000000   Number         0  __2printf.o ABSOLUTE
    ../clib/printf.c                         0x00000000   Number         0  __2snprintf.o ABSOLUTE
    ../clib/printf.c                         0x00000000   Number         0  noretval__2printf.o ABSOLUTE
    ../clib/printf.c                         0x00000000   Number         0  noretval__2snprintf.o ABSOLUTE
    ../clib/printf.c                         0x00000000   Number         0  __printf.o ABSOLUTE
    ../clib/printf.c                         0x00000000   Number         0  _printf_pad.o ABSOLUTE
    ../clib/printf.c                         0x00000000   Number         0  _printf_dec.o ABSOLUTE
    ../clib/printf.c                         0x00000000   Number         0  __printf_flags.o ABSOLUTE
    ../clib/printf.c                         0x00000000   Number         0  __printf_ss.o ABSOLUTE
    ../clib/printf.c                         0x00000000   Number         0  __printf_flags_ss.o ABSOLUTE
    ../clib/printf.c                         0x00000000   Number         0  __printf_wp.o ABSOLUTE
    ../clib/printf.c                         0x00000000   Number         0  __printf_flags_wp.o ABSOLUTE
    ../clib/printf.c                         0x00000000   Number         0  __printf_ss_wp.o ABSOLUTE
    ../clib/printf.c                         0x00000000   Number         0  __printf_flags_ss_wp.o ABSOLUTE
    ../clib/printf.c                         0x00000000   Number         0  _printf_intcommon.o ABSOLUTE
    ../clib/printf.c                         0x00000000   Number         0  _printf_fp_dec.o ABSOLUTE
    ../clib/printf.c                         0x00000000   Number         0  _printf_fp_dec_accurate.o ABSOLUTE
    ../clib/printf.c                         0x00000000   Number         0  _printf_char_common.o ABSOLUTE
    ../clib/printf.c                         0x00000000   Number         0  _sputc.o ABSOLUTE
    ../clib/printf.c                         0x00000000   Number         0  _snputc.o ABSOLUTE
    ../clib/printf.c                         0x00000000   Number         0  _printf_char_file.o ABSOLUTE
    ../clib/printf.c                         0x00000000   Number         0  _printf_fp_infnan.o ABSOLUTE
    ../clib/printf.c                         0x00000000   Number         0  __printf_nopercent.o ABSOLUTE
    ../clib/printf.c                         0x00000000   Number         0  _printf_char_file_locked.o ABSOLUTE
    ../clib/printf_percent.s                 0x00000000   Number         0  _printf_d.o ABSOLUTE
    ../clib/printf_percent.s                 0x00000000   Number         0  _printf_f.o ABSOLUTE
    ../clib/printf_percent.s                 0x00000000   Number         0  _printf_percent.o ABSOLUTE
    ../clib/printf_percent.s                 0x00000000   Number         0  _printf_percent_end.o ABSOLUTE
    ../clib/signal.c                         0x00000000   Number         0  defsig_fpe_outer.o ABSOLUTE
    ../clib/signal.c                         0x00000000   Number         0  defsig_fpe_formal.o ABSOLUTE
    ../clib/signal.c                         0x00000000   Number         0  defsig_rtred_outer.o ABSOLUTE
    ../clib/signal.c                         0x00000000   Number         0  defsig_rtred_formal.o ABSOLUTE
    ../clib/signal.c                         0x00000000   Number         0  defsig_exit.o ABSOLUTE
    ../clib/signal.c                         0x00000000   Number         0  defsig_fpe_inner.o ABSOLUTE
    ../clib/signal.c                         0x00000000   Number         0  defsig_rtred_inner.o ABSOLUTE
    ../clib/signal.c                         0x00000000   Number         0  __raise.o ABSOLUTE
    ../clib/signal.c                         0x00000000   Number         0  defsig_general.o ABSOLUTE
    ../clib/signal.c                         0x00000000   Number         0  defsig_rtmem_outer.o ABSOLUTE
    ../clib/signal.c                         0x00000000   Number         0  defsig_rtmem_formal.o ABSOLUTE
    ../clib/signal.c                         0x00000000   Number         0  defsig_rtmem_inner.o ABSOLUTE
    ../clib/signal.c                         0x00000000   Number         0  defsig_abrt_inner.o ABSOLUTE
    ../clib/signal.c                         0x00000000   Number         0  defsig_stak_inner.o ABSOLUTE
    ../clib/signal.c                         0x00000000   Number         0  defsig_pvfn_inner.o ABSOLUTE
    ../clib/signal.c                         0x00000000   Number         0  defsig_cppl_inner.o ABSOLUTE
    ../clib/signal.c                         0x00000000   Number         0  defsig_segv_inner.o ABSOLUTE
    ../clib/signal.c                         0x00000000   Number         0  defsig_other.o ABSOLUTE
    ../clib/signal.s                         0x00000000   Number         0  defsig.o ABSOLUTE
    ../clib/stdio.c                          0x00000000   Number         0  puts.o ABSOLUTE
    ../clib/stdio.c                          0x00000000   Number         0  fputc.o ABSOLUTE
    ../clib/stdio.c                          0x00000000   Number         0  stdio_streams.o ABSOLUTE
    ../clib/stdio.c                          0x00000000   Number         0  fputc_locked.o ABSOLUTE
    ../clib/stdio.c                          0x00000000   Number         0  ferror.o ABSOLUTE
    ../clib/stdio.c                          0x00000000   Number         0  flsbuf.o ABSOLUTE
    ../clib/stdio.c                          0x00000000   Number         0  initio.o ABSOLUTE
    ../clib/stdio.c                          0x00000000   Number         0  ferror_locked.o ABSOLUTE
    ../clib/stdio.c                          0x00000000   Number         0  initio_locked.o ABSOLUTE
    ../clib/stdio.c                          0x00000000   Number         0  setvbuf.o ABSOLUTE
    ../clib/stdio.c                          0x00000000   Number         0  stdio.o ABSOLUTE
    ../clib/stdio.c                          0x00000000   Number         0  fwritefast.o ABSOLUTE
    ../clib/stdio.c                          0x00000000   Number         0  streamlock.o ABSOLUTE
    ../clib/stdio.c                          0x00000000   Number         0  fopen.o ABSOLUTE
    ../clib/stdio.c                          0x00000000   Number         0  fclose.o ABSOLUTE
    ../clib/stdio.c                          0x00000000   Number         0  puts_locked.o ABSOLUTE
    ../clib/stdio.c                          0x00000000   Number         0  setvbuf_locked.o ABSOLUTE
    ../clib/stdio.c                          0x00000000   Number         0  fopen_locked.o ABSOLUTE
    ../clib/stdio.c                          0x00000000   Number         0  fwritefast_locked.o ABSOLUTE
    ../clib/stdio.c                          0x00000000   Number         0  fflush.o ABSOLUTE
    ../clib/stdio.c                          0x00000000   Number         0  fputs.o ABSOLUTE
    ../clib/stdio.c                          0x00000000   Number         0  fseek.o ABSOLUTE
    ../clib/stdio.c                          0x00000000   Number         0  fputs_locked.o ABSOLUTE
    ../clib/stdio.c                          0x00000000   Number         0  fflush_locked.o ABSOLUTE
    ../clib/stdio.c                          0x00000000   Number         0  ftell.o ABSOLUTE
    ../clib/stdlib.c                         0x00000000   Number         0  exit.o ABSOLUTE
    ../clib/wchar.c                          0x00000000   Number         0  flsbuf_fwide.o ABSOLUTE
    ../fplib/d2f.s                           0x00000000   Number         0  d2f.o ABSOLUTE
    ../fplib/daddsub.s                       0x00000000   Number         0  daddsub_clz.o ABSOLUTE
    ../fplib/ddiv.s                          0x00000000   Number         0  ddiv.o ABSOLUTE
    ../fplib/dflt.s                          0x00000000   Number         0  dflt_clz.o ABSOLUTE
    ../fplib/dmul.s                          0x00000000   Number         0  dmul.o ABSOLUTE
    ../fplib/dnaninf.s                       0x00000000   Number         0  dnaninf.o ABSOLUTE
    ../fplib/dretinf.s                       0x00000000   Number         0  dretinf.o ABSOLUTE
    ../fplib/f2d.s                           0x00000000   Number         0  f2d.o ABSOLUTE
    ../fplib/ffixll.s                        0x00000000   Number         0  ffixll.o ABSOLUTE
    ../fplib/ffltll.s                        0x00000000   Number         0  ffltll_clz.o ABSOLUTE
    ../fplib/fnaninf.s                       0x00000000   Number         0  fnaninf.o ABSOLUTE
    ../fplib/fpinit.s                        0x00000000   Number         0  fpinit.o ABSOLUTE
    ../fplib/frem.s                          0x00000000   Number         0  frem_clz.o ABSOLUTE
    ../fplib/fretinf.s                       0x00000000   Number         0  fretinf.o ABSOLUTE
    ../fplib/istatus.s                       0x00000000   Number         0  istatus.o ABSOLUTE
    ../fplib/printf1.s                       0x00000000   Number         0  printf1.o ABSOLUTE
    ../fplib/usenofp.s                       0x00000000   Number         0  usenofp.o ABSOLUTE
    ../mathlib/atan2f.c                      0x00000000   Number         0  atan2f.o ABSOLUTE
    ../mathlib/fmodf.c                       0x00000000   Number         0  fmodf.o ABSOLUTE
    ../mathlib/fpclassify.c                  0x00000000   Number         0  fpclassify.o ABSOLUTE
    ../mathlib/fpclassifyf.c                 0x00000000   Number         0  fpclassifyf.o ABSOLUTE
    ../mathlib/funder.c                      0x00000000   Number         0  funder.o ABSOLUTE
    app_transe.c                             0x00000000   Number         0  app_transe.o ABSOLUTE
    clib_rdef.c                              0x00000000   Number         0  clib_rdef.o ABSOLUTE
    control.c                                0x00000000   Number         0  control.o ABSOLUTE
    dc.s                                     0x00000000   Number         0  dc.o ABSOLUTE
    hw_app_transe.c                          0x00000000   Number         0  hw_app_transe.o ABSOLUTE
    hw_battery.c                             0x00000000   Number         0  hw_battery.o ABSOLUTE
    hw_direction.c                           0x00000000   Number         0  hw_direction.o ABSOLUTE
    hw_distance.c                            0x00000000   Number         0  hw_distance.o ABSOLUTE
    hw_encoder.c                             0x00000000   Number         0  hw_encoder.o ABSOLUTE
    hw_key.c                                 0x00000000   Number         0  hw_key.o ABSOLUTE
    hw_led.c                                 0x00000000   Number         0  hw_led.o ABSOLUTE
    hw_main_ctrl.c                           0x00000000   Number         0  hw_main_ctrl.o ABSOLUTE
    hw_motor.c                               0x00000000   Number         0  hw_motor.o ABSOLUTE
    hw_oled.c                                0x00000000   Number         0  hw_oled.o ABSOLUTE
    hw_posture.c                             0x00000000   Number         0  hw_posture.o ABSOLUTE
    iic_software.c                           0x00000000   Number         0  iic_software.o ABSOLUTE
    main.c                                   0x00000000   Number         0  main.o ABSOLUTE
    main_ctrl.c                              0x00000000   Number         0  main_ctrl.o ABSOLUTE
    stm32f4xx_hal.c                          0x00000000   Number         0  stm32f4xx_hal.o ABSOLUTE
    stm32f4xx_hal_adc.c                      0x00000000   Number         0  stm32f4xx_hal_adc.o ABSOLUTE
    stm32f4xx_hal_adc_ex.c                   0x00000000   Number         0  stm32f4xx_hal_adc_ex.o ABSOLUTE
    stm32f4xx_hal_can.c                      0x00000000   Number         0  stm32f4xx_hal_can.o ABSOLUTE
    stm32f4xx_hal_cec.c                      0x00000000   Number         0  stm32f4xx_hal_cec.o ABSOLUTE
    stm32f4xx_hal_cortex.c                   0x00000000   Number         0  stm32f4xx_hal_cortex.o ABSOLUTE
    stm32f4xx_hal_crc.c                      0x00000000   Number         0  stm32f4xx_hal_crc.o ABSOLUTE
    stm32f4xx_hal_cryp.c                     0x00000000   Number         0  stm32f4xx_hal_cryp.o ABSOLUTE
    stm32f4xx_hal_cryp_ex.c                  0x00000000   Number         0  stm32f4xx_hal_cryp_ex.o ABSOLUTE
    stm32f4xx_hal_dac.c                      0x00000000   Number         0  stm32f4xx_hal_dac.o ABSOLUTE
    stm32f4xx_hal_dac_ex.c                   0x00000000   Number         0  stm32f4xx_hal_dac_ex.o ABSOLUTE
    stm32f4xx_hal_dcmi.c                     0x00000000   Number         0  stm32f4xx_hal_dcmi.o ABSOLUTE
    stm32f4xx_hal_dcmi_ex.c                  0x00000000   Number         0  stm32f4xx_hal_dcmi_ex.o ABSOLUTE
    stm32f4xx_hal_dfsdm.c                    0x00000000   Number         0  stm32f4xx_hal_dfsdm.o ABSOLUTE
    stm32f4xx_hal_dma.c                      0x00000000   Number         0  stm32f4xx_hal_dma.o ABSOLUTE
    stm32f4xx_hal_dma2d.c                    0x00000000   Number         0  stm32f4xx_hal_dma2d.o ABSOLUTE
    stm32f4xx_hal_dma_ex.c                   0x00000000   Number         0  stm32f4xx_hal_dma_ex.o ABSOLUTE
    stm32f4xx_hal_dsi.c                      0x00000000   Number         0  stm32f4xx_hal_dsi.o ABSOLUTE
    stm32f4xx_hal_eth.c                      0x00000000   Number         0  stm32f4xx_hal_eth.o ABSOLUTE
    stm32f4xx_hal_exti.c                     0x00000000   Number         0  stm32f4xx_hal_exti.o ABSOLUTE
    stm32f4xx_hal_flash.c                    0x00000000   Number         0  stm32f4xx_hal_flash.o ABSOLUTE
    stm32f4xx_hal_flash_ex.c                 0x00000000   Number         0  stm32f4xx_hal_flash_ex.o ABSOLUTE
    stm32f4xx_hal_flash_ramfunc.c            0x00000000   Number         0  stm32f4xx_hal_flash_ramfunc.o ABSOLUTE
    stm32f4xx_hal_fmpi2c.c                   0x00000000   Number         0  stm32f4xx_hal_fmpi2c.o ABSOLUTE
    stm32f4xx_hal_fmpi2c_ex.c                0x00000000   Number         0  stm32f4xx_hal_fmpi2c_ex.o ABSOLUTE
    stm32f4xx_hal_gpio.c                     0x00000000   Number         0  stm32f4xx_hal_gpio.o ABSOLUTE
    stm32f4xx_hal_hash.c                     0x00000000   Number         0  stm32f4xx_hal_hash.o ABSOLUTE
    stm32f4xx_hal_hash_ex.c                  0x00000000   Number         0  stm32f4xx_hal_hash_ex.o ABSOLUTE
    stm32f4xx_hal_hcd.c                      0x00000000   Number         0  stm32f4xx_hal_hcd.o ABSOLUTE
    stm32f4xx_hal_i2c.c                      0x00000000   Number         0  stm32f4xx_hal_i2c.o ABSOLUTE
    stm32f4xx_hal_i2c_ex.c                   0x00000000   Number         0  stm32f4xx_hal_i2c_ex.o ABSOLUTE
    stm32f4xx_hal_i2s.c                      0x00000000   Number         0  stm32f4xx_hal_i2s.o ABSOLUTE
    stm32f4xx_hal_i2s_ex.c                   0x00000000   Number         0  stm32f4xx_hal_i2s_ex.o ABSOLUTE
    stm32f4xx_hal_irda.c                     0x00000000   Number         0  stm32f4xx_hal_irda.o ABSOLUTE
    stm32f4xx_hal_iwdg.c                     0x00000000   Number         0  stm32f4xx_hal_iwdg.o ABSOLUTE
    stm32f4xx_hal_lptim.c                    0x00000000   Number         0  stm32f4xx_hal_lptim.o ABSOLUTE
    stm32f4xx_hal_ltdc.c                     0x00000000   Number         0  stm32f4xx_hal_ltdc.o ABSOLUTE
    stm32f4xx_hal_ltdc_ex.c                  0x00000000   Number         0  stm32f4xx_hal_ltdc_ex.o ABSOLUTE
    stm32f4xx_hal_mmc.c                      0x00000000   Number         0  stm32f4xx_hal_mmc.o ABSOLUTE
    stm32f4xx_hal_nand.c                     0x00000000   Number         0  stm32f4xx_hal_nand.o ABSOLUTE
    stm32f4xx_hal_nor.c                      0x00000000   Number         0  stm32f4xx_hal_nor.o ABSOLUTE
    stm32f4xx_hal_pccard.c                   0x00000000   Number         0  stm32f4xx_hal_pccard.o ABSOLUTE
    stm32f4xx_hal_pcd.c                      0x00000000   Number         0  stm32f4xx_hal_pcd.o ABSOLUTE
    stm32f4xx_hal_pcd_ex.c                   0x00000000   Number         0  stm32f4xx_hal_pcd_ex.o ABSOLUTE
    stm32f4xx_hal_pwr.c                      0x00000000   Number         0  stm32f4xx_hal_pwr.o ABSOLUTE
    stm32f4xx_hal_pwr_ex.c                   0x00000000   Number         0  stm32f4xx_hal_pwr_ex.o ABSOLUTE
    stm32f4xx_hal_qspi.c                     0x00000000   Number         0  stm32f4xx_hal_qspi.o ABSOLUTE
    stm32f4xx_hal_rcc.c                      0x00000000   Number         0  stm32f4xx_hal_rcc.o ABSOLUTE
    stm32f4xx_hal_rcc_ex.c                   0x00000000   Number         0  stm32f4xx_hal_rcc_ex.o ABSOLUTE
    stm32f4xx_hal_rng.c                      0x00000000   Number         0  stm32f4xx_hal_rng.o ABSOLUTE
    stm32f4xx_hal_rtc.c                      0x00000000   Number         0  stm32f4xx_hal_rtc.o ABSOLUTE
    stm32f4xx_hal_rtc_ex.c                   0x00000000   Number         0  stm32f4xx_hal_rtc_ex.o ABSOLUTE
    stm32f4xx_hal_sai.c                      0x00000000   Number         0  stm32f4xx_hal_sai.o ABSOLUTE
    stm32f4xx_hal_sai_ex.c                   0x00000000   Number         0  stm32f4xx_hal_sai_ex.o ABSOLUTE
    stm32f4xx_hal_sd.c                       0x00000000   Number         0  stm32f4xx_hal_sd.o ABSOLUTE
    stm32f4xx_hal_sdram.c                    0x00000000   Number         0  stm32f4xx_hal_sdram.o ABSOLUTE
    stm32f4xx_hal_smartcard.c                0x00000000   Number         0  stm32f4xx_hal_smartcard.o ABSOLUTE
    stm32f4xx_hal_smbus.c                    0x00000000   Number         0  stm32f4xx_hal_smbus.o ABSOLUTE
    stm32f4xx_hal_spdifrx.c                  0x00000000   Number         0  stm32f4xx_hal_spdifrx.o ABSOLUTE
    stm32f4xx_hal_spi.c                      0x00000000   Number         0  stm32f4xx_hal_spi.o ABSOLUTE
    stm32f4xx_hal_sram.c                     0x00000000   Number         0  stm32f4xx_hal_sram.o ABSOLUTE
    stm32f4xx_hal_tim.c                      0x00000000   Number         0  stm32f4xx_hal_tim.o ABSOLUTE
    stm32f4xx_hal_tim_ex.c                   0x00000000   Number         0  stm32f4xx_hal_tim_ex.o ABSOLUTE
    stm32f4xx_hal_uart.c                     0x00000000   Number         0  stm32f4xx_hal_uart.o ABSOLUTE
    stm32f4xx_hal_usart.c                    0x00000000   Number         0  stm32f4xx_hal_usart.o ABSOLUTE
    stm32f4xx_hal_wwdg.c                     0x00000000   Number         0  stm32f4xx_hal_wwdg.o ABSOLUTE
    stm32f4xx_ll_adc.c                       0x00000000   Number         0  stm32f4xx_ll_adc.o ABSOLUTE
    stm32f4xx_ll_crc.c                       0x00000000   Number         0  stm32f4xx_ll_crc.o ABSOLUTE
    stm32f4xx_ll_dac.c                       0x00000000   Number         0  stm32f4xx_ll_dac.o ABSOLUTE
    stm32f4xx_ll_dma.c                       0x00000000   Number         0  stm32f4xx_ll_dma.o ABSOLUTE
    stm32f4xx_ll_dma2d.c                     0x00000000   Number         0  stm32f4xx_ll_dma2d.o ABSOLUTE
    stm32f4xx_ll_exti.c                      0x00000000   Number         0  stm32f4xx_ll_exti.o ABSOLUTE
    stm32f4xx_ll_fmc.c                       0x00000000   Number         0  stm32f4xx_ll_fmc.o ABSOLUTE
    stm32f4xx_ll_fsmc.c                      0x00000000   Number         0  stm32f4xx_ll_fsmc.o ABSOLUTE
    stm32f4xx_ll_gpio.c                      0x00000000   Number         0  stm32f4xx_ll_gpio.o ABSOLUTE
    stm32f4xx_ll_i2c.c                       0x00000000   Number         0  stm32f4xx_ll_i2c.o ABSOLUTE
    stm32f4xx_ll_lptim.c                     0x00000000   Number         0  stm32f4xx_ll_lptim.o ABSOLUTE
    stm32f4xx_ll_pwr.c                       0x00000000   Number         0  stm32f4xx_ll_pwr.o ABSOLUTE
    stm32f4xx_ll_rcc.c                       0x00000000   Number         0  stm32f4xx_ll_rcc.o ABSOLUTE
    stm32f4xx_ll_rng.c                       0x00000000   Number         0  stm32f4xx_ll_rng.o ABSOLUTE
    stm32f4xx_ll_rtc.c                       0x00000000   Number         0  stm32f4xx_ll_rtc.o ABSOLUTE
    stm32f4xx_ll_sdmmc.c                     0x00000000   Number         0  stm32f4xx_ll_sdmmc.o ABSOLUTE
    stm32f4xx_ll_spi.c                       0x00000000   Number         0  stm32f4xx_ll_spi.o ABSOLUTE
    stm32f4xx_ll_tim.c                       0x00000000   Number         0  stm32f4xx_ll_tim.o ABSOLUTE
    stm32f4xx_ll_usart.c                     0x00000000   Number         0  stm32f4xx_ll_usart.o ABSOLUTE
    stm32f4xx_ll_usb.c                       0x00000000   Number         0  stm32f4xx_ll_usb.o ABSOLUTE
    stm32f4xx_ll_utils.c                     0x00000000   Number         0  stm32f4xx_ll_utils.o ABSOLUTE
    stm32f4xx_sys.c                          0x00000000   Number         0  stm32f4xx_sys.o ABSOLUTE
    system_stm32f4xx.c                       0x00000000   Number         0  system_stm32f4xx.o ABSOLUTE
    RESET                                    0x08000000   Section      392  startup_stm32f405xx.o(RESET)
    !!!main                                  0x08000188   Section        8  __main.o(!!!main)
    !!!scatter                               0x08000190   Section       52  __scatter.o(!!!scatter)
    !!handler_copy                           0x080001c4   Section       26  __scatter_copy.o(!!handler_copy)
    !!handler_zi                             0x080001e0   Section       28  __scatter_zi.o(!!handler_zi)
    .ARM.Collect$$_printf_percent$$00000000  0x080001fc   Section        0  _printf_percent.o(.ARM.Collect$$_printf_percent$$00000000)
    .ARM.Collect$$_printf_percent$$00000003  0x080001fc   Section        6  _printf_f.o(.ARM.Collect$$_printf_percent$$00000003)
    .ARM.Collect$$_printf_percent$$00000009  0x08000202   Section        6  _printf_d.o(.ARM.Collect$$_printf_percent$$00000009)
    .ARM.Collect$$_printf_percent$$00000017  0x08000208   Section        4  _printf_percent_end.o(.ARM.Collect$$_printf_percent$$00000017)
    .ARM.Collect$$libinit$$00000000          0x0800020c   Section        2  libinit.o(.ARM.Collect$$libinit$$00000000)
    .ARM.Collect$$libinit$$00000001          0x0800020e   Section        4  libinit2.o(.ARM.Collect$$libinit$$00000001)
    .ARM.Collect$$libinit$$00000004          0x08000212   Section        0  libinit2.o(.ARM.Collect$$libinit$$00000004)
    .ARM.Collect$$libinit$$00000005          0x08000212   Section        8  libinit2.o(.ARM.Collect$$libinit$$00000005)
    .ARM.Collect$$libinit$$0000000A          0x0800021a   Section        0  libinit2.o(.ARM.Collect$$libinit$$0000000A)
    .ARM.Collect$$libinit$$0000000C          0x0800021a   Section        0  libinit2.o(.ARM.Collect$$libinit$$0000000C)
    .ARM.Collect$$libinit$$0000000E          0x0800021a   Section        0  libinit2.o(.ARM.Collect$$libinit$$0000000E)
    .ARM.Collect$$libinit$$0000000F          0x0800021a   Section        6  libinit2.o(.ARM.Collect$$libinit$$0000000F)
    .ARM.Collect$$libinit$$00000011          0x08000220   Section        0  libinit2.o(.ARM.Collect$$libinit$$00000011)
    .ARM.Collect$$libinit$$00000013          0x08000220   Section        0  libinit2.o(.ARM.Collect$$libinit$$00000013)
    .ARM.Collect$$libinit$$00000015          0x08000220   Section        0  libinit2.o(.ARM.Collect$$libinit$$00000015)
    .ARM.Collect$$libinit$$00000016          0x08000220   Section       10  libinit2.o(.ARM.Collect$$libinit$$00000016)
    .ARM.Collect$$libinit$$00000017          0x0800022a   Section        0  libinit2.o(.ARM.Collect$$libinit$$00000017)
    .ARM.Collect$$libinit$$00000019          0x0800022a   Section        0  libinit2.o(.ARM.Collect$$libinit$$00000019)
    .ARM.Collect$$libinit$$0000001B          0x0800022a   Section        0  libinit2.o(.ARM.Collect$$libinit$$0000001B)
    .ARM.Collect$$libinit$$0000001D          0x0800022a   Section        0  libinit2.o(.ARM.Collect$$libinit$$0000001D)
    .ARM.Collect$$libinit$$0000001F          0x0800022a   Section        0  libinit2.o(.ARM.Collect$$libinit$$0000001F)
    .ARM.Collect$$libinit$$00000021          0x0800022a   Section        0  libinit2.o(.ARM.Collect$$libinit$$00000021)
    .ARM.Collect$$libinit$$00000023          0x0800022a   Section        0  libinit2.o(.ARM.Collect$$libinit$$00000023)
    .ARM.Collect$$libinit$$00000024          0x0800022a   Section        4  libinit2.o(.ARM.Collect$$libinit$$00000024)
    .ARM.Collect$$libinit$$00000025          0x0800022e   Section        0  libinit2.o(.ARM.Collect$$libinit$$00000025)
    .ARM.Collect$$libinit$$0000002C          0x0800022e   Section        0  libinit2.o(.ARM.Collect$$libinit$$0000002C)
    .ARM.Collect$$libinit$$0000002E          0x0800022e   Section        0  libinit2.o(.ARM.Collect$$libinit$$0000002E)
    .ARM.Collect$$libinit$$00000030          0x0800022e   Section        0  libinit2.o(.ARM.Collect$$libinit$$00000030)
    .ARM.Collect$$libinit$$00000032          0x0800022e   Section        0  libinit2.o(.ARM.Collect$$libinit$$00000032)
    .ARM.Collect$$libinit$$00000033          0x0800022e   Section        2  libinit2.o(.ARM.Collect$$libinit$$00000033)
    .ARM.Collect$$libshutdown$$00000000      0x08000230   Section        2  libshutdown.o(.ARM.Collect$$libshutdown$$00000000)
    .ARM.Collect$$libshutdown$$00000002      0x08000232   Section        0  libshutdown2.o(.ARM.Collect$$libshutdown$$00000002)
    .ARM.Collect$$libshutdown$$00000003      0x08000232   Section        4  libshutdown2.o(.ARM.Collect$$libshutdown$$00000003)
    .ARM.Collect$$libshutdown$$00000004      0x08000236   Section        0  libshutdown2.o(.ARM.Collect$$libshutdown$$00000004)
    .ARM.Collect$$libshutdown$$00000007      0x08000236   Section        0  libshutdown2.o(.ARM.Collect$$libshutdown$$00000007)
    .ARM.Collect$$libshutdown$$0000000A      0x08000236   Section        0  libshutdown2.o(.ARM.Collect$$libshutdown$$0000000A)
    .ARM.Collect$$libshutdown$$0000000C      0x08000236   Section        0  libshutdown2.o(.ARM.Collect$$libshutdown$$0000000C)
    .ARM.Collect$$libshutdown$$0000000F      0x08000236   Section        0  libshutdown2.o(.ARM.Collect$$libshutdown$$0000000F)
    .ARM.Collect$$libshutdown$$00000010      0x08000236   Section        2  libshutdown2.o(.ARM.Collect$$libshutdown$$00000010)
    .ARM.Collect$$rtentry$$00000000          0x08000238   Section        0  __rtentry.o(.ARM.Collect$$rtentry$$00000000)
    .ARM.Collect$$rtentry$$00000002          0x08000238   Section        0  __rtentry2.o(.ARM.Collect$$rtentry$$00000002)
    .ARM.Collect$$rtentry$$00000004          0x08000238   Section        6  __rtentry4.o(.ARM.Collect$$rtentry$$00000004)
    .ARM.Collect$$rtentry$$00000009          0x0800023e   Section        0  __rtentry2.o(.ARM.Collect$$rtentry$$00000009)
    .ARM.Collect$$rtentry$$0000000A          0x0800023e   Section        4  __rtentry2.o(.ARM.Collect$$rtentry$$0000000A)
    .ARM.Collect$$rtentry$$0000000C          0x08000242   Section        0  __rtentry2.o(.ARM.Collect$$rtentry$$0000000C)
    .ARM.Collect$$rtentry$$0000000D          0x08000242   Section        8  __rtentry2.o(.ARM.Collect$$rtentry$$0000000D)
    .ARM.Collect$$rtexit$$00000000           0x0800024a   Section        2  rtexit.o(.ARM.Collect$$rtexit$$00000000)
    .ARM.Collect$$rtexit$$00000002           0x0800024c   Section        0  rtexit2.o(.ARM.Collect$$rtexit$$00000002)
    .ARM.Collect$$rtexit$$00000003           0x0800024c   Section        4  rtexit2.o(.ARM.Collect$$rtexit$$00000003)
    .ARM.Collect$$rtexit$$00000004           0x08000250   Section        6  rtexit2.o(.ARM.Collect$$rtexit$$00000004)
    $v0                                      0x08000258   Number         0  startup_stm32f405xx.o(.text)
    .text                                    0x08000258   Section       64  startup_stm32f405xx.o(.text)
    .text                                    0x08000298   Section        2  use_no_semi_2.o(.text)
    .text                                    0x0800029a   Section      240  lludivv7m.o(.text)
    .text                                    0x0800038c   Section        0  __2printf.o(.text)
    .text                                    0x080003a4   Section        0  __2snprintf.o(.text)
    .text                                    0x080003dc   Section        0  _printf_pad.o(.text)
    .text                                    0x0800042c   Section        0  _printf_dec.o(.text)
    .text                                    0x080004a4   Section        0  __printf_wp.o(.text)
    .text                                    0x080005b4   Section        0  puts.o(.text)
    .text                                    0x080005e0   Section       78  rt_memclr_w.o(.text)
    .text                                    0x0800062e   Section        0  heapauxi.o(.text)
    .text                                    0x08000634   Section        2  use_no_semi.o(.text)
    .text                                    0x08000636   Section        0  _rserrno.o(.text)
    .text                                    0x0800064c   Section        0  _printf_intcommon.o(.text)
    _fp_digits                               0x080006ff   Thumb Code   432  _printf_fp_dec.o(.text)
    .text                                    0x080006fe   Section        0  _printf_fp_dec.o(.text)
    _printf_input_char                       0x08000b1d   Thumb Code    10  _printf_char_common.o(.text)
    .text                                    0x08000b1c   Section        0  _printf_char_common.o(.text)
    .text                                    0x08000b4c   Section        0  _sputc.o(.text)
    .text                                    0x08000b56   Section        0  _snputc.o(.text)
    .text                                    0x08000b68   Section        0  _printf_char_file.o(.text)
    .text                                    0x08000b8c   Section        8  rt_locale_intlibspace.o(.text)
    .text                                    0x08000b94   Section        8  rt_errno_addr_intlibspace.o(.text)
    .text                                    0x08000b9c   Section      138  lludiv10.o(.text)
    .text                                    0x08000c28   Section        0  _printf_fp_infnan.o(.text)
    .text                                    0x08000ca8   Section        0  bigflt0.o(.text)
    .text                                    0x08000d8c   Section        0  ferror.o(.text)
    .text                                    0x08000d94   Section        0  flsbuf.o(.text)
    .text                                    0x08000f6c   Section        0  initio.o(.text)
    .text                                    0x080010a4   Section        8  libspace.o(.text)
    .text                                    0x080010ac   Section       74  sys_stackheap_outer.o(.text)
    .text                                    0x080010f6   Section        0  h1_alloc.o(.text)
    .text                                    0x08001154   Section        0  h1_free.o(.text)
    .text                                    0x080011a2   Section        0  setvbuf.o(.text)
    .text                                    0x080011e8   Section        0  stdio.o(.text)
    _freopen_locked                          0x080012d9   Thumb Code     0  fopen.o(.text)
    .text                                    0x080012d8   Section        0  fopen.o(.text)
    .text                                    0x080013c8   Section        0  fclose.o(.text)
    .text                                    0x08001414   Section        0  exit.o(.text)
    .text                                    0x08001426   Section        0  defsig_rtred_outer.o(.text)
    .text                                    0x08001438   Section      124  strcmpv7em.o(.text)
    .text                                    0x080014b4   Section        8  rt_heap_descriptor_intlibspace.o(.text)
    .text                                    0x080014bc   Section        0  hguard.o(.text)
    .text                                    0x080014c0   Section        0  init_alloc.o(.text)
    .text                                    0x0800154a   Section        0  h1_init.o(.text)
    .text                                    0x08001558   Section        0  fseek.o(.text)
    .text                                    0x08001650   Section        0  defsig_exit.o(.text)
    .text                                    0x0800165c   Section        0  defsig_rtred_inner.o(.text)
    .text                                    0x08001690   Section        0  maybetermalloc1.o(.text)
    .text                                    0x08001690   Section        0  h1_extend.o(.text)
    .text                                    0x080016c4   Section        0  ftell.o(.text)
    .text                                    0x08001706   Section        0  defsig_general.o(.text)
    .text                                    0x08001738   Section        0  defsig_rtmem_outer.o(.text)
    .text                                    0x08001748   Section        0  defsig_rtmem_inner.o(.text)
    [Anonymous Symbol]                       0x08001798   Section        0  app_transe.o(.text.APP_Transe_Fresh)
    [Anonymous Symbol]                       0x08001c48   Section        0  hw_battery.o(.text.Battery_Voltage_Fresh)
    [Anonymous Symbol]                       0x08001d18   Section        0  control.o(.text.Control_Enable)
    [Anonymous Symbol]                       0x08001d24   Section        0  hw_main_ctrl.o(.text.DMA2_Stream1_IRQHandler)
    [Anonymous Symbol]                       0x08001da8   Section        0  hw_direction.o(.text.Direction_Fresh)
    [Anonymous Symbol]                       0x08001ec0   Section        0  hw_posture.o(.text.EXTI15_10_IRQHandler)
    [Anonymous Symbol]                       0x08001eda   Section        0  hw_main_ctrl.o(.text.EXTI9_5_IRQHandler)
    [Anonymous Symbol]                       0x08001ef4   Section        0  hw_battery.o(.text.Get_Battery_Voltage)
    [Anonymous Symbol]                       0x08001f02   Section        0  hw_direction.o(.text.Get_Direction)
    [Anonymous Symbol]                       0x08001f10   Section        0  hw_distance.o(.text.Get_Distance)
    [Anonymous Symbol]                       0x08001fc4   Section        0  hw_encoder.o(.text.Get_Encoder)
    [Anonymous Symbol]                       0x08001fec   Section        0  stm32f4xx_hal_adc.o(.text.HAL_ADC_ConfigChannel)
    [Anonymous Symbol]                       0x08002100   Section        0  stm32f4xx_hal_adc.o(.text.HAL_ADC_GetValue)
    [Anonymous Symbol]                       0x08002106   Section        0  stm32f4xx_hal_adc.o(.text.HAL_ADC_Init)
    [Anonymous Symbol]                       0x08002252   Section        0  stm32f4xx_hal_adc.o(.text.HAL_ADC_MspInit)
    [Anonymous Symbol]                       0x08002254   Section        0  stm32f4xx_hal_adc.o(.text.HAL_ADC_PollForConversion)
    [Anonymous Symbol]                       0x08002304   Section        0  stm32f4xx_hal_adc.o(.text.HAL_ADC_Start)
    [Anonymous Symbol]                       0x080023f8   Section        0  stm32f4xx_hal_dma.o(.text.HAL_DMA_DeInit)
    [Anonymous Symbol]                       0x08002480   Section        0  stm32f4xx_hal_dma.o(.text.HAL_DMA_Init)
    [Anonymous Symbol]                       0x080025c8   Section        0  stm32f4xx_hal_dma.o(.text.HAL_DMA_Start)
    [Anonymous Symbol]                       0x08002634   Section        0  stm32f4xx_hal_gpio.o(.text.HAL_GPIO_Init)
    [Anonymous Symbol]                       0x080027c8   Section        0  stm32f4xx_hal_gpio.o(.text.HAL_GPIO_ReadPin)
    [Anonymous Symbol]                       0x080027d2   Section        0  stm32f4xx_hal_gpio.o(.text.HAL_GPIO_WritePin)
    [Anonymous Symbol]                       0x080027dc   Section        0  stm32f4xx_hal.o(.text.HAL_GetREVID)
    [Anonymous Symbol]                       0x080027ea   Section        0  stm32f4xx_hal.o(.text.HAL_GetTick)
    [Anonymous Symbol]                       0x080027f6   Section        0  stm32f4xx_hal.o(.text.HAL_IncTick)
    [Anonymous Symbol]                       0x08002810   Section        0  stm32f4xx_hal.o(.text.HAL_Init)
    [Anonymous Symbol]                       0x0800283e   Section        0  stm32f4xx_hal.o(.text.HAL_InitTick)
    [Anonymous Symbol]                       0x08002890   Section        0  stm32f4xx_sys.o(.text.HAL_MspInit)
    [Anonymous Symbol]                       0x080029aa   Section        0  stm32f4xx_hal_cortex.o(.text.HAL_NVIC_EnableIRQ)
    [Anonymous Symbol]                       0x080029c8   Section        0  stm32f4xx_hal_cortex.o(.text.HAL_NVIC_SetPriority)
    [Anonymous Symbol]                       0x08002a1e   Section        0  stm32f4xx_hal_cortex.o(.text.HAL_NVIC_SetPriorityGrouping)
    [Anonymous Symbol]                       0x08002a3e   Section        0  stm32f4xx_hal_cortex.o(.text.HAL_NVIC_SystemReset)
    [Anonymous Symbol]                       0x08002a42   Section        0  stm32f4xx_hal_pwr.o(.text.HAL_PWR_EnableBkUpAccess)
    [Anonymous Symbol]                       0x08002a50   Section        0  stm32f4xx_hal_rcc.o(.text.HAL_RCC_ClockConfig)
    [Anonymous Symbol]                       0x08002b96   Section        0  stm32f4xx_hal_rcc.o(.text.HAL_RCC_GetPCLK1Freq)
    [Anonymous Symbol]                       0x08002bbc   Section        0  stm32f4xx_hal_rcc.o(.text.HAL_RCC_GetPCLK2Freq)
    [Anonymous Symbol]                       0x08002be2   Section        0  stm32f4xx_hal_rcc.o(.text.HAL_RCC_GetSysClockFreq)
    [Anonymous Symbol]                       0x08002c4c   Section        0  stm32f4xx_hal_rcc.o(.text.HAL_RCC_OscConfig)
    [Anonymous Symbol]                       0x08002f4c   Section        0  stm32f4xx_hal_cortex.o(.text.HAL_SYSTICK_CLKSourceConfig)
    [Anonymous Symbol]                       0x08002f64   Section        0  stm32f4xx_hal_cortex.o(.text.HAL_SYSTICK_Config)
    [Anonymous Symbol]                       0x08002f90   Section        0  stm32f4xx_hal_tim.o(.text.HAL_TIM_Encoder_Init)
    [Anonymous Symbol]                       0x0800302e   Section        0  stm32f4xx_hal_tim.o(.text.HAL_TIM_Encoder_MspInit)
    [Anonymous Symbol]                       0x08003030   Section        0  stm32f4xx_hal_tim.o(.text.HAL_TIM_Encoder_Start)
    [Anonymous Symbol]                       0x08003074   Section        0  stm32f4xx_hal_tim.o(.text.HAL_TIM_IC_ConfigChannel)
    [Anonymous Symbol]                       0x08003194   Section        0  stm32f4xx_hal_tim.o(.text.HAL_TIM_IC_Init)
    [Anonymous Symbol]                       0x080031c8   Section        0  stm32f4xx_hal_tim.o(.text.HAL_TIM_IC_MspInit)
    [Anonymous Symbol]                       0x080031cc   Section        0  stm32f4xx_hal_tim.o(.text.HAL_TIM_IC_Start_IT)
    [Anonymous Symbol]                       0x08003238   Section        0  stm32f4xx_hal_tim.o(.text.HAL_TIM_PWM_ConfigChannel)
    [Anonymous Symbol]                       0x080032d8   Section        0  stm32f4xx_hal_tim.o(.text.HAL_TIM_PWM_Init)
    [Anonymous Symbol]                       0x0800330c   Section        0  stm32f4xx_hal_tim.o(.text.HAL_TIM_PWM_MspInit)
    [Anonymous Symbol]                       0x0800330e   Section        0  stm32f4xx_hal_tim.o(.text.HAL_TIM_PWM_Start)
    [Anonymous Symbol]                       0x0800335c   Section        0  stm32f4xx_hal_tim.o(.text.HAL_TIM_ReadCapturedValue)
    [Anonymous Symbol]                       0x0800338a   Section        0  stm32f4xx_hal_uart.o(.text.HAL_UART_Init)
    [Anonymous Symbol]                       0x080033e6   Section        0  stm32f4xx_hal_uart.o(.text.HAL_UART_MspInit)
    [Anonymous Symbol]                       0x080033e8   Section        0  stm32f4xx_hal_uart.o(.text.HAL_UART_Transmit)
    HWMC5883_Write_Byte                      0x0800349d   Thumb Code   110  hw_direction.o(.text.HWMC5883_Write_Byte)
    [Anonymous Symbol]                       0x0800349c   Section        0  hw_direction.o(.text.HWMC5883_Write_Byte)
    [Anonymous Symbol]                       0x0800350a   Section        0  hw_app_transe.o(.text.HW_APP_Transe_Init)
    [Anonymous Symbol]                       0x080035a4   Section        0  app_transe.o(.text.HW_APP_Transe_Process)
    [Anonymous Symbol]                       0x080036b0   Section        0  hw_app_transe.o(.text.HW_APP_Transe_Send)
    [Anonymous Symbol]                       0x080036c4   Section        0  hw_battery.o(.text.HW_Battery_Init)
    [Anonymous Symbol]                       0x08003760   Section        0  hw_direction.o(.text.HW_Direction_Init)
    [Anonymous Symbol]                       0x080037c0   Section        0  hw_direction.o(.text.HW_Direction_Read)
    [Anonymous Symbol]                       0x080038be   Section        0  hw_distance.o(.text.HW_Distance_Init)
    [Anonymous Symbol]                       0x0800399e   Section        0  hw_encoder.o(.text.HW_Encoder_Init)
    [Anonymous Symbol]                       0x08003a9e   Section        0  hw_key.o(.text.HW_KEY_Init)
    [Anonymous Symbol]                       0x08003ae0   Section        0  hw_led.o(.text.HW_LED_Init)
    [Anonymous Symbol]                       0x08003b30   Section        0  hw_main_ctrl.o(.text.HW_Main_Ctrl_Init)
    [Anonymous Symbol]                       0x08003cc0   Section        0  main_ctrl.o(.text.HW_Main_Ctrl_Process)
    [Anonymous Symbol]                       0x08003d1c   Section        0  hw_main_ctrl.o(.text.HW_Main_Ctrl_Transe)
    [Anonymous Symbol]                       0x08003d32   Section        0  hw_motor.o(.text.HW_Motor_Init)
    [Anonymous Symbol]                       0x08003e40   Section        0  hw_oled.o(.text.HW_OLED_Init)
    [Anonymous Symbol]                       0x080041e8   Section        0  hw_posture.o(.text.HW_Posture_Init)
    [Anonymous Symbol]                       0x080042c4   Section        0  control.o(.text.HW_Posture_Process)
    __arm_cp.5_17                            0x080046ec   Number         4  control.o(.text.HW_Posture_Process)
    __arm_cp.5_18                            0x080046f0   Number         4  control.o(.text.HW_Posture_Process)
    __arm_cp.5_19                            0x080046f4   Number         4  control.o(.text.HW_Posture_Process)
    __arm_cp.5_20                            0x080046f8   Number         4  control.o(.text.HW_Posture_Process)
    __arm_cp.5_21                            0x080046fc   Number         4  control.o(.text.HW_Posture_Process)
    __arm_cp.5_22                            0x08004700   Number         4  control.o(.text.HW_Posture_Process)
    __arm_cp.5_23                            0x08004704   Number         4  control.o(.text.HW_Posture_Process)
    __arm_cp.5_24                            0x08004708   Number         4  control.o(.text.HW_Posture_Process)
    [Anonymous Symbol]                       0x08004870   Section        0  iic_software.o(.text.IIC_Read_Byte_General)
    [Anonymous Symbol]                       0x08004974   Section        0  iic_software.o(.text.IIC_Send_Byte_General)
    [Anonymous Symbol]                       0x08004a94   Section        0  iic_software.o(.text.IIC_Start_General)
    [Anonymous Symbol]                       0x08004b08   Section        0  iic_software.o(.text.IIC_Stop_General)
    MPU6050_Read_Byte                        0x08004b7b   Thumb Code   152  hw_posture.o(.text.MPU6050_Read_Byte)
    [Anonymous Symbol]                       0x08004b7a   Section        0  hw_posture.o(.text.MPU6050_Read_Byte)
    MPU6050_Write_Byte                       0x08004c13   Thumb Code   110  hw_posture.o(.text.MPU6050_Write_Byte)
    [Anonymous Symbol]                       0x08004c12   Section        0  hw_posture.o(.text.MPU6050_Write_Byte)
    [Anonymous Symbol]                       0x08004c80   Section        0  hw_posture.o(.text.MPU_Get_AccelerometerY)
    [Anonymous Symbol]                       0x08004c98   Section        0  hw_posture.o(.text.MPU_Get_AccelerometerZ)
    [Anonymous Symbol]                       0x08004cb0   Section        0  hw_posture.o(.text.MPU_Get_GyroscopeX)
    [Anonymous Symbol]                       0x08004cc8   Section        0  hw_posture.o(.text.MPU_Get_GyroscopeZ)
    [Anonymous Symbol]                       0x08004ce0   Section        0  main_ctrl.o(.text.Main_Ctrl_Fresh)
    [Anonymous Symbol]                       0x08004ec4   Section        0  main_ctrl.o(.text.Main_Ctrl_Init)
    [Anonymous Symbol]                       0x08004ed4   Section        0  main_ctrl.o(.text.Main_Save_Param)
    [Anonymous Symbol]                       0x08004f20   Section        0  main_ctrl.o(.text.Main_Set_Balance_Kd)
    [Anonymous Symbol]                       0x08004f78   Section        0  main_ctrl.o(.text.Main_Set_Balance_Kp)
    [Anonymous Symbol]                       0x08004fd0   Section        0  main_ctrl.o(.text.Main_Set_Position_Kd)
    [Anonymous Symbol]                       0x08005028   Section        0  main_ctrl.o(.text.Main_Set_Position_Kp)
    [Anonymous Symbol]                       0x08005080   Section        0  main_ctrl.o(.text.Main_Set_Turn_Kd)
    [Anonymous Symbol]                       0x080050d8   Section        0  main_ctrl.o(.text.Main_Set_Turn_Kp)
    [Anonymous Symbol]                       0x08005130   Section        0  main_ctrl.o(.text.Main_Set_Turn_Position_Ki)
    [Anonymous Symbol]                       0x08005188   Section        0  main_ctrl.o(.text.Main_Set_Turn_Position_Kp)
    [Anonymous Symbol]                       0x080051e0   Section        0  main_ctrl.o(.text.Main_Set_Velocity_Ki)
    [Anonymous Symbol]                       0x08005238   Section        0  main_ctrl.o(.text.Main_Set_Velocity_Kp)
    [Anonymous Symbol]                       0x08005290   Section        0  main_ctrl.o(.text.Main_Sport_End)
    [Anonymous Symbol]                       0x080052dc   Section        0  hw_motor.o(.text.Motor_Dir_Set)
    [Anonymous Symbol]                       0x08005344   Section        0  hw_motor.o(.text.Motor_Speed_Set)
    [Anonymous Symbol]                       0x08005394   Section        0  hw_oled.o(.text.OLED_Refresh_Gram)
    [Anonymous Symbol]                       0x0800543c   Section        0  hw_oled.o(.text.OLED_ShowString)
    [Anonymous Symbol]                       0x08005588   Section        0  control.o(.text.Sport_End)
    [Anonymous Symbol]                       0x080055a0   Section        0  control.o(.text.Sport_End_Fresh)
    [Anonymous Symbol]                       0x080055f8   Section        0  control.o(.text.Sport_Turn)
    [Anonymous Symbol]                       0x08005680   Section        0  control.o(.text.Sport_Walk)
    [Anonymous Symbol]                       0x080056dc   Section        0  stm32f4xx_sys.o(.text.SysTick_Handler)
    [Anonymous Symbol]                       0x080056e0   Section        0  system_stm32f4xx.o(.text.SystemInit)
    [Anonymous Symbol]                       0x08005738   Section        0  hw_distance.o(.text.TIM3_IRQHandler)
    [Anonymous Symbol]                       0x08005830   Section        0  stm32f4xx_hal_tim.o(.text.TIM_Base_SetConfig)
    TIM_OC1_SetConfig                        0x0800594d   Thumb Code    96  stm32f4xx_hal_tim.o(.text.TIM_OC1_SetConfig)
    [Anonymous Symbol]                       0x0800594c   Section        0  stm32f4xx_hal_tim.o(.text.TIM_OC1_SetConfig)
    [Anonymous Symbol]                       0x080059ac   Section        0  stm32f4xx_hal_tim.o(.text.TIM_OC2_SetConfig)
    TIM_OC3_SetConfig                        0x08005a15   Thumb Code   104  stm32f4xx_hal_tim.o(.text.TIM_OC3_SetConfig)
    [Anonymous Symbol]                       0x08005a14   Section        0  stm32f4xx_hal_tim.o(.text.TIM_OC3_SetConfig)
    TIM_OC4_SetConfig                        0x08005a7d   Thumb Code    78  stm32f4xx_hal_tim.o(.text.TIM_OC4_SetConfig)
    [Anonymous Symbol]                       0x08005a7c   Section        0  stm32f4xx_hal_tim.o(.text.TIM_OC4_SetConfig)
    [Anonymous Symbol]                       0x08005aca   Section        0  stm32f4xx_hal_tim.o(.text.TIM_TI1_SetConfig)
    UART_SetConfig                           0x08005b6f   Thumb Code   586  stm32f4xx_hal_uart.o(.text.UART_SetConfig)
    [Anonymous Symbol]                       0x08005b6e   Section        0  stm32f4xx_hal_uart.o(.text.UART_SetConfig)
    UART_WaitOnFlagUntilTimeout              0x08005db9   Thumb Code    94  stm32f4xx_hal_uart.o(.text.UART_WaitOnFlagUntilTimeout)
    [Anonymous Symbol]                       0x08005db8   Section        0  stm32f4xx_hal_uart.o(.text.UART_WaitOnFlagUntilTimeout)
    [Anonymous Symbol]                       0x08005e16   Section        0  hw_app_transe.o(.text.USART2_IRQHandler)
    __NVIC_SystemReset                       0x08005e39   Thumb Code    36  stm32f4xx_hal_cortex.o(.text.__NVIC_SystemReset)
    [Anonymous Symbol]                       0x08005e38   Section        0  stm32f4xx_hal_cortex.o(.text.__NVIC_SystemReset)
    [Anonymous Symbol]                       0x08005e5c   Section        0  clib_rdef.o(.text._sys_close)
    [Anonymous Symbol]                       0x08005e6c   Section        0  clib_rdef.o(.text._sys_exit)
    [Anonymous Symbol]                       0x08005ea0   Section        0  clib_rdef.o(.text._sys_flen)
    [Anonymous Symbol]                       0x08005ea6   Section        0  clib_rdef.o(.text._sys_istty)
    [Anonymous Symbol]                       0x08005eb2   Section        0  clib_rdef.o(.text._sys_open)
    [Anonymous Symbol]                       0x08005ee8   Section        0  clib_rdef.o(.text._sys_seek)
    [Anonymous Symbol]                       0x08005eee   Section        0  clib_rdef.o(.text._sys_write)
    [Anonymous Symbol]                       0x08005f12   Section        0  clib_rdef.o(.text._ttywrch)
    [Anonymous Symbol]                       0x08005f34   Section        0  stm32f4xx_sys.o(.text.delay_ms)
    [Anonymous Symbol]                       0x08005f54   Section        0  stm32f4xx_sys.o(.text.delay_us)
    [Anonymous Symbol]                       0x08005fd0   Section        0  hw_key.o(.text.key_scan)
    [Anonymous Symbol]                       0x08006080   Section        0  main.o(.text.main)
    CL$$btod_d2e                             0x0800612c   Section       62  btod.o(CL$$btod_d2e)
    CL$$btod_d2e_denorm_low                  0x0800616a   Section       70  btod.o(CL$$btod_d2e_denorm_low)
    CL$$btod_d2e_norm_op1                    0x080061b0   Section       96  btod.o(CL$$btod_d2e_norm_op1)
    CL$$btod_div_common                      0x08006210   Section      824  btod.o(CL$$btod_div_common)
    CL$$btod_e2e                             0x08006548   Section      220  btod.o(CL$$btod_e2e)
    CL$$btod_ediv                            0x08006624   Section       42  btod.o(CL$$btod_ediv)
    CL$$btod_emul                            0x0800664e   Section       42  btod.o(CL$$btod_emul)
    CL$$btod_mult_common                     0x08006678   Section      580  btod.o(CL$$btod_mult_common)
    i.__ARM_fpclassify                       0x080068bc   Section        0  fpclassify.o(i.__ARM_fpclassify)
    i.__ARM_fpclassifyf                      0x080068ec   Section        0  fpclassifyf.o(i.__ARM_fpclassifyf)
    i.__hardfp_atan2f                        0x08006914   Section        0  atan2f.o(i.__hardfp_atan2f)
    i.__hardfp_fmodf                         0x08006bc0   Section        0  fmodf.o(i.__hardfp_fmodf)
    i.__mathlib_flt_infnan2                  0x08006c70   Section        0  funder.o(i.__mathlib_flt_infnan2)
    i.__mathlib_flt_invalid                  0x08006c78   Section        0  funder.o(i.__mathlib_flt_invalid)
    i.__mathlib_flt_underflow                0x08006c88   Section        0  funder.o(i.__mathlib_flt_underflow)
    i._is_digit                              0x08006c98   Section        0  __printf_wp.o(i._is_digit)
    i.fputc                                  0x08006ca6   Section        0  fputc.o(i.fputc)
    locale$$code                             0x08006cc0   Section       44  lc_numeric_c.o(locale$$code)
    $v0                                      0x08006cec   Number         0  d2f.o(x$fpl$d2f)
    x$fpl$d2f                                0x08006cec   Section       98  d2f.o(x$fpl$d2f)
    $v0                                      0x08006d50   Number         0  daddsub_clz.o(x$fpl$dadd)
    x$fpl$dadd                               0x08006d50   Section      336  daddsub_clz.o(x$fpl$dadd)
    _dadd1                                   0x08006d61   Thumb Code     0  daddsub_clz.o(x$fpl$dadd)
    $v0                                      0x08006ea0   Number         0  ddiv.o(x$fpl$ddiv)
    x$fpl$ddiv                               0x08006ea0   Section      688  ddiv.o(x$fpl$ddiv)
    ddiv_entry                               0x08006ea7   Thumb Code     0  ddiv.o(x$fpl$ddiv)
    $v0                                      0x08007150   Number         0  dflt_clz.o(x$fpl$dfltu)
    x$fpl$dfltu                              0x08007150   Section       38  dflt_clz.o(x$fpl$dfltu)
    $v0                                      0x08007178   Number         0  dmul.o(x$fpl$dmul)
    x$fpl$dmul                               0x08007178   Section      340  dmul.o(x$fpl$dmul)
    $v0                                      0x080072cc   Number         0  dnaninf.o(x$fpl$dnaninf)
    x$fpl$dnaninf                            0x080072cc   Section      156  dnaninf.o(x$fpl$dnaninf)
    $v0                                      0x08007368   Number         0  dretinf.o(x$fpl$dretinf)
    x$fpl$dretinf                            0x08007368   Section       12  dretinf.o(x$fpl$dretinf)
    $v0                                      0x08007374   Number         0  daddsub_clz.o(x$fpl$dsub)
    x$fpl$dsub                               0x08007374   Section      468  daddsub_clz.o(x$fpl$dsub)
    _dsub1                                   0x08007385   Thumb Code     0  daddsub_clz.o(x$fpl$dsub)
    $v0                                      0x08007548   Number         0  f2d.o(x$fpl$f2d)
    x$fpl$f2d                                0x08007548   Section       86  f2d.o(x$fpl$f2d)
    $v0                                      0x0800759e   Number         0  ffltll_clz.o(x$fpl$ffltll)
    x$fpl$ffltll                             0x0800759e   Section       96  ffltll_clz.o(x$fpl$ffltll)
    $v0                                      0x080075fe   Number         0  fnaninf.o(x$fpl$fnaninf)
    x$fpl$fnaninf                            0x080075fe   Section      140  fnaninf.o(x$fpl$fnaninf)
    $v0                                      0x0800768a   Number         0  fpinit.o(x$fpl$fpinit)
    x$fpl$fpinit                             0x0800768a   Section       26  fpinit.o(x$fpl$fpinit)
    $v0                                      0x080076a4   Number         0  frem_clz.o(x$fpl$frem)
    x$fpl$frem                               0x080076a4   Section      244  frem_clz.o(x$fpl$frem)
    $v0                                      0x08007798   Number         0  fretinf.o(x$fpl$fretinf)
    x$fpl$fretinf                            0x08007798   Section       10  fretinf.o(x$fpl$fretinf)
    $v0                                      0x080077a4   Number         0  ffixll.o(x$fpl$llsfromf)
    x$fpl$llsfromf                           0x080077a4   Section      134  ffixll.o(x$fpl$llsfromf)
    $v0                                      0x0800782a   Number         0  printf1.o(x$fpl$printf1)
    x$fpl$printf1                            0x0800782a   Section        4  printf1.o(x$fpl$printf1)
    x$fpl$usenofp                            0x0800782e   Section        0  usenofp.o(x$fpl$usenofp)
    tenpwrs_x                                0x08007830   Data          60  bigflt0.o(.constdata)
    .constdata                               0x08007830   Section      148  bigflt0.o(.constdata)
    tenpwrs_i                                0x0800786c   Data          64  bigflt0.o(.constdata)
    DMA_CalcBaseAndBitshift.flagBitshiftOffset 0x080078e8   Data           8  stm32f4xx_hal_dma.o(.rodata.cst8)
    oled_asc2_1206                           0x080078f0   Data        1140  hw_oled.o(.rodata.oled_asc2_1206)
    [Anonymous Symbol]                       0x080078f0   Section        0  hw_oled.o(.rodata.oled_asc2_1206)
    locale$$data                             0x08007d84   Section       28  lc_numeric_c.o(locale$$data)
    __lcnum_c_name                           0x08007d88   Data           2  lc_numeric_c.o(locale$$data)
    __lcnum_c_start                          0x08007d90   Data           0  lc_numeric_c.o(locale$$data)
    __lcnum_c_point                          0x08007d9c   Data           0  lc_numeric_c.o(locale$$data)
    __lcnum_c_thousands                      0x08007d9e   Data           0  lc_numeric_c.o(locale$$data)
    __lcnum_c_grouping                       0x08007d9f   Data           0  lc_numeric_c.o(locale$$data)
    __lcnum_c_end                            0x08007da0   Data           0  lc_numeric_c.o(locale$$data)
    .data                                    0x20000000   Section        4  stdio_streams.o(.data)
    .data                                    0x20000004   Section        4  stdio_streams.o(.data)
    .data                                    0x20000008   Section        4  stdio_streams.o(.data)
    HW_APP_Transe_Process.pdata              0x20000014   Data           4  app_transe.o(.data.HW_APP_Transe_Process.pdata)
    [Anonymous Symbol]                       0x20000014   Section        0  app_transe.o(.data.HW_APP_Transe_Process.pdata)
    HW_APP_Transe_Process.rev_index          0x20000018   Data           4  app_transe.o(.data.HW_APP_Transe_Process.rev_index)
    [Anonymous Symbol]                       0x20000018   Section        0  app_transe.o(.data.HW_APP_Transe_Process.rev_index)
    HW_Posture_Process.Div_Flag              0x2000001c   Data           1  control.o(.data.HW_Posture_Process.Div_Flag)
    [Anonymous Symbol]                       0x2000001c   Section        0  control.o(.data.HW_Posture_Process.Div_Flag)
    Kalman_Filter.PP.0.0                     0x20000020   Data           4  control.o(.data.Kalman_Filter.PP.0.0)
    [Anonymous Symbol]                       0x20000020   Section        0  control.o(.data.Kalman_Filter.PP.0.0)
    Kalman_Filter.PP.1.1                     0x20000024   Data           4  control.o(.data.Kalman_Filter.PP.1.1)
    [Anonymous Symbol]                       0x20000024   Section        0  control.o(.data.Kalman_Filter.PP.1.1)
    is_position_over                         0x20000054   Data           1  control.o(.data.is_position_over)
    [Anonymous Symbol]                       0x20000054   Section        0  control.o(.data.is_position_over)
    is_turn_over                             0x20000055   Data           1  control.o(.data.is_turn_over)
    [Anonymous Symbol]                       0x20000055   Section        0  control.o(.data.is_turn_over)
    .bss                                     0x20000060   Section       84  stdio_streams.o(.bss)
    .bss                                     0x200000b4   Section       84  stdio_streams.o(.bss)
    .bss                                     0x20000108   Section       84  stdio_streams.o(.bss)
    .bss                                     0x2000015c   Section       96  libspace.o(.bss)
    ADC1_Handler                             0x200001bc   Data          72  hw_battery.o(.bss.ADC1_Handler)
    [Anonymous Symbol]                       0x200001bc   Section        0  hw_battery.o(.bss.ADC1_Handler)
    Battery_Voltage                          0x20000204   Data           4  hw_battery.o(.bss.Battery_Voltage)
    [Anonymous Symbol]                       0x20000204   Section        0  hw_battery.o(.bss.Battery_Voltage)
    Command_buf                              0x20000208   Data          20  app_transe.o(.bss.Command_buf)
    [Anonymous Symbol]                       0x20000208   Section        0  app_transe.o(.bss.Command_buf)
    Command_len                              0x2000021c   Data           4  app_transe.o(.bss.Command_len)
    [Anonymous Symbol]                       0x2000021c   Section        0  app_transe.o(.bss.Command_len)
    Current_Dir                              0x20000220   Data           4  hw_direction.o(.bss.Current_Dir)
    [Anonymous Symbol]                       0x20000220   Section        0  hw_direction.o(.bss.Current_Dir)
    Data_buf                                 0x20000224   Data          20  app_transe.o(.bss.Data_buf)
    [Anonymous Symbol]                       0x20000224   Section        0  app_transe.o(.bss.Data_buf)
    Data_len                                 0x20000238   Data           4  app_transe.o(.bss.Data_len)
    [Anonymous Symbol]                       0x20000238   Section        0  app_transe.o(.bss.Data_len)
    Get_Adc_Average.ADC_Buf                  0x2000027c   Data          20  hw_battery.o(.bss.Get_Adc_Average.ADC_Buf)
    [Anonymous Symbol]                       0x2000027c   Section        0  hw_battery.o(.bss.Get_Adc_Average.ADC_Buf)
    Get_Adc_Average.ADC_Index                0x20000290   Data           1  hw_battery.o(.bss.Get_Adc_Average.ADC_Index)
    [Anonymous Symbol]                       0x20000290   Section        0  hw_battery.o(.bss.Get_Adc_Average.ADC_Index)
    Get_Distance.distance                    0x20000294   Data           4  hw_distance.o(.bss.Get_Distance.distance)
    [Anonymous Symbol]                       0x20000294   Section        0  hw_distance.o(.bss.Get_Distance.distance)
    Get_Distance.isStart                     0x20000298   Data           1  hw_distance.o(.bss.Get_Distance.isStart)
    [Anonymous Symbol]                       0x20000298   Section        0  hw_distance.o(.bss.Get_Distance.isStart)
    HW_APP_Transe_Process.blue_tooth_command 0x20000299   Data           1  app_transe.o(.bss.HW_APP_Transe_Process.blue_tooth_command)
    [Anonymous Symbol]                       0x20000299   Section        0  app_transe.o(.bss.HW_APP_Transe_Process.blue_tooth_command)
    HW_APP_Transe_Process.mode_rec           0x2000029a   Data           1  app_transe.o(.bss.HW_APP_Transe_Process.mode_rec)
    [Anonymous Symbol]                       0x2000029a   Section        0  app_transe.o(.bss.HW_APP_Transe_Process.mode_rec)
    Kalman_Filter.PP.0.1                     0x2000029c   Data           4  control.o(.bss.Kalman_Filter.PP.0.1)
    [Anonymous Symbol]                       0x2000029c   Section        0  control.o(.bss.Kalman_Filter.PP.0.1)
    Kalman_Filter.PP.1.0                     0x200002a0   Data           4  control.o(.bss.Kalman_Filter.PP.1.0)
    [Anonymous Symbol]                       0x200002a0   Section        0  control.o(.bss.Kalman_Filter.PP.1.0)
    Kalman_Filter.Q_bias                     0x200002a4   Data           4  control.o(.bss.Kalman_Filter.Q_bias)
    [Anonymous Symbol]                       0x200002a4   Section        0  control.o(.bss.Kalman_Filter.Q_bias)
    Kalman_Filter.angle                      0x200002a8   Data           4  control.o(.bss.Kalman_Filter.angle)
    [Anonymous Symbol]                       0x200002a8   Section        0  control.o(.bss.Kalman_Filter.angle)
    Main_Ctrl_Fresh.rev_frame                0x200002ac   Data          12  main_ctrl.o(.bss.Main_Ctrl_Fresh.rev_frame)
    [Anonymous Symbol]                       0x200002ac   Section        0  main_ctrl.o(.bss.Main_Ctrl_Fresh.rev_frame)
    Need_Process                             0x200002b8   Data           1  main_ctrl.o(.bss.Need_Process)
    [Anonymous Symbol]                       0x200002b8   Section        0  main_ctrl.o(.bss.Need_Process)
    OLED_GRAM                                0x200002b9   Data        1024  hw_oled.o(.bss.OLED_GRAM)
    [Anonymous Symbol]                       0x200002b9   Section        0  hw_oled.o(.bss.OLED_GRAM)
    Single_Data                              0x200006b9   Data           1  app_transe.o(.bss.Single_Data)
    [Anonymous Symbol]                       0x200006b9   Section        0  app_transe.o(.bss.Single_Data)
    Sport_End_Fresh.Send_Flag                0x200006ba   Data           1  control.o(.bss.Sport_End_Fresh.Send_Flag)
    [Anonymous Symbol]                       0x200006ba   Section        0  control.o(.bss.Sport_End_Fresh.Send_Flag)
    State                                    0x200006bb   Data           1  app_transe.o(.bss.State)
    [Anonymous Symbol]                       0x200006bb   Section        0  app_transe.o(.bss.State)
    TIM1_CHxHandler                          0x200006bc   Data          28  hw_motor.o(.bss.TIM1_CHxHandler)
    [Anonymous Symbol]                       0x200006bc   Section        0  hw_motor.o(.bss.TIM1_CHxHandler)
    TIM1_Handler                             0x200006d8   Data          64  hw_motor.o(.bss.TIM1_Handler)
    [Anonymous Symbol]                       0x200006d8   Section        0  hw_motor.o(.bss.TIM1_Handler)
    TIM2_Handler                             0x20000718   Data          64  hw_encoder.o(.bss.TIM2_Handler)
    [Anonymous Symbol]                       0x20000718   Section        0  hw_encoder.o(.bss.TIM2_Handler)
    TIM3CH3_CAPTURE_STA                      0x20000758   Data           2  hw_distance.o(.bss.TIM3CH3_CAPTURE_STA)
    [Anonymous Symbol]                       0x20000758   Section        0  hw_distance.o(.bss.TIM3CH3_CAPTURE_STA)
    TIM3CH3_CAPTURE_VAL                      0x2000075a   Data           2  hw_distance.o(.bss.TIM3CH3_CAPTURE_VAL)
    [Anonymous Symbol]                       0x2000075a   Section        0  hw_distance.o(.bss.TIM3CH3_CAPTURE_VAL)
    TIM3_Handler                             0x2000075c   Data          64  hw_distance.o(.bss.TIM3_Handler)
    [Anonymous Symbol]                       0x2000075c   Section        0  hw_distance.o(.bss.TIM3_Handler)
    TIM4_Handler                             0x2000079c   Data          64  hw_encoder.o(.bss.TIM4_Handler)
    [Anonymous Symbol]                       0x2000079c   Section        0  hw_encoder.o(.bss.TIM4_Handler)
    Target_Position                          0x200007e0   Data           8  control.o(.bss.Target_Position)
    [Anonymous Symbol]                       0x200007e0   Section        0  control.o(.bss.Target_Position)
    Target_Turn                              0x200007e8   Data           8  control.o(.bss.Target_Turn)
    [Anonymous Symbol]                       0x200007e8   Section        0  control.o(.bss.Target_Turn)
    USART2_Handle                            0x200007f0   Data          64  hw_app_transe.o(.bss.USART2_Handle)
    [Anonymous Symbol]                       0x200007f0   Section        0  hw_app_transe.o(.bss.USART2_Handle)
    USART6_DMA_RX_Handle                     0x20000830   Data          96  hw_main_ctrl.o(.bss.USART6_DMA_RX_Handle)
    [Anonymous Symbol]                       0x20000830   Section        0  hw_main_ctrl.o(.bss.USART6_DMA_RX_Handle)
    USART6_Handle                            0x20000890   Data          64  hw_main_ctrl.o(.bss.USART6_Handle)
    [Anonymous Symbol]                       0x20000890   Section        0  hw_main_ctrl.o(.bss.USART6_Handle)
    Wait_Flag                                0x200008d0   Data           1  main_ctrl.o(.bss.Wait_Flag)
    [Anonymous Symbol]                       0x200008d0   Section        0  main_ctrl.o(.bss.Wait_Flag)
    buf                                      0x200008d1   Data          20  main.o(.bss.buf)
    [Anonymous Symbol]                       0x200008d1   Section        0  main.o(.bss.buf)
    buf_frame                                0x200008e8   Data          12  main_ctrl.o(.bss.buf_frame)
    [Anonymous Symbol]                       0x200008e8   Section        0  main_ctrl.o(.bss.buf_frame)
    position.Encoder_Store.0                 0x200008f8   Data           8  control.o(.bss.position.Encoder_Store.0)
    [Anonymous Symbol]                       0x200008f8   Section        0  control.o(.bss.position.Encoder_Store.0)
    print_buf                                0x20000900   Data         256  app_transe.o(.bss.print_buf)
    [Anonymous Symbol]                       0x20000900   Section        0  app_transe.o(.bss.print_buf)
    run_flag                                 0x20000a00   Data           1  control.o(.bss.run_flag)
    [Anonymous Symbol]                       0x20000a00   Section        0  control.o(.bss.run_flag)
    send_frame                               0x20000a04   Data          12  main_ctrl.o(.bss.send_frame)
    [Anonymous Symbol]                       0x20000a04   Section        0  main_ctrl.o(.bss.send_frame)
    turn_position.Encoder_Bias               0x20000a10   Data           8  control.o(.bss.turn_position.Encoder_Bias)
    [Anonymous Symbol]                       0x20000a10   Section        0  control.o(.bss.turn_position.Encoder_Bias)
    turn_position.Encoder_Store.0            0x20000a18   Data           8  control.o(.bss.turn_position.Encoder_Store.0)
    [Anonymous Symbol]                       0x20000a18   Section        0  control.o(.bss.turn_position.Encoder_Store.0)
    turn_position.Encoder_Store.1            0x20000a20   Data           8  control.o(.bss.turn_position.Encoder_Store.1)
    [Anonymous Symbol]                       0x20000a20   Section        0  control.o(.bss.turn_position.Encoder_Store.1)
    turn_position.Target_Encoder             0x20000a28   Data           8  control.o(.bss.turn_position.Target_Encoder)
    [Anonymous Symbol]                       0x20000a28   Section        0  control.o(.bss.turn_position.Target_Encoder)
    turn_position.Turn_Store                 0x20000a30   Data           8  control.o(.bss.turn_position.Turn_Store)
    [Anonymous Symbol]                       0x20000a30   Section        0  control.o(.bss.turn_position.Turn_Store)
    velocity.Encoder                         0x20000a3c   Data           4  control.o(.bss.velocity.Encoder)
    [Anonymous Symbol]                       0x20000a3c   Section        0  control.o(.bss.velocity.Encoder)
    velocity.Encoder_Integral                0x20000a40   Data           4  control.o(.bss.velocity.Encoder_Integral)
    [Anonymous Symbol]                       0x20000a40   Section        0  control.o(.bss.velocity.Encoder_Integral)
    Heap_Mem                                 0x20000a48   Data         512  startup_stm32f405xx.o(HEAP)
    HEAP                                     0x20000a48   Section      512  startup_stm32f405xx.o(HEAP)
    Stack_Mem                                0x20000c48   Data       32768  startup_stm32f405xx.o(STACK)
    STACK                                    0x20000c48   Section    32768  startup_stm32f405xx.o(STACK)
    __initial_sp                             0x20008c48   Data           0  startup_stm32f405xx.o(STACK)

    Global Symbols

    Symbol Name                              Value     Ov Type        Size  Object(Section)

    BuildAttributes$$THM_ISAv4$E$P$D$K$B$S$7EM$VFPi3$EXTD16$VFPS$VFMA$PE$A:L22UL41UL21$X:L11$S22US41US21$IEEE1$IW$~IW$USESV6$~STKCKD$USESV7$~SHL$OTIME$ROPI$IEEEX$EBA8$UX$STANDARDLIB$REQ8$PRES8$EABIv2 0x00000000   Number         0  anon$$obj.o ABSOLUTE
    _printf_flags                            0x00000000   Number         0  printf_stubs.o ABSOLUTE
    _printf_return_value                     0x00000000   Number         0  printf_stubs.o ABSOLUTE
    _printf_sizespec                         0x00000000   Number         0  printf_stubs.o ABSOLUTE
    _printf_widthprec                        0x00000000   Number         0  printf_stubs.o ABSOLUTE
    __ARM_exceptions_init                     - Undefined Weak Reference
    __alloca_initialize                       - Undefined Weak Reference
    __arm_preinit_                            - Undefined Weak Reference
    __cpp_initialize__aeabi_                  - Undefined Weak Reference
    __cxa_finalize                            - Undefined Weak Reference
    __sigvec_lookup                           - Undefined Weak Reference
    __user_heap_extent                        - Undefined Weak Reference
    _atexit_init                              - Undefined Weak Reference
    _call_atexit_fns                          - Undefined Weak Reference
    _clock_init                               - Undefined Weak Reference
    _fp_trap_init                             - Undefined Weak Reference
    _fp_trap_shutdown                         - Undefined Weak Reference
    _get_lc_collate                           - Undefined Weak Reference
    _get_lc_ctype                             - Undefined Weak Reference
    _get_lc_monetary                          - Undefined Weak Reference
    _get_lc_time                              - Undefined Weak Reference
    _getenv_init                              - Undefined Weak Reference
    _handle_redirection                       - Undefined Weak Reference
    _mutex_acquire                            - Undefined Weak Reference
    _mutex_free                               - Undefined Weak Reference
    _mutex_release                            - Undefined Weak Reference
    _printf_truncate_signed                   - Undefined Weak Reference
    _printf_truncate_unsigned                 - Undefined Weak Reference
    _rand_init                                - Undefined Weak Reference
    _signal_finish                            - Undefined Weak Reference
    _signal_init                              - Undefined Weak Reference
    __Vectors_Size                           0x00000188   Number         0  startup_stm32f405xx.o ABSOLUTE
    __Vectors                                0x08000000   Data           4  startup_stm32f405xx.o(RESET)
    __Vectors_End                            0x08000188   Data           0  startup_stm32f405xx.o(RESET)
    __main                                   0x08000189   Thumb Code     8  __main.o(!!!main)
    __scatterload                            0x08000191   Thumb Code     0  __scatter.o(!!!scatter)
    __scatterload_rt2                        0x08000191   Thumb Code    44  __scatter.o(!!!scatter)
    __scatterload_rt2_thumb_only             0x08000191   Thumb Code     0  __scatter.o(!!!scatter)
    __scatterload_null                       0x0800019f   Thumb Code     0  __scatter.o(!!!scatter)
    __scatterload_copy                       0x080001c5   Thumb Code    26  __scatter_copy.o(!!handler_copy)
    __scatterload_zeroinit                   0x080001e1   Thumb Code    28  __scatter_zi.o(!!handler_zi)
    _printf_f                                0x080001fd   Thumb Code     0  _printf_f.o(.ARM.Collect$$_printf_percent$$00000003)
    _printf_percent                          0x080001fd   Thumb Code     0  _printf_percent.o(.ARM.Collect$$_printf_percent$$00000000)
    _printf_d                                0x08000203   Thumb Code     0  _printf_d.o(.ARM.Collect$$_printf_percent$$00000009)
    _printf_percent_end                      0x08000209   Thumb Code     0  _printf_percent_end.o(.ARM.Collect$$_printf_percent$$00000017)
    __rt_lib_init                            0x0800020d   Thumb Code     0  libinit.o(.ARM.Collect$$libinit$$00000000)
    __rt_lib_init_fp_1                       0x0800020f   Thumb Code     0  libinit2.o(.ARM.Collect$$libinit$$00000001)
    __rt_lib_init_heap_2                     0x08000213   Thumb Code     0  libinit2.o(.ARM.Collect$$libinit$$00000005)
    __rt_lib_init_preinit_1                  0x08000213   Thumb Code     0  libinit2.o(.ARM.Collect$$libinit$$00000004)
    __rt_lib_init_heap_1                     0x0800021b   Thumb Code     0  libinit2.o(.ARM.Collect$$libinit$$0000000A)
    __rt_lib_init_lc_common                  0x0800021b   Thumb Code     0  libinit2.o(.ARM.Collect$$libinit$$0000000F)
    __rt_lib_init_rand_1                     0x0800021b   Thumb Code     0  libinit2.o(.ARM.Collect$$libinit$$0000000E)
    __rt_lib_init_user_alloc_1               0x0800021b   Thumb Code     0  libinit2.o(.ARM.Collect$$libinit$$0000000C)
    __rt_lib_init_lc_collate_1               0x08000221   Thumb Code     0  libinit2.o(.ARM.Collect$$libinit$$00000011)
    __rt_lib_init_lc_ctype_1                 0x08000221   Thumb Code     0  libinit2.o(.ARM.Collect$$libinit$$00000013)
    __rt_lib_init_lc_monetary_1              0x08000221   Thumb Code     0  libinit2.o(.ARM.Collect$$libinit$$00000015)
    __rt_lib_init_lc_numeric_2               0x08000221   Thumb Code     0  libinit2.o(.ARM.Collect$$libinit$$00000016)
    __rt_lib_init_atexit_1                   0x0800022b   Thumb Code     0  libinit2.o(.ARM.Collect$$libinit$$0000001B)
    __rt_lib_init_clock_1                    0x0800022b   Thumb Code     0  libinit2.o(.ARM.Collect$$libinit$$00000021)
    __rt_lib_init_fp_trap_1                  0x0800022b   Thumb Code     0  libinit2.o(.ARM.Collect$$libinit$$0000001F)
    __rt_lib_init_getenv_1                   0x0800022b   Thumb Code     0  libinit2.o(.ARM.Collect$$libinit$$00000023)
    __rt_lib_init_lc_numeric_1               0x0800022b   Thumb Code     0  libinit2.o(.ARM.Collect$$libinit$$00000017)
    __rt_lib_init_lc_time_1                  0x0800022b   Thumb Code     0  libinit2.o(.ARM.Collect$$libinit$$00000019)
    __rt_lib_init_signal_1                   0x0800022b   Thumb Code     0  libinit2.o(.ARM.Collect$$libinit$$0000001D)
    __rt_lib_init_stdio_2                    0x0800022b   Thumb Code     0  libinit2.o(.ARM.Collect$$libinit$$00000024)
    __rt_lib_init_alloca_1                   0x0800022f   Thumb Code     0  libinit2.o(.ARM.Collect$$libinit$$0000002E)
    __rt_lib_init_argv_1                     0x0800022f   Thumb Code     0  libinit2.o(.ARM.Collect$$libinit$$0000002C)
    __rt_lib_init_cpp_1                      0x0800022f   Thumb Code     0  libinit2.o(.ARM.Collect$$libinit$$00000032)
    __rt_lib_init_exceptions_1               0x0800022f   Thumb Code     0  libinit2.o(.ARM.Collect$$libinit$$00000030)
    __rt_lib_init_return                     0x0800022f   Thumb Code     0  libinit2.o(.ARM.Collect$$libinit$$00000033)
    __rt_lib_init_stdio_1                    0x0800022f   Thumb Code     0  libinit2.o(.ARM.Collect$$libinit$$00000025)
    __rt_lib_shutdown                        0x08000231   Thumb Code     0  libshutdown.o(.ARM.Collect$$libshutdown$$00000000)
    __rt_lib_shutdown_cpp_1                  0x08000233   Thumb Code     0  libshutdown2.o(.ARM.Collect$$libshutdown$$00000002)
    __rt_lib_shutdown_stdio_2                0x08000233   Thumb Code     0  libshutdown2.o(.ARM.Collect$$libshutdown$$00000003)
    __rt_lib_shutdown_fp_trap_1              0x08000237   Thumb Code     0  libshutdown2.o(.ARM.Collect$$libshutdown$$00000007)
    __rt_lib_shutdown_heap_1                 0x08000237   Thumb Code     0  libshutdown2.o(.ARM.Collect$$libshutdown$$0000000F)
    __rt_lib_shutdown_return                 0x08000237   Thumb Code     0  libshutdown2.o(.ARM.Collect$$libshutdown$$00000010)
    __rt_lib_shutdown_signal_1               0x08000237   Thumb Code     0  libshutdown2.o(.ARM.Collect$$libshutdown$$0000000A)
    __rt_lib_shutdown_stdio_1                0x08000237   Thumb Code     0  libshutdown2.o(.ARM.Collect$$libshutdown$$00000004)
    __rt_lib_shutdown_user_alloc_1           0x08000237   Thumb Code     0  libshutdown2.o(.ARM.Collect$$libshutdown$$0000000C)
    __rt_entry                               0x08000239   Thumb Code     0  __rtentry.o(.ARM.Collect$$rtentry$$00000000)
    __rt_entry_presh_1                       0x08000239   Thumb Code     0  __rtentry2.o(.ARM.Collect$$rtentry$$00000002)
    __rt_entry_sh                            0x08000239   Thumb Code     0  __rtentry4.o(.ARM.Collect$$rtentry$$00000004)
    __rt_entry_li                            0x0800023f   Thumb Code     0  __rtentry2.o(.ARM.Collect$$rtentry$$0000000A)
    __rt_entry_postsh_1                      0x0800023f   Thumb Code     0  __rtentry2.o(.ARM.Collect$$rtentry$$00000009)
    __rt_entry_main                          0x08000243   Thumb Code     0  __rtentry2.o(.ARM.Collect$$rtentry$$0000000D)
    __rt_entry_postli_1                      0x08000243   Thumb Code     0  __rtentry2.o(.ARM.Collect$$rtentry$$0000000C)
    __rt_exit                                0x0800024b   Thumb Code     0  rtexit.o(.ARM.Collect$$rtexit$$00000000)
    __rt_exit_ls                             0x0800024d   Thumb Code     0  rtexit2.o(.ARM.Collect$$rtexit$$00000003)
    __rt_exit_prels_1                        0x0800024d   Thumb Code     0  rtexit2.o(.ARM.Collect$$rtexit$$00000002)
    __rt_exit_exit                           0x08000251   Thumb Code     0  rtexit2.o(.ARM.Collect$$rtexit$$00000004)
    Reset_Handler                            0x08000259   Thumb Code     8  startup_stm32f405xx.o(.text)
    NMI_Handler                              0x08000261   Thumb Code     2  startup_stm32f405xx.o(.text)
    HardFault_Handler                        0x08000263   Thumb Code     2  startup_stm32f405xx.o(.text)
    MemManage_Handler                        0x08000265   Thumb Code     2  startup_stm32f405xx.o(.text)
    BusFault_Handler                         0x08000267   Thumb Code     2  startup_stm32f405xx.o(.text)
    UsageFault_Handler                       0x08000269   Thumb Code     2  startup_stm32f405xx.o(.text)
    SVC_Handler                              0x0800026b   Thumb Code     2  startup_stm32f405xx.o(.text)
    DebugMon_Handler                         0x0800026d   Thumb Code     2  startup_stm32f405xx.o(.text)
    PendSV_Handler                           0x0800026f   Thumb Code     2  startup_stm32f405xx.o(.text)
    ADC_IRQHandler                           0x08000273   Thumb Code     0  startup_stm32f405xx.o(.text)
    CAN1_RX0_IRQHandler                      0x08000273   Thumb Code     0  startup_stm32f405xx.o(.text)
    CAN1_RX1_IRQHandler                      0x08000273   Thumb Code     0  startup_stm32f405xx.o(.text)
    CAN1_SCE_IRQHandler                      0x08000273   Thumb Code     0  startup_stm32f405xx.o(.text)
    CAN1_TX_IRQHandler                       0x08000273   Thumb Code     0  startup_stm32f405xx.o(.text)
    CAN2_RX0_IRQHandler                      0x08000273   Thumb Code     0  startup_stm32f405xx.o(.text)
    CAN2_RX1_IRQHandler                      0x08000273   Thumb Code     0  startup_stm32f405xx.o(.text)
    CAN2_SCE_IRQHandler                      0x08000273   Thumb Code     0  startup_stm32f405xx.o(.text)
    CAN2_TX_IRQHandler                       0x08000273   Thumb Code     0  startup_stm32f405xx.o(.text)
    DMA1_Stream0_IRQHandler                  0x08000273   Thumb Code     0  startup_stm32f405xx.o(.text)
    DMA1_Stream1_IRQHandler                  0x08000273   Thumb Code     0  startup_stm32f405xx.o(.text)
    DMA1_Stream2_IRQHandler                  0x08000273   Thumb Code     0  startup_stm32f405xx.o(.text)
    DMA1_Stream3_IRQHandler                  0x08000273   Thumb Code     0  startup_stm32f405xx.o(.text)
    DMA1_Stream4_IRQHandler                  0x08000273   Thumb Code     0  startup_stm32f405xx.o(.text)
    DMA1_Stream5_IRQHandler                  0x08000273   Thumb Code     0  startup_stm32f405xx.o(.text)
    DMA1_Stream6_IRQHandler                  0x08000273   Thumb Code     0  startup_stm32f405xx.o(.text)
    DMA1_Stream7_IRQHandler                  0x08000273   Thumb Code     0  startup_stm32f405xx.o(.text)
    DMA2_Stream0_IRQHandler                  0x08000273   Thumb Code     0  startup_stm32f405xx.o(.text)
    DMA2_Stream2_IRQHandler                  0x08000273   Thumb Code     0  startup_stm32f405xx.o(.text)
    DMA2_Stream3_IRQHandler                  0x08000273   Thumb Code     0  startup_stm32f405xx.o(.text)
    DMA2_Stream4_IRQHandler                  0x08000273   Thumb Code     0  startup_stm32f405xx.o(.text)
    DMA2_Stream5_IRQHandler                  0x08000273   Thumb Code     0  startup_stm32f405xx.o(.text)
    DMA2_Stream6_IRQHandler                  0x08000273   Thumb Code     0  startup_stm32f405xx.o(.text)
    DMA2_Stream7_IRQHandler                  0x08000273   Thumb Code     0  startup_stm32f405xx.o(.text)
    EXTI0_IRQHandler                         0x08000273   Thumb Code     0  startup_stm32f405xx.o(.text)
    EXTI1_IRQHandler                         0x08000273   Thumb Code     0  startup_stm32f405xx.o(.text)
    EXTI2_IRQHandler                         0x08000273   Thumb Code     0  startup_stm32f405xx.o(.text)
    EXTI3_IRQHandler                         0x08000273   Thumb Code     0  startup_stm32f405xx.o(.text)
    EXTI4_IRQHandler                         0x08000273   Thumb Code     0  startup_stm32f405xx.o(.text)
    FLASH_IRQHandler                         0x08000273   Thumb Code     0  startup_stm32f405xx.o(.text)
    FMC_IRQHandler                           0x08000273   Thumb Code     0  startup_stm32f405xx.o(.text)
    FPU_IRQHandler                           0x08000273   Thumb Code     0  startup_stm32f405xx.o(.text)
    HASH_RNG_IRQHandler                      0x08000273   Thumb Code     0  startup_stm32f405xx.o(.text)
    I2C1_ER_IRQHandler                       0x08000273   Thumb Code     0  startup_stm32f405xx.o(.text)
    I2C1_EV_IRQHandler                       0x08000273   Thumb Code     0  startup_stm32f405xx.o(.text)
    I2C2_ER_IRQHandler                       0x08000273   Thumb Code     0  startup_stm32f405xx.o(.text)
    I2C2_EV_IRQHandler                       0x08000273   Thumb Code     0  startup_stm32f405xx.o(.text)
    I2C3_ER_IRQHandler                       0x08000273   Thumb Code     0  startup_stm32f405xx.o(.text)
    I2C3_EV_IRQHandler                       0x08000273   Thumb Code     0  startup_stm32f405xx.o(.text)
    OTG_FS_IRQHandler                        0x08000273   Thumb Code     0  startup_stm32f405xx.o(.text)
    OTG_FS_WKUP_IRQHandler                   0x08000273   Thumb Code     0  startup_stm32f405xx.o(.text)
    OTG_HS_EP1_IN_IRQHandler                 0x08000273   Thumb Code     0  startup_stm32f405xx.o(.text)
    OTG_HS_EP1_OUT_IRQHandler                0x08000273   Thumb Code     0  startup_stm32f405xx.o(.text)
    OTG_HS_IRQHandler                        0x08000273   Thumb Code     0  startup_stm32f405xx.o(.text)
    OTG_HS_WKUP_IRQHandler                   0x08000273   Thumb Code     0  startup_stm32f405xx.o(.text)
    PVD_IRQHandler                           0x08000273   Thumb Code     0  startup_stm32f405xx.o(.text)
    RCC_IRQHandler                           0x08000273   Thumb Code     0  startup_stm32f405xx.o(.text)
    RTC_Alarm_IRQHandler                     0x08000273   Thumb Code     0  startup_stm32f405xx.o(.text)
    RTC_WKUP_IRQHandler                      0x08000273   Thumb Code     0  startup_stm32f405xx.o(.text)
    SDIO_IRQHandler                          0x08000273   Thumb Code     0  startup_stm32f405xx.o(.text)
    SPI1_IRQHandler                          0x08000273   Thumb Code     0  startup_stm32f405xx.o(.text)
    SPI2_IRQHandler                          0x08000273   Thumb Code     0  startup_stm32f405xx.o(.text)
    SPI3_IRQHandler                          0x08000273   Thumb Code     0  startup_stm32f405xx.o(.text)
    TAMP_STAMP_IRQHandler                    0x08000273   Thumb Code     0  startup_stm32f405xx.o(.text)
    TIM1_BRK_TIM9_IRQHandler                 0x08000273   Thumb Code     0  startup_stm32f405xx.o(.text)
    TIM1_CC_IRQHandler                       0x08000273   Thumb Code     0  startup_stm32f405xx.o(.text)
    TIM1_TRG_COM_TIM11_IRQHandler            0x08000273   Thumb Code     0  startup_stm32f405xx.o(.text)
    TIM1_UP_TIM10_IRQHandler                 0x08000273   Thumb Code     0  startup_stm32f405xx.o(.text)
    TIM2_IRQHandler                          0x08000273   Thumb Code     0  startup_stm32f405xx.o(.text)
    TIM4_IRQHandler                          0x08000273   Thumb Code     0  startup_stm32f405xx.o(.text)
    TIM5_IRQHandler                          0x08000273   Thumb Code     0  startup_stm32f405xx.o(.text)
    TIM6_DAC_IRQHandler                      0x08000273   Thumb Code     0  startup_stm32f405xx.o(.text)
    TIM7_IRQHandler                          0x08000273   Thumb Code     0  startup_stm32f405xx.o(.text)
    TIM8_BRK_TIM12_IRQHandler                0x08000273   Thumb Code     0  startup_stm32f405xx.o(.text)
    TIM8_CC_IRQHandler                       0x08000273   Thumb Code     0  startup_stm32f405xx.o(.text)
    TIM8_TRG_COM_TIM14_IRQHandler            0x08000273   Thumb Code     0  startup_stm32f405xx.o(.text)
    TIM8_UP_TIM13_IRQHandler                 0x08000273   Thumb Code     0  startup_stm32f405xx.o(.text)
    UART4_IRQHandler                         0x08000273   Thumb Code     0  startup_stm32f405xx.o(.text)
    UART5_IRQHandler                         0x08000273   Thumb Code     0  startup_stm32f405xx.o(.text)
    USART1_IRQHandler                        0x08000273   Thumb Code     0  startup_stm32f405xx.o(.text)
    USART3_IRQHandler                        0x08000273   Thumb Code     0  startup_stm32f405xx.o(.text)
    USART6_IRQHandler                        0x08000273   Thumb Code     0  startup_stm32f405xx.o(.text)
    WWDG_IRQHandler                          0x08000273   Thumb Code     0  startup_stm32f405xx.o(.text)
    __user_initial_stackheap                 0x08000275   Thumb Code     0  startup_stm32f405xx.o(.text)
    __use_no_semihosting                     0x08000299   Thumb Code     2  use_no_semi_2.o(.text)
    __aeabi_uldivmod                         0x0800029b   Thumb Code     0  lludivv7m.o(.text)
    _ll_udiv                                 0x0800029b   Thumb Code   240  lludivv7m.o(.text)
    __2printf                                0x0800038d   Thumb Code    20  __2printf.o(.text)
    __2snprintf                              0x080003a5   Thumb Code    50  __2snprintf.o(.text)
    _printf_pre_padding                      0x080003dd   Thumb Code    44  _printf_pad.o(.text)
    _printf_post_padding                     0x08000409   Thumb Code    34  _printf_pad.o(.text)
    _printf_int_dec                          0x0800042d   Thumb Code   104  _printf_dec.o(.text)
    __printf                                 0x080004a5   Thumb Code   270  __printf_wp.o(.text)
    puts                                     0x080005b5   Thumb Code    40  puts.o(.text)
    __aeabi_memclr4                          0x080005e1   Thumb Code     0  rt_memclr_w.o(.text)
    __aeabi_memclr8                          0x080005e1   Thumb Code     0  rt_memclr_w.o(.text)
    __rt_memclr_w                            0x080005e1   Thumb Code    78  rt_memclr_w.o(.text)
    _memset_w                                0x080005e5   Thumb Code     0  rt_memclr_w.o(.text)
    __use_two_region_memory                  0x0800062f   Thumb Code     2  heapauxi.o(.text)
    __rt_heap_escrow                         0x08000631   Thumb Code     2  heapauxi.o(.text)
    __rt_heap_expand                         0x08000633   Thumb Code     2  heapauxi.o(.text)
    __I$use$semihosting                      0x08000635   Thumb Code     0  use_no_semi.o(.text)
    __use_no_semihosting_swi                 0x08000635   Thumb Code     2  use_no_semi.o(.text)
    __read_errno                             0x08000637   Thumb Code    10  _rserrno.o(.text)
    __set_errno                              0x08000641   Thumb Code    12  _rserrno.o(.text)
    _printf_int_common                       0x0800064d   Thumb Code   178  _printf_intcommon.o(.text)
    _printf_fp_dec_real                      0x080008af   Thumb Code   620  _printf_fp_dec.o(.text)
    _printf_char_common                      0x08000b27   Thumb Code    32  _printf_char_common.o(.text)
    _sputc                                   0x08000b4d   Thumb Code    10  _sputc.o(.text)
    _snputc                                  0x08000b57   Thumb Code    16  _snputc.o(.text)
    _printf_char_file                        0x08000b69   Thumb Code    32  _printf_char_file.o(.text)
    __rt_locale                              0x08000b8d   Thumb Code     8  rt_locale_intlibspace.o(.text)
    __aeabi_errno_addr                       0x08000b95   Thumb Code     8  rt_errno_addr_intlibspace.o(.text)
    __errno$intlibspace                      0x08000b95   Thumb Code     0  rt_errno_addr_intlibspace.o(.text)
    __rt_errno_addr$intlibspace              0x08000b95   Thumb Code     0  rt_errno_addr_intlibspace.o(.text)
    _ll_udiv10                               0x08000b9d   Thumb Code   138  lludiv10.o(.text)
    _printf_fp_infnan                        0x08000c29   Thumb Code   112  _printf_fp_infnan.o(.text)
    _btod_etento                             0x08000ca9   Thumb Code   224  bigflt0.o(.text)
    ferror                                   0x08000d8d   Thumb Code     8  ferror.o(.text)
    __flsbuf                                 0x08000d95   Thumb Code   470  flsbuf.o(.text)
    __flsbuf_byte                            0x08000d95   Thumb Code     0  flsbuf.o(.text)
    __flsbuf_wide                            0x08000d95   Thumb Code     0  flsbuf.o(.text)
    _initio                                  0x08000f6d   Thumb Code   210  initio.o(.text)
    _terminateio                             0x0800103f   Thumb Code    56  initio.o(.text)
    __user_libspace                          0x080010a5   Thumb Code     8  libspace.o(.text)
    __user_perproc_libspace                  0x080010a5   Thumb Code     0  libspace.o(.text)
    __user_perthread_libspace                0x080010a5   Thumb Code     0  libspace.o(.text)
    __user_setup_stackheap                   0x080010ad   Thumb Code    74  sys_stackheap_outer.o(.text)
    malloc                                   0x080010f7   Thumb Code    94  h1_alloc.o(.text)
    free                                     0x08001155   Thumb Code    78  h1_free.o(.text)
    setvbuf                                  0x080011a3   Thumb Code    70  setvbuf.o(.text)
    _seterr                                  0x080011e9   Thumb Code    20  stdio.o(.text)
    _writebuf                                0x080011fd   Thumb Code    84  stdio.o(.text)
    _fflush                                  0x08001251   Thumb Code    70  stdio.o(.text)
    _deferredlazyseek                        0x08001297   Thumb Code    60  stdio.o(.text)
    freopen                                  0x080012d9   Thumb Code   160  fopen.o(.text)
    fopen                                    0x08001379   Thumb Code    74  fopen.o(.text)
    _fclose_internal                         0x080013c9   Thumb Code    76  fclose.o(.text)
    fclose                                   0x080013c9   Thumb Code     0  fclose.o(.text)
    exit                                     0x08001415   Thumb Code    18  exit.o(.text)
    __rt_SIGRTRED                            0x08001427   Thumb Code    14  defsig_rtred_outer.o(.text)
    strcmp                                   0x08001439   Thumb Code   124  strcmpv7em.o(.text)
    __rt_heap_descriptor                     0x080014b5   Thumb Code     8  rt_heap_descriptor_intlibspace.o(.text)
    __use_no_heap                            0x080014bd   Thumb Code     2  hguard.o(.text)
    __heap$guard                             0x080014bf   Thumb Code     2  hguard.o(.text)
    _terminate_user_alloc                    0x080014c1   Thumb Code     2  init_alloc.o(.text)
    _init_user_alloc                         0x080014c3   Thumb Code     2  init_alloc.o(.text)
    __Heap_Full                              0x080014c5   Thumb Code    34  init_alloc.o(.text)
    __Heap_Broken                            0x080014e7   Thumb Code     6  init_alloc.o(.text)
    _init_alloc                              0x080014ed   Thumb Code    94  init_alloc.o(.text)
    __Heap_Initialize                        0x0800154b   Thumb Code    10  h1_init.o(.text)
    __Heap_DescSize                          0x08001555   Thumb Code     4  h1_init.o(.text)
    _fseek                                   0x08001559   Thumb Code   242  fseek.o(.text)
    fseek                                    0x08001559   Thumb Code     0  fseek.o(.text)
    __sig_exit                               0x08001651   Thumb Code    10  defsig_exit.o(.text)
    __rt_SIGRTRED_inner                      0x0800165d   Thumb Code    14  defsig_rtred_inner.o(.text)
    __Heap_ProvideMemory                     0x08001691   Thumb Code    52  h1_extend.o(.text)
    _maybe_terminate_alloc                   0x08001691   Thumb Code     0  maybetermalloc1.o(.text)
    _ftell_internal                          0x080016c5   Thumb Code    66  ftell.o(.text)
    ftell                                    0x080016c5   Thumb Code     0  ftell.o(.text)
    __default_signal_display                 0x08001707   Thumb Code    50  defsig_general.o(.text)
    __rt_SIGRTMEM                            0x08001739   Thumb Code    14  defsig_rtmem_outer.o(.text)
    __rt_SIGRTMEM_inner                      0x08001749   Thumb Code    22  defsig_rtmem_inner.o(.text)
    APP_Transe_Fresh                         0x08001799   Thumb Code  1200  app_transe.o(.text.APP_Transe_Fresh)
    Battery_Voltage_Fresh                    0x08001c49   Thumb Code   208  hw_battery.o(.text.Battery_Voltage_Fresh)
    Control_Enable                           0x08001d19   Thumb Code    12  control.o(.text.Control_Enable)
    DMA2_Stream1_IRQHandler                  0x08001d25   Thumb Code   126  hw_main_ctrl.o(.text.DMA2_Stream1_IRQHandler)
    Direction_Fresh                          0x08001da9   Thumb Code   280  hw_direction.o(.text.Direction_Fresh)
    EXTI15_10_IRQHandler                     0x08001ec1   Thumb Code    26  hw_posture.o(.text.EXTI15_10_IRQHandler)
    EXTI9_5_IRQHandler                       0x08001edb   Thumb Code    26  hw_main_ctrl.o(.text.EXTI9_5_IRQHandler)
    Get_Battery_Voltage                      0x08001ef5   Thumb Code    14  hw_battery.o(.text.Get_Battery_Voltage)
    Get_Direction                            0x08001f03   Thumb Code    14  hw_direction.o(.text.Get_Direction)
    Get_Distance                             0x08001f11   Thumb Code   180  hw_distance.o(.text.Get_Distance)
    Get_Encoder                              0x08001fc5   Thumb Code    40  hw_encoder.o(.text.Get_Encoder)
    HAL_ADC_ConfigChannel                    0x08001fed   Thumb Code   276  stm32f4xx_hal_adc.o(.text.HAL_ADC_ConfigChannel)
    HAL_ADC_GetValue                         0x08002101   Thumb Code     6  stm32f4xx_hal_adc.o(.text.HAL_ADC_GetValue)
    HAL_ADC_Init                             0x08002107   Thumb Code   332  stm32f4xx_hal_adc.o(.text.HAL_ADC_Init)
    HAL_ADC_MspInit                          0x08002253   Thumb Code     2  stm32f4xx_hal_adc.o(.text.HAL_ADC_MspInit)
    HAL_ADC_PollForConversion                0x08002255   Thumb Code   176  stm32f4xx_hal_adc.o(.text.HAL_ADC_PollForConversion)
    HAL_ADC_Start                            0x08002305   Thumb Code   244  stm32f4xx_hal_adc.o(.text.HAL_ADC_Start)
    HAL_DMA_DeInit                           0x080023f9   Thumb Code   136  stm32f4xx_hal_dma.o(.text.HAL_DMA_DeInit)
    HAL_DMA_Init                             0x08002481   Thumb Code   328  stm32f4xx_hal_dma.o(.text.HAL_DMA_Init)
    HAL_DMA_Start                            0x080025c9   Thumb Code   106  stm32f4xx_hal_dma.o(.text.HAL_DMA_Start)
    HAL_GPIO_Init                            0x08002635   Thumb Code   404  stm32f4xx_hal_gpio.o(.text.HAL_GPIO_Init)
    HAL_GPIO_ReadPin                         0x080027c9   Thumb Code    10  stm32f4xx_hal_gpio.o(.text.HAL_GPIO_ReadPin)
    HAL_GPIO_WritePin                        0x080027d3   Thumb Code    10  stm32f4xx_hal_gpio.o(.text.HAL_GPIO_WritePin)
    HAL_GetREVID                             0x080027dd   Thumb Code    14  stm32f4xx_hal.o(.text.HAL_GetREVID)
    HAL_GetTick                              0x080027eb   Thumb Code    12  stm32f4xx_hal.o(.text.HAL_GetTick)
    HAL_IncTick                              0x080027f7   Thumb Code    26  stm32f4xx_hal.o(.text.HAL_IncTick)
    HAL_Init                                 0x08002811   Thumb Code    46  stm32f4xx_hal.o(.text.HAL_Init)
    HAL_InitTick                             0x0800283f   Thumb Code    80  stm32f4xx_hal.o(.text.HAL_InitTick)
    HAL_MspInit                              0x08002891   Thumb Code   282  stm32f4xx_sys.o(.text.HAL_MspInit)
    HAL_NVIC_EnableIRQ                       0x080029ab   Thumb Code    30  stm32f4xx_hal_cortex.o(.text.HAL_NVIC_EnableIRQ)
    HAL_NVIC_SetPriority                     0x080029c9   Thumb Code    86  stm32f4xx_hal_cortex.o(.text.HAL_NVIC_SetPriority)
    HAL_NVIC_SetPriorityGrouping             0x08002a1f   Thumb Code    32  stm32f4xx_hal_cortex.o(.text.HAL_NVIC_SetPriorityGrouping)
    HAL_NVIC_SystemReset                     0x08002a3f   Thumb Code     4  stm32f4xx_hal_cortex.o(.text.HAL_NVIC_SystemReset)
    HAL_PWR_EnableBkUpAccess                 0x08002a43   Thumb Code    12  stm32f4xx_hal_pwr.o(.text.HAL_PWR_EnableBkUpAccess)
    HAL_RCC_ClockConfig                      0x08002a51   Thumb Code   326  stm32f4xx_hal_rcc.o(.text.HAL_RCC_ClockConfig)
    HAL_RCC_GetPCLK1Freq                     0x08002b97   Thumb Code    38  stm32f4xx_hal_rcc.o(.text.HAL_RCC_GetPCLK1Freq)
    HAL_RCC_GetPCLK2Freq                     0x08002bbd   Thumb Code    38  stm32f4xx_hal_rcc.o(.text.HAL_RCC_GetPCLK2Freq)
    HAL_RCC_GetSysClockFreq                  0x08002be3   Thumb Code   106  stm32f4xx_hal_rcc.o(.text.HAL_RCC_GetSysClockFreq)
    HAL_RCC_OscConfig                        0x08002c4d   Thumb Code   768  stm32f4xx_hal_rcc.o(.text.HAL_RCC_OscConfig)
    HAL_SYSTICK_CLKSourceConfig              0x08002f4d   Thumb Code    24  stm32f4xx_hal_cortex.o(.text.HAL_SYSTICK_CLKSourceConfig)
    HAL_SYSTICK_Config                       0x08002f65   Thumb Code    44  stm32f4xx_hal_cortex.o(.text.HAL_SYSTICK_Config)
    HAL_TIM_Encoder_Init                     0x08002f91   Thumb Code   158  stm32f4xx_hal_tim.o(.text.HAL_TIM_Encoder_Init)
    HAL_TIM_Encoder_MspInit                  0x0800302f   Thumb Code     2  stm32f4xx_hal_tim.o(.text.HAL_TIM_Encoder_MspInit)
    HAL_TIM_Encoder_Start                    0x08003031   Thumb Code    68  stm32f4xx_hal_tim.o(.text.HAL_TIM_Encoder_Start)
    HAL_TIM_IC_ConfigChannel                 0x08003075   Thumb Code   288  stm32f4xx_hal_tim.o(.text.HAL_TIM_IC_ConfigChannel)
    HAL_TIM_IC_Init                          0x08003195   Thumb Code    52  stm32f4xx_hal_tim.o(.text.HAL_TIM_IC_Init)
    HAL_TIM_IC_MspInit                       0x080031c9   Thumb Code     2  stm32f4xx_hal_tim.o(.text.HAL_TIM_IC_MspInit)
    HAL_TIM_IC_Start_IT                      0x080031cd   Thumb Code   106  stm32f4xx_hal_tim.o(.text.HAL_TIM_IC_Start_IT)
    HAL_TIM_PWM_ConfigChannel                0x08003239   Thumb Code   160  stm32f4xx_hal_tim.o(.text.HAL_TIM_PWM_ConfigChannel)
    HAL_TIM_PWM_Init                         0x080032d9   Thumb Code    52  stm32f4xx_hal_tim.o(.text.HAL_TIM_PWM_Init)
    HAL_TIM_PWM_MspInit                      0x0800330d   Thumb Code     2  stm32f4xx_hal_tim.o(.text.HAL_TIM_PWM_MspInit)
    HAL_TIM_PWM_Start                        0x0800330f   Thumb Code    76  stm32f4xx_hal_tim.o(.text.HAL_TIM_PWM_Start)
    HAL_TIM_ReadCapturedValue                0x0800335d   Thumb Code    46  stm32f4xx_hal_tim.o(.text.HAL_TIM_ReadCapturedValue)
    HAL_UART_Init                            0x0800338b   Thumb Code    92  stm32f4xx_hal_uart.o(.text.HAL_UART_Init)
    HAL_UART_MspInit                         0x080033e7   Thumb Code     2  stm32f4xx_hal_uart.o(.text.HAL_UART_MspInit)
    HAL_UART_Transmit                        0x080033e9   Thumb Code   180  stm32f4xx_hal_uart.o(.text.HAL_UART_Transmit)
    HW_APP_Transe_Init                       0x0800350b   Thumb Code   154  hw_app_transe.o(.text.HW_APP_Transe_Init)
    HW_APP_Transe_Process                    0x080035a5   Thumb Code   268  app_transe.o(.text.HW_APP_Transe_Process)
    HW_APP_Transe_Send                       0x080036b1   Thumb Code    20  hw_app_transe.o(.text.HW_APP_Transe_Send)
    HW_Battery_Init                          0x080036c5   Thumb Code   156  hw_battery.o(.text.HW_Battery_Init)
    HW_Direction_Init                        0x08003761   Thumb Code    96  hw_direction.o(.text.HW_Direction_Init)
    HW_Direction_Read                        0x080037c1   Thumb Code   254  hw_direction.o(.text.HW_Direction_Read)
    HW_Distance_Init                         0x080038bf   Thumb Code   224  hw_distance.o(.text.HW_Distance_Init)
    HW_Encoder_Init                          0x0800399f   Thumb Code   256  hw_encoder.o(.text.HW_Encoder_Init)
    HW_KEY_Init                              0x08003a9f   Thumb Code    66  hw_key.o(.text.HW_KEY_Init)
    HW_LED_Init                              0x08003ae1   Thumb Code    80  hw_led.o(.text.HW_LED_Init)
    HW_Main_Ctrl_Init                        0x08003b31   Thumb Code   400  hw_main_ctrl.o(.text.HW_Main_Ctrl_Init)
    HW_Main_Ctrl_Process                     0x08003cc1   Thumb Code    92  main_ctrl.o(.text.HW_Main_Ctrl_Process)
    HW_Main_Ctrl_Transe                      0x08003d1d   Thumb Code    22  hw_main_ctrl.o(.text.HW_Main_Ctrl_Transe)
    HW_Motor_Init                            0x08003d33   Thumb Code   268  hw_motor.o(.text.HW_Motor_Init)
    HW_OLED_Init                             0x08003e41   Thumb Code   936  hw_oled.o(.text.HW_OLED_Init)
    HW_Posture_Init                          0x080041e9   Thumb Code   220  hw_posture.o(.text.HW_Posture_Init)
    HW_Posture_Process                       0x080042c5   Thumb Code  1452  control.o(.text.HW_Posture_Process)
    IIC_Read_Byte_General                    0x08004871   Thumb Code   260  iic_software.o(.text.IIC_Read_Byte_General)
    IIC_Send_Byte_General                    0x08004975   Thumb Code   288  iic_software.o(.text.IIC_Send_Byte_General)
    IIC_Start_General                        0x08004a95   Thumb Code   114  iic_software.o(.text.IIC_Start_General)
    IIC_Stop_General                         0x08004b09   Thumb Code   114  iic_software.o(.text.IIC_Stop_General)
    MPU_Get_AccelerometerY                   0x08004c81   Thumb Code    24  hw_posture.o(.text.MPU_Get_AccelerometerY)
    MPU_Get_AccelerometerZ                   0x08004c99   Thumb Code    24  hw_posture.o(.text.MPU_Get_AccelerometerZ)
    MPU_Get_GyroscopeX                       0x08004cb1   Thumb Code    24  hw_posture.o(.text.MPU_Get_GyroscopeX)
    MPU_Get_GyroscopeZ                       0x08004cc9   Thumb Code    24  hw_posture.o(.text.MPU_Get_GyroscopeZ)
    Main_Ctrl_Fresh                          0x08004ce1   Thumb Code   484  main_ctrl.o(.text.Main_Ctrl_Fresh)
    Main_Ctrl_Init                           0x08004ec5   Thumb Code    14  main_ctrl.o(.text.Main_Ctrl_Init)
    Main_Save_Param                          0x08004ed5   Thumb Code    76  main_ctrl.o(.text.Main_Save_Param)
    Main_Set_Balance_Kd                      0x08004f21   Thumb Code    88  main_ctrl.o(.text.Main_Set_Balance_Kd)
    Main_Set_Balance_Kp                      0x08004f79   Thumb Code    88  main_ctrl.o(.text.Main_Set_Balance_Kp)
    Main_Set_Position_Kd                     0x08004fd1   Thumb Code    88  main_ctrl.o(.text.Main_Set_Position_Kd)
    Main_Set_Position_Kp                     0x08005029   Thumb Code    88  main_ctrl.o(.text.Main_Set_Position_Kp)
    Main_Set_Turn_Kd                         0x08005081   Thumb Code    88  main_ctrl.o(.text.Main_Set_Turn_Kd)
    Main_Set_Turn_Kp                         0x080050d9   Thumb Code    88  main_ctrl.o(.text.Main_Set_Turn_Kp)
    Main_Set_Turn_Position_Ki                0x08005131   Thumb Code    88  main_ctrl.o(.text.Main_Set_Turn_Position_Ki)
    Main_Set_Turn_Position_Kp                0x08005189   Thumb Code    88  main_ctrl.o(.text.Main_Set_Turn_Position_Kp)
    Main_Set_Velocity_Ki                     0x080051e1   Thumb Code    88  main_ctrl.o(.text.Main_Set_Velocity_Ki)
    Main_Set_Velocity_Kp                     0x08005239   Thumb Code    88  main_ctrl.o(.text.Main_Set_Velocity_Kp)
    Main_Sport_End                           0x08005291   Thumb Code    76  main_ctrl.o(.text.Main_Sport_End)
    Motor_Dir_Set                            0x080052dd   Thumb Code   104  hw_motor.o(.text.Motor_Dir_Set)
    Motor_Speed_Set                          0x08005345   Thumb Code    80  hw_motor.o(.text.Motor_Speed_Set)
    OLED_Refresh_Gram                        0x08005395   Thumb Code   166  hw_oled.o(.text.OLED_Refresh_Gram)
    OLED_ShowString                          0x0800543d   Thumb Code   332  hw_oled.o(.text.OLED_ShowString)
    Sport_End                                0x08005589   Thumb Code    24  control.o(.text.Sport_End)
    Sport_End_Fresh                          0x080055a1   Thumb Code    88  control.o(.text.Sport_End_Fresh)
    Sport_Turn                               0x080055f9   Thumb Code   132  control.o(.text.Sport_Turn)
    Sport_Walk                               0x08005681   Thumb Code    92  control.o(.text.Sport_Walk)
    SysTick_Handler                          0x080056dd   Thumb Code     4  stm32f4xx_sys.o(.text.SysTick_Handler)
    SystemInit                               0x080056e1   Thumb Code    88  system_stm32f4xx.o(.text.SystemInit)
    TIM3_IRQHandler                          0x08005739   Thumb Code   248  hw_distance.o(.text.TIM3_IRQHandler)
    TIM_Base_SetConfig                       0x08005831   Thumb Code   284  stm32f4xx_hal_tim.o(.text.TIM_Base_SetConfig)
    TIM_OC2_SetConfig                        0x080059ad   Thumb Code   104  stm32f4xx_hal_tim.o(.text.TIM_OC2_SetConfig)
    TIM_TI1_SetConfig                        0x08005acb   Thumb Code   164  stm32f4xx_hal_tim.o(.text.TIM_TI1_SetConfig)
    USART2_IRQHandler                        0x08005e17   Thumb Code    34  hw_app_transe.o(.text.USART2_IRQHandler)
    _sys_close                               0x08005e5d   Thumb Code    14  clib_rdef.o(.text._sys_close)
    _sys_exit                                0x08005e6d   Thumb Code    52  clib_rdef.o(.text._sys_exit)
    _sys_flen                                0x08005ea1   Thumb Code     6  clib_rdef.o(.text._sys_flen)
    _sys_istty                               0x08005ea7   Thumb Code    12  clib_rdef.o(.text._sys_istty)
    _sys_open                                0x08005eb3   Thumb Code    54  clib_rdef.o(.text._sys_open)
    _sys_seek                                0x08005ee9   Thumb Code     6  clib_rdef.o(.text._sys_seek)
    _sys_write                               0x08005eef   Thumb Code    36  clib_rdef.o(.text._sys_write)
    _ttywrch                                 0x08005f13   Thumb Code    34  clib_rdef.o(.text._ttywrch)
    delay_ms                                 0x08005f35   Thumb Code    32  stm32f4xx_sys.o(.text.delay_ms)
    delay_us                                 0x08005f55   Thumb Code   122  stm32f4xx_sys.o(.text.delay_us)
    key_scan                                 0x08005fd1   Thumb Code   176  hw_key.o(.text.key_scan)
    main                                     0x08006081   Thumb Code   172  main.o(.text.main)
    _btod_d2e                                0x0800612d   Thumb Code    62  btod.o(CL$$btod_d2e)
    _d2e_denorm_low                          0x0800616b   Thumb Code    70  btod.o(CL$$btod_d2e_denorm_low)
    _d2e_norm_op1                            0x080061b1   Thumb Code    96  btod.o(CL$$btod_d2e_norm_op1)
    __btod_div_common                        0x08006211   Thumb Code   696  btod.o(CL$$btod_div_common)
    _e2e                                     0x08006549   Thumb Code   220  btod.o(CL$$btod_e2e)
    _btod_ediv                               0x08006625   Thumb Code    42  btod.o(CL$$btod_ediv)
    _btod_emul                               0x0800664f   Thumb Code    42  btod.o(CL$$btod_emul)
    __btod_mult_common                       0x08006679   Thumb Code   580  btod.o(CL$$btod_mult_common)
    __ARM_fpclassify                         0x080068bd   Thumb Code    48  fpclassify.o(i.__ARM_fpclassify)
    __ARM_fpclassifyf                        0x080068ed   Thumb Code    38  fpclassifyf.o(i.__ARM_fpclassifyf)
    __hardfp_atan2f                          0x08006915   Thumb Code   594  atan2f.o(i.__hardfp_atan2f)
    __hardfp_fmodf                           0x08006bc1   Thumb Code   176  fmodf.o(i.__hardfp_fmodf)
    __mathlib_flt_infnan2                    0x08006c71   Thumb Code     6  funder.o(i.__mathlib_flt_infnan2)
    __mathlib_flt_invalid                    0x08006c79   Thumb Code    10  funder.o(i.__mathlib_flt_invalid)
    __mathlib_flt_underflow                  0x08006c89   Thumb Code    10  funder.o(i.__mathlib_flt_underflow)
    _is_digit                                0x08006c99   Thumb Code    14  __printf_wp.o(i._is_digit)
    fputc                                    0x08006ca7   Thumb Code    26  fputc.o(i.fputc)
    _get_lc_numeric                          0x08006cc1   Thumb Code    44  lc_numeric_c.o(locale$$code)
    __aeabi_d2f                              0x08006ced   Thumb Code     0  d2f.o(x$fpl$d2f)
    _d2f                                     0x08006ced   Thumb Code    98  d2f.o(x$fpl$d2f)
    __aeabi_dadd                             0x08006d51   Thumb Code     0  daddsub_clz.o(x$fpl$dadd)
    _dadd                                    0x08006d51   Thumb Code   332  daddsub_clz.o(x$fpl$dadd)
    __aeabi_ddiv                             0x08006ea1   Thumb Code     0  ddiv.o(x$fpl$ddiv)
    _ddiv                                    0x08006ea1   Thumb Code   552  ddiv.o(x$fpl$ddiv)
    __aeabi_ui2d                             0x08007151   Thumb Code     0  dflt_clz.o(x$fpl$dfltu)
    _dfltu                                   0x08007151   Thumb Code    38  dflt_clz.o(x$fpl$dfltu)
    __aeabi_dmul                             0x08007179   Thumb Code     0  dmul.o(x$fpl$dmul)
    _dmul                                    0x08007179   Thumb Code   332  dmul.o(x$fpl$dmul)
    __fpl_dnaninf                            0x080072cd   Thumb Code   156  dnaninf.o(x$fpl$dnaninf)
    __fpl_dretinf                            0x08007369   Thumb Code    12  dretinf.o(x$fpl$dretinf)
    __aeabi_dsub                             0x08007375   Thumb Code     0  daddsub_clz.o(x$fpl$dsub)
    _dsub                                    0x08007375   Thumb Code   464  daddsub_clz.o(x$fpl$dsub)
    __aeabi_f2d                              0x08007549   Thumb Code     0  f2d.o(x$fpl$f2d)
    _f2d                                     0x08007549   Thumb Code    86  f2d.o(x$fpl$f2d)
    __aeabi_ul2f                             0x0800759f   Thumb Code     0  ffltll_clz.o(x$fpl$ffltll)
    _ll_uto_f                                0x0800759f   Thumb Code     6  ffltll_clz.o(x$fpl$ffltll)
    __aeabi_l2f                              0x080075a5   Thumb Code     0  ffltll_clz.o(x$fpl$ffltll)
    _ll_sto_f                                0x080075a5   Thumb Code    90  ffltll_clz.o(x$fpl$ffltll)
    __fpl_fnaninf                            0x080075ff   Thumb Code   140  fnaninf.o(x$fpl$fnaninf)
    _fp_init                                 0x0800768b   Thumb Code    26  fpinit.o(x$fpl$fpinit)
    __fplib_config_fpu_vfp                   0x080076a3   Thumb Code     0  fpinit.o(x$fpl$fpinit)
    __fplib_config_pureend_doubles           0x080076a3   Thumb Code     0  fpinit.o(x$fpl$fpinit)
    _frem                                    0x080076a5   Thumb Code   240  frem_clz.o(x$fpl$frem)
    __fpl_fretinf                            0x08007799   Thumb Code    10  fretinf.o(x$fpl$fretinf)
    __aeabi_f2lz                             0x080077a5   Thumb Code     0  ffixll.o(x$fpl$llsfromf)
    _ll_sfrom_f                              0x080077a5   Thumb Code   134  ffixll.o(x$fpl$llsfromf)
    _printf_fp_dec                           0x0800782b   Thumb Code     4  printf1.o(x$fpl$printf1)
    __I$use$fp                               0x0800782e   Number         0  usenofp.o(x$fpl$usenofp)
    AHBPrescTable                            0x080078c4   Data          16  system_stm32f4xx.o(.rodata.AHBPrescTable)
    APBPrescTable                            0x080078d4   Data           8  system_stm32f4xx.o(.rodata.APBPrescTable)
    __stderr_name                            0x080078dc   Data           4  clib_rdef.o(.rodata.__stderr_name)
    __stdin_name                             0x080078e0   Data           4  clib_rdef.o(.rodata.__stdin_name)
    __stdout_name                            0x080078e4   Data           4  clib_rdef.o(.rodata.__stdout_name)
    Region$$Table$$Base                      0x08007d64   Number         0  anon$$obj.o(Region$$Table)
    Region$$Table$$Limit                     0x08007d84   Number         0  anon$$obj.o(Region$$Table)
    __aeabi_stdin                            0x20000000   Data           4  stdio_streams.o(.data)
    __aeabi_stdout                           0x20000004   Data           4  stdio_streams.o(.data)
    __aeabi_stderr                           0x20000008   Data           4  stdio_streams.o(.data)
    Balance_Kd                               0x2000000c   Data           4  control.o(.data.Balance_Kd)
    Balance_Kp                               0x20000010   Data           4  control.o(.data.Balance_Kp)
    Position_Kd                              0x20000028   Data           4  control.o(.data.Position_Kd)
    Position_Kp                              0x2000002c   Data           4  control.o(.data.Position_Kp)
    SystemCoreClock                          0x20000030   Data           4  system_stm32f4xx.o(.data.SystemCoreClock)
    Turn_Kd                                  0x20000034   Data           4  control.o(.data.Turn_Kd)
    Turn_Ki                                  0x20000038   Data           4  control.o(.data.Turn_Ki)
    Turn_Kp                                  0x2000003c   Data           4  control.o(.data.Turn_Kp)
    Turn_Position_Kd                         0x20000040   Data           4  control.o(.data.Turn_Position_Kd)
    Turn_Position_Ki                         0x20000044   Data           4  control.o(.data.Turn_Position_Ki)
    Turn_Position_Kp                         0x20000048   Data           4  control.o(.data.Turn_Position_Kp)
    Velocity_Ki                              0x2000004c   Data           4  control.o(.data.Velocity_Ki)
    Velocity_Kp                              0x20000050   Data           4  control.o(.data.Velocity_Kp)
    uwTickFreq                               0x20000056   Data           1  stm32f4xx_hal.o(.data.uwTickFreq)
    uwTickPrio                               0x20000058   Data           4  stm32f4xx_hal.o(.data.uwTickPrio)
    __stdin                                  0x20000060   Data          84  stdio_streams.o(.bss)
    __stdout                                 0x200000b4   Data          84  stdio_streams.o(.bss)
    __stderr                                 0x20000108   Data          84  stdio_streams.o(.bss)
    __libspace_start                         0x2000015c   Data          96  libspace.o(.bss)
    __temporary_stack_top$libspace           0x200001bc   Data           0  libspace.o(.bss)
    Debug_Handler                            0x2000023c   Data          64  stm32f4xx_sys.o(.bss.Debug_Handler)
    uwTick                                   0x20000a38   Data           4  stm32f4xx_hal.o(.bss.uwTick)



==============================================================================

Memory Map of the image

  Image Entry point : 0x08000189

  Load Region LR_IROM1 (Base: 0x08000000, Size: 0x00007e00, Max: 0x00100000, ABSOLUTE)

    Execution Region ER_IROM1 (Exec base: 0x08000000, Load base: 0x08000000, Size: 0x00007da0, Max: 0x00100000, ABSOLUTE)

    Exec Addr    Load Addr    Size         Type   Attr      Idx    E Section Name        Object

    0x08000000   0x08000000   0x00000188   Data   RO           82    RESET               startup_stm32f405xx.o
    0x08000188   0x08000188   0x00000008   Code   RO         3037  * !!!main             c_w.l(__main.o)
    0x08000190   0x08000190   0x00000034   Code   RO         3515    !!!scatter          c_w.l(__scatter.o)
    0x080001c4   0x080001c4   0x0000001a   Code   RO         3517    !!handler_copy      c_w.l(__scatter_copy.o)
    0x080001de   0x080001de   0x00000002   PAD
    0x080001e0   0x080001e0   0x0000001c   Code   RO         3519    !!handler_zi        c_w.l(__scatter_zi.o)
    0x080001fc   0x080001fc   0x00000000   Code   RO         3030    .ARM.Collect$$_printf_percent$$00000000  c_w.l(_printf_percent.o)
    0x080001fc   0x080001fc   0x00000006   Code   RO         3029    .ARM.Collect$$_printf_percent$$00000003  c_w.l(_printf_f.o)
    0x08000202   0x08000202   0x00000006   Code   RO         3028    .ARM.Collect$$_printf_percent$$00000009  c_w.l(_printf_d.o)
    0x08000208   0x08000208   0x00000004   Code   RO         3104    .ARM.Collect$$_printf_percent$$00000017  c_w.l(_printf_percent_end.o)
    0x0800020c   0x0800020c   0x00000002   Code   RO         3334    .ARM.Collect$$libinit$$00000000  c_w.l(libinit.o)
    0x0800020e   0x0800020e   0x00000004   Code   RO         3335    .ARM.Collect$$libinit$$00000001  c_w.l(libinit2.o)
    0x08000212   0x08000212   0x00000000   Code   RO         3338    .ARM.Collect$$libinit$$00000004  c_w.l(libinit2.o)
    0x08000212   0x08000212   0x00000008   Code   RO         3339    .ARM.Collect$$libinit$$00000005  c_w.l(libinit2.o)
    0x0800021a   0x0800021a   0x00000000   Code   RO         3341    .ARM.Collect$$libinit$$0000000A  c_w.l(libinit2.o)
    0x0800021a   0x0800021a   0x00000000   Code   RO         3343    .ARM.Collect$$libinit$$0000000C  c_w.l(libinit2.o)
    0x0800021a   0x0800021a   0x00000000   Code   RO         3345    .ARM.Collect$$libinit$$0000000E  c_w.l(libinit2.o)
    0x0800021a   0x0800021a   0x00000006   Code   RO         3346    .ARM.Collect$$libinit$$0000000F  c_w.l(libinit2.o)
    0x08000220   0x08000220   0x00000000   Code   RO         3348    .ARM.Collect$$libinit$$00000011  c_w.l(libinit2.o)
    0x08000220   0x08000220   0x00000000   Code   RO         3350    .ARM.Collect$$libinit$$00000013  c_w.l(libinit2.o)
    0x08000220   0x08000220   0x00000000   Code   RO         3352    .ARM.Collect$$libinit$$00000015  c_w.l(libinit2.o)
    0x08000220   0x08000220   0x0000000a   Code   RO         3353    .ARM.Collect$$libinit$$00000016  c_w.l(libinit2.o)
    0x0800022a   0x0800022a   0x00000000   Code   RO         3354    .ARM.Collect$$libinit$$00000017  c_w.l(libinit2.o)
    0x0800022a   0x0800022a   0x00000000   Code   RO         3356    .ARM.Collect$$libinit$$00000019  c_w.l(libinit2.o)
    0x0800022a   0x0800022a   0x00000000   Code   RO         3358    .ARM.Collect$$libinit$$0000001B  c_w.l(libinit2.o)
    0x0800022a   0x0800022a   0x00000000   Code   RO         3360    .ARM.Collect$$libinit$$0000001D  c_w.l(libinit2.o)
    0x0800022a   0x0800022a   0x00000000   Code   RO         3362    .ARM.Collect$$libinit$$0000001F  c_w.l(libinit2.o)
    0x0800022a   0x0800022a   0x00000000   Code   RO         3364    .ARM.Collect$$libinit$$00000021  c_w.l(libinit2.o)
    0x0800022a   0x0800022a   0x00000000   Code   RO         3366    .ARM.Collect$$libinit$$00000023  c_w.l(libinit2.o)
    0x0800022a   0x0800022a   0x00000004   Code   RO         3367    .ARM.Collect$$libinit$$00000024  c_w.l(libinit2.o)
    0x0800022e   0x0800022e   0x00000000   Code   RO         3368    .ARM.Collect$$libinit$$00000025  c_w.l(libinit2.o)
    0x0800022e   0x0800022e   0x00000000   Code   RO         3372    .ARM.Collect$$libinit$$0000002C  c_w.l(libinit2.o)
    0x0800022e   0x0800022e   0x00000000   Code   RO         3374    .ARM.Collect$$libinit$$0000002E  c_w.l(libinit2.o)
    0x0800022e   0x0800022e   0x00000000   Code   RO         3376    .ARM.Collect$$libinit$$00000030  c_w.l(libinit2.o)
    0x0800022e   0x0800022e   0x00000000   Code   RO         3378    .ARM.Collect$$libinit$$00000032  c_w.l(libinit2.o)
    0x0800022e   0x0800022e   0x00000002   Code   RO         3379    .ARM.Collect$$libinit$$00000033  c_w.l(libinit2.o)
    0x08000230   0x08000230   0x00000002   Code   RO         3496    .ARM.Collect$$libshutdown$$00000000  c_w.l(libshutdown.o)
    0x08000232   0x08000232   0x00000000   Code   RO         3381    .ARM.Collect$$libshutdown$$00000002  c_w.l(libshutdown2.o)
    0x08000232   0x08000232   0x00000004   Code   RO         3382    .ARM.Collect$$libshutdown$$00000003  c_w.l(libshutdown2.o)
    0x08000236   0x08000236   0x00000000   Code   RO         3383    .ARM.Collect$$libshutdown$$00000004  c_w.l(libshutdown2.o)
    0x08000236   0x08000236   0x00000000   Code   RO         3386    .ARM.Collect$$libshutdown$$00000007  c_w.l(libshutdown2.o)
    0x08000236   0x08000236   0x00000000   Code   RO         3389    .ARM.Collect$$libshutdown$$0000000A  c_w.l(libshutdown2.o)
    0x08000236   0x08000236   0x00000000   Code   RO         3391    .ARM.Collect$$libshutdown$$0000000C  c_w.l(libshutdown2.o)
    0x08000236   0x08000236   0x00000000   Code   RO         3394    .ARM.Collect$$libshutdown$$0000000F  c_w.l(libshutdown2.o)
    0x08000236   0x08000236   0x00000002   Code   RO         3395    .ARM.Collect$$libshutdown$$00000010  c_w.l(libshutdown2.o)
    0x08000238   0x08000238   0x00000000   Code   RO         3083    .ARM.Collect$$rtentry$$00000000  c_w.l(__rtentry.o)
    0x08000238   0x08000238   0x00000000   Code   RO         3145    .ARM.Collect$$rtentry$$00000002  c_w.l(__rtentry2.o)
    0x08000238   0x08000238   0x00000006   Code   RO         3157    .ARM.Collect$$rtentry$$00000004  c_w.l(__rtentry4.o)
    0x0800023e   0x0800023e   0x00000000   Code   RO         3147    .ARM.Collect$$rtentry$$00000009  c_w.l(__rtentry2.o)
    0x0800023e   0x0800023e   0x00000004   Code   RO         3148    .ARM.Collect$$rtentry$$0000000A  c_w.l(__rtentry2.o)
    0x08000242   0x08000242   0x00000000   Code   RO         3150    .ARM.Collect$$rtentry$$0000000C  c_w.l(__rtentry2.o)
    0x08000242   0x08000242   0x00000008   Code   RO         3151    .ARM.Collect$$rtentry$$0000000D  c_w.l(__rtentry2.o)
    0x0800024a   0x0800024a   0x00000002   Code   RO         3396    .ARM.Collect$$rtexit$$00000000  c_w.l(rtexit.o)
    0x0800024c   0x0800024c   0x00000000   Code   RO         3456    .ARM.Collect$$rtexit$$00000002  c_w.l(rtexit2.o)
    0x0800024c   0x0800024c   0x00000004   Code   RO         3457    .ARM.Collect$$rtexit$$00000003  c_w.l(rtexit2.o)
    0x08000250   0x08000250   0x00000006   Code   RO         3458    .ARM.Collect$$rtexit$$00000004  c_w.l(rtexit2.o)
    0x08000256   0x08000256   0x00000002   PAD
    0x08000258   0x08000258   0x00000040   Code   RO           83    .text               startup_stm32f405xx.o
    0x08000298   0x08000298   0x00000002   Code   RO         2990    .text               c_w.l(use_no_semi_2.o)
    0x0800029a   0x0800029a   0x000000f0   Code   RO         2992    .text               c_w.l(lludivv7m.o)
    0x0800038a   0x0800038a   0x00000002   PAD
    0x0800038c   0x0800038c   0x00000018   Code   RO         2994    .text               c_w.l(__2printf.o)
    0x080003a4   0x080003a4   0x00000038   Code   RO         2996    .text               c_w.l(__2snprintf.o)
    0x080003dc   0x080003dc   0x0000004e   Code   RO         3004    .text               c_w.l(_printf_pad.o)
    0x0800042a   0x0800042a   0x00000002   PAD
    0x0800042c   0x0800042c   0x00000078   Code   RO         3006    .text               c_w.l(_printf_dec.o)
    0x080004a4   0x080004a4   0x0000010e   Code   RO         3016    .text               c_w.l(__printf_wp.o)
    0x080005b2   0x080005b2   0x00000002   PAD
    0x080005b4   0x080005b4   0x0000002c   Code   RO         3031    .text               c_w.l(puts.o)
    0x080005e0   0x080005e0   0x0000004e   Code   RO         3033    .text               c_w.l(rt_memclr_w.o)
    0x0800062e   0x0800062e   0x00000006   Code   RO         3035    .text               c_w.l(heapauxi.o)
    0x08000634   0x08000634   0x00000002   Code   RO         3081    .text               c_w.l(use_no_semi.o)
    0x08000636   0x08000636   0x00000016   Code   RO         3088    .text               c_w.l(_rserrno.o)
    0x0800064c   0x0800064c   0x000000b2   Code   RO         3090    .text               c_w.l(_printf_intcommon.o)
    0x080006fe   0x080006fe   0x0000041c   Code   RO         3092    .text               c_w.l(_printf_fp_dec.o)
    0x08000b1a   0x08000b1a   0x00000002   PAD
    0x08000b1c   0x08000b1c   0x00000030   Code   RO         3096    .text               c_w.l(_printf_char_common.o)
    0x08000b4c   0x08000b4c   0x0000000a   Code   RO         3098    .text               c_w.l(_sputc.o)
    0x08000b56   0x08000b56   0x00000010   Code   RO         3100    .text               c_w.l(_snputc.o)
    0x08000b66   0x08000b66   0x00000002   PAD
    0x08000b68   0x08000b68   0x00000024   Code   RO         3102    .text               c_w.l(_printf_char_file.o)
    0x08000b8c   0x08000b8c   0x00000008   Code   RO         3164    .text               c_w.l(rt_locale_intlibspace.o)
    0x08000b94   0x08000b94   0x00000008   Code   RO         3169    .text               c_w.l(rt_errno_addr_intlibspace.o)
    0x08000b9c   0x08000b9c   0x0000008a   Code   RO         3171    .text               c_w.l(lludiv10.o)
    0x08000c26   0x08000c26   0x00000002   PAD
    0x08000c28   0x08000c28   0x00000080   Code   RO         3173    .text               c_w.l(_printf_fp_infnan.o)
    0x08000ca8   0x08000ca8   0x000000e4   Code   RO         3177    .text               c_w.l(bigflt0.o)
    0x08000d8c   0x08000d8c   0x00000008   Code   RO         3204    .text               c_w.l(ferror.o)
    0x08000d94   0x08000d94   0x000001d6   Code   RO         3206    .text               c_w.l(flsbuf.o)
    0x08000f6a   0x08000f6a   0x00000002   PAD
    0x08000f6c   0x08000f6c   0x00000138   Code   RO         3208    .text               c_w.l(initio.o)
    0x080010a4   0x080010a4   0x00000008   Code   RO         3223    .text               c_w.l(libspace.o)
    0x080010ac   0x080010ac   0x0000004a   Code   RO         3228    .text               c_w.l(sys_stackheap_outer.o)
    0x080010f6   0x080010f6   0x0000005e   Code   RO         3234    .text               c_w.l(h1_alloc.o)
    0x08001154   0x08001154   0x0000004e   Code   RO         3236    .text               c_w.l(h1_free.o)
    0x080011a2   0x080011a2   0x00000046   Code   RO         3296    .text               c_w.l(setvbuf.o)
    0x080011e8   0x080011e8   0x000000f0   Code   RO         3298    .text               c_w.l(stdio.o)
    0x080012d8   0x080012d8   0x000000f0   Code   RO         3303    .text               c_w.l(fopen.o)
    0x080013c8   0x080013c8   0x0000004c   Code   RO         3305    .text               c_w.l(fclose.o)
    0x08001414   0x08001414   0x00000012   Code   RO         3315    .text               c_w.l(exit.o)
    0x08001426   0x08001426   0x0000000e   Code   RO         3321    .text               c_w.l(defsig_rtred_outer.o)
    0x08001434   0x08001434   0x00000004   PAD
    0x08001438   0x08001438   0x0000007c   Code   RO         3327    .text               c_w.l(strcmpv7em.o)
    0x080014b4   0x080014b4   0x00000008   Code   RO         3403    .text               c_w.l(rt_heap_descriptor_intlibspace.o)
    0x080014bc   0x080014bc   0x00000004   Code   RO         3405    .text               c_w.l(hguard.o)
    0x080014c0   0x080014c0   0x0000008a   Code   RO         3407    .text               c_w.l(init_alloc.o)
    0x0800154a   0x0800154a   0x0000000e   Code   RO         3411    .text               c_w.l(h1_init.o)
    0x08001558   0x08001558   0x000000f8   Code   RO         3429    .text               c_w.l(fseek.o)
    0x08001650   0x08001650   0x0000000a   Code   RO         3435    .text               c_w.l(defsig_exit.o)
    0x0800165a   0x0800165a   0x00000002   PAD
    0x0800165c   0x0800165c   0x00000034   Code   RO         3439    .text               c_w.l(defsig_rtred_inner.o)
    0x08001690   0x08001690   0x00000000   Code   RO         3464    .text               c_w.l(maybetermalloc1.o)
    0x08001690   0x08001690   0x00000034   Code   RO         3466    .text               c_w.l(h1_extend.o)
    0x080016c4   0x080016c4   0x00000042   Code   RO         3470    .text               c_w.l(ftell.o)
    0x08001706   0x08001706   0x00000032   Code   RO         3474    .text               c_w.l(defsig_general.o)
    0x08001738   0x08001738   0x0000000e   Code   RO         3476    .text               c_w.l(defsig_rtmem_outer.o)
    0x08001746   0x08001746   0x00000002   PAD
    0x08001748   0x08001748   0x00000050   Code   RO         3490    .text               c_w.l(defsig_rtmem_inner.o)
    0x08001798   0x08001798   0x000004b0   Code   RO         2968    .text.APP_Transe_Fresh  app_transe.o
    0x08001c48   0x08001c48   0x000000d0   Code   RO         2728    .text.Battery_Voltage_Fresh  hw_battery.o
    0x08001d18   0x08001d18   0x0000000c   Code   RO         2913    .text.Control_Enable  control.o
    0x08001d24   0x08001d24   0x0000007e   Code   RO         2700    .text.DMA2_Stream1_IRQHandler  hw_main_ctrl.o
    0x08001da2   0x08001da2   0x00000006   PAD
    0x08001da8   0x08001da8   0x00000118   Code   RO         2839    .text.Direction_Fresh  hw_direction.o
    0x08001ec0   0x08001ec0   0x0000001a   Code   RO         2782    .text.EXTI15_10_IRQHandler  hw_posture.o
    0x08001eda   0x08001eda   0x0000001a   Code   RO         2698    .text.EXTI9_5_IRQHandler  hw_main_ctrl.o
    0x08001ef4   0x08001ef4   0x0000000e   Code   RO         2730    .text.Get_Battery_Voltage  hw_battery.o
    0x08001f02   0x08001f02   0x0000000e   Code   RO         2841    .text.Get_Direction  hw_direction.o
    0x08001f10   0x08001f10   0x000000b4   Code   RO         2809    .text.Get_Distance  hw_distance.o
    0x08001fc4   0x08001fc4   0x00000028   Code   RO         2714    .text.Get_Encoder   hw_encoder.o
    0x08001fec   0x08001fec   0x00000114   Code   RO          197    .text.HAL_ADC_ConfigChannel  stm32f4xx_hal_adc.o
    0x08002100   0x08002100   0x00000006   Code   RO          193    .text.HAL_ADC_GetValue  stm32f4xx_hal_adc.o
    0x08002106   0x08002106   0x0000014c   Code   RO          155    .text.HAL_ADC_Init  stm32f4xx_hal_adc.o
    0x08002252   0x08002252   0x00000002   Code   RO          157    .text.HAL_ADC_MspInit  stm32f4xx_hal_adc.o
    0x08002254   0x08002254   0x000000b0   Code   RO          167    .text.HAL_ADC_PollForConversion  stm32f4xx_hal_adc.o
    0x08002304   0x08002304   0x000000f4   Code   RO          163    .text.HAL_ADC_Start  stm32f4xx_hal_adc.o
    0x080023f8   0x080023f8   0x00000088   Code   RO          487    .text.HAL_DMA_DeInit  stm32f4xx_hal_dma.o
    0x08002480   0x08002480   0x00000148   Code   RO          485    .text.HAL_DMA_Init  stm32f4xx_hal_dma.o
    0x080025c8   0x080025c8   0x0000006a   Code   RO          489    .text.HAL_DMA_Start  stm32f4xx_hal_dma.o
    0x08002632   0x08002632   0x00000002   PAD
    0x08002634   0x08002634   0x00000194   Code   RO          619    .text.HAL_GPIO_Init  stm32f4xx_hal_gpio.o
    0x080027c8   0x080027c8   0x0000000a   Code   RO          623    .text.HAL_GPIO_ReadPin  stm32f4xx_hal_gpio.o
    0x080027d2   0x080027d2   0x0000000a   Code   RO          625    .text.HAL_GPIO_WritePin  stm32f4xx_hal_gpio.o
    0x080027dc   0x080027dc   0x0000000e   Code   RO          118    .text.HAL_GetREVID  stm32f4xx_hal.o
    0x080027ea   0x080027ea   0x0000000c   Code   RO          102    .text.HAL_GetTick   stm32f4xx_hal.o
    0x080027f6   0x080027f6   0x0000001a   Code   RO          100    .text.HAL_IncTick   stm32f4xx_hal.o
    0x08002810   0x08002810   0x0000002e   Code   RO           90    .text.HAL_Init      stm32f4xx_hal.o
    0x0800283e   0x0800283e   0x00000050   Code   RO           92    .text.HAL_InitTick  stm32f4xx_hal.o
    0x0800288e   0x0800288e   0x00000002   PAD
    0x08002890   0x08002890   0x0000011a   Code   RO           35    .text.HAL_MspInit   stm32f4xx_sys.o
    0x080029aa   0x080029aa   0x0000001e   Code   RO          336    .text.HAL_NVIC_EnableIRQ  stm32f4xx_hal_cortex.o
    0x080029c8   0x080029c8   0x00000056   Code   RO          334    .text.HAL_NVIC_SetPriority  stm32f4xx_hal_cortex.o
    0x08002a1e   0x08002a1e   0x00000020   Code   RO          332    .text.HAL_NVIC_SetPriorityGrouping  stm32f4xx_hal_cortex.o
    0x08002a3e   0x08002a3e   0x00000004   Code   RO          340    .text.HAL_NVIC_SystemReset  stm32f4xx_hal_cortex.o
    0x08002a42   0x08002a42   0x0000000c   Code   RO         1256    .text.HAL_PWR_EnableBkUpAccess  stm32f4xx_hal_pwr.o
    0x08002a4e   0x08002a4e   0x00000002   PAD
    0x08002a50   0x08002a50   0x00000146   Code   RO         1321    .text.HAL_RCC_ClockConfig  stm32f4xx_hal_rcc.o
    0x08002b96   0x08002b96   0x00000026   Code   RO         1333    .text.HAL_RCC_GetPCLK1Freq  stm32f4xx_hal_rcc.o
    0x08002bbc   0x08002bbc   0x00000026   Code   RO         1335    .text.HAL_RCC_GetPCLK2Freq  stm32f4xx_hal_rcc.o
    0x08002be2   0x08002be2   0x0000006a   Code   RO         1323    .text.HAL_RCC_GetSysClockFreq  stm32f4xx_hal_rcc.o
    0x08002c4c   0x08002c4c   0x00000300   Code   RO         1319    .text.HAL_RCC_OscConfig  stm32f4xx_hal_rcc.o
    0x08002f4c   0x08002f4c   0x00000018   Code   RO          364    .text.HAL_SYSTICK_CLKSourceConfig  stm32f4xx_hal_cortex.o
    0x08002f64   0x08002f64   0x0000002c   Code   RO          344    .text.HAL_SYSTICK_Config  stm32f4xx_hal_cortex.o
    0x08002f90   0x08002f90   0x0000009e   Code   RO         1974    .text.HAL_TIM_Encoder_Init  stm32f4xx_hal_tim.o
    0x0800302e   0x0800302e   0x00000002   Code   RO         1976    .text.HAL_TIM_Encoder_MspInit  stm32f4xx_hal_tim.o
    0x08003030   0x08003030   0x00000044   Code   RO         1982    .text.HAL_TIM_Encoder_Start  stm32f4xx_hal_tim.o
    0x08003074   0x08003074   0x00000120   Code   RO         2016    .text.HAL_TIM_IC_ConfigChannel  stm32f4xx_hal_tim.o
    0x08003194   0x08003194   0x00000034   Code   RO         1934    .text.HAL_TIM_IC_Init  stm32f4xx_hal_tim.o
    0x080031c8   0x080031c8   0x00000002   Code   RO         1936    .text.HAL_TIM_IC_MspInit  stm32f4xx_hal_tim.o
    0x080031ca   0x080031ca   0x00000002   PAD
    0x080031cc   0x080031cc   0x0000006a   Code   RO         1946    .text.HAL_TIM_IC_Start_IT  stm32f4xx_hal_tim.o
    0x08003236   0x08003236   0x00000002   PAD
    0x08003238   0x08003238   0x000000a0   Code   RO         2020    .text.HAL_TIM_PWM_ConfigChannel  stm32f4xx_hal_tim.o
    0x080032d8   0x080032d8   0x00000034   Code   RO         1914    .text.HAL_TIM_PWM_Init  stm32f4xx_hal_tim.o
    0x0800330c   0x0800330c   0x00000002   Code   RO         1916    .text.HAL_TIM_PWM_MspInit  stm32f4xx_hal_tim.o
    0x0800330e   0x0800330e   0x0000004c   Code   RO         1922    .text.HAL_TIM_PWM_Start  stm32f4xx_hal_tim.o
    0x0800335a   0x0800335a   0x00000002   PAD
    0x0800335c   0x0800335c   0x0000002e   Code   RO         2052    .text.HAL_TIM_ReadCapturedValue  stm32f4xx_hal_tim.o
    0x0800338a   0x0800338a   0x0000005c   Code   RO         2168    .text.HAL_UART_Init  stm32f4xx_hal_uart.o
    0x080033e6   0x080033e6   0x00000002   Code   RO         2170    .text.HAL_UART_MspInit  stm32f4xx_hal_uart.o
    0x080033e8   0x080033e8   0x000000b4   Code   RO         2184    .text.HAL_UART_Transmit  stm32f4xx_hal_uart.o
    0x0800349c   0x0800349c   0x0000006e   Code   RO         2827    .text.HWMC5883_Write_Byte  hw_direction.o
    0x0800350a   0x0800350a   0x0000009a   Code   RO         2792    .text.HW_APP_Transe_Init  hw_app_transe.o
    0x080035a4   0x080035a4   0x0000010c   Code   RO         2966    .text.HW_APP_Transe_Process  app_transe.o
    0x080036b0   0x080036b0   0x00000014   Code   RO         2794    .text.HW_APP_Transe_Send  hw_app_transe.o
    0x080036c4   0x080036c4   0x0000009c   Code   RO         2726    .text.HW_Battery_Init  hw_battery.o
    0x08003760   0x08003760   0x00000060   Code   RO         2825    .text.HW_Direction_Init  hw_direction.o
    0x080037c0   0x080037c0   0x000000fe   Code   RO         2829    .text.HW_Direction_Read  hw_direction.o
    0x080038be   0x080038be   0x000000e0   Code   RO         2807    .text.HW_Distance_Init  hw_distance.o
    0x0800399e   0x0800399e   0x00000100   Code   RO         2712    .text.HW_Encoder_Init  hw_encoder.o
    0x08003a9e   0x08003a9e   0x00000042   Code   RO         2664    .text.HW_KEY_Init   hw_key.o
    0x08003ae0   0x08003ae0   0x00000050   Code   RO         2656    .text.HW_LED_Init   hw_led.o
    0x08003b30   0x08003b30   0x00000190   Code   RO         2694    .text.HW_Main_Ctrl_Init  hw_main_ctrl.o
    0x08003cc0   0x08003cc0   0x0000005c   Code   RO         2870    .text.HW_Main_Ctrl_Process  main_ctrl.o
    0x08003d1c   0x08003d1c   0x00000016   Code   RO         2696    .text.HW_Main_Ctrl_Transe  hw_main_ctrl.o
    0x08003d32   0x08003d32   0x0000010c   Code   RO         2676    .text.HW_Motor_Init  hw_motor.o
    0x08003e3e   0x08003e3e   0x00000002   PAD
    0x08003e40   0x08003e40   0x000003a8   Code   RO         2754    .text.HW_OLED_Init  hw_oled.o
    0x080041e8   0x080041e8   0x000000dc   Code   RO         2778    .text.HW_Posture_Init  hw_posture.o
    0x080042c4   0x080042c4   0x000005ac   Code   RO         2923    .text.HW_Posture_Process  control.o
    0x08004870   0x08004870   0x00000104   Code   RO         2858    .text.IIC_Read_Byte_General  iic_software.o
    0x08004974   0x08004974   0x00000120   Code   RO         2856    .text.IIC_Send_Byte_General  iic_software.o
    0x08004a94   0x08004a94   0x00000072   Code   RO         2852    .text.IIC_Start_General  iic_software.o
    0x08004b06   0x08004b06   0x00000002   PAD
    0x08004b08   0x08004b08   0x00000072   Code   RO         2854    .text.IIC_Stop_General  iic_software.o
    0x08004b7a   0x08004b7a   0x00000098   Code   RO         2768    .text.MPU6050_Read_Byte  hw_posture.o
    0x08004c12   0x08004c12   0x0000006e   Code   RO         2780    .text.MPU6050_Write_Byte  hw_posture.o
    0x08004c80   0x08004c80   0x00000018   Code   RO         2774    .text.MPU_Get_AccelerometerY  hw_posture.o
    0x08004c98   0x08004c98   0x00000018   Code   RO         2776    .text.MPU_Get_AccelerometerZ  hw_posture.o
    0x08004cb0   0x08004cb0   0x00000018   Code   RO         2770    .text.MPU_Get_GyroscopeX  hw_posture.o
    0x08004cc8   0x08004cc8   0x00000018   Code   RO         2772    .text.MPU_Get_GyroscopeZ  hw_posture.o
    0x08004ce0   0x08004ce0   0x000001e4   Code   RO         2872    .text.Main_Ctrl_Fresh  main_ctrl.o
    0x08004ec4   0x08004ec4   0x0000000e   Code   RO         2898    .text.Main_Ctrl_Init  main_ctrl.o
    0x08004ed2   0x08004ed2   0x00000002   PAD
    0x08004ed4   0x08004ed4   0x0000004c   Code   RO         2894    .text.Main_Save_Param  main_ctrl.o
    0x08004f20   0x08004f20   0x00000058   Code   RO         2876    .text.Main_Set_Balance_Kd  main_ctrl.o
    0x08004f78   0x08004f78   0x00000058   Code   RO         2874    .text.Main_Set_Balance_Kp  main_ctrl.o
    0x08004fd0   0x08004fd0   0x00000058   Code   RO         2888    .text.Main_Set_Position_Kd  main_ctrl.o
    0x08005028   0x08005028   0x00000058   Code   RO         2886    .text.Main_Set_Position_Kp  main_ctrl.o
    0x08005080   0x08005080   0x00000058   Code   RO         2884    .text.Main_Set_Turn_Kd  main_ctrl.o
    0x080050d8   0x080050d8   0x00000058   Code   RO         2882    .text.Main_Set_Turn_Kp  main_ctrl.o
    0x08005130   0x08005130   0x00000058   Code   RO         2892    .text.Main_Set_Turn_Position_Ki  main_ctrl.o
    0x08005188   0x08005188   0x00000058   Code   RO         2890    .text.Main_Set_Turn_Position_Kp  main_ctrl.o
    0x080051e0   0x080051e0   0x00000058   Code   RO         2880    .text.Main_Set_Velocity_Ki  main_ctrl.o
    0x08005238   0x08005238   0x00000058   Code   RO         2878    .text.Main_Set_Velocity_Kp  main_ctrl.o
    0x08005290   0x08005290   0x0000004c   Code   RO         2896    .text.Main_Sport_End  main_ctrl.o
    0x080052dc   0x080052dc   0x00000068   Code   RO         2680    .text.Motor_Dir_Set  hw_motor.o
    0x08005344   0x08005344   0x00000050   Code   RO         2682    .text.Motor_Speed_Set  hw_motor.o
    0x08005394   0x08005394   0x000000a6   Code   RO         2744    .text.OLED_Refresh_Gram  hw_oled.o
    0x0800543a   0x0800543a   0x00000002   PAD
    0x0800543c   0x0800543c   0x0000014c   Code   RO         2752    .text.OLED_ShowString  hw_oled.o
    0x08005588   0x08005588   0x00000018   Code   RO         2915    .text.Sport_End     control.o
    0x080055a0   0x080055a0   0x00000058   Code   RO         2921    .text.Sport_End_Fresh  control.o
    0x080055f8   0x080055f8   0x00000084   Code   RO         2919    .text.Sport_Turn    control.o
    0x0800567c   0x0800567c   0x00000004   PAD
    0x08005680   0x08005680   0x0000005c   Code   RO         2917    .text.Sport_Walk    control.o
    0x080056dc   0x080056dc   0x00000004   Code   RO           33    .text.SysTick_Handler  stm32f4xx_sys.o
    0x080056e0   0x080056e0   0x00000058   Code   RO           12    .text.SystemInit    system_stm32f4xx.o
    0x08005738   0x08005738   0x000000f8   Code   RO         2811    .text.TIM3_IRQHandler  hw_distance.o
    0x08005830   0x08005830   0x0000011c   Code   RO         1864    .text.TIM_Base_SetConfig  stm32f4xx_hal_tim.o
    0x0800594c   0x0800594c   0x00000060   Code   RO         2008    .text.TIM_OC1_SetConfig  stm32f4xx_hal_tim.o
    0x080059ac   0x080059ac   0x00000068   Code   RO         2010    .text.TIM_OC2_SetConfig  stm32f4xx_hal_tim.o
    0x08005a14   0x08005a14   0x00000068   Code   RO         2012    .text.TIM_OC3_SetConfig  stm32f4xx_hal_tim.o
    0x08005a7c   0x08005a7c   0x0000004e   Code   RO         2014    .text.TIM_OC4_SetConfig  stm32f4xx_hal_tim.o
    0x08005aca   0x08005aca   0x000000a4   Code   RO         2018    .text.TIM_TI1_SetConfig  stm32f4xx_hal_tim.o
    0x08005b6e   0x08005b6e   0x0000024a   Code   RO         2172    .text.UART_SetConfig  stm32f4xx_hal_uart.o
    0x08005db8   0x08005db8   0x0000005e   Code   RO         2186    .text.UART_WaitOnFlagUntilTimeout  stm32f4xx_hal_uart.o
    0x08005e16   0x08005e16   0x00000022   Code   RO         2796    .text.USART2_IRQHandler  hw_app_transe.o
    0x08005e38   0x08005e38   0x00000024   Code   RO          342    .text.__NVIC_SystemReset  stm32f4xx_hal_cortex.o
    0x08005e5c   0x08005e5c   0x0000000e   Code   RO           48    .text._sys_close    clib_rdef.o
    0x08005e6a   0x08005e6a   0x00000002   PAD
    0x08005e6c   0x08005e6c   0x00000034   Code   RO           64    .text._sys_exit     clib_rdef.o
    0x08005ea0   0x08005ea0   0x00000006   Code   RO           60    .text._sys_flen     clib_rdef.o
    0x08005ea6   0x08005ea6   0x0000000c   Code   RO           56    .text._sys_istty    clib_rdef.o
    0x08005eb2   0x08005eb2   0x00000036   Code   RO           46    .text._sys_open     clib_rdef.o
    0x08005ee8   0x08005ee8   0x00000006   Code   RO           58    .text._sys_seek     clib_rdef.o
    0x08005eee   0x08005eee   0x00000024   Code   RO           50    .text._sys_write    clib_rdef.o
    0x08005f12   0x08005f12   0x00000022   Code   RO           54    .text._ttywrch      clib_rdef.o
    0x08005f34   0x08005f34   0x00000020   Code   RO           29    .text.delay_ms      stm32f4xx_sys.o
    0x08005f54   0x08005f54   0x0000007a   Code   RO           27    .text.delay_us      stm32f4xx_sys.o
    0x08005fce   0x08005fce   0x00000002   PAD
    0x08005fd0   0x08005fd0   0x000000b0   Code   RO         2666    .text.key_scan      hw_key.o
    0x08006080   0x08006080   0x000000ac   Code   RO            2    .text.main          main.o
    0x0800612c   0x0800612c   0x0000003e   Code   RO         3180    CL$$btod_d2e        c_w.l(btod.o)
    0x0800616a   0x0800616a   0x00000046   Code   RO         3182    CL$$btod_d2e_denorm_low  c_w.l(btod.o)
    0x080061b0   0x080061b0   0x00000060   Code   RO         3181    CL$$btod_d2e_norm_op1  c_w.l(btod.o)
    0x08006210   0x08006210   0x00000338   Code   RO         3190    CL$$btod_div_common  c_w.l(btod.o)
    0x08006548   0x08006548   0x000000dc   Code   RO         3187    CL$$btod_e2e        c_w.l(btod.o)
    0x08006624   0x08006624   0x0000002a   Code   RO         3184    CL$$btod_ediv       c_w.l(btod.o)
    0x0800664e   0x0800664e   0x0000002a   Code   RO         3183    CL$$btod_emul       c_w.l(btod.o)
    0x08006678   0x08006678   0x00000244   Code   RO         3189    CL$$btod_mult_common  c_w.l(btod.o)
    0x080068bc   0x080068bc   0x00000030   Code   RO         3221    i.__ARM_fpclassify  m_wm.l(fpclassify.o)
    0x080068ec   0x080068ec   0x00000026   Code   RO         3128    i.__ARM_fpclassifyf  m_wm.l(fpclassifyf.o)
    0x08006912   0x08006912   0x00000002   PAD
    0x08006914   0x08006914   0x000002ac   Code   RO         3069    i.__hardfp_atan2f   m_wm.l(atan2f.o)
    0x08006bc0   0x08006bc0   0x000000b0   Code   RO         3075    i.__hardfp_fmodf    m_wm.l(fmodf.o)
    0x08006c70   0x08006c70   0x00000006   Code   RO         3132    i.__mathlib_flt_infnan2  m_wm.l(funder.o)
    0x08006c76   0x08006c76   0x00000002   PAD
    0x08006c78   0x08006c78   0x00000010   Code   RO         3133    i.__mathlib_flt_invalid  m_wm.l(funder.o)
    0x08006c88   0x08006c88   0x00000010   Code   RO         3136    i.__mathlib_flt_underflow  m_wm.l(funder.o)
    0x08006c98   0x08006c98   0x0000000e   Code   RO         3018    i._is_digit         c_w.l(__printf_wp.o)
    0x08006ca6   0x08006ca6   0x0000001a   Code   RO         3106    i.fputc             c_w.l(fputc.o)
    0x08006cc0   0x08006cc0   0x0000002c   Code   RO         3215    locale$$code        c_w.l(lc_numeric_c.o)
    0x08006cec   0x08006cec   0x00000062   Code   RO         3039    x$fpl$d2f           fz_wm.l(d2f.o)
    0x08006d4e   0x08006d4e   0x00000002   PAD
    0x08006d50   0x08006d50   0x00000150   Code   RO         3041    x$fpl$dadd          fz_wm.l(daddsub_clz.o)
    0x08006ea0   0x08006ea0   0x000002b0   Code   RO         3048    x$fpl$ddiv          fz_wm.l(ddiv.o)
    0x08007150   0x08007150   0x00000026   Code   RO         3051    x$fpl$dfltu         fz_wm.l(dflt_clz.o)
    0x08007176   0x08007176   0x00000002   PAD
    0x08007178   0x08007178   0x00000154   Code   RO         3057    x$fpl$dmul          fz_wm.l(dmul.o)
    0x080072cc   0x080072cc   0x0000009c   Code   RO         3117    x$fpl$dnaninf       fz_wm.l(dnaninf.o)
    0x08007368   0x08007368   0x0000000c   Code   RO         3119    x$fpl$dretinf       fz_wm.l(dretinf.o)
    0x08007374   0x08007374   0x000001d4   Code   RO         3043    x$fpl$dsub          fz_wm.l(daddsub_clz.o)
    0x08007548   0x08007548   0x00000056   Code   RO         3059    x$fpl$f2d           fz_wm.l(f2d.o)
    0x0800759e   0x0800759e   0x00000060   Code   RO         3065    x$fpl$ffltll        fz_wm.l(ffltll_clz.o)
    0x080075fe   0x080075fe   0x0000008c   Code   RO         3121    x$fpl$fnaninf       fz_wm.l(fnaninf.o)
    0x0800768a   0x0800768a   0x0000001a   Code   RO         3449    x$fpl$fpinit        fz_wm.l(fpinit.o)
    0x080076a4   0x080076a4   0x000000f4   Code   RO         3123    x$fpl$frem          fz_wm.l(frem_clz.o)
    0x08007798   0x08007798   0x0000000a   Code   RO         3125    x$fpl$fretinf       fz_wm.l(fretinf.o)
    0x080077a2   0x080077a2   0x00000002   PAD
    0x080077a4   0x080077a4   0x00000086   Code   RO         3061    x$fpl$llsfromf      fz_wm.l(ffixll.o)
    0x0800782a   0x0800782a   0x00000004   Code   RO         3067    x$fpl$printf1       fz_wm.l(printf1.o)
    0x0800782e   0x0800782e   0x00000000   Code   RO         3127    x$fpl$usenofp       fz_wm.l(usenofp.o)
    0x0800782e   0x0800782e   0x00000002   PAD
    0x08007830   0x08007830   0x00000094   Data   RO         3178    .constdata          c_w.l(bigflt0.o)
    0x080078c4   0x080078c4   0x00000010   Data   RO           17    .rodata.AHBPrescTable  system_stm32f4xx.o
    0x080078d4   0x080078d4   0x00000008   Data   RO           18    .rodata.APBPrescTable  system_stm32f4xx.o
    0x080078dc   0x080078dc   0x00000004   Data   RO           72    .rodata.__stderr_name  clib_rdef.o
    0x080078e0   0x080078e0   0x00000004   Data   RO           70    .rodata.__stdin_name  clib_rdef.o
    0x080078e4   0x080078e4   0x00000004   Data   RO           71    .rodata.__stdout_name  clib_rdef.o
    0x080078e8   0x080078e8   0x00000008   Data   RO          509    .rodata.cst8        stm32f4xx_hal_dma.o
    0x080078f0   0x080078f0   0x00000474   Data   RO         2757    .rodata.oled_asc2_1206  hw_oled.o
    0x08007d64   0x08007d64   0x00000020   Data   RO         3514    Region$$Table       anon$$obj.o
    0x08007d84   0x08007d84   0x0000001c   Data   RO         3214    locale$$data        c_w.l(lc_numeric_c.o)


    Execution Region RW_IRAM1 (Exec base: 0x20000000, Load base: 0x08007da0, Size: 0x00008c48, Max: 0x00020000, ABSOLUTE)

    Exec Addr    Load Addr    Size         Type   Attr      Idx    E Section Name        Object

    0x20000000   0x08007da0   0x00000004   Data   RW         3112    .data               c_w.l(stdio_streams.o)
    0x20000004   0x08007da4   0x00000004   Data   RW         3113    .data               c_w.l(stdio_streams.o)
    0x20000008   0x08007da8   0x00000004   Data   RW         3114    .data               c_w.l(stdio_streams.o)
    0x2000000c   0x08007dac   0x00000004   Data   RW         2926    .data.Balance_Kd    control.o
    0x20000010   0x08007db0   0x00000004   Data   RW         2925    .data.Balance_Kp    control.o
    0x20000014   0x08007db4   0x00000004   Data   RW         2970    .data.HW_APP_Transe_Process.pdata  app_transe.o
    0x20000018   0x08007db8   0x00000004   Data   RW         2972    .data.HW_APP_Transe_Process.rev_index  app_transe.o
    0x2000001c   0x08007dbc   0x00000001   Data   RW         2943    .data.HW_Posture_Process.Div_Flag  control.o
    0x2000001d   0x08007dbd   0x00000003   PAD
    0x20000020   0x08007dc0   0x00000004   Data   RW         2954    .data.Kalman_Filter.PP.0.0  control.o
    0x20000024   0x08007dc4   0x00000004   Data   RW         2957    .data.Kalman_Filter.PP.1.1  control.o
    0x20000028   0x08007dc8   0x00000004   Data   RW         2936    .data.Position_Kd   control.o
    0x2000002c   0x08007dcc   0x00000004   Data   RW         2935    .data.Position_Kp   control.o
    0x20000030   0x08007dd0   0x00000004   Data   RW           16    .data.SystemCoreClock  system_stm32f4xx.o
    0x20000034   0x08007dd4   0x00000004   Data   RW         2930    .data.Turn_Kd       control.o
    0x20000038   0x08007dd8   0x00000004   Data   RW         2931    .data.Turn_Ki       control.o
    0x2000003c   0x08007ddc   0x00000004   Data   RW         2929    .data.Turn_Kp       control.o
    0x20000040   0x08007de0   0x00000004   Data   RW         2934    .data.Turn_Position_Kd  control.o
    0x20000044   0x08007de4   0x00000004   Data   RW         2933    .data.Turn_Position_Ki  control.o
    0x20000048   0x08007de8   0x00000004   Data   RW         2932    .data.Turn_Position_Kp  control.o
    0x2000004c   0x08007dec   0x00000004   Data   RW         2928    .data.Velocity_Ki   control.o
    0x20000050   0x08007df0   0x00000004   Data   RW         2927    .data.Velocity_Kp   control.o
    0x20000054   0x08007df4   0x00000001   Data   RW         2938    .data.is_position_over  control.o
    0x20000055   0x08007df5   0x00000001   Data   RW         2939    .data.is_turn_over  control.o
    0x20000056   0x08007df6   0x00000001   Data   RW          145    .data.uwTickFreq    stm32f4xx_hal.o
    0x20000057   0x08007df7   0x00000001   PAD
    0x20000058   0x08007df8   0x00000004   Data   RW          144    .data.uwTickPrio    stm32f4xx_hal.o
    0x2000005c   0x08007dfc   0x00000004   PAD
    0x20000060        -       0x00000054   Zero   RW         3109    .bss                c_w.l(stdio_streams.o)
    0x200000b4        -       0x00000054   Zero   RW         3110    .bss                c_w.l(stdio_streams.o)
    0x20000108        -       0x00000054   Zero   RW         3111    .bss                c_w.l(stdio_streams.o)
    0x2000015c        -       0x00000060   Zero   RW         3224    .bss                c_w.l(libspace.o)
    0x200001bc        -       0x00000048   Zero   RW         2732    .bss.ADC1_Handler   hw_battery.o
    0x20000204        -       0x00000004   Zero   RW         2733    .bss.Battery_Voltage  hw_battery.o
    0x20000208        -       0x00000014   Zero   RW         2971    .bss.Command_buf    app_transe.o
    0x2000021c        -       0x00000004   Zero   RW         2973    .bss.Command_len    app_transe.o
    0x20000220        -       0x00000004   Zero   RW         2843    .bss.Current_Dir    hw_direction.o
    0x20000224        -       0x00000014   Zero   RW         2979    .bss.Data_buf       app_transe.o
    0x20000238        -       0x00000004   Zero   RW         2976    .bss.Data_len       app_transe.o
    0x2000023c        -       0x00000040   Zero   RW           37    .bss.Debug_Handler  stm32f4xx_sys.o
    0x2000027c        -       0x00000014   Zero   RW         2734    .bss.Get_Adc_Average.ADC_Buf  hw_battery.o
    0x20000290        -       0x00000001   Zero   RW         2735    .bss.Get_Adc_Average.ADC_Index  hw_battery.o
    0x20000291   0x08007dfc   0x00000003   PAD
    0x20000294        -       0x00000004   Zero   RW         2814    .bss.Get_Distance.distance  hw_distance.o
    0x20000298        -       0x00000001   Zero   RW         2815    .bss.Get_Distance.isStart  hw_distance.o
    0x20000299        -       0x00000001   Zero   RW         2975    .bss.HW_APP_Transe_Process.blue_tooth_command  app_transe.o
    0x2000029a        -       0x00000001   Zero   RW         2974    .bss.HW_APP_Transe_Process.mode_rec  app_transe.o
    0x2000029b   0x08007dfc   0x00000001   PAD
    0x2000029c        -       0x00000004   Zero   RW         2955    .bss.Kalman_Filter.PP.0.1  control.o
    0x200002a0        -       0x00000004   Zero   RW         2956    .bss.Kalman_Filter.PP.1.0  control.o
    0x200002a4        -       0x00000004   Zero   RW         2945    .bss.Kalman_Filter.Q_bias  control.o
    0x200002a8        -       0x00000004   Zero   RW         2944    .bss.Kalman_Filter.angle  control.o
    0x200002ac        -       0x0000000c   Zero   RW         2903    .bss.Main_Ctrl_Fresh.rev_frame  main_ctrl.o
    0x200002b8        -       0x00000001   Zero   RW         2902    .bss.Need_Process   main_ctrl.o
    0x200002b9        -       0x00000400   Zero   RW         2756    .bss.OLED_GRAM      hw_oled.o
    0x200006b9        -       0x00000001   Zero   RW         2977    .bss.Single_Data    app_transe.o
    0x200006ba        -       0x00000001   Zero   RW         2942    .bss.Sport_End_Fresh.Send_Flag  control.o
    0x200006bb        -       0x00000001   Zero   RW         2978    .bss.State          app_transe.o
    0x200006bc        -       0x0000001c   Zero   RW         2685    .bss.TIM1_CHxHandler  hw_motor.o
    0x200006d8        -       0x00000040   Zero   RW         2684    .bss.TIM1_Handler   hw_motor.o
    0x20000718        -       0x00000040   Zero   RW         2716    .bss.TIM2_Handler   hw_encoder.o
    0x20000758        -       0x00000002   Zero   RW         2816    .bss.TIM3CH3_CAPTURE_STA  hw_distance.o
    0x2000075a        -       0x00000002   Zero   RW         2817    .bss.TIM3CH3_CAPTURE_VAL  hw_distance.o
    0x2000075c        -       0x00000040   Zero   RW         2813    .bss.TIM3_Handler   hw_distance.o
    0x2000079c        -       0x00000040   Zero   RW         2717    .bss.TIM4_Handler   hw_encoder.o
    0x200007dc   0x08007dfc   0x00000004   PAD
    0x200007e0        -       0x00000008   Zero   RW         2940    .bss.Target_Position  control.o
    0x200007e8        -       0x00000008   Zero   RW         2941    .bss.Target_Turn    control.o
    0x200007f0        -       0x00000040   Zero   RW         2798    .bss.USART2_Handle  hw_app_transe.o
    0x20000830        -       0x00000060   Zero   RW         2703    .bss.USART6_DMA_RX_Handle  hw_main_ctrl.o
    0x20000890        -       0x00000040   Zero   RW         2702    .bss.USART6_Handle  hw_main_ctrl.o
    0x200008d0        -       0x00000001   Zero   RW         2901    .bss.Wait_Flag      main_ctrl.o
    0x200008d1        -       0x00000014   Zero   RW            4    .bss.buf            main.o
    0x200008e5   0x08007dfc   0x00000003   PAD
    0x200008e8        -       0x0000000c   Zero   RW         2900    .bss.buf_frame      main_ctrl.o
    0x200008f4   0x08007dfc   0x00000004   PAD
    0x200008f8        -       0x00000008   Zero   RW         2951    .bss.position.Encoder_Store.0  control.o
    0x20000900        -       0x00000100   Zero   RW         2980    .bss.print_buf      app_transe.o
    0x20000a00        -       0x00000001   Zero   RW         2937    .bss.run_flag       control.o
    0x20000a01   0x08007dfc   0x00000003   PAD
    0x20000a04        -       0x0000000c   Zero   RW         2904    .bss.send_frame     main_ctrl.o
    0x20000a10        -       0x00000008   Zero   RW         2949    .bss.turn_position.Encoder_Bias  control.o
    0x20000a18        -       0x00000008   Zero   RW         2952    .bss.turn_position.Encoder_Store.0  control.o
    0x20000a20        -       0x00000008   Zero   RW         2953    .bss.turn_position.Encoder_Store.1  control.o
    0x20000a28        -       0x00000008   Zero   RW         2948    .bss.turn_position.Target_Encoder  control.o
    0x20000a30        -       0x00000008   Zero   RW         2950    .bss.turn_position.Turn_Store  control.o
    0x20000a38        -       0x00000004   Zero   RW          146    .bss.uwTick         stm32f4xx_hal.o
    0x20000a3c        -       0x00000004   Zero   RW         2946    .bss.velocity.Encoder  control.o
    0x20000a40        -       0x00000004   Zero   RW         2947    .bss.velocity.Encoder_Integral  control.o
    0x20000a44   0x08007dfc   0x00000004   PAD
    0x20000a48        -       0x00000200   Zero   RW           81    HEAP                startup_stm32f405xx.o
    0x20000c48        -       0x00008000   Zero   RW           80    STACK               startup_stm32f405xx.o


==============================================================================

Image component sizes


      Code (inc. data)   RO Data    RW Data    ZI Data      Debug   Object Name

      1468        154          0          8        308       4015   app_transe.o
       214         40         12          0          0       2901   clib_rdef.o
      1800        108          0         59         90       6124   control.o
       208          0          0          0         64       6583   hw_app_transe.o
       378         24          0          0         97       5331   hw_battery.o
       754         16          0          0          4       4861   hw_direction.o
       652         12          0          0         73       7320   hw_distance.o
       296          0          0          0        128       5265   hw_encoder.o
       242          0          0          0          0       2675   hw_key.o
        80          0          0          0          0       2122   hw_led.o
       574          0          0          0        160       7304   hw_main_ctrl.o
       452          0          0          0         92       5847   hw_motor.o
      1434          0       1140          0       1024      10683   hw_oled.o
       604          0          0          0          0       5889   hw_posture.o
       776          0          0          0          0       3823   iic_software.o
       172         12          0          0         20       1383   main.o
      1622         70          0          0         38       8636   main_ctrl.o
        64         26        392          0      33280        872   startup_stm32f405xx.o
       178          0          0          5          4       7083   stm32f4xx_hal.o
      1036          0          0          0          0      10500   stm32f4xx_hal_adc.o
       256          0          0          0          0      10247   stm32f4xx_hal_cortex.o
       570          4          8          0          0       9477   stm32f4xx_hal_dma.o
       424          0          0          0          0       4848   stm32f4xx_hal_gpio.o
        12          0          0          0          0       4400   stm32f4xx_hal_pwr.o
      1276          0          0          0          0       7081   stm32f4xx_hal_rcc.o
      1842         12          0          0          0      43506   stm32f4xx_hal_tim.o
       954          0          0          0          0      17231   stm32f4xx_hal_uart.o
       440          0          0          0         64       7022   stm32f4xx_sys.o
        88          0         24          4          0       2606   system_stm32f4xx.o

    ----------------------------------------------------------------------
     18900        482       1608         80      35472     215635   Object Totals
         0          0         32          0          0          0   (incl. Generated)
        34          4          0          4         26          0   (incl. Padding)

    ----------------------------------------------------------------------

      Code (inc. data)   RO Data    RW Data    ZI Data      Debug   Library Member Name

        24          4          0          0          0         84   __2printf.o
        56          6          0          0          0         88   __2snprintf.o
         8          0          0          0          0         68   __main.o
       284          0          0          0          0        156   __printf_wp.o
         0          0          0          0          0          0   __rtentry.o
        12          0          0          0          0          0   __rtentry2.o
         6          0          0          0          0          0   __rtentry4.o
        52          8          0          0          0          0   __scatter.o
        26          0          0          0          0          0   __scatter_copy.o
        28          0          0          0          0          0   __scatter_zi.o
        48          6          0          0          0         96   _printf_char_common.o
        36          4          0          0          0         80   _printf_char_file.o
         6          0          0          0          0          0   _printf_d.o
       120         16          0          0          0         92   _printf_dec.o
         6          0          0          0          0          0   _printf_f.o
      1052          0          0          0          0        148   _printf_fp_dec.o
       128         16          0          0          0         84   _printf_fp_infnan.o
       178          0          0          0          0         88   _printf_intcommon.o
        78          0          0          0          0        108   _printf_pad.o
         0          0          0          0          0          0   _printf_percent.o
         4          0          0          0          0          0   _printf_percent_end.o
        22          0          0          0          0        100   _rserrno.o
        16          0          0          0          0         68   _snputc.o
        10          0          0          0          0         68   _sputc.o
       228          4        148          0          0         96   bigflt0.o
      1936        128          0          0          0        672   btod.o
        10          0          0          0          0         68   defsig_exit.o
        50          0          0          0          0         88   defsig_general.o
        80         58          0          0          0         76   defsig_rtmem_inner.o
        14          0          0          0          0         80   defsig_rtmem_outer.o
        52         38          0          0          0         76   defsig_rtred_inner.o
        14          0          0          0          0         80   defsig_rtred_outer.o
        18          0          0          0          0         80   exit.o
        76          0          0          0          0         88   fclose.o
         8          0          0          0          0         68   ferror.o
       470          0          0          0          0         88   flsbuf.o
       240          6          0          0          0        128   fopen.o
        26          0          0          0          0         68   fputc.o
       248          6          0          0          0         84   fseek.o
        66          0          0          0          0         76   ftell.o
        94          0          0          0          0         80   h1_alloc.o
        52          0          0          0          0         68   h1_extend.o
        78          0          0          0          0         80   h1_free.o
        14          0          0          0          0         84   h1_init.o
         6          0          0          0          0        152   heapauxi.o
         4          0          0          0          0        136   hguard.o
       138          0          0          0          0        168   init_alloc.o
       312         46          0          0          0        112   initio.o
        44         10         28          0          0         76   lc_numeric_c.o
         2          0          0          0          0          0   libinit.o
        34          0          0          0          0          0   libinit2.o
         2          0          0          0          0          0   libshutdown.o
         6          0          0          0          0          0   libshutdown2.o
         8          4          0          0         96         68   libspace.o
       138          0          0          0          0         80   lludiv10.o
       240          0          0          0          0        100   lludivv7m.o
         0          0          0          0          0          0   maybetermalloc1.o
        44          4          0          0          0         84   puts.o
         8          4          0          0          0         68   rt_errno_addr_intlibspace.o
         8          4          0          0          0         68   rt_heap_descriptor_intlibspace.o
         8          4          0          0          0         68   rt_locale_intlibspace.o
        78          0          0          0          0         80   rt_memclr_w.o
         2          0          0          0          0          0   rtexit.o
        10          0          0          0          0          0   rtexit2.o
        70          0          0          0          0         80   setvbuf.o
       240          6          0          0          0        156   stdio.o
         0          0          0         12        252          0   stdio_streams.o
       124          0          0          0          0         88   strcmpv7em.o
        74          0          0          0          0         80   sys_stackheap_outer.o
         2          0          0          0          0         68   use_no_semi.o
         2          0          0          0          0         68   use_no_semi_2.o
        98          4          0          0          0        140   d2f.o
       804         16          0          0          0        376   daddsub_clz.o
       688        140          0          0          0        264   ddiv.o
        38          0          0          0          0        116   dflt_clz.o
       340         12          0          0          0        152   dmul.o
       156          4          0          0          0        140   dnaninf.o
        12          0          0          0          0        116   dretinf.o
        86          4          0          0          0        132   f2d.o
       134          4          0          0          0        132   ffixll.o
        96          0          0          0          0        132   ffltll_clz.o
       140          4          0          0          0        132   fnaninf.o
        26          0          0          0          0        116   fpinit.o
       244          8          0          0          0        132   frem_clz.o
        10          0          0          0          0        116   fretinf.o
         4          0          0          0          0        116   printf1.o
         0          0          0          0          0          0   usenofp.o
       684         90          0          0          0        208   atan2f.o
       176          0          0          0          0        168   fmodf.o
        48          0          0          0          0        124   fpclassify.o
        38          0          0          0          0        116   fpclassifyf.o
        38         12          0          0          0        348   funder.o

    ----------------------------------------------------------------------
     11476        680        176         12        348       8632   Library Totals
        38          0          0          0          0          0   (incl. Padding)

    ----------------------------------------------------------------------

      Code (inc. data)   RO Data    RW Data    ZI Data      Debug   Library Name

      7578        382        176         12        348       5356   c_w.l
      2876        196          0          0          0       2312   fz_wm.l
       984        102          0          0          0        964   m_wm.l

    ----------------------------------------------------------------------
     11476        680        176         12        348       8632   Library Totals

    ----------------------------------------------------------------------

==============================================================================


      Code (inc. data)   RO Data    RW Data    ZI Data      Debug   

     30376       1162       1784         92      35820     218719   Grand Totals
     30376       1162       1784         92      35820     218719   ELF Image Totals
     30376       1162       1784         92          0          0   ROM Totals

==============================================================================

    Total RO  Size (Code + RO Data)                32160 (  31.41kB)
    Total RW  Size (RW Data + ZI Data)             35912 (  35.07kB)
    Total ROM Size (Code + RO Data + RW Data)      32252 (  31.50kB)

==============================================================================

